{
	"data": {
		"bytecode": {
			"linkReferences": {},
			"object": "608060405234801561000f575f5ffd5b5060405161311438038061311483398181016040528101906100319190610270565b335f73ffffffffffffffffffffffffffffffffffffffff168173ffffffffffffffffffffffffffffffffffffffff16036100a2575f6040517f1e4fbdf700000000000000000000000000000000000000000000000000000000815260040161009991906102bd565b60405180910390fd5b6100b18161011b60201b60201c565b50600180819055508160025f6101000a81548173ffffffffffffffffffffffffffffffffffffffff021916908373ffffffffffffffffffffffffffffffffffffffff16021790555080600260146101000a81548160ff021916908360ff16021790555050506102d6565b5f5f5f9054906101000a900473ffffffffffffffffffffffffffffffffffffffff169050815f5f6101000a81548173ffffffffffffffffffffffffffffffffffffffff021916908373ffffffffffffffffffffffffffffffffffffffff1602179055508173ffffffffffffffffffffffffffffffffffffffff168173ffffffffffffffffffffffffffffffffffffffff167f8be0079c531659141344cd1fd0a4f28419497f9722a3daafe3b4186f6b6457e060405160405180910390a35050565b5f5ffd5b5f73ffffffffffffffffffffffffffffffffffffffff82169050919050565b5f610209826101e0565b9050919050565b610219816101ff565b8114610223575f5ffd5b50565b5f8151905061023481610210565b92915050565b5f60ff82169050919050565b61024f8161023a565b8114610259575f5ffd5b50565b5f8151905061026a81610246565b92915050565b5f5f60408385031215610286576102856101dc565b5b5f61029385828601610226565b92505060206102a48582860161025c565b9150509250929050565b6102b7816101ff565b82525050565b5f6020820190506102d05f8301846102ae565b92915050565b612e31806102e35f395ff3fe608060405234801561000f575f5ffd5b506004361061018c575f3560e01c80637bb1ca19116100dc578063a789b01f11610095578063cda3948f1161006f578063cda3948f14610462578063ebf959e41461046c578063f2fde38b14610488578063feb8b43b146104a45761018c565b8063a789b01f14610408578063a9ed3d2914610438578063c970e99f146104585761018c565b80637bb1ca19146103165780638201b3f314610346578063821c0576146103765780638da5cb5b1461038057806392a88fa21461039e578063a43fde3a146103d15761018c565b8063552e2edf11610149578063608e4dd011610123578063608e4dd0146102a4578063715018a6146102c057806372bf1747146102ca5780637547c7a3146102fa5761018c565b8063552e2edf1461024e5780635cc78faf1461026a5780635f292cd7146102885761018c565b806301b3e6251461019057806303186eef146101ac5780630f573a73146101dc5780631896b1af146101f85780633ffcf5ab1461021457806346c3469e14610232575b5f5ffd5b6101aa60048036038101906101a59190611e73565b6104c0565b005b6101c660048036038101906101c19190611f0b565b610562565b6040516101d39190611f45565b60405180910390f35b6101f660048036038101906101f19190611f94565b610577565b005b610212600480360381019061020d9190611fbf565b6105f9565b005b61021c6107f2565b6040516102299190612032565b60405180910390f35b61024c6004803603810190610247919061204b565b610805565b005b6102686004803603810190610263919061212c565b610991565b005b610272610adb565b60405161027f9190612205565b60405180910390f35b6102a2600480360381019061029d919061221e565b610b00565b005b6102be60048036038101906102b9919061204b565b610bcc565b005b6102c8610d94565b005b6102e460048036038101906102df9190611f0b565b610da7565b6040516102f19190612032565b60405180910390f35b610314600480360381019061030f919061204b565b610ea0565b005b610330600480360381019061032b9190611f0b565b6110d0565b60405161033d9190611f45565b60405180910390f35b610360600480360381019061035b919061204b565b6110e5565b60405161036d9190612032565b60405180910390f35b61037e61112b565b005b610388611295565b604051610395919061226b565b60405180910390f35b6103b860048036038101906103b39190611f0b565b6112bc565b6040516103c89493929190612284565b60405180910390f35b6103eb60048036038101906103e6919061204b565b6112e8565b6040516103ff9897969594939291906122d6565b60405180910390f35b610422600480360381019061041d9190612352565b611364565b60405161042f9190611f45565b60405180910390f35b6104406113c9565b60405161044f939291906123a2565b60405180910390f35b610460611417565b005b61046a611633565b005b6104866004803603810190610481919061242c565b6117bc565b005b6104a2600480360381019061049d9190611f0b565b611991565b005b6104be60048036038101906104b9919061204b565b611a15565b005b5f60075f8481526020019081526020015f209050806004015442111561051b576040517f08c379a0000000000000000000000000000000000000000000000000000000008152600401610512906124d1565b60405180910390fd5b8115610541576001816002015f828254610535919061251c565b9250508190555061055d565b6001816003015f828254610555919061251c565b925050819055505b505050565b6005602052805f5260405f205f915090505481565b61057f611c5c565b60035f0160159054906101000a900460ff1660ff168160ff1611156105d9576040517f08c379a00000000000000000000000000000000000000000000000000000000081526004016105d090612599565b60405180910390fd5b8060035f0160146101000a81548160ff021916908360ff16021790555050565b5f60075f8681526020019081526020015f205f01541461064e576040517f08c379a000000000000000000000000000000000000000000000000000000000815260040161064590612601565b60405180910390fd5b6040518061010001604052808581526020013373ffffffffffffffffffffffffffffffffffffffff1681526020018460ff1681526020015f81526020015f8152602001834261069d919061251c565b81526020018284426106af919061251c565b6106b9919061251c565b81526020015f151581525060075f8681526020019081526020015f205f820151815f01556020820151816001015f6101000a81548173ffffffffffffffffffffffffffffffffffffffff021916908373ffffffffffffffffffffffffffffffffffffffff16021790555060408201518160010160146101000a81548160ff021916908360ff160217905550606082015181600201556080820151816003015560a0820151816004015560c0820151816005015560e0820151816006015f6101000a81548160ff0219169083151502179055509050507f87e85754eef35e696416d1787d3adb2684f8755d9052aab6b6a4acff231f1105843384426107bd919061251c565b8486426107ca919061251c565b6107d4919061251c565b6040516107e4949392919061261f565b60405180910390a150505050565b600260149054906101000a900460ff1681565b5f60075f8381526020019081526020015f2090508060050154421015610860576040517f08c379a0000000000000000000000000000000000000000000000000000000008152600401610857906126ac565b60405180910390fd5b806006015f9054906101000a900460ff16156108b1576040517f08c379a00000000000000000000000000000000000000000000000000000000081526004016108a890612714565b60405180910390fd5b80600301548160020154116108fb576040517f08c379a00000000000000000000000000000000000000000000000000000000081526004016108f29061277c565b60405180910390fd5b8060010160149054906101000a900460ff16600260146101000a81548160ff021916908360ff1602179055506001816006015f6101000a81548160ff0219169083151502179055507f6e223d5f7773cbdb9521ce8494c05f833e1518ee33349cc811bf339633bc0dab828260010160149054906101000a900460ff1660405161098592919061279a565b60405180910390a15050565b8181905084849050146109d9576040517f08c379a00000000000000000000000000000000000000000000000000000000081526004016109d09061280b565b60405180910390fd5b5f5f90505b84849050811015610ad4575f60075f878785818110610a00576109ff612829565b5b9050602002013581526020019081526020015f2090508060040154421115610a5d576040517f08c379a0000000000000000000000000000000000000000000000000000000008152600401610a54906128a0565b60405180910390fd5b838383818110610a7057610a6f612829565b5b9050602002016020810190610a8591906128be565b15610aaa576001816002015f828254610a9e919061251c565b92505081905550610ac6565b6001816003015f828254610abe919061251c565b925050819055505b5080806001019150506109de565b5050505050565b60025f9054906101000a900473ffffffffffffffffffffffffffffffffffffffff1681565b610b08611c5c565b60405180606001604052803373ffffffffffffffffffffffffffffffffffffffff1681526020018360ff1681526020018260ff1681525060035f820151815f015f6101000a81548173ffffffffffffffffffffffffffffffffffffffff021916908373ffffffffffffffffffffffffffffffffffffffff1602179055506020820151815f0160146101000a81548160ff021916908360ff1602179055506040820151815f0160156101000a81548160ff021916908360ff1602179055509050505050565b610bd4611ce3565b5f60045f3373ffffffffffffffffffffffffffffffffffffffff1673ffffffffffffffffffffffffffffffffffffffff1681526020019081526020015f2090508181600201541015610c5b576040517f08c379a0000000000000000000000000000000000000000000000000000000008152600401610c5290612933565b60405180910390fd5b5f610c6b82600301544285611364565b90505f8184610c7a9190612951565b905083836002015f828254610c8f9190612951565b925050819055505f836002015403610cab575f83600301819055505b60025f9054906101000a900473ffffffffffffffffffffffffffffffffffffffff1673ffffffffffffffffffffffffffffffffffffffff1663a9059cbb33836040518363ffffffff1660e01b8152600401610d07929190612984565b6020604051808303815f875af1158015610d23573d5f5f3e3d5ffd5b505050506040513d601f19601f82011682018060405250810190610d4791906129bf565b610d86576040517f08c379a0000000000000000000000000000000000000000000000000000000008152600401610d7d90612a34565b60405180910390fd5b505050610d91611d32565b50565b610d9c611c5c565b610da55f611d3b565b565b5f5f60025f9054906101000a900473ffffffffffffffffffffffffffffffffffffffff1673ffffffffffffffffffffffffffffffffffffffff166370a08231846040518263ffffffff1660e01b8152600401610e03919061226b565b602060405180830381865afa158015610e1e573d5f5f3e3d5ffd5b505050506040513d601f19601f82011682018060405250810190610e429190612a66565b905069d3c21bcecceda10000008110610e5f576001915050610e9b565b6969e10de76676d08000008110610e7a576002915050610e9b565b69152d02c7e14af68000008110610e95576003915050610e9b565b60059150505b919050565b610ea8611ce3565b6201518060065f3373ffffffffffffffffffffffffffffffffffffffff1673ffffffffffffffffffffffffffffffffffffffff1681526020019081526020015f205442610ef59190612951565b1015610f36576040517f08c379a0000000000000000000000000000000000000000000000000000000008152600401610f2d90612adb565b60405180910390fd5b60025f9054906101000a900473ffffffffffffffffffffffffffffffffffffffff1673ffffffffffffffffffffffffffffffffffffffff166323b872dd3330846040518463ffffffff1660e01b8152600401610f9493929190612af9565b6020604051808303815f875af1158015610fb0573d5f5f3e3d5ffd5b505050506040513d601f19601f82011682018060405250810190610fd491906129bf565b611013576040517f08c379a000000000000000000000000000000000000000000000000000000000815260040161100a90612a34565b60405180910390fd5b5f60045f3373ffffffffffffffffffffffffffffffffffffffff1673ffffffffffffffffffffffffffffffffffffffff1681526020019081526020015f20905081816002015f828254611066919061251c565b925050819055505f816003015403611082574281600301819055505b4260065f3373ffffffffffffffffffffffffffffffffffffffff1673ffffffffffffffffffffffffffffffffffffffff1681526020019081526020015f2081905550506110cd611d32565b50565b6006602052805f5260405f205f915090505481565b5f6305f5e10082106110fa5760059050611126565b6302faf080821061110e5760039050611126565b6298968082106111215760029050611126565b600190505b919050565b611133611ce3565b5f60045f3373ffffffffffffffffffffffffffffffffffffffff1673ffffffffffffffffffffffffffffffffffffffff1681526020019081526020015f2090505f6103e860035f0160149054906101000a900460ff1660ff16835f015461119a9190612b2e565b6111a49190612b9c565b90505f6111b3835f01546110e5565b90505f8160ff16836111c59190612b2e565b90505f845f018190555060025f9054906101000a900473ffffffffffffffffffffffffffffffffffffffff1673ffffffffffffffffffffffffffffffffffffffff166340c10f1930836040518363ffffffff1660e01b815260040161122b929190612984565b5f604051808303815f87803b158015611242575f5ffd5b505af1158015611254573d5f5f3e3d5ffd5b5050505080846002015f82825461126b919061251c565b925050819055505f846003015403611287574284600301819055505b50505050611293611d32565b565b5f5f5f9054906101000a900473ffffffffffffffffffffffffffffffffffffffff16905090565b6004602052805f5260405f205f91509050805f0154908060010154908060020154908060030154905084565b6007602052805f5260405f205f91509050805f015490806001015f9054906101000a900473ffffffffffffffffffffffffffffffffffffffff16908060010160149054906101000a900460ff1690806002015490806003015490806004015490806005015490806006015f9054906101000a900460ff16905088565b5f5f84846113729190612951565b90505f62093a8082101561138957600a90506113a3565b6212750082101561139d57600590506113a2565b600290505b5b60648160ff16856113b49190612b2e565b6113be9190612b9c565b925050509392505050565b6003805f015f9054906101000a900473ffffffffffffffffffffffffffffffffffffffff1690805f0160149054906101000a900460ff1690805f0160159054906101000a900460ff16905083565b61141f611c5c565b611427611ce3565b5f60025f9054906101000a900473ffffffffffffffffffffffffffffffffffffffff1673ffffffffffffffffffffffffffffffffffffffff166370a08231306040518263ffffffff1660e01b8152600401611482919061226b565b602060405180830381865afa15801561149d573d5f5f3e3d5ffd5b505050506040513d601f19601f820116820180604052508101906114c19190612a66565b90505f8111611505576040517f08c379a00000000000000000000000000000000000000000000000000000000081526004016114fc90612c16565b60405180910390fd5b5f600a826115139190612b9c565b905060025f9054906101000a900473ffffffffffffffffffffffffffffffffffffffff1673ffffffffffffffffffffffffffffffffffffffff1663a9059cbb5f836040518363ffffffff1660e01b8152600401611571929190612984565b6020604051808303815f875af115801561158d573d5f5f3e3d5ffd5b505050506040513d601f19601f820116820180604052508101906115b191906129bf565b6115f0576040517f08c379a00000000000000000000000000000000000000000000000000000000081526004016115e790612c7e565b60405180910390fd5b7f6ef4855b666dcc7884561072e4358b28dfe01feb1b7f4dcebc00e62d50394ac78160405161161f9190611f45565b60405180910390a15050611631611d32565b565b61163b611ce3565b5f60045f3373ffffffffffffffffffffffffffffffffffffffff1673ffffffffffffffffffffffffffffffffffffffff1681526020019081526020015f2090505f6103e860035f0160149054906101000a900460ff1660ff16835f01546116a29190612b2e565b6116ac9190612b9c565b90505f6116bb835f01546110e5565b90505f8160ff16836116cd9190612b2e565b90505f845f018190555060025f9054906101000a900473ffffffffffffffffffffffffffffffffffffffff1673ffffffffffffffffffffffffffffffffffffffff166340c10f1933836040518363ffffffff1660e01b8152600401611733929190612984565b5f604051808303815f87803b15801561174a575f5ffd5b505af115801561175c573d5f5f3e3d5ffd5b505050503373ffffffffffffffffffffffffffffffffffffffff167f8ec2a9ed236322c625516e43eab59fcb8145e38ee8d489a28d0aacaeecc298d6826040516117a69190611f45565b60405180910390a2505050506117ba611d32565b565b6117c4611ce3565b5f5f90505b82829050811015611984575f8383838181106117e8576117e7612829565b5b90506020020160208101906117fd9190611f0b565b90505f60045f8373ffffffffffffffffffffffffffffffffffffffff1673ffffffffffffffffffffffffffffffffffffffff1681526020019081526020015f2090505f6103e860035f0160149054906101000a900460ff1660ff16835f01546118669190612b2e565b6118709190612b9c565b90505f61187f835f01546110e5565b90505f8160ff16836118919190612b2e565b90505f845f018190555060025f9054906101000a900473ffffffffffffffffffffffffffffffffffffffff1673ffffffffffffffffffffffffffffffffffffffff166340c10f1986836040518363ffffffff1660e01b81526004016118f7929190612984565b5f604051808303815f87803b15801561190e575f5ffd5b505af1158015611920573d5f5f3e3d5ffd5b505050508473ffffffffffffffffffffffffffffffffffffffff167ffaf36c8625a33cce6b8f49b647deed99dbb0b8cc5a4e92c37a49c18ef44483898260405161196a9190611f45565b60405180910390a2505050505080806001019150506117c9565b5061198d611d32565b5050565b611999611c5c565b5f73ffffffffffffffffffffffffffffffffffffffff168173ffffffffffffffffffffffffffffffffffffffff1603611a09575f6040517f1e4fbdf7000000000000000000000000000000000000000000000000000000008152600401611a00919061226b565b60405180910390fd5b611a1281611d3b565b50565b6005805f3373ffffffffffffffffffffffffffffffffffffffff1673ffffffffffffffffffffffffffffffffffffffff1681526020019081526020015f205442611a5f9190612951565b1015611aa0576040517f08c379a0000000000000000000000000000000000000000000000000000000008152600401611a9790612ce6565b60405180910390fd5b620f424081118015611afa5750600a60055f3373ffffffffffffffffffffffffffffffffffffffff1673ffffffffffffffffffffffffffffffffffffffff1681526020019081526020015f205442611af89190612951565b105b15611b3a576040517f08c379a0000000000000000000000000000000000000000000000000000000008152600401611b3190612d4e565b60405180910390fd5b4260055f3373ffffffffffffffffffffffffffffffffffffffff1673ffffffffffffffffffffffffffffffffffffffff1681526020019081526020015f20819055505f60045f3373ffffffffffffffffffffffffffffffffffffffff1673ffffffffffffffffffffffffffffffffffffffff1681526020019081526020015f20905062015180816001015442611bd09190612951565b10611be25781815f0181905550611bfc565b81815f015f828254611bf4919061251c565b925050819055505b4281600101819055503373ffffffffffffffffffffffffffffffffffffffff167fe1c33b09de310b5512c81ba8e74dc8c0cff829f9de557c89f8ef10cbf8ca4d6e83835f0154604051611c50929190612d6c565b60405180910390a25050565b611c64611dfc565b73ffffffffffffffffffffffffffffffffffffffff16611c82611295565b73ffffffffffffffffffffffffffffffffffffffff1614611ce157611ca5611dfc565b6040517f118cdaa7000000000000000000000000000000000000000000000000000000008152600401611cd8919061226b565b60405180910390fd5b565b600260015403611d28576040517f08c379a0000000000000000000000000000000000000000000000000000000008152600401611d1f90612ddd565b60405180910390fd5b6002600181905550565b60018081905550565b5f5f5f9054906101000a900473ffffffffffffffffffffffffffffffffffffffff169050815f5f6101000a81548173ffffffffffffffffffffffffffffffffffffffff021916908373ffffffffffffffffffffffffffffffffffffffff1602179055508173ffffffffffffffffffffffffffffffffffffffff168173ffffffffffffffffffffffffffffffffffffffff167f8be0079c531659141344cd1fd0a4f28419497f9722a3daafe3b4186f6b6457e060405160405180910390a35050565b5f33905090565b5f5ffd5b5f5ffd5b5f819050919050565b611e1d81611e0b565b8114611e27575f5ffd5b50565b5f81359050611e3881611e14565b92915050565b5f8115159050919050565b611e5281611e3e565b8114611e5c575f5ffd5b50565b5f81359050611e6d81611e49565b92915050565b5f5f60408385031215611e8957611e88611e03565b5b5f611e9685828601611e2a565b9250506020611ea785828601611e5f565b9150509250929050565b5f73ffffffffffffffffffffffffffffffffffffffff82169050919050565b5f611eda82611eb1565b9050919050565b611eea81611ed0565b8114611ef4575f5ffd5b50565b5f81359050611f0581611ee1565b92915050565b5f60208284031215611f2057611f1f611e03565b5b5f611f2d84828501611ef7565b91505092915050565b611f3f81611e0b565b82525050565b5f602082019050611f585f830184611f36565b92915050565b5f60ff82169050919050565b611f7381611f5e565b8114611f7d575f5ffd5b50565b5f81359050611f8e81611f6a565b92915050565b5f60208284031215611fa957611fa8611e03565b5b5f611fb684828501611f80565b91505092915050565b5f5f5f5f60808587031215611fd757611fd6611e03565b5b5f611fe487828801611e2a565b9450506020611ff587828801611f80565b935050604061200687828801611e2a565b925050606061201787828801611e2a565b91505092959194509250565b61202c81611f5e565b82525050565b5f6020820190506120455f830184612023565b92915050565b5f602082840312156120605761205f611e03565b5b5f61206d84828501611e2a565b91505092915050565b5f5ffd5b5f5ffd5b5f5ffd5b5f5f83601f84011261209757612096612076565b5b8235905067ffffffffffffffff8111156120b4576120b361207a565b5b6020830191508360208202830111156120d0576120cf61207e565b5b9250929050565b5f5f83601f8401126120ec576120eb612076565b5b8235905067ffffffffffffffff8111156121095761210861207a565b5b6020830191508360208202830111156121255761212461207e565b5b9250929050565b5f5f5f5f6040858703121561214457612143611e03565b5b5f85013567ffffffffffffffff81111561216157612160611e07565b5b61216d87828801612082565b9450945050602085013567ffffffffffffffff8111156121905761218f611e07565b5b61219c878288016120d7565b925092505092959194509250565b5f819050919050565b5f6121cd6121c86121c384611eb1565b6121aa565b611eb1565b9050919050565b5f6121de826121b3565b9050919050565b5f6121ef826121d4565b9050919050565b6121ff816121e5565b82525050565b5f6020820190506122185f8301846121f6565b92915050565b5f5f6040838503121561223457612233611e03565b5b5f61224185828601611f80565b925050602061225285828601611f80565b9150509250929050565b61226581611ed0565b82525050565b5f60208201905061227e5f83018461225c565b92915050565b5f6080820190506122975f830187611f36565b6122a46020830186611f36565b6122b16040830185611f36565b6122be6060830184611f36565b95945050505050565b6122d081611e3e565b82525050565b5f610100820190506122ea5f83018b611f36565b6122f7602083018a61225c565b6123046040830189612023565b6123116060830188611f36565b61231e6080830187611f36565b61232b60a0830186611f36565b61233860c0830185611f36565b61234560e08301846122c7565b9998505050505050505050565b5f5f5f6060848603121561236957612368611e03565b5b5f61237686828701611e2a565b935050602061238786828701611e2a565b925050604061239886828701611e2a565b9150509250925092565b5f6060820190506123b55f83018661225c565b6123c26020830185612023565b6123cf6040830184612023565b949350505050565b5f5f83601f8401126123ec576123eb612076565b5b8235905067ffffffffffffffff8111156124095761240861207a565b5b6020830191508360208202830111156124255761242461207e565b5b9250929050565b5f5f6020838503121561244257612441611e03565b5b5f83013567ffffffffffffffff81111561245f5761245e611e07565b5b61246b858286016123d7565b92509250509250929050565b5f82825260208201905092915050565b7f566f74696e6720706572696f64206f76657200000000000000000000000000005f82015250565b5f6124bb601283612477565b91506124c682612487565b602082019050919050565b5f6020820190508181035f8301526124e8816124af565b9050919050565b7f4e487b71000000000000000000000000000000000000000000000000000000005f52601160045260245ffd5b5f61252682611e0b565b915061253183611e0b565b9250828201905080821115612549576125486124ef565b5b92915050565b7f496e76616c6964207265626174652072617465000000000000000000000000005f82015250565b5f612583601383612477565b915061258e8261254f565b602082019050919050565b5f6020820190508181035f8301526125b081612577565b9050919050565b7f50726f706f73616c20616c7265616479206578697374730000000000000000005f82015250565b5f6125eb601783612477565b91506125f6826125b7565b602082019050919050565b5f6020820190508181035f830152612618816125df565b9050919050565b5f6080820190506126325f830187611f36565b61263f602083018661225c565b61264c6040830185611f36565b6126596060830184611f36565b95945050505050565b7f54696d65206c6f636b20616374697665000000000000000000000000000000005f82015250565b5f612696601083612477565b91506126a182612662565b602082019050919050565b5f6020820190508181035f8301526126c38161268a565b9050919050565b7f416c7265616479206578656375746564000000000000000000000000000000005f82015250565b5f6126fe601083612477565b9150612709826126ca565b602082019050919050565b5f6020820190508181035f83015261272b816126f2565b9050919050565b7f44414f2070726f706f73616c2072656a656374656400000000000000000000005f82015250565b5f612766601583612477565b915061277182612732565b602082019050919050565b5f6020820190508181035f8301526127938161275a565b9050919050565b5f6040820190506127ad5f830185611f36565b6127ba6020830184612023565b9392505050565b7f4d69736d61746368656420696e707574730000000000000000000000000000005f82015250565b5f6127f5601183612477565b9150612800826127c1565b602082019050919050565b5f6020820190508181035f830152612822816127e9565b9050919050565b7f4e487b71000000000000000000000000000000000000000000000000000000005f52603260045260245ffd5b7f566f74696e6720706572696f64206f76657220666f722070726f706f73616c005f82015250565b5f61288a601f83612477565b915061289582612856565b602082019050919050565b5f6020820190508181035f8301526128b78161287e565b9050919050565b5f602082840312156128d3576128d2611e03565b5b5f6128e084828501611e5f565b91505092915050565b7f496e73756666696369656e74207374616b656420746f6b656e730000000000005f82015250565b5f61291d601a83612477565b9150612928826128e9565b602082019050919050565b5f6020820190508181035f83015261294a81612911565b9050919050565b5f61295b82611e0b565b915061296683611e0b565b925082820390508181111561297e5761297d6124ef565b5b92915050565b5f6040820190506129975f83018561225c565b6129a46020830184611f36565b9392505050565b5f815190506129b981611e49565b92915050565b5f602082840312156129d4576129d3611e03565b5b5f6129e1848285016129ab565b91505092915050565b7f546f6b656e207472616e73666572206661696c656400000000000000000000005f82015250565b5f612a1e601583612477565b9150612a29826129ea565b602082019050919050565b5f6020820190508181035f830152612a4b81612a12565b9050919050565b5f81519050612a6081611e14565b92915050565b5f60208284031215612a7b57612a7a611e03565b5b5f612a8884828501612a52565b91505092915050565b7f466c617368206c6f616e206465746563746564000000000000000000000000005f82015250565b5f612ac5601383612477565b9150612ad082612a91565b602082019050919050565b5f6020820190508181035f830152612af281612ab9565b9050919050565b5f606082019050612b0c5f83018661225c565b612b19602083018561225c565b612b266040830184611f36565b949350505050565b5f612b3882611e0b565b9150612b4383611e0b565b9250828202612b5181611e0b565b91508282048414831517612b6857612b676124ef565b5b5092915050565b7f4e487b71000000000000000000000000000000000000000000000000000000005f52601260045260245ffd5b5f612ba682611e0b565b9150612bb183611e0b565b925082612bc157612bc0612b6f565b5b828204905092915050565b7f4e6f20746f6b656e7320617661696c61626c65000000000000000000000000005f82015250565b5f612c00601383612477565b9150612c0b82612bcc565b602082019050919050565b5f6020820190508181035f830152612c2d81612bf4565b9050919050565b7f4275726e207472616e73666572206661696c65640000000000000000000000005f82015250565b5f612c68601483612477565b9150612c7382612c34565b602082019050919050565b5f6020820190508181035f830152612c9581612c5c565b9050919050565b7f5472616465732061726520746f6f206672657175656e740000000000000000005f82015250565b5f612cd0601783612477565b9150612cdb82612c9c565b602082019050919050565b5f6020820190508181035f830152612cfd81612cc4565b9050919050565b7f506f74656e7469616c20776173682074726164696e67206465746563746564005f82015250565b5f612d38601f83612477565b9150612d4382612d04565b602082019050919050565b5f6020820190508181035f830152612d6581612d2c565b9050919050565b5f604082019050612d7f5f830185611f36565b612d8c6020830184611f36565b9392505050565b7f5265656e7472616e637947756172643a207265656e7472616e742063616c6c005f82015250565b5f612dc7601f83612477565b9150612dd282612d93565b602082019050919050565b5f6020820190508181035f830152612df481612dbb565b905091905056fea26469706673582212201c692970bcfde657ec77f5a9583e5da386d6ac7350cd000162e482da8e84a59a64736f6c634300081c0033",
			"opcodes": "PUSH1 0x80 PUSH1 0x40 MSTORE CALLVALUE DUP1 ISZERO PUSH2 0xF JUMPI PUSH0 PUSH0 REVERT JUMPDEST POP PUSH1 0x40 MLOAD PUSH2 0x3114 CODESIZE SUB DUP1 PUSH2 0x3114 DUP4 CODECOPY DUP2 DUP2 ADD PUSH1 0x40 MSTORE DUP2 ADD SWAP1 PUSH2 0x31 SWAP2 SWAP1 PUSH2 0x270 JUMP JUMPDEST CALLER PUSH0 PUSH20 0xFFFFFFFFFFFFFFFFFFFFFFFFFFFFFFFFFFFFFFFF AND DUP2 PUSH20 0xFFFFFFFFFFFFFFFFFFFFFFFFFFFFFFFFFFFFFFFF AND SUB PUSH2 0xA2 JUMPI PUSH0 PUSH1 0x40 MLOAD PUSH32 0x1E4FBDF700000000000000000000000000000000000000000000000000000000 DUP2 MSTORE PUSH1 0x4 ADD PUSH2 0x99 SWAP2 SWAP1 PUSH2 0x2BD JUMP JUMPDEST PUSH1 0x40 MLOAD DUP1 SWAP2 SUB SWAP1 REVERT JUMPDEST PUSH2 0xB1 DUP2 PUSH2 0x11B PUSH1 0x20 SHL PUSH1 0x20 SHR JUMP JUMPDEST POP PUSH1 0x1 DUP1 DUP2 SWAP1 SSTORE POP DUP2 PUSH1 0x2 PUSH0 PUSH2 0x100 EXP DUP2 SLOAD DUP2 PUSH20 0xFFFFFFFFFFFFFFFFFFFFFFFFFFFFFFFFFFFFFFFF MUL NOT AND SWAP1 DUP4 PUSH20 0xFFFFFFFFFFFFFFFFFFFFFFFFFFFFFFFFFFFFFFFF AND MUL OR SWAP1 SSTORE POP DUP1 PUSH1 0x2 PUSH1 0x14 PUSH2 0x100 EXP DUP2 SLOAD DUP2 PUSH1 0xFF MUL NOT AND SWAP1 DUP4 PUSH1 0xFF AND MUL OR SWAP1 SSTORE POP POP POP PUSH2 0x2D6 JUMP JUMPDEST PUSH0 PUSH0 PUSH0 SWAP1 SLOAD SWAP1 PUSH2 0x100 EXP SWAP1 DIV PUSH20 0xFFFFFFFFFFFFFFFFFFFFFFFFFFFFFFFFFFFFFFFF AND SWAP1 POP DUP2 PUSH0 PUSH0 PUSH2 0x100 EXP DUP2 SLOAD DUP2 PUSH20 0xFFFFFFFFFFFFFFFFFFFFFFFFFFFFFFFFFFFFFFFF MUL NOT AND SWAP1 DUP4 PUSH20 0xFFFFFFFFFFFFFFFFFFFFFFFFFFFFFFFFFFFFFFFF AND MUL OR SWAP1 SSTORE POP DUP2 PUSH20 0xFFFFFFFFFFFFFFFFFFFFFFFFFFFFFFFFFFFFFFFF AND DUP2 PUSH20 0xFFFFFFFFFFFFFFFFFFFFFFFFFFFFFFFFFFFFFFFF AND PUSH32 0x8BE0079C531659141344CD1FD0A4F28419497F9722A3DAAFE3B4186F6B6457E0 PUSH1 0x40 MLOAD PUSH1 0x40 MLOAD DUP1 SWAP2 SUB SWAP1 LOG3 POP POP JUMP JUMPDEST PUSH0 PUSH0 REVERT JUMPDEST PUSH0 PUSH20 0xFFFFFFFFFFFFFFFFFFFFFFFFFFFFFFFFFFFFFFFF DUP3 AND SWAP1 POP SWAP2 SWAP1 POP JUMP JUMPDEST PUSH0 PUSH2 0x209 DUP3 PUSH2 0x1E0 JUMP JUMPDEST SWAP1 POP SWAP2 SWAP1 POP JUMP JUMPDEST PUSH2 0x219 DUP2 PUSH2 0x1FF JUMP JUMPDEST DUP2 EQ PUSH2 0x223 JUMPI PUSH0 PUSH0 REVERT JUMPDEST POP JUMP JUMPDEST PUSH0 DUP2 MLOAD SWAP1 POP PUSH2 0x234 DUP2 PUSH2 0x210 JUMP JUMPDEST SWAP3 SWAP2 POP POP JUMP JUMPDEST PUSH0 PUSH1 0xFF DUP3 AND SWAP1 POP SWAP2 SWAP1 POP JUMP JUMPDEST PUSH2 0x24F DUP2 PUSH2 0x23A JUMP JUMPDEST DUP2 EQ PUSH2 0x259 JUMPI PUSH0 PUSH0 REVERT JUMPDEST POP JUMP JUMPDEST PUSH0 DUP2 MLOAD SWAP1 POP PUSH2 0x26A DUP2 PUSH2 0x246 JUMP JUMPDEST SWAP3 SWAP2 POP POP JUMP JUMPDEST PUSH0 PUSH0 PUSH1 0x40 DUP4 DUP6 SUB SLT ISZERO PUSH2 0x286 JUMPI PUSH2 0x285 PUSH2 0x1DC JUMP JUMPDEST JUMPDEST PUSH0 PUSH2 0x293 DUP6 DUP3 DUP7 ADD PUSH2 0x226 JUMP JUMPDEST SWAP3 POP POP PUSH1 0x20 PUSH2 0x2A4 DUP6 DUP3 DUP7 ADD PUSH2 0x25C JUMP JUMPDEST SWAP2 POP POP SWAP3 POP SWAP3 SWAP1 POP JUMP JUMPDEST PUSH2 0x2B7 DUP2 PUSH2 0x1FF JUMP JUMPDEST DUP3 MSTORE POP POP JUMP JUMPDEST PUSH0 PUSH1 0x20 DUP3 ADD SWAP1 POP PUSH2 0x2D0 PUSH0 DUP4 ADD DUP5 PUSH2 0x2AE JUMP JUMPDEST SWAP3 SWAP2 POP POP JUMP JUMPDEST PUSH2 0x2E31 DUP1 PUSH2 0x2E3 PUSH0 CODECOPY PUSH0 RETURN INVALID PUSH1 0x80 PUSH1 0x40 MSTORE CALLVALUE DUP1 ISZERO PUSH2 0xF JUMPI PUSH0 PUSH0 REVERT JUMPDEST POP PUSH1 0x4 CALLDATASIZE LT PUSH2 0x18C JUMPI PUSH0 CALLDATALOAD PUSH1 0xE0 SHR DUP1 PUSH4 0x7BB1CA19 GT PUSH2 0xDC JUMPI DUP1 PUSH4 0xA789B01F GT PUSH2 0x95 JUMPI DUP1 PUSH4 0xCDA3948F GT PUSH2 0x6F JUMPI DUP1 PUSH4 0xCDA3948F EQ PUSH2 0x462 JUMPI DUP1 PUSH4 0xEBF959E4 EQ PUSH2 0x46C JUMPI DUP1 PUSH4 0xF2FDE38B EQ PUSH2 0x488 JUMPI DUP1 PUSH4 0xFEB8B43B EQ PUSH2 0x4A4 JUMPI PUSH2 0x18C JUMP JUMPDEST DUP1 PUSH4 0xA789B01F EQ PUSH2 0x408 JUMPI DUP1 PUSH4 0xA9ED3D29 EQ PUSH2 0x438 JUMPI DUP1 PUSH4 0xC970E99F EQ PUSH2 0x458 JUMPI PUSH2 0x18C JUMP JUMPDEST DUP1 PUSH4 0x7BB1CA19 EQ PUSH2 0x316 JUMPI DUP1 PUSH4 0x8201B3F3 EQ PUSH2 0x346 JUMPI DUP1 PUSH4 0x821C0576 EQ PUSH2 0x376 JUMPI DUP1 PUSH4 0x8DA5CB5B EQ PUSH2 0x380 JUMPI DUP1 PUSH4 0x92A88FA2 EQ PUSH2 0x39E JUMPI DUP1 PUSH4 0xA43FDE3A EQ PUSH2 0x3D1 JUMPI PUSH2 0x18C JUMP JUMPDEST DUP1 PUSH4 0x552E2EDF GT PUSH2 0x149 JUMPI DUP1 PUSH4 0x608E4DD0 GT PUSH2 0x123 JUMPI DUP1 PUSH4 0x608E4DD0 EQ PUSH2 0x2A4 JUMPI DUP1 PUSH4 0x715018A6 EQ PUSH2 0x2C0 JUMPI DUP1 PUSH4 0x72BF1747 EQ PUSH2 0x2CA JUMPI DUP1 PUSH4 0x7547C7A3 EQ PUSH2 0x2FA JUMPI PUSH2 0x18C JUMP JUMPDEST DUP1 PUSH4 0x552E2EDF EQ PUSH2 0x24E JUMPI DUP1 PUSH4 0x5CC78FAF EQ PUSH2 0x26A JUMPI DUP1 PUSH4 0x5F292CD7 EQ PUSH2 0x288 JUMPI PUSH2 0x18C JUMP JUMPDEST DUP1 PUSH4 0x1B3E625 EQ PUSH2 0x190 JUMPI DUP1 PUSH4 0x3186EEF EQ PUSH2 0x1AC JUMPI DUP1 PUSH4 0xF573A73 EQ PUSH2 0x1DC JUMPI DUP1 PUSH4 0x1896B1AF EQ PUSH2 0x1F8 JUMPI DUP1 PUSH4 0x3FFCF5AB EQ PUSH2 0x214 JUMPI DUP1 PUSH4 0x46C3469E EQ PUSH2 0x232 JUMPI JUMPDEST PUSH0 PUSH0 REVERT JUMPDEST PUSH2 0x1AA PUSH1 0x4 DUP1 CALLDATASIZE SUB DUP2 ADD SWAP1 PUSH2 0x1A5 SWAP2 SWAP1 PUSH2 0x1E73 JUMP JUMPDEST PUSH2 0x4C0 JUMP JUMPDEST STOP JUMPDEST PUSH2 0x1C6 PUSH1 0x4 DUP1 CALLDATASIZE SUB DUP2 ADD SWAP1 PUSH2 0x1C1 SWAP2 SWAP1 PUSH2 0x1F0B JUMP JUMPDEST PUSH2 0x562 JUMP JUMPDEST PUSH1 0x40 MLOAD PUSH2 0x1D3 SWAP2 SWAP1 PUSH2 0x1F45 JUMP JUMPDEST PUSH1 0x40 MLOAD DUP1 SWAP2 SUB SWAP1 RETURN JUMPDEST PUSH2 0x1F6 PUSH1 0x4 DUP1 CALLDATASIZE SUB DUP2 ADD SWAP1 PUSH2 0x1F1 SWAP2 SWAP1 PUSH2 0x1F94 JUMP JUMPDEST PUSH2 0x577 JUMP JUMPDEST STOP JUMPDEST PUSH2 0x212 PUSH1 0x4 DUP1 CALLDATASIZE SUB DUP2 ADD SWAP1 PUSH2 0x20D SWAP2 SWAP1 PUSH2 0x1FBF JUMP JUMPDEST PUSH2 0x5F9 JUMP JUMPDEST STOP JUMPDEST PUSH2 0x21C PUSH2 0x7F2 JUMP JUMPDEST PUSH1 0x40 MLOAD PUSH2 0x229 SWAP2 SWAP1 PUSH2 0x2032 JUMP JUMPDEST PUSH1 0x40 MLOAD DUP1 SWAP2 SUB SWAP1 RETURN JUMPDEST PUSH2 0x24C PUSH1 0x4 DUP1 CALLDATASIZE SUB DUP2 ADD SWAP1 PUSH2 0x247 SWAP2 SWAP1 PUSH2 0x204B JUMP JUMPDEST PUSH2 0x805 JUMP JUMPDEST STOP JUMPDEST PUSH2 0x268 PUSH1 0x4 DUP1 CALLDATASIZE SUB DUP2 ADD SWAP1 PUSH2 0x263 SWAP2 SWAP1 PUSH2 0x212C JUMP JUMPDEST PUSH2 0x991 JUMP JUMPDEST STOP JUMPDEST PUSH2 0x272 PUSH2 0xADB JUMP JUMPDEST PUSH1 0x40 MLOAD PUSH2 0x27F SWAP2 SWAP1 PUSH2 0x2205 JUMP JUMPDEST PUSH1 0x40 MLOAD DUP1 SWAP2 SUB SWAP1 RETURN JUMPDEST PUSH2 0x2A2 PUSH1 0x4 DUP1 CALLDATASIZE SUB DUP2 ADD SWAP1 PUSH2 0x29D SWAP2 SWAP1 PUSH2 0x221E JUMP JUMPDEST PUSH2 0xB00 JUMP JUMPDEST STOP JUMPDEST PUSH2 0x2BE PUSH1 0x4 DUP1 CALLDATASIZE SUB DUP2 ADD SWAP1 PUSH2 0x2B9 SWAP2 SWAP1 PUSH2 0x204B JUMP JUMPDEST PUSH2 0xBCC JUMP JUMPDEST STOP JUMPDEST PUSH2 0x2C8 PUSH2 0xD94 JUMP JUMPDEST STOP JUMPDEST PUSH2 0x2E4 PUSH1 0x4 DUP1 CALLDATASIZE SUB DUP2 ADD SWAP1 PUSH2 0x2DF SWAP2 SWAP1 PUSH2 0x1F0B JUMP JUMPDEST PUSH2 0xDA7 JUMP JUMPDEST PUSH1 0x40 MLOAD PUSH2 0x2F1 SWAP2 SWAP1 PUSH2 0x2032 JUMP JUMPDEST PUSH1 0x40 MLOAD DUP1 SWAP2 SUB SWAP1 RETURN JUMPDEST PUSH2 0x314 PUSH1 0x4 DUP1 CALLDATASIZE SUB DUP2 ADD SWAP1 PUSH2 0x30F SWAP2 SWAP1 PUSH2 0x204B JUMP JUMPDEST PUSH2 0xEA0 JUMP JUMPDEST STOP JUMPDEST PUSH2 0x330 PUSH1 0x4 DUP1 CALLDATASIZE SUB DUP2 ADD SWAP1 PUSH2 0x32B SWAP2 SWAP1 PUSH2 0x1F0B JUMP JUMPDEST PUSH2 0x10D0 JUMP JUMPDEST PUSH1 0x40 MLOAD PUSH2 0x33D SWAP2 SWAP1 PUSH2 0x1F45 JUMP JUMPDEST PUSH1 0x40 MLOAD DUP1 SWAP2 SUB SWAP1 RETURN JUMPDEST PUSH2 0x360 PUSH1 0x4 DUP1 CALLDATASIZE SUB DUP2 ADD SWAP1 PUSH2 0x35B SWAP2 SWAP1 PUSH2 0x204B JUMP JUMPDEST PUSH2 0x10E5 JUMP JUMPDEST PUSH1 0x40 MLOAD PUSH2 0x36D SWAP2 SWAP1 PUSH2 0x2032 JUMP JUMPDEST PUSH1 0x40 MLOAD DUP1 SWAP2 SUB SWAP1 RETURN JUMPDEST PUSH2 0x37E PUSH2 0x112B JUMP JUMPDEST STOP JUMPDEST PUSH2 0x388 PUSH2 0x1295 JUMP JUMPDEST PUSH1 0x40 MLOAD PUSH2 0x395 SWAP2 SWAP1 PUSH2 0x226B JUMP JUMPDEST PUSH1 0x40 MLOAD DUP1 SWAP2 SUB SWAP1 RETURN JUMPDEST PUSH2 0x3B8 PUSH1 0x4 DUP1 CALLDATASIZE SUB DUP2 ADD SWAP1 PUSH2 0x3B3 SWAP2 SWAP1 PUSH2 0x1F0B JUMP JUMPDEST PUSH2 0x12BC JUMP JUMPDEST PUSH1 0x40 MLOAD PUSH2 0x3C8 SWAP5 SWAP4 SWAP3 SWAP2 SWAP1 PUSH2 0x2284 JUMP JUMPDEST PUSH1 0x40 MLOAD DUP1 SWAP2 SUB SWAP1 RETURN JUMPDEST PUSH2 0x3EB PUSH1 0x4 DUP1 CALLDATASIZE SUB DUP2 ADD SWAP1 PUSH2 0x3E6 SWAP2 SWAP1 PUSH2 0x204B JUMP JUMPDEST PUSH2 0x12E8 JUMP JUMPDEST PUSH1 0x40 MLOAD PUSH2 0x3FF SWAP9 SWAP8 SWAP7 SWAP6 SWAP5 SWAP4 SWAP3 SWAP2 SWAP1 PUSH2 0x22D6 JUMP JUMPDEST PUSH1 0x40 MLOAD DUP1 SWAP2 SUB SWAP1 RETURN JUMPDEST PUSH2 0x422 PUSH1 0x4 DUP1 CALLDATASIZE SUB DUP2 ADD SWAP1 PUSH2 0x41D SWAP2 SWAP1 PUSH2 0x2352 JUMP JUMPDEST PUSH2 0x1364 JUMP JUMPDEST PUSH1 0x40 MLOAD PUSH2 0x42F SWAP2 SWAP1 PUSH2 0x1F45 JUMP JUMPDEST PUSH1 0x40 MLOAD DUP1 SWAP2 SUB SWAP1 RETURN JUMPDEST PUSH2 0x440 PUSH2 0x13C9 JUMP JUMPDEST PUSH1 0x40 MLOAD PUSH2 0x44F SWAP4 SWAP3 SWAP2 SWAP1 PUSH2 0x23A2 JUMP JUMPDEST PUSH1 0x40 MLOAD DUP1 SWAP2 SUB SWAP1 RETURN JUMPDEST PUSH2 0x460 PUSH2 0x1417 JUMP JUMPDEST STOP JUMPDEST PUSH2 0x46A PUSH2 0x1633 JUMP JUMPDEST STOP JUMPDEST PUSH2 0x486 PUSH1 0x4 DUP1 CALLDATASIZE SUB DUP2 ADD SWAP1 PUSH2 0x481 SWAP2 SWAP1 PUSH2 0x242C JUMP JUMPDEST PUSH2 0x17BC JUMP JUMPDEST STOP JUMPDEST PUSH2 0x4A2 PUSH1 0x4 DUP1 CALLDATASIZE SUB DUP2 ADD SWAP1 PUSH2 0x49D SWAP2 SWAP1 PUSH2 0x1F0B JUMP JUMPDEST PUSH2 0x1991 JUMP JUMPDEST STOP JUMPDEST PUSH2 0x4BE PUSH1 0x4 DUP1 CALLDATASIZE SUB DUP2 ADD SWAP1 PUSH2 0x4B9 SWAP2 SWAP1 PUSH2 0x204B JUMP JUMPDEST PUSH2 0x1A15 JUMP JUMPDEST STOP JUMPDEST PUSH0 PUSH1 0x7 PUSH0 DUP5 DUP2 MSTORE PUSH1 0x20 ADD SWAP1 DUP2 MSTORE PUSH1 0x20 ADD PUSH0 KECCAK256 SWAP1 POP DUP1 PUSH1 0x4 ADD SLOAD TIMESTAMP GT ISZERO PUSH2 0x51B JUMPI PUSH1 0x40 MLOAD PUSH32 0x8C379A000000000000000000000000000000000000000000000000000000000 DUP2 MSTORE PUSH1 0x4 ADD PUSH2 0x512 SWAP1 PUSH2 0x24D1 JUMP JUMPDEST PUSH1 0x40 MLOAD DUP1 SWAP2 SUB SWAP1 REVERT JUMPDEST DUP2 ISZERO PUSH2 0x541 JUMPI PUSH1 0x1 DUP2 PUSH1 0x2 ADD PUSH0 DUP3 DUP3 SLOAD PUSH2 0x535 SWAP2 SWAP1 PUSH2 0x251C JUMP JUMPDEST SWAP3 POP POP DUP2 SWAP1 SSTORE POP PUSH2 0x55D JUMP JUMPDEST PUSH1 0x1 DUP2 PUSH1 0x3 ADD PUSH0 DUP3 DUP3 SLOAD PUSH2 0x555 SWAP2 SWAP1 PUSH2 0x251C JUMP JUMPDEST SWAP3 POP POP DUP2 SWAP1 SSTORE POP JUMPDEST POP POP POP JUMP JUMPDEST PUSH1 0x5 PUSH1 0x20 MSTORE DUP1 PUSH0 MSTORE PUSH1 0x40 PUSH0 KECCAK256 PUSH0 SWAP2 POP SWAP1 POP SLOAD DUP2 JUMP JUMPDEST PUSH2 0x57F PUSH2 0x1C5C JUMP JUMPDEST PUSH1 0x3 PUSH0 ADD PUSH1 0x15 SWAP1 SLOAD SWAP1 PUSH2 0x100 EXP SWAP1 DIV PUSH1 0xFF AND PUSH1 0xFF AND DUP2 PUSH1 0xFF AND GT ISZERO PUSH2 0x5D9 JUMPI PUSH1 0x40 MLOAD PUSH32 0x8C379A000000000000000000000000000000000000000000000000000000000 DUP2 MSTORE PUSH1 0x4 ADD PUSH2 0x5D0 SWAP1 PUSH2 0x2599 JUMP JUMPDEST PUSH1 0x40 MLOAD DUP1 SWAP2 SUB SWAP1 REVERT JUMPDEST DUP1 PUSH1 0x3 PUSH0 ADD PUSH1 0x14 PUSH2 0x100 EXP DUP2 SLOAD DUP2 PUSH1 0xFF MUL NOT AND SWAP1 DUP4 PUSH1 0xFF AND MUL OR SWAP1 SSTORE POP POP JUMP JUMPDEST PUSH0 PUSH1 0x7 PUSH0 DUP7 DUP2 MSTORE PUSH1 0x20 ADD SWAP1 DUP2 MSTORE PUSH1 0x20 ADD PUSH0 KECCAK256 PUSH0 ADD SLOAD EQ PUSH2 0x64E JUMPI PUSH1 0x40 MLOAD PUSH32 0x8C379A000000000000000000000000000000000000000000000000000000000 DUP2 MSTORE PUSH1 0x4 ADD PUSH2 0x645 SWAP1 PUSH2 0x2601 JUMP JUMPDEST PUSH1 0x40 MLOAD DUP1 SWAP2 SUB SWAP1 REVERT JUMPDEST PUSH1 0x40 MLOAD DUP1 PUSH2 0x100 ADD PUSH1 0x40 MSTORE DUP1 DUP6 DUP2 MSTORE PUSH1 0x20 ADD CALLER PUSH20 0xFFFFFFFFFFFFFFFFFFFFFFFFFFFFFFFFFFFFFFFF AND DUP2 MSTORE PUSH1 0x20 ADD DUP5 PUSH1 0xFF AND DUP2 MSTORE PUSH1 0x20 ADD PUSH0 DUP2 MSTORE PUSH1 0x20 ADD PUSH0 DUP2 MSTORE PUSH1 0x20 ADD DUP4 TIMESTAMP PUSH2 0x69D SWAP2 SWAP1 PUSH2 0x251C JUMP JUMPDEST DUP2 MSTORE PUSH1 0x20 ADD DUP3 DUP5 TIMESTAMP PUSH2 0x6AF SWAP2 SWAP1 PUSH2 0x251C JUMP JUMPDEST PUSH2 0x6B9 SWAP2 SWAP1 PUSH2 0x251C JUMP JUMPDEST DUP2 MSTORE PUSH1 0x20 ADD PUSH0 ISZERO ISZERO DUP2 MSTORE POP PUSH1 0x7 PUSH0 DUP7 DUP2 MSTORE PUSH1 0x20 ADD SWAP1 DUP2 MSTORE PUSH1 0x20 ADD PUSH0 KECCAK256 PUSH0 DUP3 ADD MLOAD DUP2 PUSH0 ADD SSTORE PUSH1 0x20 DUP3 ADD MLOAD DUP2 PUSH1 0x1 ADD PUSH0 PUSH2 0x100 EXP DUP2 SLOAD DUP2 PUSH20 0xFFFFFFFFFFFFFFFFFFFFFFFFFFFFFFFFFFFFFFFF MUL NOT AND SWAP1 DUP4 PUSH20 0xFFFFFFFFFFFFFFFFFFFFFFFFFFFFFFFFFFFFFFFF AND MUL OR SWAP1 SSTORE POP PUSH1 0x40 DUP3 ADD MLOAD DUP2 PUSH1 0x1 ADD PUSH1 0x14 PUSH2 0x100 EXP DUP2 SLOAD DUP2 PUSH1 0xFF MUL NOT AND SWAP1 DUP4 PUSH1 0xFF AND MUL OR SWAP1 SSTORE POP PUSH1 0x60 DUP3 ADD MLOAD DUP2 PUSH1 0x2 ADD SSTORE PUSH1 0x80 DUP3 ADD MLOAD DUP2 PUSH1 0x3 ADD SSTORE PUSH1 0xA0 DUP3 ADD MLOAD DUP2 PUSH1 0x4 ADD SSTORE PUSH1 0xC0 DUP3 ADD MLOAD DUP2 PUSH1 0x5 ADD SSTORE PUSH1 0xE0 DUP3 ADD MLOAD DUP2 PUSH1 0x6 ADD PUSH0 PUSH2 0x100 EXP DUP2 SLOAD DUP2 PUSH1 0xFF MUL NOT AND SWAP1 DUP4 ISZERO ISZERO MUL OR SWAP1 SSTORE POP SWAP1 POP POP PUSH32 0x87E85754EEF35E696416D1787D3ADB2684F8755D9052AAB6B6A4ACFF231F1105 DUP5 CALLER DUP5 TIMESTAMP PUSH2 0x7BD SWAP2 SWAP1 PUSH2 0x251C JUMP JUMPDEST DUP5 DUP7 TIMESTAMP PUSH2 0x7CA SWAP2 SWAP1 PUSH2 0x251C JUMP JUMPDEST PUSH2 0x7D4 SWAP2 SWAP1 PUSH2 0x251C JUMP JUMPDEST PUSH1 0x40 MLOAD PUSH2 0x7E4 SWAP5 SWAP4 SWAP3 SWAP2 SWAP1 PUSH2 0x261F JUMP JUMPDEST PUSH1 0x40 MLOAD DUP1 SWAP2 SUB SWAP1 LOG1 POP POP POP POP JUMP JUMPDEST PUSH1 0x2 PUSH1 0x14 SWAP1 SLOAD SWAP1 PUSH2 0x100 EXP SWAP1 DIV PUSH1 0xFF AND DUP2 JUMP JUMPDEST PUSH0 PUSH1 0x7 PUSH0 DUP4 DUP2 MSTORE PUSH1 0x20 ADD SWAP1 DUP2 MSTORE PUSH1 0x20 ADD PUSH0 KECCAK256 SWAP1 POP DUP1 PUSH1 0x5 ADD SLOAD TIMESTAMP LT ISZERO PUSH2 0x860 JUMPI PUSH1 0x40 MLOAD PUSH32 0x8C379A000000000000000000000000000000000000000000000000000000000 DUP2 MSTORE PUSH1 0x4 ADD PUSH2 0x857 SWAP1 PUSH2 0x26AC JUMP JUMPDEST PUSH1 0x40 MLOAD DUP1 SWAP2 SUB SWAP1 REVERT JUMPDEST DUP1 PUSH1 0x6 ADD PUSH0 SWAP1 SLOAD SWAP1 PUSH2 0x100 EXP SWAP1 DIV PUSH1 0xFF AND ISZERO PUSH2 0x8B1 JUMPI PUSH1 0x40 MLOAD PUSH32 0x8C379A000000000000000000000000000000000000000000000000000000000 DUP2 MSTORE PUSH1 0x4 ADD PUSH2 0x8A8 SWAP1 PUSH2 0x2714 JUMP JUMPDEST PUSH1 0x40 MLOAD DUP1 SWAP2 SUB SWAP1 REVERT JUMPDEST DUP1 PUSH1 0x3 ADD SLOAD DUP2 PUSH1 0x2 ADD SLOAD GT PUSH2 0x8FB JUMPI PUSH1 0x40 MLOAD PUSH32 0x8C379A000000000000000000000000000000000000000000000000000000000 DUP2 MSTORE PUSH1 0x4 ADD PUSH2 0x8F2 SWAP1 PUSH2 0x277C JUMP JUMPDEST PUSH1 0x40 MLOAD DUP1 SWAP2 SUB SWAP1 REVERT JUMPDEST DUP1 PUSH1 0x1 ADD PUSH1 0x14 SWAP1 SLOAD SWAP1 PUSH2 0x100 EXP SWAP1 DIV PUSH1 0xFF AND PUSH1 0x2 PUSH1 0x14 PUSH2 0x100 EXP DUP2 SLOAD DUP2 PUSH1 0xFF MUL NOT AND SWAP1 DUP4 PUSH1 0xFF AND MUL OR SWAP1 SSTORE POP PUSH1 0x1 DUP2 PUSH1 0x6 ADD PUSH0 PUSH2 0x100 EXP DUP2 SLOAD DUP2 PUSH1 0xFF MUL NOT AND SWAP1 DUP4 ISZERO ISZERO MUL OR SWAP1 SSTORE POP PUSH32 0x6E223D5F7773CBDB9521CE8494C05F833E1518EE33349CC811BF339633BC0DAB DUP3 DUP3 PUSH1 0x1 ADD PUSH1 0x14 SWAP1 SLOAD SWAP1 PUSH2 0x100 EXP SWAP1 DIV PUSH1 0xFF AND PUSH1 0x40 MLOAD PUSH2 0x985 SWAP3 SWAP2 SWAP1 PUSH2 0x279A JUMP JUMPDEST PUSH1 0x40 MLOAD DUP1 SWAP2 SUB SWAP1 LOG1 POP POP JUMP JUMPDEST DUP2 DUP2 SWAP1 POP DUP5 DUP5 SWAP1 POP EQ PUSH2 0x9D9 JUMPI PUSH1 0x40 MLOAD PUSH32 0x8C379A000000000000000000000000000000000000000000000000000000000 DUP2 MSTORE PUSH1 0x4 ADD PUSH2 0x9D0 SWAP1 PUSH2 0x280B JUMP JUMPDEST PUSH1 0x40 MLOAD DUP1 SWAP2 SUB SWAP1 REVERT JUMPDEST PUSH0 PUSH0 SWAP1 POP JUMPDEST DUP5 DUP5 SWAP1 POP DUP2 LT ISZERO PUSH2 0xAD4 JUMPI PUSH0 PUSH1 0x7 PUSH0 DUP8 DUP8 DUP6 DUP2 DUP2 LT PUSH2 0xA00 JUMPI PUSH2 0x9FF PUSH2 0x2829 JUMP JUMPDEST JUMPDEST SWAP1 POP PUSH1 0x20 MUL ADD CALLDATALOAD DUP2 MSTORE PUSH1 0x20 ADD SWAP1 DUP2 MSTORE PUSH1 0x20 ADD PUSH0 KECCAK256 SWAP1 POP DUP1 PUSH1 0x4 ADD SLOAD TIMESTAMP GT ISZERO PUSH2 0xA5D JUMPI PUSH1 0x40 MLOAD PUSH32 0x8C379A000000000000000000000000000000000000000000000000000000000 DUP2 MSTORE PUSH1 0x4 ADD PUSH2 0xA54 SWAP1 PUSH2 0x28A0 JUMP JUMPDEST PUSH1 0x40 MLOAD DUP1 SWAP2 SUB SWAP1 REVERT JUMPDEST DUP4 DUP4 DUP4 DUP2 DUP2 LT PUSH2 0xA70 JUMPI PUSH2 0xA6F PUSH2 0x2829 JUMP JUMPDEST JUMPDEST SWAP1 POP PUSH1 0x20 MUL ADD PUSH1 0x20 DUP2 ADD SWAP1 PUSH2 0xA85 SWAP2 SWAP1 PUSH2 0x28BE JUMP JUMPDEST ISZERO PUSH2 0xAAA JUMPI PUSH1 0x1 DUP2 PUSH1 0x2 ADD PUSH0 DUP3 DUP3 SLOAD PUSH2 0xA9E SWAP2 SWAP1 PUSH2 0x251C JUMP JUMPDEST SWAP3 POP POP DUP2 SWAP1 SSTORE POP PUSH2 0xAC6 JUMP JUMPDEST PUSH1 0x1 DUP2 PUSH1 0x3 ADD PUSH0 DUP3 DUP3 SLOAD PUSH2 0xABE SWAP2 SWAP1 PUSH2 0x251C JUMP JUMPDEST SWAP3 POP POP DUP2 SWAP1 SSTORE POP JUMPDEST POP DUP1 DUP1 PUSH1 0x1 ADD SWAP2 POP POP PUSH2 0x9DE JUMP JUMPDEST POP POP POP POP POP JUMP JUMPDEST PUSH1 0x2 PUSH0 SWAP1 SLOAD SWAP1 PUSH2 0x100 EXP SWAP1 DIV PUSH20 0xFFFFFFFFFFFFFFFFFFFFFFFFFFFFFFFFFFFFFFFF AND DUP2 JUMP JUMPDEST PUSH2 0xB08 PUSH2 0x1C5C JUMP JUMPDEST PUSH1 0x40 MLOAD DUP1 PUSH1 0x60 ADD PUSH1 0x40 MSTORE DUP1 CALLER PUSH20 0xFFFFFFFFFFFFFFFFFFFFFFFFFFFFFFFFFFFFFFFF AND DUP2 MSTORE PUSH1 0x20 ADD DUP4 PUSH1 0xFF AND DUP2 MSTORE PUSH1 0x20 ADD DUP3 PUSH1 0xFF AND DUP2 MSTORE POP PUSH1 0x3 PUSH0 DUP3 ADD MLOAD DUP2 PUSH0 ADD PUSH0 PUSH2 0x100 EXP DUP2 SLOAD DUP2 PUSH20 0xFFFFFFFFFFFFFFFFFFFFFFFFFFFFFFFFFFFFFFFF MUL NOT AND SWAP1 DUP4 PUSH20 0xFFFFFFFFFFFFFFFFFFFFFFFFFFFFFFFFFFFFFFFF AND MUL OR SWAP1 SSTORE POP PUSH1 0x20 DUP3 ADD MLOAD DUP2 PUSH0 ADD PUSH1 0x14 PUSH2 0x100 EXP DUP2 SLOAD DUP2 PUSH1 0xFF MUL NOT AND SWAP1 DUP4 PUSH1 0xFF AND MUL OR SWAP1 SSTORE POP PUSH1 0x40 DUP3 ADD MLOAD DUP2 PUSH0 ADD PUSH1 0x15 PUSH2 0x100 EXP DUP2 SLOAD DUP2 PUSH1 0xFF MUL NOT AND SWAP1 DUP4 PUSH1 0xFF AND MUL OR SWAP1 SSTORE POP SWAP1 POP POP POP POP JUMP JUMPDEST PUSH2 0xBD4 PUSH2 0x1CE3 JUMP JUMPDEST PUSH0 PUSH1 0x4 PUSH0 CALLER PUSH20 0xFFFFFFFFFFFFFFFFFFFFFFFFFFFFFFFFFFFFFFFF AND PUSH20 0xFFFFFFFFFFFFFFFFFFFFFFFFFFFFFFFFFFFFFFFF AND DUP2 MSTORE PUSH1 0x20 ADD SWAP1 DUP2 MSTORE PUSH1 0x20 ADD PUSH0 KECCAK256 SWAP1 POP DUP2 DUP2 PUSH1 0x2 ADD SLOAD LT ISZERO PUSH2 0xC5B JUMPI PUSH1 0x40 MLOAD PUSH32 0x8C379A000000000000000000000000000000000000000000000000000000000 DUP2 MSTORE PUSH1 0x4 ADD PUSH2 0xC52 SWAP1 PUSH2 0x2933 JUMP JUMPDEST PUSH1 0x40 MLOAD DUP1 SWAP2 SUB SWAP1 REVERT JUMPDEST PUSH0 PUSH2 0xC6B DUP3 PUSH1 0x3 ADD SLOAD TIMESTAMP DUP6 PUSH2 0x1364 JUMP JUMPDEST SWAP1 POP PUSH0 DUP2 DUP5 PUSH2 0xC7A SWAP2 SWAP1 PUSH2 0x2951 JUMP JUMPDEST SWAP1 POP DUP4 DUP4 PUSH1 0x2 ADD PUSH0 DUP3 DUP3 SLOAD PUSH2 0xC8F SWAP2 SWAP1 PUSH2 0x2951 JUMP JUMPDEST SWAP3 POP POP DUP2 SWAP1 SSTORE POP PUSH0 DUP4 PUSH1 0x2 ADD SLOAD SUB PUSH2 0xCAB JUMPI PUSH0 DUP4 PUSH1 0x3 ADD DUP2 SWAP1 SSTORE POP JUMPDEST PUSH1 0x2 PUSH0 SWAP1 SLOAD SWAP1 PUSH2 0x100 EXP SWAP1 DIV PUSH20 0xFFFFFFFFFFFFFFFFFFFFFFFFFFFFFFFFFFFFFFFF AND PUSH20 0xFFFFFFFFFFFFFFFFFFFFFFFFFFFFFFFFFFFFFFFF AND PUSH4 0xA9059CBB CALLER DUP4 PUSH1 0x40 MLOAD DUP4 PUSH4 0xFFFFFFFF AND PUSH1 0xE0 SHL DUP2 MSTORE PUSH1 0x4 ADD PUSH2 0xD07 SWAP3 SWAP2 SWAP1 PUSH2 0x2984 JUMP JUMPDEST PUSH1 0x20 PUSH1 0x40 MLOAD DUP1 DUP4 SUB DUP2 PUSH0 DUP8 GAS CALL ISZERO DUP1 ISZERO PUSH2 0xD23 JUMPI RETURNDATASIZE PUSH0 PUSH0 RETURNDATACOPY RETURNDATASIZE PUSH0 REVERT JUMPDEST POP POP POP POP PUSH1 0x40 MLOAD RETURNDATASIZE PUSH1 0x1F NOT PUSH1 0x1F DUP3 ADD AND DUP3 ADD DUP1 PUSH1 0x40 MSTORE POP DUP2 ADD SWAP1 PUSH2 0xD47 SWAP2 SWAP1 PUSH2 0x29BF JUMP JUMPDEST PUSH2 0xD86 JUMPI PUSH1 0x40 MLOAD PUSH32 0x8C379A000000000000000000000000000000000000000000000000000000000 DUP2 MSTORE PUSH1 0x4 ADD PUSH2 0xD7D SWAP1 PUSH2 0x2A34 JUMP JUMPDEST PUSH1 0x40 MLOAD DUP1 SWAP2 SUB SWAP1 REVERT JUMPDEST POP POP POP PUSH2 0xD91 PUSH2 0x1D32 JUMP JUMPDEST POP JUMP JUMPDEST PUSH2 0xD9C PUSH2 0x1C5C JUMP JUMPDEST PUSH2 0xDA5 PUSH0 PUSH2 0x1D3B JUMP JUMPDEST JUMP JUMPDEST PUSH0 PUSH0 PUSH1 0x2 PUSH0 SWAP1 SLOAD SWAP1 PUSH2 0x100 EXP SWAP1 DIV PUSH20 0xFFFFFFFFFFFFFFFFFFFFFFFFFFFFFFFFFFFFFFFF AND PUSH20 0xFFFFFFFFFFFFFFFFFFFFFFFFFFFFFFFFFFFFFFFF AND PUSH4 0x70A08231 DUP5 PUSH1 0x40 MLOAD DUP3 PUSH4 0xFFFFFFFF AND PUSH1 0xE0 SHL DUP2 MSTORE PUSH1 0x4 ADD PUSH2 0xE03 SWAP2 SWAP1 PUSH2 0x226B JUMP JUMPDEST PUSH1 0x20 PUSH1 0x40 MLOAD DUP1 DUP4 SUB DUP2 DUP7 GAS STATICCALL ISZERO DUP1 ISZERO PUSH2 0xE1E JUMPI RETURNDATASIZE PUSH0 PUSH0 RETURNDATACOPY RETURNDATASIZE PUSH0 REVERT JUMPDEST POP POP POP POP PUSH1 0x40 MLOAD RETURNDATASIZE PUSH1 0x1F NOT PUSH1 0x1F DUP3 ADD AND DUP3 ADD DUP1 PUSH1 0x40 MSTORE POP DUP2 ADD SWAP1 PUSH2 0xE42 SWAP2 SWAP1 PUSH2 0x2A66 JUMP JUMPDEST SWAP1 POP PUSH10 0xD3C21BCECCEDA1000000 DUP2 LT PUSH2 0xE5F JUMPI PUSH1 0x1 SWAP2 POP POP PUSH2 0xE9B JUMP JUMPDEST PUSH10 0x69E10DE76676D0800000 DUP2 LT PUSH2 0xE7A JUMPI PUSH1 0x2 SWAP2 POP POP PUSH2 0xE9B JUMP JUMPDEST PUSH10 0x152D02C7E14AF6800000 DUP2 LT PUSH2 0xE95 JUMPI PUSH1 0x3 SWAP2 POP POP PUSH2 0xE9B JUMP JUMPDEST PUSH1 0x5 SWAP2 POP POP JUMPDEST SWAP2 SWAP1 POP JUMP JUMPDEST PUSH2 0xEA8 PUSH2 0x1CE3 JUMP JUMPDEST PUSH3 0x15180 PUSH1 0x6 PUSH0 CALLER PUSH20 0xFFFFFFFFFFFFFFFFFFFFFFFFFFFFFFFFFFFFFFFF AND PUSH20 0xFFFFFFFFFFFFFFFFFFFFFFFFFFFFFFFFFFFFFFFF AND DUP2 MSTORE PUSH1 0x20 ADD SWAP1 DUP2 MSTORE PUSH1 0x20 ADD PUSH0 KECCAK256 SLOAD TIMESTAMP PUSH2 0xEF5 SWAP2 SWAP1 PUSH2 0x2951 JUMP JUMPDEST LT ISZERO PUSH2 0xF36 JUMPI PUSH1 0x40 MLOAD PUSH32 0x8C379A000000000000000000000000000000000000000000000000000000000 DUP2 MSTORE PUSH1 0x4 ADD PUSH2 0xF2D SWAP1 PUSH2 0x2ADB JUMP JUMPDEST PUSH1 0x40 MLOAD DUP1 SWAP2 SUB SWAP1 REVERT JUMPDEST PUSH1 0x2 PUSH0 SWAP1 SLOAD SWAP1 PUSH2 0x100 EXP SWAP1 DIV PUSH20 0xFFFFFFFFFFFFFFFFFFFFFFFFFFFFFFFFFFFFFFFF AND PUSH20 0xFFFFFFFFFFFFFFFFFFFFFFFFFFFFFFFFFFFFFFFF AND PUSH4 0x23B872DD CALLER ADDRESS DUP5 PUSH1 0x40 MLOAD DUP5 PUSH4 0xFFFFFFFF AND PUSH1 0xE0 SHL DUP2 MSTORE PUSH1 0x4 ADD PUSH2 0xF94 SWAP4 SWAP3 SWAP2 SWAP1 PUSH2 0x2AF9 JUMP JUMPDEST PUSH1 0x20 PUSH1 0x40 MLOAD DUP1 DUP4 SUB DUP2 PUSH0 DUP8 GAS CALL ISZERO DUP1 ISZERO PUSH2 0xFB0 JUMPI RETURNDATASIZE PUSH0 PUSH0 RETURNDATACOPY RETURNDATASIZE PUSH0 REVERT JUMPDEST POP POP POP POP PUSH1 0x40 MLOAD RETURNDATASIZE PUSH1 0x1F NOT PUSH1 0x1F DUP3 ADD AND DUP3 ADD DUP1 PUSH1 0x40 MSTORE POP DUP2 ADD SWAP1 PUSH2 0xFD4 SWAP2 SWAP1 PUSH2 0x29BF JUMP JUMPDEST PUSH2 0x1013 JUMPI PUSH1 0x40 MLOAD PUSH32 0x8C379A000000000000000000000000000000000000000000000000000000000 DUP2 MSTORE PUSH1 0x4 ADD PUSH2 0x100A SWAP1 PUSH2 0x2A34 JUMP JUMPDEST PUSH1 0x40 MLOAD DUP1 SWAP2 SUB SWAP1 REVERT JUMPDEST PUSH0 PUSH1 0x4 PUSH0 CALLER PUSH20 0xFFFFFFFFFFFFFFFFFFFFFFFFFFFFFFFFFFFFFFFF AND PUSH20 0xFFFFFFFFFFFFFFFFFFFFFFFFFFFFFFFFFFFFFFFF AND DUP2 MSTORE PUSH1 0x20 ADD SWAP1 DUP2 MSTORE PUSH1 0x20 ADD PUSH0 KECCAK256 SWAP1 POP DUP2 DUP2 PUSH1 0x2 ADD PUSH0 DUP3 DUP3 SLOAD PUSH2 0x1066 SWAP2 SWAP1 PUSH2 0x251C JUMP JUMPDEST SWAP3 POP POP DUP2 SWAP1 SSTORE POP PUSH0 DUP2 PUSH1 0x3 ADD SLOAD SUB PUSH2 0x1082 JUMPI TIMESTAMP DUP2 PUSH1 0x3 ADD DUP2 SWAP1 SSTORE POP JUMPDEST TIMESTAMP PUSH1 0x6 PUSH0 CALLER PUSH20 0xFFFFFFFFFFFFFFFFFFFFFFFFFFFFFFFFFFFFFFFF AND PUSH20 0xFFFFFFFFFFFFFFFFFFFFFFFFFFFFFFFFFFFFFFFF AND DUP2 MSTORE PUSH1 0x20 ADD SWAP1 DUP2 MSTORE PUSH1 0x20 ADD PUSH0 KECCAK256 DUP2 SWAP1 SSTORE POP POP PUSH2 0x10CD PUSH2 0x1D32 JUMP JUMPDEST POP JUMP JUMPDEST PUSH1 0x6 PUSH1 0x20 MSTORE DUP1 PUSH0 MSTORE PUSH1 0x40 PUSH0 KECCAK256 PUSH0 SWAP2 POP SWAP1 POP SLOAD DUP2 JUMP JUMPDEST PUSH0 PUSH4 0x5F5E100 DUP3 LT PUSH2 0x10FA JUMPI PUSH1 0x5 SWAP1 POP PUSH2 0x1126 JUMP JUMPDEST PUSH4 0x2FAF080 DUP3 LT PUSH2 0x110E JUMPI PUSH1 0x3 SWAP1 POP PUSH2 0x1126 JUMP JUMPDEST PUSH3 0x989680 DUP3 LT PUSH2 0x1121 JUMPI PUSH1 0x2 SWAP1 POP PUSH2 0x1126 JUMP JUMPDEST PUSH1 0x1 SWAP1 POP JUMPDEST SWAP2 SWAP1 POP JUMP JUMPDEST PUSH2 0x1133 PUSH2 0x1CE3 JUMP JUMPDEST PUSH0 PUSH1 0x4 PUSH0 CALLER PUSH20 0xFFFFFFFFFFFFFFFFFFFFFFFFFFFFFFFFFFFFFFFF AND PUSH20 0xFFFFFFFFFFFFFFFFFFFFFFFFFFFFFFFFFFFFFFFF AND DUP2 MSTORE PUSH1 0x20 ADD SWAP1 DUP2 MSTORE PUSH1 0x20 ADD PUSH0 KECCAK256 SWAP1 POP PUSH0 PUSH2 0x3E8 PUSH1 0x3 PUSH0 ADD PUSH1 0x14 SWAP1 SLOAD SWAP1 PUSH2 0x100 EXP SWAP1 DIV PUSH1 0xFF AND PUSH1 0xFF AND DUP4 PUSH0 ADD SLOAD PUSH2 0x119A SWAP2 SWAP1 PUSH2 0x2B2E JUMP JUMPDEST PUSH2 0x11A4 SWAP2 SWAP1 PUSH2 0x2B9C JUMP JUMPDEST SWAP1 POP PUSH0 PUSH2 0x11B3 DUP4 PUSH0 ADD SLOAD PUSH2 0x10E5 JUMP JUMPDEST SWAP1 POP PUSH0 DUP2 PUSH1 0xFF AND DUP4 PUSH2 0x11C5 SWAP2 SWAP1 PUSH2 0x2B2E JUMP JUMPDEST SWAP1 POP PUSH0 DUP5 PUSH0 ADD DUP2 SWAP1 SSTORE POP PUSH1 0x2 PUSH0 SWAP1 SLOAD SWAP1 PUSH2 0x100 EXP SWAP1 DIV PUSH20 0xFFFFFFFFFFFFFFFFFFFFFFFFFFFFFFFFFFFFFFFF AND PUSH20 0xFFFFFFFFFFFFFFFFFFFFFFFFFFFFFFFFFFFFFFFF AND PUSH4 0x40C10F19 ADDRESS DUP4 PUSH1 0x40 MLOAD DUP4 PUSH4 0xFFFFFFFF AND PUSH1 0xE0 SHL DUP2 MSTORE PUSH1 0x4 ADD PUSH2 0x122B SWAP3 SWAP2 SWAP1 PUSH2 0x2984 JUMP JUMPDEST PUSH0 PUSH1 0x40 MLOAD DUP1 DUP4 SUB DUP2 PUSH0 DUP8 DUP1 EXTCODESIZE ISZERO DUP1 ISZERO PUSH2 0x1242 JUMPI PUSH0 PUSH0 REVERT JUMPDEST POP GAS CALL ISZERO DUP1 ISZERO PUSH2 0x1254 JUMPI RETURNDATASIZE PUSH0 PUSH0 RETURNDATACOPY RETURNDATASIZE PUSH0 REVERT JUMPDEST POP POP POP POP DUP1 DUP5 PUSH1 0x2 ADD PUSH0 DUP3 DUP3 SLOAD PUSH2 0x126B SWAP2 SWAP1 PUSH2 0x251C JUMP JUMPDEST SWAP3 POP POP DUP2 SWAP1 SSTORE POP PUSH0 DUP5 PUSH1 0x3 ADD SLOAD SUB PUSH2 0x1287 JUMPI TIMESTAMP DUP5 PUSH1 0x3 ADD DUP2 SWAP1 SSTORE POP JUMPDEST POP POP POP POP PUSH2 0x1293 PUSH2 0x1D32 JUMP JUMPDEST JUMP JUMPDEST PUSH0 PUSH0 PUSH0 SWAP1 SLOAD SWAP1 PUSH2 0x100 EXP SWAP1 DIV PUSH20 0xFFFFFFFFFFFFFFFFFFFFFFFFFFFFFFFFFFFFFFFF AND SWAP1 POP SWAP1 JUMP JUMPDEST PUSH1 0x4 PUSH1 0x20 MSTORE DUP1 PUSH0 MSTORE PUSH1 0x40 PUSH0 KECCAK256 PUSH0 SWAP2 POP SWAP1 POP DUP1 PUSH0 ADD SLOAD SWAP1 DUP1 PUSH1 0x1 ADD SLOAD SWAP1 DUP1 PUSH1 0x2 ADD SLOAD SWAP1 DUP1 PUSH1 0x3 ADD SLOAD SWAP1 POP DUP5 JUMP JUMPDEST PUSH1 0x7 PUSH1 0x20 MSTORE DUP1 PUSH0 MSTORE PUSH1 0x40 PUSH0 KECCAK256 PUSH0 SWAP2 POP SWAP1 POP DUP1 PUSH0 ADD SLOAD SWAP1 DUP1 PUSH1 0x1 ADD PUSH0 SWAP1 SLOAD SWAP1 PUSH2 0x100 EXP SWAP1 DIV PUSH20 0xFFFFFFFFFFFFFFFFFFFFFFFFFFFFFFFFFFFFFFFF AND SWAP1 DUP1 PUSH1 0x1 ADD PUSH1 0x14 SWAP1 SLOAD SWAP1 PUSH2 0x100 EXP SWAP1 DIV PUSH1 0xFF AND SWAP1 DUP1 PUSH1 0x2 ADD SLOAD SWAP1 DUP1 PUSH1 0x3 ADD SLOAD SWAP1 DUP1 PUSH1 0x4 ADD SLOAD SWAP1 DUP1 PUSH1 0x5 ADD SLOAD SWAP1 DUP1 PUSH1 0x6 ADD PUSH0 SWAP1 SLOAD SWAP1 PUSH2 0x100 EXP SWAP1 DIV PUSH1 0xFF AND SWAP1 POP DUP9 JUMP JUMPDEST PUSH0 PUSH0 DUP5 DUP5 PUSH2 0x1372 SWAP2 SWAP1 PUSH2 0x2951 JUMP JUMPDEST SWAP1 POP PUSH0 PUSH3 0x93A80 DUP3 LT ISZERO PUSH2 0x1389 JUMPI PUSH1 0xA SWAP1 POP PUSH2 0x13A3 JUMP JUMPDEST PUSH3 0x127500 DUP3 LT ISZERO PUSH2 0x139D JUMPI PUSH1 0x5 SWAP1 POP PUSH2 0x13A2 JUMP JUMPDEST PUSH1 0x2 SWAP1 POP JUMPDEST JUMPDEST PUSH1 0x64 DUP2 PUSH1 0xFF AND DUP6 PUSH2 0x13B4 SWAP2 SWAP1 PUSH2 0x2B2E JUMP JUMPDEST PUSH2 0x13BE SWAP2 SWAP1 PUSH2 0x2B9C JUMP JUMPDEST SWAP3 POP POP POP SWAP4 SWAP3 POP POP POP JUMP JUMPDEST PUSH1 0x3 DUP1 PUSH0 ADD PUSH0 SWAP1 SLOAD SWAP1 PUSH2 0x100 EXP SWAP1 DIV PUSH20 0xFFFFFFFFFFFFFFFFFFFFFFFFFFFFFFFFFFFFFFFF AND SWAP1 DUP1 PUSH0 ADD PUSH1 0x14 SWAP1 SLOAD SWAP1 PUSH2 0x100 EXP SWAP1 DIV PUSH1 0xFF AND SWAP1 DUP1 PUSH0 ADD PUSH1 0x15 SWAP1 SLOAD SWAP1 PUSH2 0x100 EXP SWAP1 DIV PUSH1 0xFF AND SWAP1 POP DUP4 JUMP JUMPDEST PUSH2 0x141F PUSH2 0x1C5C JUMP JUMPDEST PUSH2 0x1427 PUSH2 0x1CE3 JUMP JUMPDEST PUSH0 PUSH1 0x2 PUSH0 SWAP1 SLOAD SWAP1 PUSH2 0x100 EXP SWAP1 DIV PUSH20 0xFFFFFFFFFFFFFFFFFFFFFFFFFFFFFFFFFFFFFFFF AND PUSH20 0xFFFFFFFFFFFFFFFFFFFFFFFFFFFFFFFFFFFFFFFF AND PUSH4 0x70A08231 ADDRESS PUSH1 0x40 MLOAD DUP3 PUSH4 0xFFFFFFFF AND PUSH1 0xE0 SHL DUP2 MSTORE PUSH1 0x4 ADD PUSH2 0x1482 SWAP2 SWAP1 PUSH2 0x226B JUMP JUMPDEST PUSH1 0x20 PUSH1 0x40 MLOAD DUP1 DUP4 SUB DUP2 DUP7 GAS STATICCALL ISZERO DUP1 ISZERO PUSH2 0x149D JUMPI RETURNDATASIZE PUSH0 PUSH0 RETURNDATACOPY RETURNDATASIZE PUSH0 REVERT JUMPDEST POP POP POP POP PUSH1 0x40 MLOAD RETURNDATASIZE PUSH1 0x1F NOT PUSH1 0x1F DUP3 ADD AND DUP3 ADD DUP1 PUSH1 0x40 MSTORE POP DUP2 ADD SWAP1 PUSH2 0x14C1 SWAP2 SWAP1 PUSH2 0x2A66 JUMP JUMPDEST SWAP1 POP PUSH0 DUP2 GT PUSH2 0x1505 JUMPI PUSH1 0x40 MLOAD PUSH32 0x8C379A000000000000000000000000000000000000000000000000000000000 DUP2 MSTORE PUSH1 0x4 ADD PUSH2 0x14FC SWAP1 PUSH2 0x2C16 JUMP JUMPDEST PUSH1 0x40 MLOAD DUP1 SWAP2 SUB SWAP1 REVERT JUMPDEST PUSH0 PUSH1 0xA DUP3 PUSH2 0x1513 SWAP2 SWAP1 PUSH2 0x2B9C JUMP JUMPDEST SWAP1 POP PUSH1 0x2 PUSH0 SWAP1 SLOAD SWAP1 PUSH2 0x100 EXP SWAP1 DIV PUSH20 0xFFFFFFFFFFFFFFFFFFFFFFFFFFFFFFFFFFFFFFFF AND PUSH20 0xFFFFFFFFFFFFFFFFFFFFFFFFFFFFFFFFFFFFFFFF AND PUSH4 0xA9059CBB PUSH0 DUP4 PUSH1 0x40 MLOAD DUP4 PUSH4 0xFFFFFFFF AND PUSH1 0xE0 SHL DUP2 MSTORE PUSH1 0x4 ADD PUSH2 0x1571 SWAP3 SWAP2 SWAP1 PUSH2 0x2984 JUMP JUMPDEST PUSH1 0x20 PUSH1 0x40 MLOAD DUP1 DUP4 SUB DUP2 PUSH0 DUP8 GAS CALL ISZERO DUP1 ISZERO PUSH2 0x158D JUMPI RETURNDATASIZE PUSH0 PUSH0 RETURNDATACOPY RETURNDATASIZE PUSH0 REVERT JUMPDEST POP POP POP POP PUSH1 0x40 MLOAD RETURNDATASIZE PUSH1 0x1F NOT PUSH1 0x1F DUP3 ADD AND DUP3 ADD DUP1 PUSH1 0x40 MSTORE POP DUP2 ADD SWAP1 PUSH2 0x15B1 SWAP2 SWAP1 PUSH2 0x29BF JUMP JUMPDEST PUSH2 0x15F0 JUMPI PUSH1 0x40 MLOAD PUSH32 0x8C379A000000000000000000000000000000000000000000000000000000000 DUP2 MSTORE PUSH1 0x4 ADD PUSH2 0x15E7 SWAP1 PUSH2 0x2C7E JUMP JUMPDEST PUSH1 0x40 MLOAD DUP1 SWAP2 SUB SWAP1 REVERT JUMPDEST PUSH32 0x6EF4855B666DCC7884561072E4358B28DFE01FEB1B7F4DCEBC00E62D50394AC7 DUP2 PUSH1 0x40 MLOAD PUSH2 0x161F SWAP2 SWAP1 PUSH2 0x1F45 JUMP JUMPDEST PUSH1 0x40 MLOAD DUP1 SWAP2 SUB SWAP1 LOG1 POP POP PUSH2 0x1631 PUSH2 0x1D32 JUMP JUMPDEST JUMP JUMPDEST PUSH2 0x163B PUSH2 0x1CE3 JUMP JUMPDEST PUSH0 PUSH1 0x4 PUSH0 CALLER PUSH20 0xFFFFFFFFFFFFFFFFFFFFFFFFFFFFFFFFFFFFFFFF AND PUSH20 0xFFFFFFFFFFFFFFFFFFFFFFFFFFFFFFFFFFFFFFFF AND DUP2 MSTORE PUSH1 0x20 ADD SWAP1 DUP2 MSTORE PUSH1 0x20 ADD PUSH0 KECCAK256 SWAP1 POP PUSH0 PUSH2 0x3E8 PUSH1 0x3 PUSH0 ADD PUSH1 0x14 SWAP1 SLOAD SWAP1 PUSH2 0x100 EXP SWAP1 DIV PUSH1 0xFF AND PUSH1 0xFF AND DUP4 PUSH0 ADD SLOAD PUSH2 0x16A2 SWAP2 SWAP1 PUSH2 0x2B2E JUMP JUMPDEST PUSH2 0x16AC SWAP2 SWAP1 PUSH2 0x2B9C JUMP JUMPDEST SWAP1 POP PUSH0 PUSH2 0x16BB DUP4 PUSH0 ADD SLOAD PUSH2 0x10E5 JUMP JUMPDEST SWAP1 POP PUSH0 DUP2 PUSH1 0xFF AND DUP4 PUSH2 0x16CD SWAP2 SWAP1 PUSH2 0x2B2E JUMP JUMPDEST SWAP1 POP PUSH0 DUP5 PUSH0 ADD DUP2 SWAP1 SSTORE POP PUSH1 0x2 PUSH0 SWAP1 SLOAD SWAP1 PUSH2 0x100 EXP SWAP1 DIV PUSH20 0xFFFFFFFFFFFFFFFFFFFFFFFFFFFFFFFFFFFFFFFF AND PUSH20 0xFFFFFFFFFFFFFFFFFFFFFFFFFFFFFFFFFFFFFFFF AND PUSH4 0x40C10F19 CALLER DUP4 PUSH1 0x40 MLOAD DUP4 PUSH4 0xFFFFFFFF AND PUSH1 0xE0 SHL DUP2 MSTORE PUSH1 0x4 ADD PUSH2 0x1733 SWAP3 SWAP2 SWAP1 PUSH2 0x2984 JUMP JUMPDEST PUSH0 PUSH1 0x40 MLOAD DUP1 DUP4 SUB DUP2 PUSH0 DUP8 DUP1 EXTCODESIZE ISZERO DUP1 ISZERO PUSH2 0x174A JUMPI PUSH0 PUSH0 REVERT JUMPDEST POP GAS CALL ISZERO DUP1 ISZERO PUSH2 0x175C JUMPI RETURNDATASIZE PUSH0 PUSH0 RETURNDATACOPY RETURNDATASIZE PUSH0 REVERT JUMPDEST POP POP POP POP CALLER PUSH20 0xFFFFFFFFFFFFFFFFFFFFFFFFFFFFFFFFFFFFFFFF AND PUSH32 0x8EC2A9ED236322C625516E43EAB59FCB8145E38EE8D489A28D0AACAEECC298D6 DUP3 PUSH1 0x40 MLOAD PUSH2 0x17A6 SWAP2 SWAP1 PUSH2 0x1F45 JUMP JUMPDEST PUSH1 0x40 MLOAD DUP1 SWAP2 SUB SWAP1 LOG2 POP POP POP POP PUSH2 0x17BA PUSH2 0x1D32 JUMP JUMPDEST JUMP JUMPDEST PUSH2 0x17C4 PUSH2 0x1CE3 JUMP JUMPDEST PUSH0 PUSH0 SWAP1 POP JUMPDEST DUP3 DUP3 SWAP1 POP DUP2 LT ISZERO PUSH2 0x1984 JUMPI PUSH0 DUP4 DUP4 DUP4 DUP2 DUP2 LT PUSH2 0x17E8 JUMPI PUSH2 0x17E7 PUSH2 0x2829 JUMP JUMPDEST JUMPDEST SWAP1 POP PUSH1 0x20 MUL ADD PUSH1 0x20 DUP2 ADD SWAP1 PUSH2 0x17FD SWAP2 SWAP1 PUSH2 0x1F0B JUMP JUMPDEST SWAP1 POP PUSH0 PUSH1 0x4 PUSH0 DUP4 PUSH20 0xFFFFFFFFFFFFFFFFFFFFFFFFFFFFFFFFFFFFFFFF AND PUSH20 0xFFFFFFFFFFFFFFFFFFFFFFFFFFFFFFFFFFFFFFFF AND DUP2 MSTORE PUSH1 0x20 ADD SWAP1 DUP2 MSTORE PUSH1 0x20 ADD PUSH0 KECCAK256 SWAP1 POP PUSH0 PUSH2 0x3E8 PUSH1 0x3 PUSH0 ADD PUSH1 0x14 SWAP1 SLOAD SWAP1 PUSH2 0x100 EXP SWAP1 DIV PUSH1 0xFF AND PUSH1 0xFF AND DUP4 PUSH0 ADD SLOAD PUSH2 0x1866 SWAP2 SWAP1 PUSH2 0x2B2E JUMP JUMPDEST PUSH2 0x1870 SWAP2 SWAP1 PUSH2 0x2B9C JUMP JUMPDEST SWAP1 POP PUSH0 PUSH2 0x187F DUP4 PUSH0 ADD SLOAD PUSH2 0x10E5 JUMP JUMPDEST SWAP1 POP PUSH0 DUP2 PUSH1 0xFF AND DUP4 PUSH2 0x1891 SWAP2 SWAP1 PUSH2 0x2B2E JUMP JUMPDEST SWAP1 POP PUSH0 DUP5 PUSH0 ADD DUP2 SWAP1 SSTORE POP PUSH1 0x2 PUSH0 SWAP1 SLOAD SWAP1 PUSH2 0x100 EXP SWAP1 DIV PUSH20 0xFFFFFFFFFFFFFFFFFFFFFFFFFFFFFFFFFFFFFFFF AND PUSH20 0xFFFFFFFFFFFFFFFFFFFFFFFFFFFFFFFFFFFFFFFF AND PUSH4 0x40C10F19 DUP7 DUP4 PUSH1 0x40 MLOAD DUP4 PUSH4 0xFFFFFFFF AND PUSH1 0xE0 SHL DUP2 MSTORE PUSH1 0x4 ADD PUSH2 0x18F7 SWAP3 SWAP2 SWAP1 PUSH2 0x2984 JUMP JUMPDEST PUSH0 PUSH1 0x40 MLOAD DUP1 DUP4 SUB DUP2 PUSH0 DUP8 DUP1 EXTCODESIZE ISZERO DUP1 ISZERO PUSH2 0x190E JUMPI PUSH0 PUSH0 REVERT JUMPDEST POP GAS CALL ISZERO DUP1 ISZERO PUSH2 0x1920 JUMPI RETURNDATASIZE PUSH0 PUSH0 RETURNDATACOPY RETURNDATASIZE PUSH0 REVERT JUMPDEST POP POP POP POP DUP5 PUSH20 0xFFFFFFFFFFFFFFFFFFFFFFFFFFFFFFFFFFFFFFFF AND PUSH32 0xFAF36C8625A33CCE6B8F49B647DEED99DBB0B8CC5A4E92C37A49C18EF4448389 DUP3 PUSH1 0x40 MLOAD PUSH2 0x196A SWAP2 SWAP1 PUSH2 0x1F45 JUMP JUMPDEST PUSH1 0x40 MLOAD DUP1 SWAP2 SUB SWAP1 LOG2 POP POP POP POP POP DUP1 DUP1 PUSH1 0x1 ADD SWAP2 POP POP PUSH2 0x17C9 JUMP JUMPDEST POP PUSH2 0x198D PUSH2 0x1D32 JUMP JUMPDEST POP POP JUMP JUMPDEST PUSH2 0x1999 PUSH2 0x1C5C JUMP JUMPDEST PUSH0 PUSH20 0xFFFFFFFFFFFFFFFFFFFFFFFFFFFFFFFFFFFFFFFF AND DUP2 PUSH20 0xFFFFFFFFFFFFFFFFFFFFFFFFFFFFFFFFFFFFFFFF AND SUB PUSH2 0x1A09 JUMPI PUSH0 PUSH1 0x40 MLOAD PUSH32 0x1E4FBDF700000000000000000000000000000000000000000000000000000000 DUP2 MSTORE PUSH1 0x4 ADD PUSH2 0x1A00 SWAP2 SWAP1 PUSH2 0x226B JUMP JUMPDEST PUSH1 0x40 MLOAD DUP1 SWAP2 SUB SWAP1 REVERT JUMPDEST PUSH2 0x1A12 DUP2 PUSH2 0x1D3B JUMP JUMPDEST POP JUMP JUMPDEST PUSH1 0x5 DUP1 PUSH0 CALLER PUSH20 0xFFFFFFFFFFFFFFFFFFFFFFFFFFFFFFFFFFFFFFFF AND PUSH20 0xFFFFFFFFFFFFFFFFFFFFFFFFFFFFFFFFFFFFFFFF AND DUP2 MSTORE PUSH1 0x20 ADD SWAP1 DUP2 MSTORE PUSH1 0x20 ADD PUSH0 KECCAK256 SLOAD TIMESTAMP PUSH2 0x1A5F SWAP2 SWAP1 PUSH2 0x2951 JUMP JUMPDEST LT ISZERO PUSH2 0x1AA0 JUMPI PUSH1 0x40 MLOAD PUSH32 0x8C379A000000000000000000000000000000000000000000000000000000000 DUP2 MSTORE PUSH1 0x4 ADD PUSH2 0x1A97 SWAP1 PUSH2 0x2CE6 JUMP JUMPDEST PUSH1 0x40 MLOAD DUP1 SWAP2 SUB SWAP1 REVERT JUMPDEST PUSH3 0xF4240 DUP2 GT DUP1 ISZERO PUSH2 0x1AFA JUMPI POP PUSH1 0xA PUSH1 0x5 PUSH0 CALLER PUSH20 0xFFFFFFFFFFFFFFFFFFFFFFFFFFFFFFFFFFFFFFFF AND PUSH20 0xFFFFFFFFFFFFFFFFFFFFFFFFFFFFFFFFFFFFFFFF AND DUP2 MSTORE PUSH1 0x20 ADD SWAP1 DUP2 MSTORE PUSH1 0x20 ADD PUSH0 KECCAK256 SLOAD TIMESTAMP PUSH2 0x1AF8 SWAP2 SWAP1 PUSH2 0x2951 JUMP JUMPDEST LT JUMPDEST ISZERO PUSH2 0x1B3A JUMPI PUSH1 0x40 MLOAD PUSH32 0x8C379A000000000000000000000000000000000000000000000000000000000 DUP2 MSTORE PUSH1 0x4 ADD PUSH2 0x1B31 SWAP1 PUSH2 0x2D4E JUMP JUMPDEST PUSH1 0x40 MLOAD DUP1 SWAP2 SUB SWAP1 REVERT JUMPDEST TIMESTAMP PUSH1 0x5 PUSH0 CALLER PUSH20 0xFFFFFFFFFFFFFFFFFFFFFFFFFFFFFFFFFFFFFFFF AND PUSH20 0xFFFFFFFFFFFFFFFFFFFFFFFFFFFFFFFFFFFFFFFF AND DUP2 MSTORE PUSH1 0x20 ADD SWAP1 DUP2 MSTORE PUSH1 0x20 ADD PUSH0 KECCAK256 DUP2 SWAP1 SSTORE POP PUSH0 PUSH1 0x4 PUSH0 CALLER PUSH20 0xFFFFFFFFFFFFFFFFFFFFFFFFFFFFFFFFFFFFFFFF AND PUSH20 0xFFFFFFFFFFFFFFFFFFFFFFFFFFFFFFFFFFFFFFFF AND DUP2 MSTORE PUSH1 0x20 ADD SWAP1 DUP2 MSTORE PUSH1 0x20 ADD PUSH0 KECCAK256 SWAP1 POP PUSH3 0x15180 DUP2 PUSH1 0x1 ADD SLOAD TIMESTAMP PUSH2 0x1BD0 SWAP2 SWAP1 PUSH2 0x2951 JUMP JUMPDEST LT PUSH2 0x1BE2 JUMPI DUP2 DUP2 PUSH0 ADD DUP2 SWAP1 SSTORE POP PUSH2 0x1BFC JUMP JUMPDEST DUP2 DUP2 PUSH0 ADD PUSH0 DUP3 DUP3 SLOAD PUSH2 0x1BF4 SWAP2 SWAP1 PUSH2 0x251C JUMP JUMPDEST SWAP3 POP POP DUP2 SWAP1 SSTORE POP JUMPDEST TIMESTAMP DUP2 PUSH1 0x1 ADD DUP2 SWAP1 SSTORE POP CALLER PUSH20 0xFFFFFFFFFFFFFFFFFFFFFFFFFFFFFFFFFFFFFFFF AND PUSH32 0xE1C33B09DE310B5512C81BA8E74DC8C0CFF829F9DE557C89F8EF10CBF8CA4D6E DUP4 DUP4 PUSH0 ADD SLOAD PUSH1 0x40 MLOAD PUSH2 0x1C50 SWAP3 SWAP2 SWAP1 PUSH2 0x2D6C JUMP JUMPDEST PUSH1 0x40 MLOAD DUP1 SWAP2 SUB SWAP1 LOG2 POP POP JUMP JUMPDEST PUSH2 0x1C64 PUSH2 0x1DFC JUMP JUMPDEST PUSH20 0xFFFFFFFFFFFFFFFFFFFFFFFFFFFFFFFFFFFFFFFF AND PUSH2 0x1C82 PUSH2 0x1295 JUMP JUMPDEST PUSH20 0xFFFFFFFFFFFFFFFFFFFFFFFFFFFFFFFFFFFFFFFF AND EQ PUSH2 0x1CE1 JUMPI PUSH2 0x1CA5 PUSH2 0x1DFC JUMP JUMPDEST PUSH1 0x40 MLOAD PUSH32 0x118CDAA700000000000000000000000000000000000000000000000000000000 DUP2 MSTORE PUSH1 0x4 ADD PUSH2 0x1CD8 SWAP2 SWAP1 PUSH2 0x226B JUMP JUMPDEST PUSH1 0x40 MLOAD DUP1 SWAP2 SUB SWAP1 REVERT JUMPDEST JUMP JUMPDEST PUSH1 0x2 PUSH1 0x1 SLOAD SUB PUSH2 0x1D28 JUMPI PUSH1 0x40 MLOAD PUSH32 0x8C379A000000000000000000000000000000000000000000000000000000000 DUP2 MSTORE PUSH1 0x4 ADD PUSH2 0x1D1F SWAP1 PUSH2 0x2DDD JUMP JUMPDEST PUSH1 0x40 MLOAD DUP1 SWAP2 SUB SWAP1 REVERT JUMPDEST PUSH1 0x2 PUSH1 0x1 DUP2 SWAP1 SSTORE POP JUMP JUMPDEST PUSH1 0x1 DUP1 DUP2 SWAP1 SSTORE POP JUMP JUMPDEST PUSH0 PUSH0 PUSH0 SWAP1 SLOAD SWAP1 PUSH2 0x100 EXP SWAP1 DIV PUSH20 0xFFFFFFFFFFFFFFFFFFFFFFFFFFFFFFFFFFFFFFFF AND SWAP1 POP DUP2 PUSH0 PUSH0 PUSH2 0x100 EXP DUP2 SLOAD DUP2 PUSH20 0xFFFFFFFFFFFFFFFFFFFFFFFFFFFFFFFFFFFFFFFF MUL NOT AND SWAP1 DUP4 PUSH20 0xFFFFFFFFFFFFFFFFFFFFFFFFFFFFFFFFFFFFFFFF AND MUL OR SWAP1 SSTORE POP DUP2 PUSH20 0xFFFFFFFFFFFFFFFFFFFFFFFFFFFFFFFFFFFFFFFF AND DUP2 PUSH20 0xFFFFFFFFFFFFFFFFFFFFFFFFFFFFFFFFFFFFFFFF AND PUSH32 0x8BE0079C531659141344CD1FD0A4F28419497F9722A3DAAFE3B4186F6B6457E0 PUSH1 0x40 MLOAD PUSH1 0x40 MLOAD DUP1 SWAP2 SUB SWAP1 LOG3 POP POP JUMP JUMPDEST PUSH0 CALLER SWAP1 POP SWAP1 JUMP JUMPDEST PUSH0 PUSH0 REVERT JUMPDEST PUSH0 PUSH0 REVERT JUMPDEST PUSH0 DUP2 SWAP1 POP SWAP2 SWAP1 POP JUMP JUMPDEST PUSH2 0x1E1D DUP2 PUSH2 0x1E0B JUMP JUMPDEST DUP2 EQ PUSH2 0x1E27 JUMPI PUSH0 PUSH0 REVERT JUMPDEST POP JUMP JUMPDEST PUSH0 DUP2 CALLDATALOAD SWAP1 POP PUSH2 0x1E38 DUP2 PUSH2 0x1E14 JUMP JUMPDEST SWAP3 SWAP2 POP POP JUMP JUMPDEST PUSH0 DUP2 ISZERO ISZERO SWAP1 POP SWAP2 SWAP1 POP JUMP JUMPDEST PUSH2 0x1E52 DUP2 PUSH2 0x1E3E JUMP JUMPDEST DUP2 EQ PUSH2 0x1E5C JUMPI PUSH0 PUSH0 REVERT JUMPDEST POP JUMP JUMPDEST PUSH0 DUP2 CALLDATALOAD SWAP1 POP PUSH2 0x1E6D DUP2 PUSH2 0x1E49 JUMP JUMPDEST SWAP3 SWAP2 POP POP JUMP JUMPDEST PUSH0 PUSH0 PUSH1 0x40 DUP4 DUP6 SUB SLT ISZERO PUSH2 0x1E89 JUMPI PUSH2 0x1E88 PUSH2 0x1E03 JUMP JUMPDEST JUMPDEST PUSH0 PUSH2 0x1E96 DUP6 DUP3 DUP7 ADD PUSH2 0x1E2A JUMP JUMPDEST SWAP3 POP POP PUSH1 0x20 PUSH2 0x1EA7 DUP6 DUP3 DUP7 ADD PUSH2 0x1E5F JUMP JUMPDEST SWAP2 POP POP SWAP3 POP SWAP3 SWAP1 POP JUMP JUMPDEST PUSH0 PUSH20 0xFFFFFFFFFFFFFFFFFFFFFFFFFFFFFFFFFFFFFFFF DUP3 AND SWAP1 POP SWAP2 SWAP1 POP JUMP JUMPDEST PUSH0 PUSH2 0x1EDA DUP3 PUSH2 0x1EB1 JUMP JUMPDEST SWAP1 POP SWAP2 SWAP1 POP JUMP JUMPDEST PUSH2 0x1EEA DUP2 PUSH2 0x1ED0 JUMP JUMPDEST DUP2 EQ PUSH2 0x1EF4 JUMPI PUSH0 PUSH0 REVERT JUMPDEST POP JUMP JUMPDEST PUSH0 DUP2 CALLDATALOAD SWAP1 POP PUSH2 0x1F05 DUP2 PUSH2 0x1EE1 JUMP JUMPDEST SWAP3 SWAP2 POP POP JUMP JUMPDEST PUSH0 PUSH1 0x20 DUP3 DUP5 SUB SLT ISZERO PUSH2 0x1F20 JUMPI PUSH2 0x1F1F PUSH2 0x1E03 JUMP JUMPDEST JUMPDEST PUSH0 PUSH2 0x1F2D DUP5 DUP3 DUP6 ADD PUSH2 0x1EF7 JUMP JUMPDEST SWAP2 POP POP SWAP3 SWAP2 POP POP JUMP JUMPDEST PUSH2 0x1F3F DUP2 PUSH2 0x1E0B JUMP JUMPDEST DUP3 MSTORE POP POP JUMP JUMPDEST PUSH0 PUSH1 0x20 DUP3 ADD SWAP1 POP PUSH2 0x1F58 PUSH0 DUP4 ADD DUP5 PUSH2 0x1F36 JUMP JUMPDEST SWAP3 SWAP2 POP POP JUMP JUMPDEST PUSH0 PUSH1 0xFF DUP3 AND SWAP1 POP SWAP2 SWAP1 POP JUMP JUMPDEST PUSH2 0x1F73 DUP2 PUSH2 0x1F5E JUMP JUMPDEST DUP2 EQ PUSH2 0x1F7D JUMPI PUSH0 PUSH0 REVERT JUMPDEST POP JUMP JUMPDEST PUSH0 DUP2 CALLDATALOAD SWAP1 POP PUSH2 0x1F8E DUP2 PUSH2 0x1F6A JUMP JUMPDEST SWAP3 SWAP2 POP POP JUMP JUMPDEST PUSH0 PUSH1 0x20 DUP3 DUP5 SUB SLT ISZERO PUSH2 0x1FA9 JUMPI PUSH2 0x1FA8 PUSH2 0x1E03 JUMP JUMPDEST JUMPDEST PUSH0 PUSH2 0x1FB6 DUP5 DUP3 DUP6 ADD PUSH2 0x1F80 JUMP JUMPDEST SWAP2 POP POP SWAP3 SWAP2 POP POP JUMP JUMPDEST PUSH0 PUSH0 PUSH0 PUSH0 PUSH1 0x80 DUP6 DUP8 SUB SLT ISZERO PUSH2 0x1FD7 JUMPI PUSH2 0x1FD6 PUSH2 0x1E03 JUMP JUMPDEST JUMPDEST PUSH0 PUSH2 0x1FE4 DUP8 DUP3 DUP9 ADD PUSH2 0x1E2A JUMP JUMPDEST SWAP5 POP POP PUSH1 0x20 PUSH2 0x1FF5 DUP8 DUP3 DUP9 ADD PUSH2 0x1F80 JUMP JUMPDEST SWAP4 POP POP PUSH1 0x40 PUSH2 0x2006 DUP8 DUP3 DUP9 ADD PUSH2 0x1E2A JUMP JUMPDEST SWAP3 POP POP PUSH1 0x60 PUSH2 0x2017 DUP8 DUP3 DUP9 ADD PUSH2 0x1E2A JUMP JUMPDEST SWAP2 POP POP SWAP3 SWAP6 SWAP2 SWAP5 POP SWAP3 POP JUMP JUMPDEST PUSH2 0x202C DUP2 PUSH2 0x1F5E JUMP JUMPDEST DUP3 MSTORE POP POP JUMP JUMPDEST PUSH0 PUSH1 0x20 DUP3 ADD SWAP1 POP PUSH2 0x2045 PUSH0 DUP4 ADD DUP5 PUSH2 0x2023 JUMP JUMPDEST SWAP3 SWAP2 POP POP JUMP JUMPDEST PUSH0 PUSH1 0x20 DUP3 DUP5 SUB SLT ISZERO PUSH2 0x2060 JUMPI PUSH2 0x205F PUSH2 0x1E03 JUMP JUMPDEST JUMPDEST PUSH0 PUSH2 0x206D DUP5 DUP3 DUP6 ADD PUSH2 0x1E2A JUMP JUMPDEST SWAP2 POP POP SWAP3 SWAP2 POP POP JUMP JUMPDEST PUSH0 PUSH0 REVERT JUMPDEST PUSH0 PUSH0 REVERT JUMPDEST PUSH0 PUSH0 REVERT JUMPDEST PUSH0 PUSH0 DUP4 PUSH1 0x1F DUP5 ADD SLT PUSH2 0x2097 JUMPI PUSH2 0x2096 PUSH2 0x2076 JUMP JUMPDEST JUMPDEST DUP3 CALLDATALOAD SWAP1 POP PUSH8 0xFFFFFFFFFFFFFFFF DUP2 GT ISZERO PUSH2 0x20B4 JUMPI PUSH2 0x20B3 PUSH2 0x207A JUMP JUMPDEST JUMPDEST PUSH1 0x20 DUP4 ADD SWAP2 POP DUP4 PUSH1 0x20 DUP3 MUL DUP4 ADD GT ISZERO PUSH2 0x20D0 JUMPI PUSH2 0x20CF PUSH2 0x207E JUMP JUMPDEST JUMPDEST SWAP3 POP SWAP3 SWAP1 POP JUMP JUMPDEST PUSH0 PUSH0 DUP4 PUSH1 0x1F DUP5 ADD SLT PUSH2 0x20EC JUMPI PUSH2 0x20EB PUSH2 0x2076 JUMP JUMPDEST JUMPDEST DUP3 CALLDATALOAD SWAP1 POP PUSH8 0xFFFFFFFFFFFFFFFF DUP2 GT ISZERO PUSH2 0x2109 JUMPI PUSH2 0x2108 PUSH2 0x207A JUMP JUMPDEST JUMPDEST PUSH1 0x20 DUP4 ADD SWAP2 POP DUP4 PUSH1 0x20 DUP3 MUL DUP4 ADD GT ISZERO PUSH2 0x2125 JUMPI PUSH2 0x2124 PUSH2 0x207E JUMP JUMPDEST JUMPDEST SWAP3 POP SWAP3 SWAP1 POP JUMP JUMPDEST PUSH0 PUSH0 PUSH0 PUSH0 PUSH1 0x40 DUP6 DUP8 SUB SLT ISZERO PUSH2 0x2144 JUMPI PUSH2 0x2143 PUSH2 0x1E03 JUMP JUMPDEST JUMPDEST PUSH0 DUP6 ADD CALLDATALOAD PUSH8 0xFFFFFFFFFFFFFFFF DUP2 GT ISZERO PUSH2 0x2161 JUMPI PUSH2 0x2160 PUSH2 0x1E07 JUMP JUMPDEST JUMPDEST PUSH2 0x216D DUP8 DUP3 DUP9 ADD PUSH2 0x2082 JUMP JUMPDEST SWAP5 POP SWAP5 POP POP PUSH1 0x20 DUP6 ADD CALLDATALOAD PUSH8 0xFFFFFFFFFFFFFFFF DUP2 GT ISZERO PUSH2 0x2190 JUMPI PUSH2 0x218F PUSH2 0x1E07 JUMP JUMPDEST JUMPDEST PUSH2 0x219C DUP8 DUP3 DUP9 ADD PUSH2 0x20D7 JUMP JUMPDEST SWAP3 POP SWAP3 POP POP SWAP3 SWAP6 SWAP2 SWAP5 POP SWAP3 POP JUMP JUMPDEST PUSH0 DUP2 SWAP1 POP SWAP2 SWAP1 POP JUMP JUMPDEST PUSH0 PUSH2 0x21CD PUSH2 0x21C8 PUSH2 0x21C3 DUP5 PUSH2 0x1EB1 JUMP JUMPDEST PUSH2 0x21AA JUMP JUMPDEST PUSH2 0x1EB1 JUMP JUMPDEST SWAP1 POP SWAP2 SWAP1 POP JUMP JUMPDEST PUSH0 PUSH2 0x21DE DUP3 PUSH2 0x21B3 JUMP JUMPDEST SWAP1 POP SWAP2 SWAP1 POP JUMP JUMPDEST PUSH0 PUSH2 0x21EF DUP3 PUSH2 0x21D4 JUMP JUMPDEST SWAP1 POP SWAP2 SWAP1 POP JUMP JUMPDEST PUSH2 0x21FF DUP2 PUSH2 0x21E5 JUMP JUMPDEST DUP3 MSTORE POP POP JUMP JUMPDEST PUSH0 PUSH1 0x20 DUP3 ADD SWAP1 POP PUSH2 0x2218 PUSH0 DUP4 ADD DUP5 PUSH2 0x21F6 JUMP JUMPDEST SWAP3 SWAP2 POP POP JUMP JUMPDEST PUSH0 PUSH0 PUSH1 0x40 DUP4 DUP6 SUB SLT ISZERO PUSH2 0x2234 JUMPI PUSH2 0x2233 PUSH2 0x1E03 JUMP JUMPDEST JUMPDEST PUSH0 PUSH2 0x2241 DUP6 DUP3 DUP7 ADD PUSH2 0x1F80 JUMP JUMPDEST SWAP3 POP POP PUSH1 0x20 PUSH2 0x2252 DUP6 DUP3 DUP7 ADD PUSH2 0x1F80 JUMP JUMPDEST SWAP2 POP POP SWAP3 POP SWAP3 SWAP1 POP JUMP JUMPDEST PUSH2 0x2265 DUP2 PUSH2 0x1ED0 JUMP JUMPDEST DUP3 MSTORE POP POP JUMP JUMPDEST PUSH0 PUSH1 0x20 DUP3 ADD SWAP1 POP PUSH2 0x227E PUSH0 DUP4 ADD DUP5 PUSH2 0x225C JUMP JUMPDEST SWAP3 SWAP2 POP POP JUMP JUMPDEST PUSH0 PUSH1 0x80 DUP3 ADD SWAP1 POP PUSH2 0x2297 PUSH0 DUP4 ADD DUP8 PUSH2 0x1F36 JUMP JUMPDEST PUSH2 0x22A4 PUSH1 0x20 DUP4 ADD DUP7 PUSH2 0x1F36 JUMP JUMPDEST PUSH2 0x22B1 PUSH1 0x40 DUP4 ADD DUP6 PUSH2 0x1F36 JUMP JUMPDEST PUSH2 0x22BE PUSH1 0x60 DUP4 ADD DUP5 PUSH2 0x1F36 JUMP JUMPDEST SWAP6 SWAP5 POP POP POP POP POP JUMP JUMPDEST PUSH2 0x22D0 DUP2 PUSH2 0x1E3E JUMP JUMPDEST DUP3 MSTORE POP POP JUMP JUMPDEST PUSH0 PUSH2 0x100 DUP3 ADD SWAP1 POP PUSH2 0x22EA PUSH0 DUP4 ADD DUP12 PUSH2 0x1F36 JUMP JUMPDEST PUSH2 0x22F7 PUSH1 0x20 DUP4 ADD DUP11 PUSH2 0x225C JUMP JUMPDEST PUSH2 0x2304 PUSH1 0x40 DUP4 ADD DUP10 PUSH2 0x2023 JUMP JUMPDEST PUSH2 0x2311 PUSH1 0x60 DUP4 ADD DUP9 PUSH2 0x1F36 JUMP JUMPDEST PUSH2 0x231E PUSH1 0x80 DUP4 ADD DUP8 PUSH2 0x1F36 JUMP JUMPDEST PUSH2 0x232B PUSH1 0xA0 DUP4 ADD DUP7 PUSH2 0x1F36 JUMP JUMPDEST PUSH2 0x2338 PUSH1 0xC0 DUP4 ADD DUP6 PUSH2 0x1F36 JUMP JUMPDEST PUSH2 0x2345 PUSH1 0xE0 DUP4 ADD DUP5 PUSH2 0x22C7 JUMP JUMPDEST SWAP10 SWAP9 POP POP POP POP POP POP POP POP POP JUMP JUMPDEST PUSH0 PUSH0 PUSH0 PUSH1 0x60 DUP5 DUP7 SUB SLT ISZERO PUSH2 0x2369 JUMPI PUSH2 0x2368 PUSH2 0x1E03 JUMP JUMPDEST JUMPDEST PUSH0 PUSH2 0x2376 DUP7 DUP3 DUP8 ADD PUSH2 0x1E2A JUMP JUMPDEST SWAP4 POP POP PUSH1 0x20 PUSH2 0x2387 DUP7 DUP3 DUP8 ADD PUSH2 0x1E2A JUMP JUMPDEST SWAP3 POP POP PUSH1 0x40 PUSH2 0x2398 DUP7 DUP3 DUP8 ADD PUSH2 0x1E2A JUMP JUMPDEST SWAP2 POP POP SWAP3 POP SWAP3 POP SWAP3 JUMP JUMPDEST PUSH0 PUSH1 0x60 DUP3 ADD SWAP1 POP PUSH2 0x23B5 PUSH0 DUP4 ADD DUP7 PUSH2 0x225C JUMP JUMPDEST PUSH2 0x23C2 PUSH1 0x20 DUP4 ADD DUP6 PUSH2 0x2023 JUMP JUMPDEST PUSH2 0x23CF PUSH1 0x40 DUP4 ADD DUP5 PUSH2 0x2023 JUMP JUMPDEST SWAP5 SWAP4 POP POP POP POP JUMP JUMPDEST PUSH0 PUSH0 DUP4 PUSH1 0x1F DUP5 ADD SLT PUSH2 0x23EC JUMPI PUSH2 0x23EB PUSH2 0x2076 JUMP JUMPDEST JUMPDEST DUP3 CALLDATALOAD SWAP1 POP PUSH8 0xFFFFFFFFFFFFFFFF DUP2 GT ISZERO PUSH2 0x2409 JUMPI PUSH2 0x2408 PUSH2 0x207A JUMP JUMPDEST JUMPDEST PUSH1 0x20 DUP4 ADD SWAP2 POP DUP4 PUSH1 0x20 DUP3 MUL DUP4 ADD GT ISZERO PUSH2 0x2425 JUMPI PUSH2 0x2424 PUSH2 0x207E JUMP JUMPDEST JUMPDEST SWAP3 POP SWAP3 SWAP1 POP JUMP JUMPDEST PUSH0 PUSH0 PUSH1 0x20 DUP4 DUP6 SUB SLT ISZERO PUSH2 0x2442 JUMPI PUSH2 0x2441 PUSH2 0x1E03 JUMP JUMPDEST JUMPDEST PUSH0 DUP4 ADD CALLDATALOAD PUSH8 0xFFFFFFFFFFFFFFFF DUP2 GT ISZERO PUSH2 0x245F JUMPI PUSH2 0x245E PUSH2 0x1E07 JUMP JUMPDEST JUMPDEST PUSH2 0x246B DUP6 DUP3 DUP7 ADD PUSH2 0x23D7 JUMP JUMPDEST SWAP3 POP SWAP3 POP POP SWAP3 POP SWAP3 SWAP1 POP JUMP JUMPDEST PUSH0 DUP3 DUP3 MSTORE PUSH1 0x20 DUP3 ADD SWAP1 POP SWAP3 SWAP2 POP POP JUMP JUMPDEST PUSH32 0x566F74696E6720706572696F64206F7665720000000000000000000000000000 PUSH0 DUP3 ADD MSTORE POP JUMP JUMPDEST PUSH0 PUSH2 0x24BB PUSH1 0x12 DUP4 PUSH2 0x2477 JUMP JUMPDEST SWAP2 POP PUSH2 0x24C6 DUP3 PUSH2 0x2487 JUMP JUMPDEST PUSH1 0x20 DUP3 ADD SWAP1 POP SWAP2 SWAP1 POP JUMP JUMPDEST PUSH0 PUSH1 0x20 DUP3 ADD SWAP1 POP DUP2 DUP2 SUB PUSH0 DUP4 ADD MSTORE PUSH2 0x24E8 DUP2 PUSH2 0x24AF JUMP JUMPDEST SWAP1 POP SWAP2 SWAP1 POP JUMP JUMPDEST PUSH32 0x4E487B7100000000000000000000000000000000000000000000000000000000 PUSH0 MSTORE PUSH1 0x11 PUSH1 0x4 MSTORE PUSH1 0x24 PUSH0 REVERT JUMPDEST PUSH0 PUSH2 0x2526 DUP3 PUSH2 0x1E0B JUMP JUMPDEST SWAP2 POP PUSH2 0x2531 DUP4 PUSH2 0x1E0B JUMP JUMPDEST SWAP3 POP DUP3 DUP3 ADD SWAP1 POP DUP1 DUP3 GT ISZERO PUSH2 0x2549 JUMPI PUSH2 0x2548 PUSH2 0x24EF JUMP JUMPDEST JUMPDEST SWAP3 SWAP2 POP POP JUMP JUMPDEST PUSH32 0x496E76616C696420726562617465207261746500000000000000000000000000 PUSH0 DUP3 ADD MSTORE POP JUMP JUMPDEST PUSH0 PUSH2 0x2583 PUSH1 0x13 DUP4 PUSH2 0x2477 JUMP JUMPDEST SWAP2 POP PUSH2 0x258E DUP3 PUSH2 0x254F JUMP JUMPDEST PUSH1 0x20 DUP3 ADD SWAP1 POP SWAP2 SWAP1 POP JUMP JUMPDEST PUSH0 PUSH1 0x20 DUP3 ADD SWAP1 POP DUP2 DUP2 SUB PUSH0 DUP4 ADD MSTORE PUSH2 0x25B0 DUP2 PUSH2 0x2577 JUMP JUMPDEST SWAP1 POP SWAP2 SWAP1 POP JUMP JUMPDEST PUSH32 0x50726F706F73616C20616C726561647920657869737473000000000000000000 PUSH0 DUP3 ADD MSTORE POP JUMP JUMPDEST PUSH0 PUSH2 0x25EB PUSH1 0x17 DUP4 PUSH2 0x2477 JUMP JUMPDEST SWAP2 POP PUSH2 0x25F6 DUP3 PUSH2 0x25B7 JUMP JUMPDEST PUSH1 0x20 DUP3 ADD SWAP1 POP SWAP2 SWAP1 POP JUMP JUMPDEST PUSH0 PUSH1 0x20 DUP3 ADD SWAP1 POP DUP2 DUP2 SUB PUSH0 DUP4 ADD MSTORE PUSH2 0x2618 DUP2 PUSH2 0x25DF JUMP JUMPDEST SWAP1 POP SWAP2 SWAP1 POP JUMP JUMPDEST PUSH0 PUSH1 0x80 DUP3 ADD SWAP1 POP PUSH2 0x2632 PUSH0 DUP4 ADD DUP8 PUSH2 0x1F36 JUMP JUMPDEST PUSH2 0x263F PUSH1 0x20 DUP4 ADD DUP7 PUSH2 0x225C JUMP JUMPDEST PUSH2 0x264C PUSH1 0x40 DUP4 ADD DUP6 PUSH2 0x1F36 JUMP JUMPDEST PUSH2 0x2659 PUSH1 0x60 DUP4 ADD DUP5 PUSH2 0x1F36 JUMP JUMPDEST SWAP6 SWAP5 POP POP POP POP POP JUMP JUMPDEST PUSH32 0x54696D65206C6F636B2061637469766500000000000000000000000000000000 PUSH0 DUP3 ADD MSTORE POP JUMP JUMPDEST PUSH0 PUSH2 0x2696 PUSH1 0x10 DUP4 PUSH2 0x2477 JUMP JUMPDEST SWAP2 POP PUSH2 0x26A1 DUP3 PUSH2 0x2662 JUMP JUMPDEST PUSH1 0x20 DUP3 ADD SWAP1 POP SWAP2 SWAP1 POP JUMP JUMPDEST PUSH0 PUSH1 0x20 DUP3 ADD SWAP1 POP DUP2 DUP2 SUB PUSH0 DUP4 ADD MSTORE PUSH2 0x26C3 DUP2 PUSH2 0x268A JUMP JUMPDEST SWAP1 POP SWAP2 SWAP1 POP JUMP JUMPDEST PUSH32 0x416C726561647920657865637574656400000000000000000000000000000000 PUSH0 DUP3 ADD MSTORE POP JUMP JUMPDEST PUSH0 PUSH2 0x26FE PUSH1 0x10 DUP4 PUSH2 0x2477 JUMP JUMPDEST SWAP2 POP PUSH2 0x2709 DUP3 PUSH2 0x26CA JUMP JUMPDEST PUSH1 0x20 DUP3 ADD SWAP1 POP SWAP2 SWAP1 POP JUMP JUMPDEST PUSH0 PUSH1 0x20 DUP3 ADD SWAP1 POP DUP2 DUP2 SUB PUSH0 DUP4 ADD MSTORE PUSH2 0x272B DUP2 PUSH2 0x26F2 JUMP JUMPDEST SWAP1 POP SWAP2 SWAP1 POP JUMP JUMPDEST PUSH32 0x44414F2070726F706F73616C2072656A65637465640000000000000000000000 PUSH0 DUP3 ADD MSTORE POP JUMP JUMPDEST PUSH0 PUSH2 0x2766 PUSH1 0x15 DUP4 PUSH2 0x2477 JUMP JUMPDEST SWAP2 POP PUSH2 0x2771 DUP3 PUSH2 0x2732 JUMP JUMPDEST PUSH1 0x20 DUP3 ADD SWAP1 POP SWAP2 SWAP1 POP JUMP JUMPDEST PUSH0 PUSH1 0x20 DUP3 ADD SWAP1 POP DUP2 DUP2 SUB PUSH0 DUP4 ADD MSTORE PUSH2 0x2793 DUP2 PUSH2 0x275A JUMP JUMPDEST SWAP1 POP SWAP2 SWAP1 POP JUMP JUMPDEST PUSH0 PUSH1 0x40 DUP3 ADD SWAP1 POP PUSH2 0x27AD PUSH0 DUP4 ADD DUP6 PUSH2 0x1F36 JUMP JUMPDEST PUSH2 0x27BA PUSH1 0x20 DUP4 ADD DUP5 PUSH2 0x2023 JUMP JUMPDEST SWAP4 SWAP3 POP POP POP JUMP JUMPDEST PUSH32 0x4D69736D61746368656420696E70757473000000000000000000000000000000 PUSH0 DUP3 ADD MSTORE POP JUMP JUMPDEST PUSH0 PUSH2 0x27F5 PUSH1 0x11 DUP4 PUSH2 0x2477 JUMP JUMPDEST SWAP2 POP PUSH2 0x2800 DUP3 PUSH2 0x27C1 JUMP JUMPDEST PUSH1 0x20 DUP3 ADD SWAP1 POP SWAP2 SWAP1 POP JUMP JUMPDEST PUSH0 PUSH1 0x20 DUP3 ADD SWAP1 POP DUP2 DUP2 SUB PUSH0 DUP4 ADD MSTORE PUSH2 0x2822 DUP2 PUSH2 0x27E9 JUMP JUMPDEST SWAP1 POP SWAP2 SWAP1 POP JUMP JUMPDEST PUSH32 0x4E487B7100000000000000000000000000000000000000000000000000000000 PUSH0 MSTORE PUSH1 0x32 PUSH1 0x4 MSTORE PUSH1 0x24 PUSH0 REVERT JUMPDEST PUSH32 0x566F74696E6720706572696F64206F76657220666F722070726F706F73616C00 PUSH0 DUP3 ADD MSTORE POP JUMP JUMPDEST PUSH0 PUSH2 0x288A PUSH1 0x1F DUP4 PUSH2 0x2477 JUMP JUMPDEST SWAP2 POP PUSH2 0x2895 DUP3 PUSH2 0x2856 JUMP JUMPDEST PUSH1 0x20 DUP3 ADD SWAP1 POP SWAP2 SWAP1 POP JUMP JUMPDEST PUSH0 PUSH1 0x20 DUP3 ADD SWAP1 POP DUP2 DUP2 SUB PUSH0 DUP4 ADD MSTORE PUSH2 0x28B7 DUP2 PUSH2 0x287E JUMP JUMPDEST SWAP1 POP SWAP2 SWAP1 POP JUMP JUMPDEST PUSH0 PUSH1 0x20 DUP3 DUP5 SUB SLT ISZERO PUSH2 0x28D3 JUMPI PUSH2 0x28D2 PUSH2 0x1E03 JUMP JUMPDEST JUMPDEST PUSH0 PUSH2 0x28E0 DUP5 DUP3 DUP6 ADD PUSH2 0x1E5F JUMP JUMPDEST SWAP2 POP POP SWAP3 SWAP2 POP POP JUMP JUMPDEST PUSH32 0x496E73756666696369656E74207374616B656420746F6B656E73000000000000 PUSH0 DUP3 ADD MSTORE POP JUMP JUMPDEST PUSH0 PUSH2 0x291D PUSH1 0x1A DUP4 PUSH2 0x2477 JUMP JUMPDEST SWAP2 POP PUSH2 0x2928 DUP3 PUSH2 0x28E9 JUMP JUMPDEST PUSH1 0x20 DUP3 ADD SWAP1 POP SWAP2 SWAP1 POP JUMP JUMPDEST PUSH0 PUSH1 0x20 DUP3 ADD SWAP1 POP DUP2 DUP2 SUB PUSH0 DUP4 ADD MSTORE PUSH2 0x294A DUP2 PUSH2 0x2911 JUMP JUMPDEST SWAP1 POP SWAP2 SWAP1 POP JUMP JUMPDEST PUSH0 PUSH2 0x295B DUP3 PUSH2 0x1E0B JUMP JUMPDEST SWAP2 POP PUSH2 0x2966 DUP4 PUSH2 0x1E0B JUMP JUMPDEST SWAP3 POP DUP3 DUP3 SUB SWAP1 POP DUP2 DUP2 GT ISZERO PUSH2 0x297E JUMPI PUSH2 0x297D PUSH2 0x24EF JUMP JUMPDEST JUMPDEST SWAP3 SWAP2 POP POP JUMP JUMPDEST PUSH0 PUSH1 0x40 DUP3 ADD SWAP1 POP PUSH2 0x2997 PUSH0 DUP4 ADD DUP6 PUSH2 0x225C JUMP JUMPDEST PUSH2 0x29A4 PUSH1 0x20 DUP4 ADD DUP5 PUSH2 0x1F36 JUMP JUMPDEST SWAP4 SWAP3 POP POP POP JUMP JUMPDEST PUSH0 DUP2 MLOAD SWAP1 POP PUSH2 0x29B9 DUP2 PUSH2 0x1E49 JUMP JUMPDEST SWAP3 SWAP2 POP POP JUMP JUMPDEST PUSH0 PUSH1 0x20 DUP3 DUP5 SUB SLT ISZERO PUSH2 0x29D4 JUMPI PUSH2 0x29D3 PUSH2 0x1E03 JUMP JUMPDEST JUMPDEST PUSH0 PUSH2 0x29E1 DUP5 DUP3 DUP6 ADD PUSH2 0x29AB JUMP JUMPDEST SWAP2 POP POP SWAP3 SWAP2 POP POP JUMP JUMPDEST PUSH32 0x546F6B656E207472616E73666572206661696C65640000000000000000000000 PUSH0 DUP3 ADD MSTORE POP JUMP JUMPDEST PUSH0 PUSH2 0x2A1E PUSH1 0x15 DUP4 PUSH2 0x2477 JUMP JUMPDEST SWAP2 POP PUSH2 0x2A29 DUP3 PUSH2 0x29EA JUMP JUMPDEST PUSH1 0x20 DUP3 ADD SWAP1 POP SWAP2 SWAP1 POP JUMP JUMPDEST PUSH0 PUSH1 0x20 DUP3 ADD SWAP1 POP DUP2 DUP2 SUB PUSH0 DUP4 ADD MSTORE PUSH2 0x2A4B DUP2 PUSH2 0x2A12 JUMP JUMPDEST SWAP1 POP SWAP2 SWAP1 POP JUMP JUMPDEST PUSH0 DUP2 MLOAD SWAP1 POP PUSH2 0x2A60 DUP2 PUSH2 0x1E14 JUMP JUMPDEST SWAP3 SWAP2 POP POP JUMP JUMPDEST PUSH0 PUSH1 0x20 DUP3 DUP5 SUB SLT ISZERO PUSH2 0x2A7B JUMPI PUSH2 0x2A7A PUSH2 0x1E03 JUMP JUMPDEST JUMPDEST PUSH0 PUSH2 0x2A88 DUP5 DUP3 DUP6 ADD PUSH2 0x2A52 JUMP JUMPDEST SWAP2 POP POP SWAP3 SWAP2 POP POP JUMP JUMPDEST PUSH32 0x466C617368206C6F616E20646574656374656400000000000000000000000000 PUSH0 DUP3 ADD MSTORE POP JUMP JUMPDEST PUSH0 PUSH2 0x2AC5 PUSH1 0x13 DUP4 PUSH2 0x2477 JUMP JUMPDEST SWAP2 POP PUSH2 0x2AD0 DUP3 PUSH2 0x2A91 JUMP JUMPDEST PUSH1 0x20 DUP3 ADD SWAP1 POP SWAP2 SWAP1 POP JUMP JUMPDEST PUSH0 PUSH1 0x20 DUP3 ADD SWAP1 POP DUP2 DUP2 SUB PUSH0 DUP4 ADD MSTORE PUSH2 0x2AF2 DUP2 PUSH2 0x2AB9 JUMP JUMPDEST SWAP1 POP SWAP2 SWAP1 POP JUMP JUMPDEST PUSH0 PUSH1 0x60 DUP3 ADD SWAP1 POP PUSH2 0x2B0C PUSH0 DUP4 ADD DUP7 PUSH2 0x225C JUMP JUMPDEST PUSH2 0x2B19 PUSH1 0x20 DUP4 ADD DUP6 PUSH2 0x225C JUMP JUMPDEST PUSH2 0x2B26 PUSH1 0x40 DUP4 ADD DUP5 PUSH2 0x1F36 JUMP JUMPDEST SWAP5 SWAP4 POP POP POP POP JUMP JUMPDEST PUSH0 PUSH2 0x2B38 DUP3 PUSH2 0x1E0B JUMP JUMPDEST SWAP2 POP PUSH2 0x2B43 DUP4 PUSH2 0x1E0B JUMP JUMPDEST SWAP3 POP DUP3 DUP3 MUL PUSH2 0x2B51 DUP2 PUSH2 0x1E0B JUMP JUMPDEST SWAP2 POP DUP3 DUP3 DIV DUP5 EQ DUP4 ISZERO OR PUSH2 0x2B68 JUMPI PUSH2 0x2B67 PUSH2 0x24EF JUMP JUMPDEST JUMPDEST POP SWAP3 SWAP2 POP POP JUMP JUMPDEST PUSH32 0x4E487B7100000000000000000000000000000000000000000000000000000000 PUSH0 MSTORE PUSH1 0x12 PUSH1 0x4 MSTORE PUSH1 0x24 PUSH0 REVERT JUMPDEST PUSH0 PUSH2 0x2BA6 DUP3 PUSH2 0x1E0B JUMP JUMPDEST SWAP2 POP PUSH2 0x2BB1 DUP4 PUSH2 0x1E0B JUMP JUMPDEST SWAP3 POP DUP3 PUSH2 0x2BC1 JUMPI PUSH2 0x2BC0 PUSH2 0x2B6F JUMP JUMPDEST JUMPDEST DUP3 DUP3 DIV SWAP1 POP SWAP3 SWAP2 POP POP JUMP JUMPDEST PUSH32 0x4E6F20746F6B656E7320617661696C61626C6500000000000000000000000000 PUSH0 DUP3 ADD MSTORE POP JUMP JUMPDEST PUSH0 PUSH2 0x2C00 PUSH1 0x13 DUP4 PUSH2 0x2477 JUMP JUMPDEST SWAP2 POP PUSH2 0x2C0B DUP3 PUSH2 0x2BCC JUMP JUMPDEST PUSH1 0x20 DUP3 ADD SWAP1 POP SWAP2 SWAP1 POP JUMP JUMPDEST PUSH0 PUSH1 0x20 DUP3 ADD SWAP1 POP DUP2 DUP2 SUB PUSH0 DUP4 ADD MSTORE PUSH2 0x2C2D DUP2 PUSH2 0x2BF4 JUMP JUMPDEST SWAP1 POP SWAP2 SWAP1 POP JUMP JUMPDEST PUSH32 0x4275726E207472616E73666572206661696C6564000000000000000000000000 PUSH0 DUP3 ADD MSTORE POP JUMP JUMPDEST PUSH0 PUSH2 0x2C68 PUSH1 0x14 DUP4 PUSH2 0x2477 JUMP JUMPDEST SWAP2 POP PUSH2 0x2C73 DUP3 PUSH2 0x2C34 JUMP JUMPDEST PUSH1 0x20 DUP3 ADD SWAP1 POP SWAP2 SWAP1 POP JUMP JUMPDEST PUSH0 PUSH1 0x20 DUP3 ADD SWAP1 POP DUP2 DUP2 SUB PUSH0 DUP4 ADD MSTORE PUSH2 0x2C95 DUP2 PUSH2 0x2C5C JUMP JUMPDEST SWAP1 POP SWAP2 SWAP1 POP JUMP JUMPDEST PUSH32 0x5472616465732061726520746F6F206672657175656E74000000000000000000 PUSH0 DUP3 ADD MSTORE POP JUMP JUMPDEST PUSH0 PUSH2 0x2CD0 PUSH1 0x17 DUP4 PUSH2 0x2477 JUMP JUMPDEST SWAP2 POP PUSH2 0x2CDB DUP3 PUSH2 0x2C9C JUMP JUMPDEST PUSH1 0x20 DUP3 ADD SWAP1 POP SWAP2 SWAP1 POP JUMP JUMPDEST PUSH0 PUSH1 0x20 DUP3 ADD SWAP1 POP DUP2 DUP2 SUB PUSH0 DUP4 ADD MSTORE PUSH2 0x2CFD DUP2 PUSH2 0x2CC4 JUMP JUMPDEST SWAP1 POP SWAP2 SWAP1 POP JUMP JUMPDEST PUSH32 0x506F74656E7469616C20776173682074726164696E6720646574656374656400 PUSH0 DUP3 ADD MSTORE POP JUMP JUMPDEST PUSH0 PUSH2 0x2D38 PUSH1 0x1F DUP4 PUSH2 0x2477 JUMP JUMPDEST SWAP2 POP PUSH2 0x2D43 DUP3 PUSH2 0x2D04 JUMP JUMPDEST PUSH1 0x20 DUP3 ADD SWAP1 POP SWAP2 SWAP1 POP JUMP JUMPDEST PUSH0 PUSH1 0x20 DUP3 ADD SWAP1 POP DUP2 DUP2 SUB PUSH0 DUP4 ADD MSTORE PUSH2 0x2D65 DUP2 PUSH2 0x2D2C JUMP JUMPDEST SWAP1 POP SWAP2 SWAP1 POP JUMP JUMPDEST PUSH0 PUSH1 0x40 DUP3 ADD SWAP1 POP PUSH2 0x2D7F PUSH0 DUP4 ADD DUP6 PUSH2 0x1F36 JUMP JUMPDEST PUSH2 0x2D8C PUSH1 0x20 DUP4 ADD DUP5 PUSH2 0x1F36 JUMP JUMPDEST SWAP4 SWAP3 POP POP POP JUMP JUMPDEST PUSH32 0x5265656E7472616E637947756172643A207265656E7472616E742063616C6C00 PUSH0 DUP3 ADD MSTORE POP JUMP JUMPDEST PUSH0 PUSH2 0x2DC7 PUSH1 0x1F DUP4 PUSH2 0x2477 JUMP JUMPDEST SWAP2 POP PUSH2 0x2DD2 DUP3 PUSH2 0x2D93 JUMP JUMPDEST PUSH1 0x20 DUP3 ADD SWAP1 POP SWAP2 SWAP1 POP JUMP JUMPDEST PUSH0 PUSH1 0x20 DUP3 ADD SWAP1 POP DUP2 DUP2 SUB PUSH0 DUP4 ADD MSTORE PUSH2 0x2DF4 DUP2 PUSH2 0x2DBB JUMP JUMPDEST SWAP1 POP SWAP2 SWAP1 POP JUMP INVALID LOG2 PUSH5 0x6970667358 0x22 SLT KECCAK256 SHR PUSH10 0x2970BCFDE657EC77F5A9 PC RETURNDATACOPY TSTORE LOG3 DUP7 0xD6 0xAC PUSH20 0x50CD000162E482DA8E84A59A64736F6C63430008 SHR STOP CALLER "
		},
		"gasEstimates": {
			"creation": {
				"codeDepositCost": "2365000",
				"executionCost": "infinite",
				"totalCost": "infinite"
			},
			"external": {
				"autoCompound()": "infinite",
				"batchClaimRebate(address[])": "infinite",
				"batchVoteDAOProposal(uint256[],bool[])": "infinite",
				"buyBackAndBurn()": "infinite",
				"calculateDynamicUnstakePenalty(uint256,uint256,uint256)": "infinite",
				"calculateRebateMultiplier(uint256)": "724",
				"claimRebate()": "infinite",
				"createDAOProposal(uint256,uint8,uint256,uint256)": "infinite",
				"daoProposals(uint256)": "infinite",
				"executeDAOProposal(uint256)": "infinite",
				"feeDiscount()": "2629",
				"getExecutionPriority(address)": "infinite",
				"governanceConfig()": "infinite",
				"hfrtToken()": "infinite",
				"initializeGovernance(uint8,uint8)": "infinite",
				"lastStakeTime(address)": "2825",
				"lastTradeTime(address)": "2848",
				"owner()": "2603",
				"recordTrade(uint256)": "infinite",
				"renounceOwnership()": "infinite",
				"stakeTokens(uint256)": "infinite",
				"traders(address)": "infinite",
				"transferOwnership(address)": "infinite",
				"unstakeTokens(uint256)": "infinite",
				"updateRebateRate(uint8)": "infinite",
				"voteDAOProposal(uint256,bool)": "infinite"
			}
		},
		"methodIdentifiers": {
			"autoCompound()": "821c0576",
			"batchClaimRebate(address[])": "ebf959e4",
			"batchVoteDAOProposal(uint256[],bool[])": "552e2edf",
			"buyBackAndBurn()": "c970e99f",
			"calculateDynamicUnstakePenalty(uint256,uint256,uint256)": "a789b01f",
			"calculateRebateMultiplier(uint256)": "8201b3f3",
			"claimRebate()": "cda3948f",
			"createDAOProposal(uint256,uint8,uint256,uint256)": "1896b1af",
			"daoProposals(uint256)": "a43fde3a",
			"executeDAOProposal(uint256)": "46c3469e",
			"feeDiscount()": "3ffcf5ab",
			"getExecutionPriority(address)": "72bf1747",
			"governanceConfig()": "a9ed3d29",
			"hfrtToken()": "5cc78faf",
			"initializeGovernance(uint8,uint8)": "5f292cd7",
			"lastStakeTime(address)": "7bb1ca19",
			"lastTradeTime(address)": "03186eef",
			"owner()": "8da5cb5b",
			"recordTrade(uint256)": "feb8b43b",
			"renounceOwnership()": "715018a6",
			"stakeTokens(uint256)": "7547c7a3",
			"traders(address)": "92a88fa2",
			"transferOwnership(address)": "f2fde38b",
			"unstakeTokens(uint256)": "608e4dd0",
			"updateRebateRate(uint8)": "0f573a73",
			"voteDAOProposal(uint256,bool)": "01b3e625"
		}
	},
	"abi": [
		{
			"inputs": [
				{
					"internalType": "address",
					"name": "_hfrtToken",
					"type": "address"
				},
				{
					"internalType": "uint8",
					"name": "_feeDiscount",
					"type": "uint8"
				}
			],
			"stateMutability": "nonpayable",
			"type": "constructor"
		},
		{
			"inputs": [
				{
					"internalType": "address",
					"name": "owner",
					"type": "address"
				}
			],
			"name": "OwnableInvalidOwner",
			"type": "error"
		},
		{
			"inputs": [
				{
					"internalType": "address",
					"name": "account",
					"type": "address"
				}
			],
			"name": "OwnableUnauthorizedAccount",
			"type": "error"
		},
		{
			"anonymous": false,
			"inputs": [
				{
					"indexed": false,
					"internalType": "uint256",
					"name": "proposalId",
					"type": "uint256"
				},
				{
					"indexed": false,
					"internalType": "address",
					"name": "proposer",
					"type": "address"
				},
				{
					"indexed": false,
					"internalType": "uint256",
					"name": "votingDeadline",
					"type": "uint256"
				},
				{
					"indexed": false,
					"internalType": "uint256",
					"name": "executionTime",
					"type": "uint256"
				}
			],
			"name": "DAOProposalCreated",
			"type": "event"
		},
		{
			"anonymous": false,
			"inputs": [
				{
					"indexed": false,
					"internalType": "uint256",
					"name": "proposalId",
					"type": "uint256"
				},
				{
					"indexed": false,
					"internalType": "uint8",
					"name": "newFeeDiscount",
					"type": "uint8"
				}
			],
			"name": "DAOProposalExecuted",
			"type": "event"
		},
		{
			"anonymous": false,
			"inputs": [
				{
					"indexed": true,
					"internalType": "address",
					"name": "previousOwner",
					"type": "address"
				},
				{
					"indexed": true,
					"internalType": "address",
					"name": "newOwner",
					"type": "address"
				}
			],
			"name": "OwnershipTransferred",
			"type": "event"
		},
		{
			"anonymous": false,
			"inputs": [
				{
					"indexed": true,
					"internalType": "address",
					"name": "trader",
					"type": "address"
				},
				{
					"indexed": false,
					"internalType": "uint256",
					"name": "rebateAmount",
					"type": "uint256"
				}
			],
			"name": "RebateClaimed",
			"type": "event"
		},
		{
			"anonymous": false,
			"inputs": [
				{
					"indexed": true,
					"internalType": "address",
					"name": "trader",
					"type": "address"
				},
				{
					"indexed": false,
					"internalType": "uint256",
					"name": "rebateAmount",
					"type": "uint256"
				}
			],
			"name": "RebateIssued",
			"type": "event"
		},
		{
			"anonymous": false,
			"inputs": [
				{
					"indexed": false,
					"internalType": "uint256",
					"name": "burnAmount",
					"type": "uint256"
				}
			],
			"name": "TokensBurned",
			"type": "event"
		},
		{
			"anonymous": false,
			"inputs": [
				{
					"indexed": true,
					"internalType": "address",
					"name": "trader",
					"type": "address"
				},
				{
					"indexed": false,
					"internalType": "uint256",
					"name": "tradeAmount",
					"type": "uint256"
				},
				{
					"indexed": false,
					"internalType": "uint256",
					"name": "rollingVolume",
					"type": "uint256"
				}
			],
			"name": "TradeRecorded",
			"type": "event"
		},
		{
			"inputs": [],
			"name": "autoCompound",
			"outputs": [],
			"stateMutability": "nonpayable",
			"type": "function"
		},
		{
			"inputs": [
				{
					"internalType": "address[]",
					"name": "traderAddresses",
					"type": "address[]"
				}
			],
			"name": "batchClaimRebate",
			"outputs": [],
			"stateMutability": "nonpayable",
			"type": "function"
		},
		{
			"inputs": [
				{
					"internalType": "uint256[]",
					"name": "proposalIds",
					"type": "uint256[]"
				},
				{
					"internalType": "bool[]",
					"name": "votes",
					"type": "bool[]"
				}
			],
			"name": "batchVoteDAOProposal",
			"outputs": [],
			"stateMutability": "nonpayable",
			"type": "function"
		},
		{
			"inputs": [],
			"name": "buyBackAndBurn",
			"outputs": [],
			"stateMutability": "nonpayable",
			"type": "function"
		},
		{
			"inputs": [
				{
					"internalType": "uint256",
					"name": "stakeStartTime",
					"type": "uint256"
				},
				{
					"internalType": "uint256",
					"name": "currentTime",
					"type": "uint256"
				},
				{
					"internalType": "uint256",
					"name": "amount",
					"type": "uint256"
				}
			],
			"name": "calculateDynamicUnstakePenalty",
			"outputs": [
				{
					"internalType": "uint256",
					"name": "",
					"type": "uint256"
				}
			],
			"stateMutability": "pure",
			"type": "function"
		},
		{
			"inputs": [
				{
					"internalType": "uint256",
					"name": "tradeVolume",
					"type": "uint256"
				}
			],
			"name": "calculateRebateMultiplier",
			"outputs": [
				{
					"internalType": "uint8",
					"name": "",
					"type": "uint8"
				}
			],
			"stateMutability": "pure",
			"type": "function"
		},
		{
			"inputs": [],
			"name": "claimRebate",
			"outputs": [],
			"stateMutability": "nonpayable",
			"type": "function"
		},
		{
			"inputs": [
				{
					"internalType": "uint256",
					"name": "proposalId",
					"type": "uint256"
				},
				{
					"internalType": "uint8",
					"name": "newFeeDiscount",
					"type": "uint8"
				},
				{
					"internalType": "uint256",
					"name": "votingPeriod",
					"type": "uint256"
				},
				{
					"internalType": "uint256",
					"name": "timeLock",
					"type": "uint256"
				}
			],
			"name": "createDAOProposal",
			"outputs": [],
			"stateMutability": "nonpayable",
			"type": "function"
		},
		{
			"inputs": [
				{
					"internalType": "uint256",
					"name": "",
					"type": "uint256"
				}
			],
			"name": "daoProposals",
			"outputs": [
				{
					"internalType": "uint256",
					"name": "proposalId",
					"type": "uint256"
				},
				{
					"internalType": "address",
					"name": "proposer",
					"type": "address"
				},
				{
					"internalType": "uint8",
					"name": "newFeeDiscount",
					"type": "uint8"
				},
				{
					"internalType": "uint256",
					"name": "votesFor",
					"type": "uint256"
				},
				{
					"internalType": "uint256",
					"name": "votesAgainst",
					"type": "uint256"
				},
				{
					"internalType": "uint256",
					"name": "votingDeadline",
					"type": "uint256"
				},
				{
					"internalType": "uint256",
					"name": "executionTime",
					"type": "uint256"
				},
				{
					"internalType": "bool",
					"name": "executed",
					"type": "bool"
				}
			],
			"stateMutability": "view",
			"type": "function"
		},
		{
			"inputs": [
				{
					"internalType": "uint256",
					"name": "proposalId",
					"type": "uint256"
				}
			],
			"name": "executeDAOProposal",
			"outputs": [],
			"stateMutability": "nonpayable",
			"type": "function"
		},
		{
			"inputs": [],
			"name": "feeDiscount",
			"outputs": [
				{
					"internalType": "uint8",
					"name": "",
					"type": "uint8"
				}
			],
			"stateMutability": "view",
			"type": "function"
		},
		{
			"inputs": [
				{
					"internalType": "address",
					"name": "trader",
					"type": "address"
				}
			],
			"name": "getExecutionPriority",
			"outputs": [
				{
					"internalType": "uint8",
					"name": "",
					"type": "uint8"
				}
			],
			"stateMutability": "view",
			"type": "function"
		},
		{
			"inputs": [],
			"name": "governanceConfig",
			"outputs": [
				{
					"internalType": "address",
					"name": "authority",
					"type": "address"
				},
				{
					"internalType": "uint8",
					"name": "rebateRate",
					"type": "uint8"
				},
				{
					"internalType": "uint8",
					"name": "maxFeeDiscount",
					"type": "uint8"
				}
			],
			"stateMutability": "view",
			"type": "function"
		},
		{
			"inputs": [],
			"name": "hfrtToken",
			"outputs": [
				{
					"internalType": "contract IERC20Mintable",
					"name": "",
					"type": "address"
				}
			],
			"stateMutability": "view",
			"type": "function"
		},
		{
			"inputs": [
				{
					"internalType": "uint8",
					"name": "_rebateRate",
					"type": "uint8"
				},
				{
					"internalType": "uint8",
					"name": "_maxFeeDiscount",
					"type": "uint8"
				}
			],
			"name": "initializeGovernance",
			"outputs": [],
			"stateMutability": "nonpayable",
			"type": "function"
		},
		{
			"inputs": [
				{
					"internalType": "address",
					"name": "",
					"type": "address"
				}
			],
			"name": "lastStakeTime",
			"outputs": [
				{
					"internalType": "uint256",
					"name": "",
					"type": "uint256"
				}
			],
			"stateMutability": "view",
			"type": "function"
		},
		{
			"inputs": [
				{
					"internalType": "address",
					"name": "",
					"type": "address"
				}
			],
			"name": "lastTradeTime",
			"outputs": [
				{
					"internalType": "uint256",
					"name": "",
					"type": "uint256"
				}
			],
			"stateMutability": "view",
			"type": "function"
		},
		{
			"inputs": [],
			"name": "owner",
			"outputs": [
				{
					"internalType": "address",
					"name": "",
					"type": "address"
				}
			],
			"stateMutability": "view",
			"type": "function"
		},
		{
			"inputs": [
				{
					"internalType": "uint256",
					"name": "tradeAmount",
					"type": "uint256"
				}
			],
			"name": "recordTrade",
			"outputs": [],
			"stateMutability": "nonpayable",
			"type": "function"
		},
		{
			"inputs": [],
			"name": "renounceOwnership",
			"outputs": [],
			"stateMutability": "nonpayable",
			"type": "function"
		},
		{
			"inputs": [
				{
					"internalType": "uint256",
					"name": "amount",
					"type": "uint256"
				}
			],
			"name": "stakeTokens",
			"outputs": [],
			"stateMutability": "nonpayable",
			"type": "function"
		},
		{
			"inputs": [
				{
					"internalType": "address",
					"name": "",
					"type": "address"
				}
			],
			"name": "traders",
			"outputs": [
				{
					"internalType": "uint256",
					"name": "rollingVolume",
					"type": "uint256"
				},
				{
					"internalType": "uint256",
					"name": "lastTradeUpdate",
					"type": "uint256"
				},
				{
					"internalType": "uint256",
					"name": "stakedAmount",
					"type": "uint256"
				},
				{
					"internalType": "uint256",
					"name": "stakeStartTime",
					"type": "uint256"
				}
			],
			"stateMutability": "view",
			"type": "function"
		},
		{
			"inputs": [
				{
					"internalType": "address",
					"name": "newOwner",
					"type": "address"
				}
			],
			"name": "transferOwnership",
			"outputs": [],
			"stateMutability": "nonpayable",
			"type": "function"
		},
		{
			"inputs": [
				{
					"internalType": "uint256",
					"name": "amount",
					"type": "uint256"
				}
			],
			"name": "unstakeTokens",
			"outputs": [],
			"stateMutability": "nonpayable",
			"type": "function"
		},
		{
			"inputs": [
				{
					"internalType": "uint8",
					"name": "newRate",
					"type": "uint8"
				}
			],
			"name": "updateRebateRate",
			"outputs": [],
			"stateMutability": "nonpayable",
			"type": "function"
		},
		{
			"inputs": [
				{
					"internalType": "uint256",
					"name": "proposalId",
					"type": "uint256"
				},
				{
					"internalType": "bool",
					"name": "voteFor",
					"type": "bool"
				}
			],
			"name": "voteDAOProposal",
			"outputs": [],
			"stateMutability": "nonpayable",
			"type": "function"
		}
	]
}