{
	"contracts/HFRebtateToken.sol": {
		"HFRebtateToken": {
			"abi": [
				{
					"inputs": [
						{
							"internalType": "address",
							"name": "_hfrtToken",
							"type": "address"
						},
						{
							"internalType": "uint8",
							"name": "_feeDiscount",
							"type": "uint8"
						}
					],
					"stateMutability": "nonpayable",
					"type": "constructor"
				},
				{
					"inputs": [
						{
							"internalType": "address",
							"name": "owner",
							"type": "address"
						}
					],
					"name": "OwnableInvalidOwner",
					"type": "error"
				},
				{
					"inputs": [
						{
							"internalType": "address",
							"name": "account",
							"type": "address"
						}
					],
					"name": "OwnableUnauthorizedAccount",
					"type": "error"
				},
				{
					"anonymous": false,
					"inputs": [
						{
							"indexed": false,
							"internalType": "uint256",
							"name": "proposalId",
							"type": "uint256"
						},
						{
							"indexed": false,
							"internalType": "address",
							"name": "proposer",
							"type": "address"
						},
						{
							"indexed": false,
							"internalType": "uint256",
							"name": "votingDeadline",
							"type": "uint256"
						},
						{
							"indexed": false,
							"internalType": "uint256",
							"name": "executionTime",
							"type": "uint256"
						}
					],
					"name": "DAOProposalCreated",
					"type": "event"
				},
				{
					"anonymous": false,
					"inputs": [
						{
							"indexed": false,
							"internalType": "uint256",
							"name": "proposalId",
							"type": "uint256"
						},
						{
							"indexed": false,
							"internalType": "uint8",
							"name": "newFeeDiscount",
							"type": "uint8"
						}
					],
					"name": "DAOProposalExecuted",
					"type": "event"
				},
				{
					"anonymous": false,
					"inputs": [
						{
							"indexed": true,
							"internalType": "address",
							"name": "previousOwner",
							"type": "address"
						},
						{
							"indexed": true,
							"internalType": "address",
							"name": "newOwner",
							"type": "address"
						}
					],
					"name": "OwnershipTransferred",
					"type": "event"
				},
				{
					"anonymous": false,
					"inputs": [
						{
							"indexed": true,
							"internalType": "address",
							"name": "trader",
							"type": "address"
						},
						{
							"indexed": false,
							"internalType": "uint256",
							"name": "rebateAmount",
							"type": "uint256"
						}
					],
					"name": "RebateClaimed",
					"type": "event"
				},
				{
					"anonymous": false,
					"inputs": [
						{
							"indexed": true,
							"internalType": "address",
							"name": "trader",
							"type": "address"
						},
						{
							"indexed": false,
							"internalType": "uint256",
							"name": "rebateAmount",
							"type": "uint256"
						}
					],
					"name": "RebateIssued",
					"type": "event"
				},
				{
					"anonymous": false,
					"inputs": [
						{
							"indexed": false,
							"internalType": "uint256",
							"name": "burnAmount",
							"type": "uint256"
						}
					],
					"name": "TokensBurned",
					"type": "event"
				},
				{
					"anonymous": false,
					"inputs": [
						{
							"indexed": true,
							"internalType": "address",
							"name": "trader",
							"type": "address"
						},
						{
							"indexed": false,
							"internalType": "uint256",
							"name": "tradeAmount",
							"type": "uint256"
						},
						{
							"indexed": false,
							"internalType": "uint256",
							"name": "rollingVolume",
							"type": "uint256"
						}
					],
					"name": "TradeRecorded",
					"type": "event"
				},
				{
					"inputs": [],
					"name": "autoCompound",
					"outputs": [],
					"stateMutability": "nonpayable",
					"type": "function"
				},
				{
					"inputs": [
						{
							"internalType": "address[]",
							"name": "traderAddresses",
							"type": "address[]"
						}
					],
					"name": "batchClaimRebate",
					"outputs": [],
					"stateMutability": "nonpayable",
					"type": "function"
				},
				{
					"inputs": [
						{
							"internalType": "uint256[]",
							"name": "proposalIds",
							"type": "uint256[]"
						},
						{
							"internalType": "bool[]",
							"name": "votes",
							"type": "bool[]"
						}
					],
					"name": "batchVoteDAOProposal",
					"outputs": [],
					"stateMutability": "nonpayable",
					"type": "function"
				},
				{
					"inputs": [],
					"name": "buyBackAndBurn",
					"outputs": [],
					"stateMutability": "nonpayable",
					"type": "function"
				},
				{
					"inputs": [
						{
							"internalType": "uint256",
							"name": "stakeStartTime",
							"type": "uint256"
						},
						{
							"internalType": "uint256",
							"name": "currentTime",
							"type": "uint256"
						},
						{
							"internalType": "uint256",
							"name": "amount",
							"type": "uint256"
						}
					],
					"name": "calculateDynamicUnstakePenalty",
					"outputs": [
						{
							"internalType": "uint256",
							"name": "",
							"type": "uint256"
						}
					],
					"stateMutability": "pure",
					"type": "function"
				},
				{
					"inputs": [
						{
							"internalType": "uint256",
							"name": "tradeVolume",
							"type": "uint256"
						}
					],
					"name": "calculateRebateMultiplier",
					"outputs": [
						{
							"internalType": "uint8",
							"name": "",
							"type": "uint8"
						}
					],
					"stateMutability": "pure",
					"type": "function"
				},
				{
					"inputs": [],
					"name": "claimRebate",
					"outputs": [],
					"stateMutability": "nonpayable",
					"type": "function"
				},
				{
					"inputs": [
						{
							"internalType": "uint256",
							"name": "proposalId",
							"type": "uint256"
						},
						{
							"internalType": "uint8",
							"name": "newFeeDiscount",
							"type": "uint8"
						},
						{
							"internalType": "uint256",
							"name": "votingPeriod",
							"type": "uint256"
						},
						{
							"internalType": "uint256",
							"name": "timeLock",
							"type": "uint256"
						}
					],
					"name": "createDAOProposal",
					"outputs": [],
					"stateMutability": "nonpayable",
					"type": "function"
				},
				{
					"inputs": [
						{
							"internalType": "uint256",
							"name": "",
							"type": "uint256"
						}
					],
					"name": "daoProposals",
					"outputs": [
						{
							"internalType": "uint256",
							"name": "proposalId",
							"type": "uint256"
						},
						{
							"internalType": "address",
							"name": "proposer",
							"type": "address"
						},
						{
							"internalType": "uint8",
							"name": "newFeeDiscount",
							"type": "uint8"
						},
						{
							"internalType": "uint256",
							"name": "votesFor",
							"type": "uint256"
						},
						{
							"internalType": "uint256",
							"name": "votesAgainst",
							"type": "uint256"
						},
						{
							"internalType": "uint256",
							"name": "votingDeadline",
							"type": "uint256"
						},
						{
							"internalType": "uint256",
							"name": "executionTime",
							"type": "uint256"
						},
						{
							"internalType": "bool",
							"name": "executed",
							"type": "bool"
						}
					],
					"stateMutability": "view",
					"type": "function"
				},
				{
					"inputs": [
						{
							"internalType": "uint256",
							"name": "proposalId",
							"type": "uint256"
						}
					],
					"name": "executeDAOProposal",
					"outputs": [],
					"stateMutability": "nonpayable",
					"type": "function"
				},
				{
					"inputs": [],
					"name": "feeDiscount",
					"outputs": [
						{
							"internalType": "uint8",
							"name": "",
							"type": "uint8"
						}
					],
					"stateMutability": "view",
					"type": "function"
				},
				{
					"inputs": [
						{
							"internalType": "address",
							"name": "trader",
							"type": "address"
						}
					],
					"name": "getExecutionPriority",
					"outputs": [
						{
							"internalType": "uint8",
							"name": "",
							"type": "uint8"
						}
					],
					"stateMutability": "view",
					"type": "function"
				},
				{
					"inputs": [],
					"name": "governanceConfig",
					"outputs": [
						{
							"internalType": "address",
							"name": "authority",
							"type": "address"
						},
						{
							"internalType": "uint8",
							"name": "rebateRate",
							"type": "uint8"
						},
						{
							"internalType": "uint8",
							"name": "maxFeeDiscount",
							"type": "uint8"
						}
					],
					"stateMutability": "view",
					"type": "function"
				},
				{
					"inputs": [],
					"name": "hfrtToken",
					"outputs": [
						{
							"internalType": "contract IERC20Mintable",
							"name": "",
							"type": "address"
						}
					],
					"stateMutability": "view",
					"type": "function"
				},
				{
					"inputs": [
						{
							"internalType": "uint8",
							"name": "_rebateRate",
							"type": "uint8"
						},
						{
							"internalType": "uint8",
							"name": "_maxFeeDiscount",
							"type": "uint8"
						}
					],
					"name": "initializeGovernance",
					"outputs": [],
					"stateMutability": "nonpayable",
					"type": "function"
				},
				{
					"inputs": [
						{
							"internalType": "address",
							"name": "",
							"type": "address"
						}
					],
					"name": "lastStakeTime",
					"outputs": [
						{
							"internalType": "uint256",
							"name": "",
							"type": "uint256"
						}
					],
					"stateMutability": "view",
					"type": "function"
				},
				{
					"inputs": [
						{
							"internalType": "address",
							"name": "",
							"type": "address"
						}
					],
					"name": "lastTradeTime",
					"outputs": [
						{
							"internalType": "uint256",
							"name": "",
							"type": "uint256"
						}
					],
					"stateMutability": "view",
					"type": "function"
				},
				{
					"inputs": [],
					"name": "owner",
					"outputs": [
						{
							"internalType": "address",
							"name": "",
							"type": "address"
						}
					],
					"stateMutability": "view",
					"type": "function"
				},
				{
					"inputs": [
						{
							"internalType": "uint256",
							"name": "tradeAmount",
							"type": "uint256"
						}
					],
					"name": "recordTrade",
					"outputs": [],
					"stateMutability": "nonpayable",
					"type": "function"
				},
				{
					"inputs": [],
					"name": "renounceOwnership",
					"outputs": [],
					"stateMutability": "nonpayable",
					"type": "function"
				},
				{
					"inputs": [
						{
							"internalType": "uint256",
							"name": "amount",
							"type": "uint256"
						}
					],
					"name": "stakeTokens",
					"outputs": [],
					"stateMutability": "nonpayable",
					"type": "function"
				},
				{
					"inputs": [
						{
							"internalType": "address",
							"name": "",
							"type": "address"
						}
					],
					"name": "traders",
					"outputs": [
						{
							"internalType": "uint256",
							"name": "rollingVolume",
							"type": "uint256"
						},
						{
							"internalType": "uint256",
							"name": "lastTradeUpdate",
							"type": "uint256"
						},
						{
							"internalType": "uint256",
							"name": "stakedAmount",
							"type": "uint256"
						},
						{
							"internalType": "uint256",
							"name": "stakeStartTime",
							"type": "uint256"
						}
					],
					"stateMutability": "view",
					"type": "function"
				},
				{
					"inputs": [
						{
							"internalType": "address",
							"name": "newOwner",
							"type": "address"
						}
					],
					"name": "transferOwnership",
					"outputs": [],
					"stateMutability": "nonpayable",
					"type": "function"
				},
				{
					"inputs": [
						{
							"internalType": "uint256",
							"name": "amount",
							"type": "uint256"
						}
					],
					"name": "unstakeTokens",
					"outputs": [],
					"stateMutability": "nonpayable",
					"type": "function"
				},
				{
					"inputs": [
						{
							"internalType": "uint8",
							"name": "newRate",
							"type": "uint8"
						}
					],
					"name": "updateRebateRate",
					"outputs": [],
					"stateMutability": "nonpayable",
					"type": "function"
				},
				{
					"inputs": [
						{
							"internalType": "uint256",
							"name": "proposalId",
							"type": "uint256"
						},
						{
							"internalType": "bool",
							"name": "voteFor",
							"type": "bool"
						}
					],
					"name": "voteDAOProposal",
					"outputs": [],
					"stateMutability": "nonpayable",
					"type": "function"
				}
			],
			"devdoc": {
				"details": "A Solidity version of the HFRT project, enhanced for Ethereum. Features include:  - Global state & governance configuration (rebate rate, fee discount)  - 24-hour rolling trade volume tracking with sybil resistance (trade cooldown)  - Rebate claiming (both single and batch)  - Staking/unstaking with dynamic penalty and flash loan resistance via stake lockup  - Auto-compounding of staking rewards  - DAO proposals with batch voting and time-lock for execution  - Execution priority based on token holdings  - A buy-back and burn mechanism",
				"errors": {
					"OwnableInvalidOwner(address)": [
						{
							"details": "The owner is not a valid owner account. (eg. `address(0)`)"
						}
					],
					"OwnableUnauthorizedAccount(address)": [
						{
							"details": "The caller account is not authorized to perform an operation."
						}
					]
				},
				"kind": "dev",
				"methods": {
					"batchClaimRebate(address[])": {
						"params": {
							"traderAddresses": "The list of trader addresses to process."
						}
					},
					"batchVoteDAOProposal(uint256[],bool[])": {
						"params": {
							"proposalIds": "An array of proposal IDs.",
							"votes": "An array of booleans indicating votes (true for for, false for against)."
						}
					},
					"calculateDynamicUnstakePenalty(uint256,uint256,uint256)": {
						"params": {
							"amount": "The unstaking amount.",
							"currentTime": "The current timestamp.",
							"stakeStartTime": "The timestamp when staking started."
						},
						"returns": {
							"_0": "The penalty amount."
						}
					},
					"calculateRebateMultiplier(uint256)": {
						"params": {
							"tradeVolume": "The trading volume."
						},
						"returns": {
							"_0": "A multiplier value."
						}
					},
					"createDAOProposal(uint256,uint8,uint256,uint256)": {
						"params": {
							"newFeeDiscount": "The proposed new fee discount.",
							"proposalId": "The unique ID for the proposal.",
							"timeLock": "Duration (in seconds) after voting ends before execution.",
							"votingPeriod": "Duration (in seconds) during which voting is allowed."
						}
					},
					"executeDAOProposal(uint256)": {
						"params": {
							"proposalId": "The ID of the proposal."
						}
					},
					"getExecutionPriority(address)": {
						"params": {
							"trader": "The address of the trader."
						}
					},
					"initializeGovernance(uint8,uint8)": {
						"params": {
							"_maxFeeDiscount": "The maximum allowed fee discount.",
							"_rebateRate": "The rebate rate (e.g., 10 means 1% rebate)."
						}
					},
					"owner()": {
						"details": "Returns the address of the current owner."
					},
					"recordTrade(uint256)": {
						"params": {
							"tradeAmount": "The trade amount."
						}
					},
					"renounceOwnership()": {
						"details": "Leaves the contract without owner. It will not be possible to call `onlyOwner` functions. Can only be called by the current owner. NOTE: Renouncing ownership will leave the contract without an owner, thereby disabling any functionality that is only available to the owner."
					},
					"stakeTokens(uint256)": {
						"params": {
							"amount": "The amount of tokens to stake."
						}
					},
					"transferOwnership(address)": {
						"details": "Transfers ownership of the contract to a new account (`newOwner`). Can only be called by the current owner."
					},
					"unstakeTokens(uint256)": {
						"params": {
							"amount": "The amount of tokens to unstake."
						}
					},
					"updateRebateRate(uint8)": {
						"params": {
							"newRate": "The new rebate rate."
						}
					},
					"voteDAOProposal(uint256,bool)": {
						"params": {
							"proposalId": "The ID of the proposal.",
							"voteFor": "True to vote in favor; false to vote against."
						}
					}
				},
				"title": "HFRebtateToken",
				"version": 1
			},
			"evm": {
				"assembly": "    /* \"contracts/HFRebtateToken.sol\":1005:15187  contract HFRebtateToken is Ownable, ReentrancyGuard {... */\n  mstore(0x40, 0x80)\n    /* \"contracts/HFRebtateToken.sol\":3240:3403  constructor(address _hfrtToken, uint8 _feeDiscount) Ownable(msg.sender) {... */\n  callvalue\n  dup1\n  iszero\n  tag_1\n  jumpi\n  revert(0x00, 0x00)\ntag_1:\n  pop\n  mload(0x40)\n  sub(codesize, bytecodeSize)\n  dup1\n  bytecodeSize\n  dup4\n  codecopy\n  dup2\n  dup2\n  add\n  0x40\n  mstore\n  dup2\n  add\n  swap1\n  tag_2\n  swap2\n  swap1\n  tag_3\n  jump\t// in\ntag_2:\n    /* \"contracts/HFRebtateToken.sol\":3300:3310  msg.sender */\n  caller\n    /* \"@openzeppelin/contracts/access/Ownable.sol\":1297:1298  0 */\n  0x00\n    /* \"@openzeppelin/contracts/access/Ownable.sol\":1273:1299  initialOwner == address(0) */\n  0xffffffffffffffffffffffffffffffffffffffff\n  and\n    /* \"@openzeppelin/contracts/access/Ownable.sol\":1273:1285  initialOwner */\n  dup2\n    /* \"@openzeppelin/contracts/access/Ownable.sol\":1273:1299  initialOwner == address(0) */\n  0xffffffffffffffffffffffffffffffffffffffff\n  and\n  sub\n    /* \"@openzeppelin/contracts/access/Ownable.sol\":1269:1364  if (initialOwner == address(0)) {... */\n  tag_8\n  jumpi\n    /* \"@openzeppelin/contracts/access/Ownable.sol\":1350:1351  0 */\n  0x00\n    /* \"@openzeppelin/contracts/access/Ownable.sol\":1322:1353  OwnableInvalidOwner(address(0)) */\n  mload(0x40)\n  0x1e4fbdf700000000000000000000000000000000000000000000000000000000\n  dup2\n  mstore\n  0x04\n  add\n  tag_9\n  swap2\n  swap1\n  tag_10\n  jump\t// in\ntag_9:\n  mload(0x40)\n  dup1\n  swap2\n  sub\n  swap1\n  revert\n    /* \"@openzeppelin/contracts/access/Ownable.sol\":1269:1364  if (initialOwner == address(0)) {... */\ntag_8:\n    /* \"@openzeppelin/contracts/access/Ownable.sol\":1373:1405  _transferOwnership(initialOwner) */\n  tag_11\n    /* \"@openzeppelin/contracts/access/Ownable.sol\":1392:1404  initialOwner */\n  dup2\n    /* \"@openzeppelin/contracts/access/Ownable.sol\":1373:1391  _transferOwnership */\n  shl(0x20, tag_12)\n    /* \"@openzeppelin/contracts/access/Ownable.sol\":1373:1405  _transferOwnership(initialOwner) */\n  0x20\n  shr\n  jump\t// in\ntag_11:\n    /* \"@openzeppelin/contracts/access/Ownable.sol\":1225:1412  constructor(address initialOwner) {... */\n  pop\n    /* \"@openzeppelin/contracts/security/ReentrancyGuard.sol\":1716:1717  1 */\n  0x01\n    /* \"@openzeppelin/contracts/security/ReentrancyGuard.sol\":1821:1828  _status */\n  dup1\n    /* \"@openzeppelin/contracts/security/ReentrancyGuard.sol\":1821:1843  _status = _NOT_ENTERED */\n  dup2\n  swap1\n  sstore\n  pop\n    /* \"contracts/HFRebtateToken.sol\":3349:3359  _hfrtToken */\n  dup2\n    /* \"contracts/HFRebtateToken.sol\":3322:3331  hfrtToken */\n  0x02\n  0x00\n    /* \"contracts/HFRebtateToken.sol\":3322:3360  hfrtToken = IERC20Mintable(_hfrtToken) */\n  0x0100\n  exp\n  dup2\n  sload\n  dup2\n  0xffffffffffffffffffffffffffffffffffffffff\n  mul\n  not\n  and\n  swap1\n  dup4\n  0xffffffffffffffffffffffffffffffffffffffff\n  and\n  mul\n  or\n  swap1\n  sstore\n  pop\n    /* \"contracts/HFRebtateToken.sol\":3384:3396  _feeDiscount */\n  dup1\n    /* \"contracts/HFRebtateToken.sol\":3370:3381  feeDiscount */\n  0x02\n  0x14\n    /* \"contracts/HFRebtateToken.sol\":3370:3396  feeDiscount = _feeDiscount */\n  0x0100\n  exp\n  dup2\n  sload\n  dup2\n  0xff\n  mul\n  not\n  and\n  swap1\n  dup4\n  0xff\n  and\n  mul\n  or\n  swap1\n  sstore\n  pop\n    /* \"contracts/HFRebtateToken.sol\":3240:3403  constructor(address _hfrtToken, uint8 _feeDiscount) Ownable(msg.sender) {... */\n  pop\n  pop\n    /* \"contracts/HFRebtateToken.sol\":1005:15187  contract HFRebtateToken is Ownable, ReentrancyGuard {... */\n  jump(tag_15)\n    /* \"@openzeppelin/contracts/access/Ownable.sol\":2912:3099  function _transferOwnership(address newOwner) internal virtual {... */\ntag_12:\n    /* \"@openzeppelin/contracts/access/Ownable.sol\":2985:3001  address oldOwner */\n  0x00\n    /* \"@openzeppelin/contracts/access/Ownable.sol\":3004:3010  _owner */\n  0x00\n  0x00\n  swap1\n  sload\n  swap1\n  0x0100\n  exp\n  swap1\n  div\n  0xffffffffffffffffffffffffffffffffffffffff\n  and\n    /* \"@openzeppelin/contracts/access/Ownable.sol\":2985:3010  address oldOwner = _owner */\n  swap1\n  pop\n    /* \"@openzeppelin/contracts/access/Ownable.sol\":3029:3037  newOwner */\n  dup2\n    /* \"@openzeppelin/contracts/access/Ownable.sol\":3020:3026  _owner */\n  0x00\n  0x00\n    /* \"@openzeppelin/contracts/access/Ownable.sol\":3020:3037  _owner = newOwner */\n  0x0100\n  exp\n  dup2\n  sload\n  dup2\n  0xffffffffffffffffffffffffffffffffffffffff\n  mul\n  not\n  and\n  swap1\n  dup4\n  0xffffffffffffffffffffffffffffffffffffffff\n  and\n  mul\n  or\n  swap1\n  sstore\n  pop\n    /* \"@openzeppelin/contracts/access/Ownable.sol\":3083:3091  newOwner */\n  dup2\n    /* \"@openzeppelin/contracts/access/Ownable.sol\":3052:3092  OwnershipTransferred(oldOwner, newOwner) */\n  0xffffffffffffffffffffffffffffffffffffffff\n  and\n    /* \"@openzeppelin/contracts/access/Ownable.sol\":3073:3081  oldOwner */\n  dup2\n    /* \"@openzeppelin/contracts/access/Ownable.sol\":3052:3092  OwnershipTransferred(oldOwner, newOwner) */\n  0xffffffffffffffffffffffffffffffffffffffff\n  and\n  0x8be0079c531659141344cd1fd0a4f28419497f9722a3daafe3b4186f6b6457e0\n  mload(0x40)\n  mload(0x40)\n  dup1\n  swap2\n  sub\n  swap1\n  log3\n    /* \"@openzeppelin/contracts/access/Ownable.sol\":2975:3099  {... */\n  pop\n    /* \"@openzeppelin/contracts/access/Ownable.sol\":2912:3099  function _transferOwnership(address newOwner) internal virtual {... */\n  pop\n  jump\t// out\n    /* \"#utility.yul\":88:205   */\ntag_18:\n    /* \"#utility.yul\":197:198   */\n  0x00\n    /* \"#utility.yul\":194:195   */\n  0x00\n    /* \"#utility.yul\":187:199   */\n  revert\n    /* \"#utility.yul\":334:460   */\ntag_20:\n    /* \"#utility.yul\":371:378   */\n  0x00\n    /* \"#utility.yul\":411:453   */\n  0xffffffffffffffffffffffffffffffffffffffff\n    /* \"#utility.yul\":404:409   */\n  dup3\n    /* \"#utility.yul\":400:454   */\n  and\n    /* \"#utility.yul\":389:454   */\n  swap1\n  pop\n    /* \"#utility.yul\":334:460   */\n  swap2\n  swap1\n  pop\n  jump\t// out\n    /* \"#utility.yul\":466:562   */\ntag_21:\n    /* \"#utility.yul\":503:510   */\n  0x00\n    /* \"#utility.yul\":532:556   */\n  tag_34\n    /* \"#utility.yul\":550:555   */\n  dup3\n    /* \"#utility.yul\":532:556   */\n  tag_20\n  jump\t// in\ntag_34:\n    /* \"#utility.yul\":521:556   */\n  swap1\n  pop\n    /* \"#utility.yul\":466:562   */\n  swap2\n  swap1\n  pop\n  jump\t// out\n    /* \"#utility.yul\":568:690   */\ntag_22:\n    /* \"#utility.yul\":641:665   */\n  tag_36\n    /* \"#utility.yul\":659:664   */\n  dup2\n    /* \"#utility.yul\":641:665   */\n  tag_21\n  jump\t// in\ntag_36:\n    /* \"#utility.yul\":634:639   */\n  dup2\n    /* \"#utility.yul\":631:666   */\n  eq\n    /* \"#utility.yul\":621:684   */\n  tag_37\n  jumpi\n    /* \"#utility.yul\":680:681   */\n  0x00\n    /* \"#utility.yul\":677:678   */\n  0x00\n    /* \"#utility.yul\":670:682   */\n  revert\n    /* \"#utility.yul\":621:684   */\ntag_37:\n    /* \"#utility.yul\":568:690   */\n  pop\n  jump\t// out\n    /* \"#utility.yul\":696:839   */\ntag_23:\n    /* \"#utility.yul\":753:758   */\n  0x00\n    /* \"#utility.yul\":784:790   */\n  dup2\n    /* \"#utility.yul\":778:791   */\n  mload\n    /* \"#utility.yul\":769:791   */\n  swap1\n  pop\n    /* \"#utility.yul\":800:833   */\n  tag_39\n    /* \"#utility.yul\":827:832   */\n  dup2\n    /* \"#utility.yul\":800:833   */\n  tag_22\n  jump\t// in\ntag_39:\n    /* \"#utility.yul\":696:839   */\n  swap3\n  swap2\n  pop\n  pop\n  jump\t// out\n    /* \"#utility.yul\":845:931   */\ntag_24:\n    /* \"#utility.yul\":880:887   */\n  0x00\n    /* \"#utility.yul\":920:924   */\n  0xff\n    /* \"#utility.yul\":913:918   */\n  dup3\n    /* \"#utility.yul\":909:925   */\n  and\n    /* \"#utility.yul\":898:925   */\n  swap1\n  pop\n    /* \"#utility.yul\":845:931   */\n  swap2\n  swap1\n  pop\n  jump\t// out\n    /* \"#utility.yul\":937:1055   */\ntag_25:\n    /* \"#utility.yul\":1008:1030   */\n  tag_42\n    /* \"#utility.yul\":1024:1029   */\n  dup2\n    /* \"#utility.yul\":1008:1030   */\n  tag_24\n  jump\t// in\ntag_42:\n    /* \"#utility.yul\":1001:1006   */\n  dup2\n    /* \"#utility.yul\":998:1031   */\n  eq\n    /* \"#utility.yul\":988:1049   */\n  tag_43\n  jumpi\n    /* \"#utility.yul\":1045:1046   */\n  0x00\n    /* \"#utility.yul\":1042:1043   */\n  0x00\n    /* \"#utility.yul\":1035:1047   */\n  revert\n    /* \"#utility.yul\":988:1049   */\ntag_43:\n    /* \"#utility.yul\":937:1055   */\n  pop\n  jump\t// out\n    /* \"#utility.yul\":1061:1200   */\ntag_26:\n    /* \"#utility.yul\":1116:1121   */\n  0x00\n    /* \"#utility.yul\":1147:1153   */\n  dup2\n    /* \"#utility.yul\":1141:1154   */\n  mload\n    /* \"#utility.yul\":1132:1154   */\n  swap1\n  pop\n    /* \"#utility.yul\":1163:1194   */\n  tag_45\n    /* \"#utility.yul\":1188:1193   */\n  dup2\n    /* \"#utility.yul\":1163:1194   */\n  tag_25\n  jump\t// in\ntag_45:\n    /* \"#utility.yul\":1061:1200   */\n  swap3\n  swap2\n  pop\n  pop\n  jump\t// out\n    /* \"#utility.yul\":1206:1709   */\ntag_3:\n    /* \"#utility.yul\":1283:1289   */\n  0x00\n    /* \"#utility.yul\":1291:1297   */\n  0x00\n    /* \"#utility.yul\":1340:1342   */\n  0x40\n    /* \"#utility.yul\":1328:1337   */\n  dup4\n    /* \"#utility.yul\":1319:1326   */\n  dup6\n    /* \"#utility.yul\":1315:1338   */\n  sub\n    /* \"#utility.yul\":1311:1343   */\n  slt\n    /* \"#utility.yul\":1308:1427   */\n  iszero\n  tag_47\n  jumpi\n    /* \"#utility.yul\":1346:1425   */\n  tag_48\n  tag_18\n  jump\t// in\ntag_48:\n    /* \"#utility.yul\":1308:1427   */\ntag_47:\n    /* \"#utility.yul\":1466:1467   */\n  0x00\n    /* \"#utility.yul\":1491:1555   */\n  tag_49\n    /* \"#utility.yul\":1547:1554   */\n  dup6\n    /* \"#utility.yul\":1538:1544   */\n  dup3\n    /* \"#utility.yul\":1527:1536   */\n  dup7\n    /* \"#utility.yul\":1523:1545   */\n  add\n    /* \"#utility.yul\":1491:1555   */\n  tag_23\n  jump\t// in\ntag_49:\n    /* \"#utility.yul\":1481:1555   */\n  swap3\n  pop\n    /* \"#utility.yul\":1437:1565   */\n  pop\n    /* \"#utility.yul\":1604:1606   */\n  0x20\n    /* \"#utility.yul\":1630:1692   */\n  tag_50\n    /* \"#utility.yul\":1684:1691   */\n  dup6\n    /* \"#utility.yul\":1675:1681   */\n  dup3\n    /* \"#utility.yul\":1664:1673   */\n  dup7\n    /* \"#utility.yul\":1660:1682   */\n  add\n    /* \"#utility.yul\":1630:1692   */\n  tag_26\n  jump\t// in\ntag_50:\n    /* \"#utility.yul\":1620:1692   */\n  swap2\n  pop\n    /* \"#utility.yul\":1575:1702   */\n  pop\n    /* \"#utility.yul\":1206:1709   */\n  swap3\n  pop\n  swap3\n  swap1\n  pop\n  jump\t// out\n    /* \"#utility.yul\":1715:1833   */\ntag_27:\n    /* \"#utility.yul\":1802:1826   */\n  tag_52\n    /* \"#utility.yul\":1820:1825   */\n  dup2\n    /* \"#utility.yul\":1802:1826   */\n  tag_21\n  jump\t// in\ntag_52:\n    /* \"#utility.yul\":1797:1800   */\n  dup3\n    /* \"#utility.yul\":1790:1827   */\n  mstore\n    /* \"#utility.yul\":1715:1833   */\n  pop\n  pop\n  jump\t// out\n    /* \"#utility.yul\":1839:2061   */\ntag_10:\n    /* \"#utility.yul\":1932:1936   */\n  0x00\n    /* \"#utility.yul\":1970:1972   */\n  0x20\n    /* \"#utility.yul\":1959:1968   */\n  dup3\n    /* \"#utility.yul\":1955:1973   */\n  add\n    /* \"#utility.yul\":1947:1973   */\n  swap1\n  pop\n    /* \"#utility.yul\":1983:2054   */\n  tag_54\n    /* \"#utility.yul\":2051:2052   */\n  0x00\n    /* \"#utility.yul\":2040:2049   */\n  dup4\n    /* \"#utility.yul\":2036:2053   */\n  add\n    /* \"#utility.yul\":2027:2033   */\n  dup5\n    /* \"#utility.yul\":1983:2054   */\n  tag_27\n  jump\t// in\ntag_54:\n    /* \"#utility.yul\":1839:2061   */\n  swap3\n  swap2\n  pop\n  pop\n  jump\t// out\n    /* \"contracts/HFRebtateToken.sol\":1005:15187  contract HFRebtateToken is Ownable, ReentrancyGuard {... */\ntag_15:\n  dataSize(sub_0)\n  dup1\n  dataOffset(sub_0)\n  0x00\n  codecopy\n  0x00\n  return\nstop\n\nsub_0: assembly {\n        /* \"contracts/HFRebtateToken.sol\":1005:15187  contract HFRebtateToken is Ownable, ReentrancyGuard {... */\n      mstore(0x40, 0x80)\n      callvalue\n      dup1\n      iszero\n      tag_1\n      jumpi\n      revert(0x00, 0x00)\n    tag_1:\n      pop\n      jumpi(tag_2, lt(calldatasize, 0x04))\n      shr(0xe0, calldataload(0x00))\n      dup1\n      0x7bb1ca19\n      gt\n      tag_29\n      jumpi\n      dup1\n      0xa789b01f\n      gt\n      tag_30\n      jumpi\n      dup1\n      0xcda3948f\n      gt\n      tag_31\n      jumpi\n      dup1\n      0xcda3948f\n      eq\n      tag_25\n      jumpi\n      dup1\n      0xebf959e4\n      eq\n      tag_26\n      jumpi\n      dup1\n      0xf2fde38b\n      eq\n      tag_27\n      jumpi\n      dup1\n      0xfeb8b43b\n      eq\n      tag_28\n      jumpi\n      jump(tag_2)\n    tag_31:\n      dup1\n      0xa789b01f\n      eq\n      tag_22\n      jumpi\n      dup1\n      0xa9ed3d29\n      eq\n      tag_23\n      jumpi\n      dup1\n      0xc970e99f\n      eq\n      tag_24\n      jumpi\n      jump(tag_2)\n    tag_30:\n      dup1\n      0x7bb1ca19\n      eq\n      tag_16\n      jumpi\n      dup1\n      0x8201b3f3\n      eq\n      tag_17\n      jumpi\n      dup1\n      0x821c0576\n      eq\n      tag_18\n      jumpi\n      dup1\n      0x8da5cb5b\n      eq\n      tag_19\n      jumpi\n      dup1\n      0x92a88fa2\n      eq\n      tag_20\n      jumpi\n      dup1\n      0xa43fde3a\n      eq\n      tag_21\n      jumpi\n      jump(tag_2)\n    tag_29:\n      dup1\n      0x552e2edf\n      gt\n      tag_32\n      jumpi\n      dup1\n      0x608e4dd0\n      gt\n      tag_33\n      jumpi\n      dup1\n      0x608e4dd0\n      eq\n      tag_12\n      jumpi\n      dup1\n      0x715018a6\n      eq\n      tag_13\n      jumpi\n      dup1\n      0x72bf1747\n      eq\n      tag_14\n      jumpi\n      dup1\n      0x7547c7a3\n      eq\n      tag_15\n      jumpi\n      jump(tag_2)\n    tag_33:\n      dup1\n      0x552e2edf\n      eq\n      tag_9\n      jumpi\n      dup1\n      0x5cc78faf\n      eq\n      tag_10\n      jumpi\n      dup1\n      0x5f292cd7\n      eq\n      tag_11\n      jumpi\n      jump(tag_2)\n    tag_32:\n      dup1\n      0x01b3e625\n      eq\n      tag_3\n      jumpi\n      dup1\n      0x03186eef\n      eq\n      tag_4\n      jumpi\n      dup1\n      0x0f573a73\n      eq\n      tag_5\n      jumpi\n      dup1\n      0x1896b1af\n      eq\n      tag_6\n      jumpi\n      dup1\n      0x3ffcf5ab\n      eq\n      tag_7\n      jumpi\n      dup1\n      0x46c3469e\n      eq\n      tag_8\n      jumpi\n    tag_2:\n      revert(0x00, 0x00)\n        /* \"contracts/HFRebtateToken.sol\":10808:11158  function voteDAOProposal(uint256 proposalId, bool voteFor) external {... */\n    tag_3:\n      tag_34\n      0x04\n      dup1\n      calldatasize\n      sub\n      dup2\n      add\n      swap1\n      tag_35\n      swap2\n      swap1\n      tag_36\n      jump\t// in\n    tag_35:\n      tag_37\n      jump\t// in\n    tag_34:\n      stop\n        /* \"contracts/HFRebtateToken.sol\":2040:2088  mapping(address => uint256) public lastTradeTime */\n    tag_4:\n      tag_38\n      0x04\n      dup1\n      calldatasize\n      sub\n      dup2\n      add\n      swap1\n      tag_39\n      swap2\n      swap1\n      tag_40\n      jump\t// in\n    tag_39:\n      tag_41\n      jump\t// in\n    tag_38:\n      mload(0x40)\n      tag_42\n      swap2\n      swap1\n      tag_43\n      jump\t// in\n    tag_42:\n      mload(0x40)\n      dup1\n      swap2\n      sub\n      swap1\n      return\n        /* \"contracts/HFRebtateToken.sol\":4081:4279  function updateRebateRate(uint8 newRate) external onlyOwner {... */\n    tag_5:\n      tag_44\n      0x04\n      dup1\n      calldatasize\n      sub\n      dup2\n      add\n      swap1\n      tag_45\n      swap2\n      swap1\n      tag_46\n      jump\t// in\n    tag_45:\n      tag_47\n      jump\t// in\n    tag_44:\n      stop\n        /* \"contracts/HFRebtateToken.sol\":9850:10619  function createDAOProposal(... */\n    tag_6:\n      tag_48\n      0x04\n      dup1\n      calldatasize\n      sub\n      dup2\n      add\n      swap1\n      tag_49\n      swap2\n      swap1\n      tag_50\n      jump\t// in\n    tag_49:\n      tag_51\n      jump\t// in\n    tag_48:\n      stop\n        /* \"contracts/HFRebtateToken.sol\":1199:1223  uint8 public feeDiscount */\n    tag_7:\n      tag_52\n      tag_53\n      jump\t// in\n    tag_52:\n      mload(0x40)\n      tag_54\n      swap2\n      swap1\n      tag_55\n      jump\t// in\n    tag_54:\n      mload(0x40)\n      dup1\n      swap2\n      sub\n      swap1\n      return\n        /* \"contracts/HFRebtateToken.sol\":12101:12605  function executeDAOProposal(uint256 proposalId) external {... */\n    tag_8:\n      tag_56\n      0x04\n      dup1\n      calldatasize\n      sub\n      dup2\n      add\n      swap1\n      tag_57\n      swap2\n      swap1\n      tag_58\n      jump\t// in\n    tag_57:\n      tag_59\n      jump\t// in\n    tag_56:\n      stop\n        /* \"contracts/HFRebtateToken.sol\":11379:11943  function batchVoteDAOProposal(uint256[] calldata proposalIds, bool[] calldata votes) external {... */\n    tag_9:\n      tag_60\n      0x04\n      dup1\n      calldatasize\n      sub\n      dup2\n      add\n      swap1\n      tag_61\n      swap2\n      swap1\n      tag_62\n      jump\t// in\n    tag_61:\n      tag_63\n      jump\t// in\n    tag_60:\n      stop\n        /* \"contracts/HFRebtateToken.sol\":1094:1125  IERC20Mintable public hfrtToken */\n    tag_10:\n      tag_64\n      tag_65\n      jump\t// in\n    tag_64:\n      mload(0x40)\n      tag_66\n      swap2\n      swap1\n      tag_67\n      jump\t// in\n    tag_66:\n      mload(0x40)\n      dup1\n      swap2\n      sub\n      swap1\n      return\n        /* \"contracts/HFRebtateToken.sol\":3653:3925  function initializeGovernance(uint8 _rebateRate, uint8 _maxFeeDiscount) external onlyOwner {... */\n    tag_11:\n      tag_68\n      0x04\n      dup1\n      calldatasize\n      sub\n      dup2\n      add\n      swap1\n      tag_69\n      swap2\n      swap1\n      tag_70\n      jump\t// in\n    tag_69:\n      tag_71\n      jump\t// in\n    tag_68:\n      stop\n        /* \"contracts/HFRebtateToken.sol\":8061:8644  function unstakeTokens(uint256 amount) external nonReentrant {... */\n    tag_12:\n      tag_72\n      0x04\n      dup1\n      calldatasize\n      sub\n      dup2\n      add\n      swap1\n      tag_73\n      swap2\n      swap1\n      tag_58\n      jump\t// in\n    tag_73:\n      tag_74\n      jump\t// in\n    tag_72:\n      stop\n        /* \"@openzeppelin/contracts/access/Ownable.sol\":2293:2394  function renounceOwnership() public virtual onlyOwner {... */\n    tag_13:\n      tag_75\n      tag_76\n      jump\t// in\n    tag_75:\n      stop\n        /* \"contracts/HFRebtateToken.sol\":12853:13173  function getExecutionPriority(address trader) external view returns (uint8) {... */\n    tag_14:\n      tag_77\n      0x04\n      dup1\n      calldatasize\n      sub\n      dup2\n      add\n      swap1\n      tag_78\n      swap2\n      swap1\n      tag_40\n      jump\t// in\n    tag_78:\n      tag_79\n      jump\t// in\n    tag_77:\n      mload(0x40)\n      tag_80\n      swap2\n      swap1\n      tag_55\n      jump\t// in\n    tag_80:\n      mload(0x40)\n      dup1\n      swap2\n      sub\n      swap1\n      return\n        /* \"contracts/HFRebtateToken.sol\":7302:7884  function stakeTokens(uint256 amount) external nonReentrant {... */\n    tag_15:\n      tag_81\n      0x04\n      dup1\n      calldatasize\n      sub\n      dup2\n      add\n      swap1\n      tag_82\n      swap2\n      swap1\n      tag_58\n      jump\t// in\n    tag_82:\n      tag_83\n      jump\t// in\n    tag_81:\n      stop\n        /* \"contracts/HFRebtateToken.sol\":2094:2142  mapping(address => uint256) public lastStakeTime */\n    tag_16:\n      tag_84\n      0x04\n      dup1\n      calldatasize\n      sub\n      dup2\n      add\n      swap1\n      tag_85\n      swap2\n      swap1\n      tag_40\n      jump\t// in\n    tag_85:\n      tag_86\n      jump\t// in\n    tag_84:\n      mload(0x40)\n      tag_87\n      swap2\n      swap1\n      tag_43\n      jump\t// in\n    tag_87:\n      mload(0x40)\n      dup1\n      swap2\n      sub\n      swap1\n      return\n        /* \"contracts/HFRebtateToken.sol\":13945:14289  function calculateRebateMultiplier(uint256 tradeVolume) public pure returns (uint8) {... */\n    tag_17:\n      tag_88\n      0x04\n      dup1\n      calldatasize\n      sub\n      dup2\n      add\n      swap1\n      tag_89\n      swap2\n      swap1\n      tag_58\n      jump\t// in\n    tag_89:\n      tag_90\n      jump\t// in\n    tag_88:\n      mload(0x40)\n      tag_91\n      swap2\n      swap1\n      tag_55\n      jump\t// in\n    tag_91:\n      mload(0x40)\n      dup1\n      swap2\n      sub\n      swap1\n      return\n        /* \"contracts/HFRebtateToken.sol\":8807:9440  function autoCompound() external nonReentrant {... */\n    tag_18:\n      tag_92\n      tag_93\n      jump\t// in\n    tag_92:\n      stop\n        /* \"@openzeppelin/contracts/access/Ownable.sol\":1638:1723  function owner() public view virtual returns (address) {... */\n    tag_19:\n      tag_94\n      tag_95\n      jump\t// in\n    tag_94:\n      mload(0x40)\n      tag_96\n      swap2\n      swap1\n      tag_97\n      jump\t// in\n    tag_96:\n      mload(0x40)\n      dup1\n      swap2\n      sub\n      swap1\n      return\n        /* \"contracts/HFRebtateToken.sol\":1894:1935  mapping(address => Trader) public traders */\n    tag_20:\n      tag_98\n      0x04\n      dup1\n      calldatasize\n      sub\n      dup2\n      add\n      swap1\n      tag_99\n      swap2\n      swap1\n      tag_40\n      jump\t// in\n    tag_99:\n      tag_100\n      jump\t// in\n    tag_98:\n      mload(0x40)\n      tag_101\n      swap5\n      swap4\n      swap3\n      swap2\n      swap1\n      tag_102\n      jump\t// in\n    tag_101:\n      mload(0x40)\n      dup1\n      swap2\n      sub\n      swap1\n      return\n        /* \"contracts/HFRebtateToken.sol\":2522:2573  mapping(uint256 => DAOProposal) public daoProposals */\n    tag_21:\n      tag_103\n      0x04\n      dup1\n      calldatasize\n      sub\n      dup2\n      add\n      swap1\n      tag_104\n      swap2\n      swap1\n      tag_58\n      jump\t// in\n    tag_104:\n      tag_105\n      jump\t// in\n    tag_103:\n      mload(0x40)\n      tag_106\n      swap9\n      swap8\n      swap7\n      swap6\n      swap5\n      swap4\n      swap3\n      swap2\n      swap1\n      tag_107\n      jump\t// in\n    tag_106:\n      mload(0x40)\n      dup1\n      swap2\n      sub\n      swap1\n      return\n        /* \"contracts/HFRebtateToken.sol\":14669:15185  function calculateDynamicUnstakePenalty(... */\n    tag_22:\n      tag_108\n      0x04\n      dup1\n      calldatasize\n      sub\n      dup2\n      add\n      swap1\n      tag_109\n      swap2\n      swap1\n      tag_110\n      jump\t// in\n    tag_109:\n      tag_111\n      jump\t// in\n    tag_108:\n      mload(0x40)\n      tag_112\n      swap2\n      swap1\n      tag_43\n      jump\t// in\n    tag_112:\n      mload(0x40)\n      dup1\n      swap2\n      sub\n      swap1\n      return\n        /* \"contracts/HFRebtateToken.sol\":1490:1530  GovernanceConfig public governanceConfig */\n    tag_23:\n      tag_113\n      tag_114\n      jump\t// in\n    tag_113:\n      mload(0x40)\n      tag_115\n      swap4\n      swap3\n      swap2\n      swap1\n      tag_116\n      jump\t// in\n    tag_115:\n      mload(0x40)\n      dup1\n      swap2\n      sub\n      swap1\n      return\n        /* \"contracts/HFRebtateToken.sol\":13361:13720  function buyBackAndBurn() external onlyOwner nonReentrant {... */\n    tag_24:\n      tag_117\n      tag_118\n      jump\t// in\n    tag_117:\n      stop\n        /* \"contracts/HFRebtateToken.sol\":5697:6218  function claimRebate() external nonReentrant {... */\n    tag_25:\n      tag_119\n      tag_120\n      jump\t// in\n    tag_119:\n      stop\n        /* \"contracts/HFRebtateToken.sol\":6380:7034  function batchClaimRebate(address[] calldata traderAddresses) external nonReentrant {... */\n    tag_26:\n      tag_121\n      0x04\n      dup1\n      calldatasize\n      sub\n      dup2\n      add\n      swap1\n      tag_122\n      swap2\n      swap1\n      tag_123\n      jump\t// in\n    tag_122:\n      tag_124\n      jump\t// in\n    tag_121:\n      stop\n        /* \"@openzeppelin/contracts/access/Ownable.sol\":2543:2758  function transferOwnership(address newOwner) public virtual onlyOwner {... */\n    tag_27:\n      tag_125\n      0x04\n      dup1\n      calldatasize\n      sub\n      dup2\n      add\n      swap1\n      tag_126\n      swap2\n      swap1\n      tag_40\n      jump\t// in\n    tag_126:\n      tag_127\n      jump\t// in\n    tag_125:\n      stop\n        /* \"contracts/HFRebtateToken.sol\":4561:5502  function recordTrade(uint256 tradeAmount) external {... */\n    tag_28:\n      tag_128\n      0x04\n      dup1\n      calldatasize\n      sub\n      dup2\n      add\n      swap1\n      tag_129\n      swap2\n      swap1\n      tag_58\n      jump\t// in\n    tag_129:\n      tag_130\n      jump\t// in\n    tag_128:\n      stop\n        /* \"contracts/HFRebtateToken.sol\":10808:11158  function voteDAOProposal(uint256 proposalId, bool voteFor) external {... */\n    tag_37:\n        /* \"contracts/HFRebtateToken.sol\":10886:10914  DAOProposal storage proposal */\n      0x00\n        /* \"contracts/HFRebtateToken.sol\":10917:10929  daoProposals */\n      0x07\n        /* \"contracts/HFRebtateToken.sol\":10917:10941  daoProposals[proposalId] */\n      0x00\n        /* \"contracts/HFRebtateToken.sol\":10930:10940  proposalId */\n      dup5\n        /* \"contracts/HFRebtateToken.sol\":10917:10941  daoProposals[proposalId] */\n      dup2\n      mstore\n      0x20\n      add\n      swap1\n      dup2\n      mstore\n      0x20\n      add\n      0x00\n      keccak256\n        /* \"contracts/HFRebtateToken.sol\":10886:10941  DAOProposal storage proposal = daoProposals[proposalId] */\n      swap1\n      pop\n        /* \"contracts/HFRebtateToken.sol\":10978:10986  proposal */\n      dup1\n        /* \"contracts/HFRebtateToken.sol\":10978:11001  proposal.votingDeadline */\n      0x04\n      add\n      sload\n        /* \"contracts/HFRebtateToken.sol\":10959:10974  block.timestamp */\n      timestamp\n        /* \"contracts/HFRebtateToken.sol\":10959:11001  block.timestamp <= proposal.votingDeadline */\n      gt\n      iszero\n        /* \"contracts/HFRebtateToken.sol\":10951:11024  require(block.timestamp <= proposal.votingDeadline, \"Voting period over\") */\n      tag_132\n      jumpi\n      mload(0x40)\n      0x08c379a000000000000000000000000000000000000000000000000000000000\n      dup2\n      mstore\n      0x04\n      add\n      tag_133\n      swap1\n      tag_134\n      jump\t// in\n    tag_133:\n      mload(0x40)\n      dup1\n      swap2\n      sub\n      swap1\n      revert\n    tag_132:\n        /* \"contracts/HFRebtateToken.sol\":11039:11046  voteFor */\n      dup2\n        /* \"contracts/HFRebtateToken.sol\":11035:11152  if (voteFor) {... */\n      iszero\n      tag_135\n      jumpi\n        /* \"contracts/HFRebtateToken.sol\":11083:11084  1 */\n      0x01\n        /* \"contracts/HFRebtateToken.sol\":11062:11070  proposal */\n      dup2\n        /* \"contracts/HFRebtateToken.sol\":11062:11079  proposal.votesFor */\n      0x02\n      add\n      0x00\n        /* \"contracts/HFRebtateToken.sol\":11062:11084  proposal.votesFor += 1 */\n      dup3\n      dup3\n      sload\n      tag_136\n      swap2\n      swap1\n      tag_137\n      jump\t// in\n    tag_136:\n      swap3\n      pop\n      pop\n      dup2\n      swap1\n      sstore\n      pop\n        /* \"contracts/HFRebtateToken.sol\":11035:11152  if (voteFor) {... */\n      jump(tag_138)\n    tag_135:\n        /* \"contracts/HFRebtateToken.sol\":11140:11141  1 */\n      0x01\n        /* \"contracts/HFRebtateToken.sol\":11115:11123  proposal */\n      dup2\n        /* \"contracts/HFRebtateToken.sol\":11115:11136  proposal.votesAgainst */\n      0x03\n      add\n      0x00\n        /* \"contracts/HFRebtateToken.sol\":11115:11141  proposal.votesAgainst += 1 */\n      dup3\n      dup3\n      sload\n      tag_139\n      swap2\n      swap1\n      tag_137\n      jump\t// in\n    tag_139:\n      swap3\n      pop\n      pop\n      dup2\n      swap1\n      sstore\n      pop\n        /* \"contracts/HFRebtateToken.sol\":11035:11152  if (voteFor) {... */\n    tag_138:\n        /* \"contracts/HFRebtateToken.sol\":10876:11158  {... */\n      pop\n        /* \"contracts/HFRebtateToken.sol\":10808:11158  function voteDAOProposal(uint256 proposalId, bool voteFor) external {... */\n      pop\n      pop\n      jump\t// out\n        /* \"contracts/HFRebtateToken.sol\":2040:2088  mapping(address => uint256) public lastTradeTime */\n    tag_41:\n      mstore(0x20, 0x05)\n      dup1\n      0x00\n      mstore\n      keccak256(0x00, 0x40)\n      0x00\n      swap2\n      pop\n      swap1\n      pop\n      sload\n      dup2\n      jump\t// out\n        /* \"contracts/HFRebtateToken.sol\":4081:4279  function updateRebateRate(uint8 newRate) external onlyOwner {... */\n    tag_47:\n        /* \"@openzeppelin/contracts/access/Ownable.sol\":1531:1544  _checkOwner() */\n      tag_141\n        /* \"@openzeppelin/contracts/access/Ownable.sol\":1531:1542  _checkOwner */\n      tag_142\n        /* \"@openzeppelin/contracts/access/Ownable.sol\":1531:1544  _checkOwner() */\n      jump\t// in\n    tag_141:\n        /* \"contracts/HFRebtateToken.sol\":4170:4186  governanceConfig */\n      0x03\n        /* \"contracts/HFRebtateToken.sol\":4170:4201  governanceConfig.maxFeeDiscount */\n      0x00\n      add\n      0x15\n      swap1\n      sload\n      swap1\n      0x0100\n      exp\n      swap1\n      div\n      0xff\n      and\n        /* \"contracts/HFRebtateToken.sol\":4159:4201  newRate <= governanceConfig.maxFeeDiscount */\n      0xff\n      and\n        /* \"contracts/HFRebtateToken.sol\":4159:4166  newRate */\n      dup2\n        /* \"contracts/HFRebtateToken.sol\":4159:4201  newRate <= governanceConfig.maxFeeDiscount */\n      0xff\n      and\n      gt\n      iszero\n        /* \"contracts/HFRebtateToken.sol\":4151:4225  require(newRate <= governanceConfig.maxFeeDiscount, \"Invalid rebate rate\") */\n      tag_144\n      jumpi\n      mload(0x40)\n      0x08c379a000000000000000000000000000000000000000000000000000000000\n      dup2\n      mstore\n      0x04\n      add\n      tag_145\n      swap1\n      tag_146\n      jump\t// in\n    tag_145:\n      mload(0x40)\n      dup1\n      swap2\n      sub\n      swap1\n      revert\n    tag_144:\n        /* \"contracts/HFRebtateToken.sol\":4265:4272  newRate */\n      dup1\n        /* \"contracts/HFRebtateToken.sol\":4235:4251  governanceConfig */\n      0x03\n        /* \"contracts/HFRebtateToken.sol\":4235:4262  governanceConfig.rebateRate */\n      0x00\n      add\n      0x14\n        /* \"contracts/HFRebtateToken.sol\":4235:4272  governanceConfig.rebateRate = newRate */\n      0x0100\n      exp\n      dup2\n      sload\n      dup2\n      0xff\n      mul\n      not\n      and\n      swap1\n      dup4\n      0xff\n      and\n      mul\n      or\n      swap1\n      sstore\n      pop\n        /* \"contracts/HFRebtateToken.sol\":4081:4279  function updateRebateRate(uint8 newRate) external onlyOwner {... */\n      pop\n      jump\t// out\n        /* \"contracts/HFRebtateToken.sol\":9850:10619  function createDAOProposal(... */\n    tag_51:\n        /* \"contracts/HFRebtateToken.sol\":10063:10064  0 */\n      0x00\n        /* \"contracts/HFRebtateToken.sol\":10024:10036  daoProposals */\n      0x07\n        /* \"contracts/HFRebtateToken.sol\":10024:10048  daoProposals[proposalId] */\n      0x00\n        /* \"contracts/HFRebtateToken.sol\":10037:10047  proposalId */\n      dup7\n        /* \"contracts/HFRebtateToken.sol\":10024:10048  daoProposals[proposalId] */\n      dup2\n      mstore\n      0x20\n      add\n      swap1\n      dup2\n      mstore\n      0x20\n      add\n      0x00\n      keccak256\n        /* \"contracts/HFRebtateToken.sol\":10024:10059  daoProposals[proposalId].proposalId */\n      0x00\n      add\n      sload\n        /* \"contracts/HFRebtateToken.sol\":10024:10064  daoProposals[proposalId].proposalId == 0 */\n      eq\n        /* \"contracts/HFRebtateToken.sol\":10016:10092  require(daoProposals[proposalId].proposalId == 0, \"Proposal already exists\") */\n      tag_148\n      jumpi\n      mload(0x40)\n      0x08c379a000000000000000000000000000000000000000000000000000000000\n      dup2\n      mstore\n      0x04\n      add\n      tag_149\n      swap1\n      tag_150\n      jump\t// in\n    tag_149:\n      mload(0x40)\n      dup1\n      swap2\n      sub\n      swap1\n      revert\n    tag_148:\n        /* \"contracts/HFRebtateToken.sol\":10130:10480  DAOProposal({... */\n      mload(0x40)\n      dup1\n      0x0100\n      add\n      0x40\n      mstore\n      dup1\n        /* \"contracts/HFRebtateToken.sol\":10168:10178  proposalId */\n      dup6\n        /* \"contracts/HFRebtateToken.sol\":10130:10480  DAOProposal({... */\n      dup2\n      mstore\n      0x20\n      add\n        /* \"contracts/HFRebtateToken.sol\":10202:10212  msg.sender */\n      caller\n        /* \"contracts/HFRebtateToken.sol\":10130:10480  DAOProposal({... */\n      0xffffffffffffffffffffffffffffffffffffffff\n      and\n      dup2\n      mstore\n      0x20\n      add\n        /* \"contracts/HFRebtateToken.sol\":10242:10256  newFeeDiscount */\n      dup5\n        /* \"contracts/HFRebtateToken.sol\":10130:10480  DAOProposal({... */\n      0xff\n      and\n      dup2\n      mstore\n      0x20\n      add\n        /* \"contracts/HFRebtateToken.sol\":10280:10281  0 */\n      0x00\n        /* \"contracts/HFRebtateToken.sol\":10130:10480  DAOProposal({... */\n      dup2\n      mstore\n      0x20\n      add\n        /* \"contracts/HFRebtateToken.sol\":10309:10310  0 */\n      0x00\n        /* \"contracts/HFRebtateToken.sol\":10130:10480  DAOProposal({... */\n      dup2\n      mstore\n      0x20\n      add\n        /* \"contracts/HFRebtateToken.sol\":10358:10370  votingPeriod */\n      dup4\n        /* \"contracts/HFRebtateToken.sol\":10340:10355  block.timestamp */\n      timestamp\n        /* \"contracts/HFRebtateToken.sol\":10340:10370  block.timestamp + votingPeriod */\n      tag_151\n      swap2\n      swap1\n      tag_137\n      jump\t// in\n    tag_151:\n        /* \"contracts/HFRebtateToken.sol\":10130:10480  DAOProposal({... */\n      dup2\n      mstore\n      0x20\n      add\n        /* \"contracts/HFRebtateToken.sol\":10432:10440  timeLock */\n      dup3\n        /* \"contracts/HFRebtateToken.sol\":10417:10429  votingPeriod */\n      dup5\n        /* \"contracts/HFRebtateToken.sol\":10399:10414  block.timestamp */\n      timestamp\n        /* \"contracts/HFRebtateToken.sol\":10399:10429  block.timestamp + votingPeriod */\n      tag_152\n      swap2\n      swap1\n      tag_137\n      jump\t// in\n    tag_152:\n        /* \"contracts/HFRebtateToken.sol\":10399:10440  block.timestamp + votingPeriod + timeLock */\n      tag_153\n      swap2\n      swap1\n      tag_137\n      jump\t// in\n    tag_153:\n        /* \"contracts/HFRebtateToken.sol\":10130:10480  DAOProposal({... */\n      dup2\n      mstore\n      0x20\n      add\n        /* \"contracts/HFRebtateToken.sol\":10464:10469  false */\n      0x00\n        /* \"contracts/HFRebtateToken.sol\":10130:10480  DAOProposal({... */\n      iszero\n      iszero\n      dup2\n      mstore\n      pop\n        /* \"contracts/HFRebtateToken.sol\":10103:10115  daoProposals */\n      0x07\n        /* \"contracts/HFRebtateToken.sol\":10103:10127  daoProposals[proposalId] */\n      0x00\n        /* \"contracts/HFRebtateToken.sol\":10116:10126  proposalId */\n      dup7\n        /* \"contracts/HFRebtateToken.sol\":10103:10127  daoProposals[proposalId] */\n      dup2\n      mstore\n      0x20\n      add\n      swap1\n      dup2\n      mstore\n      0x20\n      add\n      0x00\n      keccak256\n        /* \"contracts/HFRebtateToken.sol\":10103:10480  daoProposals[proposalId] = DAOProposal({... */\n      0x00\n      dup3\n      add\n      mload\n      dup2\n      0x00\n      add\n      sstore\n      0x20\n      dup3\n      add\n      mload\n      dup2\n      0x01\n      add\n      exp(0x0100, 0x00)\n      dup2\n      sload\n      dup2\n      0xffffffffffffffffffffffffffffffffffffffff\n      mul\n      not\n      and\n      swap1\n      dup4\n      0xffffffffffffffffffffffffffffffffffffffff\n      and\n      mul\n      or\n      swap1\n      sstore\n      pop\n      0x40\n      dup3\n      add\n      mload\n      dup2\n      0x01\n      add\n      exp(0x0100, 0x14)\n      dup2\n      sload\n      dup2\n      0xff\n      mul\n      not\n      and\n      swap1\n      dup4\n      0xff\n      and\n      mul\n      or\n      swap1\n      sstore\n      pop\n      0x60\n      dup3\n      add\n      mload\n      dup2\n      0x02\n      add\n      sstore\n      0x80\n      dup3\n      add\n      mload\n      dup2\n      0x03\n      add\n      sstore\n      0xa0\n      dup3\n      add\n      mload\n      dup2\n      0x04\n      add\n      sstore\n      0xc0\n      dup3\n      add\n      mload\n      dup2\n      0x05\n      add\n      sstore\n      0xe0\n      dup3\n      add\n      mload\n      dup2\n      0x06\n      add\n      exp(0x0100, 0x00)\n      dup2\n      sload\n      dup2\n      0xff\n      mul\n      not\n      and\n      swap1\n      dup4\n      iszero\n      iszero\n      mul\n      or\n      swap1\n      sstore\n      pop\n      swap1\n      pop\n      pop\n        /* \"contracts/HFRebtateToken.sol\":10495:10612  DAOProposalCreated(proposalId, msg.sender, block.timestamp + votingPeriod, block.timestamp + votingPeriod + timeLock) */\n      0x87e85754eef35e696416d1787d3adb2684f8755d9052aab6b6a4acff231f1105\n        /* \"contracts/HFRebtateToken.sol\":10514:10524  proposalId */\n      dup5\n        /* \"contracts/HFRebtateToken.sol\":10526:10536  msg.sender */\n      caller\n        /* \"contracts/HFRebtateToken.sol\":10556:10568  votingPeriod */\n      dup5\n        /* \"contracts/HFRebtateToken.sol\":10538:10553  block.timestamp */\n      timestamp\n        /* \"contracts/HFRebtateToken.sol\":10538:10568  block.timestamp + votingPeriod */\n      tag_154\n      swap2\n      swap1\n      tag_137\n      jump\t// in\n    tag_154:\n        /* \"contracts/HFRebtateToken.sol\":10603:10611  timeLock */\n      dup5\n        /* \"contracts/HFRebtateToken.sol\":10588:10600  votingPeriod */\n      dup7\n        /* \"contracts/HFRebtateToken.sol\":10570:10585  block.timestamp */\n      timestamp\n        /* \"contracts/HFRebtateToken.sol\":10570:10600  block.timestamp + votingPeriod */\n      tag_155\n      swap2\n      swap1\n      tag_137\n      jump\t// in\n    tag_155:\n        /* \"contracts/HFRebtateToken.sol\":10570:10611  block.timestamp + votingPeriod + timeLock */\n      tag_156\n      swap2\n      swap1\n      tag_137\n      jump\t// in\n    tag_156:\n        /* \"contracts/HFRebtateToken.sol\":10495:10612  DAOProposalCreated(proposalId, msg.sender, block.timestamp + votingPeriod, block.timestamp + votingPeriod + timeLock) */\n      mload(0x40)\n      tag_157\n      swap5\n      swap4\n      swap3\n      swap2\n      swap1\n      tag_158\n      jump\t// in\n    tag_157:\n      mload(0x40)\n      dup1\n      swap2\n      sub\n      swap1\n      log1\n        /* \"contracts/HFRebtateToken.sol\":9850:10619  function createDAOProposal(... */\n      pop\n      pop\n      pop\n      pop\n      jump\t// out\n        /* \"contracts/HFRebtateToken.sol\":1199:1223  uint8 public feeDiscount */\n    tag_53:\n      0x02\n      0x14\n      swap1\n      sload\n      swap1\n      0x0100\n      exp\n      swap1\n      div\n      0xff\n      and\n      dup2\n      jump\t// out\n        /* \"contracts/HFRebtateToken.sol\":12101:12605  function executeDAOProposal(uint256 proposalId) external {... */\n    tag_59:\n        /* \"contracts/HFRebtateToken.sol\":12168:12196  DAOProposal storage proposal */\n      0x00\n        /* \"contracts/HFRebtateToken.sol\":12199:12211  daoProposals */\n      0x07\n        /* \"contracts/HFRebtateToken.sol\":12199:12223  daoProposals[proposalId] */\n      0x00\n        /* \"contracts/HFRebtateToken.sol\":12212:12222  proposalId */\n      dup4\n        /* \"contracts/HFRebtateToken.sol\":12199:12223  daoProposals[proposalId] */\n      dup2\n      mstore\n      0x20\n      add\n      swap1\n      dup2\n      mstore\n      0x20\n      add\n      0x00\n      keccak256\n        /* \"contracts/HFRebtateToken.sol\":12168:12223  DAOProposal storage proposal = daoProposals[proposalId] */\n      swap1\n      pop\n        /* \"contracts/HFRebtateToken.sol\":12260:12268  proposal */\n      dup1\n        /* \"contracts/HFRebtateToken.sol\":12260:12282  proposal.executionTime */\n      0x05\n      add\n      sload\n        /* \"contracts/HFRebtateToken.sol\":12241:12256  block.timestamp */\n      timestamp\n        /* \"contracts/HFRebtateToken.sol\":12241:12282  block.timestamp >= proposal.executionTime */\n      lt\n      iszero\n        /* \"contracts/HFRebtateToken.sol\":12233:12303  require(block.timestamp >= proposal.executionTime, \"Time lock active\") */\n      tag_160\n      jumpi\n      mload(0x40)\n      0x08c379a000000000000000000000000000000000000000000000000000000000\n      dup2\n      mstore\n      0x04\n      add\n      tag_161\n      swap1\n      tag_162\n      jump\t// in\n    tag_161:\n      mload(0x40)\n      dup1\n      swap2\n      sub\n      swap1\n      revert\n    tag_160:\n        /* \"contracts/HFRebtateToken.sol\":12322:12330  proposal */\n      dup1\n        /* \"contracts/HFRebtateToken.sol\":12322:12339  proposal.executed */\n      0x06\n      add\n      0x00\n      swap1\n      sload\n      swap1\n      0x0100\n      exp\n      swap1\n      div\n      0xff\n      and\n        /* \"contracts/HFRebtateToken.sol\":12321:12339  !proposal.executed */\n      iszero\n        /* \"contracts/HFRebtateToken.sol\":12313:12360  require(!proposal.executed, \"Already executed\") */\n      tag_163\n      jumpi\n      mload(0x40)\n      0x08c379a000000000000000000000000000000000000000000000000000000000\n      dup2\n      mstore\n      0x04\n      add\n      tag_164\n      swap1\n      tag_165\n      jump\t// in\n    tag_164:\n      mload(0x40)\n      dup1\n      swap2\n      sub\n      swap1\n      revert\n    tag_163:\n        /* \"contracts/HFRebtateToken.sol\":12398:12406  proposal */\n      dup1\n        /* \"contracts/HFRebtateToken.sol\":12398:12419  proposal.votesAgainst */\n      0x03\n      add\n      sload\n        /* \"contracts/HFRebtateToken.sol\":12378:12386  proposal */\n      dup2\n        /* \"contracts/HFRebtateToken.sol\":12378:12395  proposal.votesFor */\n      0x02\n      add\n      sload\n        /* \"contracts/HFRebtateToken.sol\":12378:12419  proposal.votesFor > proposal.votesAgainst */\n      gt\n        /* \"contracts/HFRebtateToken.sol\":12370:12445  require(proposal.votesFor > proposal.votesAgainst, \"DAO proposal rejected\") */\n      tag_166\n      jumpi\n      mload(0x40)\n      0x08c379a000000000000000000000000000000000000000000000000000000000\n      dup2\n      mstore\n      0x04\n      add\n      tag_167\n      swap1\n      tag_168\n      jump\t// in\n    tag_167:\n      mload(0x40)\n      dup1\n      swap2\n      sub\n      swap1\n      revert\n    tag_166:\n        /* \"contracts/HFRebtateToken.sol\":12470:12478  proposal */\n      dup1\n        /* \"contracts/HFRebtateToken.sol\":12470:12493  proposal.newFeeDiscount */\n      0x01\n      add\n      0x14\n      swap1\n      sload\n      swap1\n      0x0100\n      exp\n      swap1\n      div\n      0xff\n      and\n        /* \"contracts/HFRebtateToken.sol\":12456:12467  feeDiscount */\n      0x02\n      0x14\n        /* \"contracts/HFRebtateToken.sol\":12456:12493  feeDiscount = proposal.newFeeDiscount */\n      0x0100\n      exp\n      dup2\n      sload\n      dup2\n      0xff\n      mul\n      not\n      and\n      swap1\n      dup4\n      0xff\n      and\n      mul\n      or\n      swap1\n      sstore\n      pop\n        /* \"contracts/HFRebtateToken.sol\":12523:12527  true */\n      0x01\n        /* \"contracts/HFRebtateToken.sol\":12503:12511  proposal */\n      dup2\n        /* \"contracts/HFRebtateToken.sol\":12503:12520  proposal.executed */\n      0x06\n      add\n      0x00\n        /* \"contracts/HFRebtateToken.sol\":12503:12527  proposal.executed = true */\n      0x0100\n      exp\n      dup2\n      sload\n      dup2\n      0xff\n      mul\n      not\n      and\n      swap1\n      dup4\n      iszero\n      iszero\n      mul\n      or\n      swap1\n      sstore\n      pop\n        /* \"contracts/HFRebtateToken.sol\":12542:12598  DAOProposalExecuted(proposalId, proposal.newFeeDiscount) */\n      0x6e223d5f7773cbdb9521ce8494c05f833e1518ee33349cc811bf339633bc0dab\n        /* \"contracts/HFRebtateToken.sol\":12562:12572  proposalId */\n      dup3\n        /* \"contracts/HFRebtateToken.sol\":12574:12582  proposal */\n      dup3\n        /* \"contracts/HFRebtateToken.sol\":12574:12597  proposal.newFeeDiscount */\n      0x01\n      add\n      0x14\n      swap1\n      sload\n      swap1\n      0x0100\n      exp\n      swap1\n      div\n      0xff\n      and\n        /* \"contracts/HFRebtateToken.sol\":12542:12598  DAOProposalExecuted(proposalId, proposal.newFeeDiscount) */\n      mload(0x40)\n      tag_169\n      swap3\n      swap2\n      swap1\n      tag_170\n      jump\t// in\n    tag_169:\n      mload(0x40)\n      dup1\n      swap2\n      sub\n      swap1\n      log1\n        /* \"contracts/HFRebtateToken.sol\":12158:12605  {... */\n      pop\n        /* \"contracts/HFRebtateToken.sol\":12101:12605  function executeDAOProposal(uint256 proposalId) external {... */\n      pop\n      jump\t// out\n        /* \"contracts/HFRebtateToken.sol\":11379:11943  function batchVoteDAOProposal(uint256[] calldata proposalIds, bool[] calldata votes) external {... */\n    tag_63:\n        /* \"contracts/HFRebtateToken.sol\":11513:11518  votes */\n      dup2\n      dup2\n        /* \"contracts/HFRebtateToken.sol\":11513:11525  votes.length */\n      swap1\n      pop\n        /* \"contracts/HFRebtateToken.sol\":11491:11502  proposalIds */\n      dup5\n      dup5\n        /* \"contracts/HFRebtateToken.sol\":11491:11509  proposalIds.length */\n      swap1\n      pop\n        /* \"contracts/HFRebtateToken.sol\":11491:11525  proposalIds.length == votes.length */\n      eq\n        /* \"contracts/HFRebtateToken.sol\":11483:11547  require(proposalIds.length == votes.length, \"Mismatched inputs\") */\n      tag_172\n      jumpi\n      mload(0x40)\n      0x08c379a000000000000000000000000000000000000000000000000000000000\n      dup2\n      mstore\n      0x04\n      add\n      tag_173\n      swap1\n      tag_174\n      jump\t// in\n    tag_173:\n      mload(0x40)\n      dup1\n      swap2\n      sub\n      swap1\n      revert\n    tag_172:\n        /* \"contracts/HFRebtateToken.sol\":11562:11571  uint256 i */\n      0x00\n        /* \"contracts/HFRebtateToken.sol\":11574:11575  0 */\n      0x00\n        /* \"contracts/HFRebtateToken.sol\":11562:11575  uint256 i = 0 */\n      swap1\n      pop\n        /* \"contracts/HFRebtateToken.sol\":11557:11937  for (uint256 i = 0; i < proposalIds.length; i++) {... */\n    tag_175:\n        /* \"contracts/HFRebtateToken.sol\":11581:11592  proposalIds */\n      dup5\n      dup5\n        /* \"contracts/HFRebtateToken.sol\":11581:11599  proposalIds.length */\n      swap1\n      pop\n        /* \"contracts/HFRebtateToken.sol\":11577:11578  i */\n      dup2\n        /* \"contracts/HFRebtateToken.sol\":11577:11599  i < proposalIds.length */\n      lt\n        /* \"contracts/HFRebtateToken.sol\":11557:11937  for (uint256 i = 0; i < proposalIds.length; i++) {... */\n      iszero\n      tag_176\n      jumpi\n        /* \"contracts/HFRebtateToken.sol\":11620:11648  DAOProposal storage proposal */\n      0x00\n        /* \"contracts/HFRebtateToken.sol\":11651:11663  daoProposals */\n      0x07\n        /* \"contracts/HFRebtateToken.sol\":11651:11679  daoProposals[proposalIds[i]] */\n      0x00\n        /* \"contracts/HFRebtateToken.sol\":11664:11675  proposalIds */\n      dup8\n      dup8\n        /* \"contracts/HFRebtateToken.sol\":11676:11677  i */\n      dup6\n        /* \"contracts/HFRebtateToken.sol\":11664:11678  proposalIds[i] */\n      dup2\n      dup2\n      lt\n      tag_178\n      jumpi\n      tag_179\n      tag_180\n      jump\t// in\n    tag_179:\n    tag_178:\n      swap1\n      pop\n      0x20\n      mul\n      add\n      calldataload\n        /* \"contracts/HFRebtateToken.sol\":11651:11679  daoProposals[proposalIds[i]] */\n      dup2\n      mstore\n      0x20\n      add\n      swap1\n      dup2\n      mstore\n      0x20\n      add\n      0x00\n      keccak256\n        /* \"contracts/HFRebtateToken.sol\":11620:11679  DAOProposal storage proposal = daoProposals[proposalIds[i]] */\n      swap1\n      pop\n        /* \"contracts/HFRebtateToken.sol\":11720:11728  proposal */\n      dup1\n        /* \"contracts/HFRebtateToken.sol\":11720:11743  proposal.votingDeadline */\n      0x04\n      add\n      sload\n        /* \"contracts/HFRebtateToken.sol\":11701:11716  block.timestamp */\n      timestamp\n        /* \"contracts/HFRebtateToken.sol\":11701:11743  block.timestamp <= proposal.votingDeadline */\n      gt\n      iszero\n        /* \"contracts/HFRebtateToken.sol\":11693:11779  require(block.timestamp <= proposal.votingDeadline, \"Voting period over for proposal\") */\n      tag_181\n      jumpi\n      mload(0x40)\n      0x08c379a000000000000000000000000000000000000000000000000000000000\n      dup2\n      mstore\n      0x04\n      add\n      tag_182\n      swap1\n      tag_183\n      jump\t// in\n    tag_182:\n      mload(0x40)\n      dup1\n      swap2\n      sub\n      swap1\n      revert\n    tag_181:\n        /* \"contracts/HFRebtateToken.sol\":11797:11802  votes */\n      dup4\n      dup4\n        /* \"contracts/HFRebtateToken.sol\":11803:11804  i */\n      dup4\n        /* \"contracts/HFRebtateToken.sol\":11797:11805  votes[i] */\n      dup2\n      dup2\n      lt\n      tag_184\n      jumpi\n      tag_185\n      tag_180\n      jump\t// in\n    tag_185:\n    tag_184:\n      swap1\n      pop\n      0x20\n      mul\n      add\n      0x20\n      dup2\n      add\n      swap1\n      tag_186\n      swap2\n      swap1\n      tag_187\n      jump\t// in\n    tag_186:\n        /* \"contracts/HFRebtateToken.sol\":11793:11927  if (votes[i]) {... */\n      iszero\n      tag_188\n      jumpi\n        /* \"contracts/HFRebtateToken.sol\":11846:11847  1 */\n      0x01\n        /* \"contracts/HFRebtateToken.sol\":11825:11833  proposal */\n      dup2\n        /* \"contracts/HFRebtateToken.sol\":11825:11842  proposal.votesFor */\n      0x02\n      add\n      0x00\n        /* \"contracts/HFRebtateToken.sol\":11825:11847  proposal.votesFor += 1 */\n      dup3\n      dup3\n      sload\n      tag_189\n      swap2\n      swap1\n      tag_137\n      jump\t// in\n    tag_189:\n      swap3\n      pop\n      pop\n      dup2\n      swap1\n      sstore\n      pop\n        /* \"contracts/HFRebtateToken.sol\":11793:11927  if (votes[i]) {... */\n      jump(tag_190)\n    tag_188:\n        /* \"contracts/HFRebtateToken.sol\":11911:11912  1 */\n      0x01\n        /* \"contracts/HFRebtateToken.sol\":11886:11894  proposal */\n      dup2\n        /* \"contracts/HFRebtateToken.sol\":11886:11907  proposal.votesAgainst */\n      0x03\n      add\n      0x00\n        /* \"contracts/HFRebtateToken.sol\":11886:11912  proposal.votesAgainst += 1 */\n      dup3\n      dup3\n      sload\n      tag_191\n      swap2\n      swap1\n      tag_137\n      jump\t// in\n    tag_191:\n      swap3\n      pop\n      pop\n      dup2\n      swap1\n      sstore\n      pop\n        /* \"contracts/HFRebtateToken.sol\":11793:11927  if (votes[i]) {... */\n    tag_190:\n        /* \"contracts/HFRebtateToken.sol\":11606:11937  {... */\n      pop\n        /* \"contracts/HFRebtateToken.sol\":11601:11604  i++ */\n      dup1\n      dup1\n      0x01\n      add\n      swap2\n      pop\n      pop\n        /* \"contracts/HFRebtateToken.sol\":11557:11937  for (uint256 i = 0; i < proposalIds.length; i++) {... */\n      jump(tag_175)\n    tag_176:\n      pop\n        /* \"contracts/HFRebtateToken.sol\":11379:11943  function batchVoteDAOProposal(uint256[] calldata proposalIds, bool[] calldata votes) external {... */\n      pop\n      pop\n      pop\n      pop\n      jump\t// out\n        /* \"contracts/HFRebtateToken.sol\":1094:1125  IERC20Mintable public hfrtToken */\n    tag_65:\n      0x02\n      0x00\n      swap1\n      sload\n      swap1\n      0x0100\n      exp\n      swap1\n      div\n      0xffffffffffffffffffffffffffffffffffffffff\n      and\n      dup2\n      jump\t// out\n        /* \"contracts/HFRebtateToken.sol\":3653:3925  function initializeGovernance(uint8 _rebateRate, uint8 _maxFeeDiscount) external onlyOwner {... */\n    tag_71:\n        /* \"@openzeppelin/contracts/access/Ownable.sol\":1531:1544  _checkOwner() */\n      tag_193\n        /* \"@openzeppelin/contracts/access/Ownable.sol\":1531:1542  _checkOwner */\n      tag_142\n        /* \"@openzeppelin/contracts/access/Ownable.sol\":1531:1544  _checkOwner() */\n      jump\t// in\n    tag_193:\n        /* \"contracts/HFRebtateToken.sol\":3773:3918  GovernanceConfig({... */\n      mload(0x40)\n      dup1\n      0x60\n      add\n      0x40\n      mstore\n      dup1\n        /* \"contracts/HFRebtateToken.sol\":3815:3825  msg.sender */\n      caller\n        /* \"contracts/HFRebtateToken.sol\":3773:3918  GovernanceConfig({... */\n      0xffffffffffffffffffffffffffffffffffffffff\n      and\n      dup2\n      mstore\n      0x20\n      add\n        /* \"contracts/HFRebtateToken.sol\":3851:3862  _rebateRate */\n      dup4\n        /* \"contracts/HFRebtateToken.sol\":3773:3918  GovernanceConfig({... */\n      0xff\n      and\n      dup2\n      mstore\n      0x20\n      add\n        /* \"contracts/HFRebtateToken.sol\":3892:3907  _maxFeeDiscount */\n      dup3\n        /* \"contracts/HFRebtateToken.sol\":3773:3918  GovernanceConfig({... */\n      0xff\n      and\n      dup2\n      mstore\n      pop\n        /* \"contracts/HFRebtateToken.sol\":3754:3770  governanceConfig */\n      0x03\n        /* \"contracts/HFRebtateToken.sol\":3754:3918  governanceConfig = GovernanceConfig({... */\n      0x00\n      dup3\n      add\n      mload\n      dup2\n      0x00\n      add\n      exp(0x0100, 0x00)\n      dup2\n      sload\n      dup2\n      0xffffffffffffffffffffffffffffffffffffffff\n      mul\n      not\n      and\n      swap1\n      dup4\n      0xffffffffffffffffffffffffffffffffffffffff\n      and\n      mul\n      or\n      swap1\n      sstore\n      pop\n      0x20\n      dup3\n      add\n      mload\n      dup2\n      0x00\n      add\n      exp(0x0100, 0x14)\n      dup2\n      sload\n      dup2\n      0xff\n      mul\n      not\n      and\n      swap1\n      dup4\n      0xff\n      and\n      mul\n      or\n      swap1\n      sstore\n      pop\n      0x40\n      dup3\n      add\n      mload\n      dup2\n      0x00\n      add\n      exp(0x0100, 0x15)\n      dup2\n      sload\n      dup2\n      0xff\n      mul\n      not\n      and\n      swap1\n      dup4\n      0xff\n      and\n      mul\n      or\n      swap1\n      sstore\n      pop\n      swap1\n      pop\n      pop\n        /* \"contracts/HFRebtateToken.sol\":3653:3925  function initializeGovernance(uint8 _rebateRate, uint8 _maxFeeDiscount) external onlyOwner {... */\n      pop\n      pop\n      jump\t// out\n        /* \"contracts/HFRebtateToken.sol\":8061:8644  function unstakeTokens(uint256 amount) external nonReentrant {... */\n    tag_74:\n        /* \"@openzeppelin/contracts/security/ReentrancyGuard.sol\":2261:2282  _nonReentrantBefore() */\n      tag_196\n        /* \"@openzeppelin/contracts/security/ReentrancyGuard.sol\":2261:2280  _nonReentrantBefore */\n      tag_197\n        /* \"@openzeppelin/contracts/security/ReentrancyGuard.sol\":2261:2282  _nonReentrantBefore() */\n      jump\t// in\n    tag_196:\n        /* \"contracts/HFRebtateToken.sol\":8132:8153  Trader storage trader */\n      0x00\n        /* \"contracts/HFRebtateToken.sol\":8156:8163  traders */\n      0x04\n        /* \"contracts/HFRebtateToken.sol\":8156:8175  traders[msg.sender] */\n      0x00\n        /* \"contracts/HFRebtateToken.sol\":8164:8174  msg.sender */\n      caller\n        /* \"contracts/HFRebtateToken.sol\":8156:8175  traders[msg.sender] */\n      0xffffffffffffffffffffffffffffffffffffffff\n      and\n      0xffffffffffffffffffffffffffffffffffffffff\n      and\n      dup2\n      mstore\n      0x20\n      add\n      swap1\n      dup2\n      mstore\n      0x20\n      add\n      0x00\n      keccak256\n        /* \"contracts/HFRebtateToken.sol\":8132:8175  Trader storage trader = traders[msg.sender] */\n      swap1\n      pop\n        /* \"contracts/HFRebtateToken.sol\":8216:8222  amount */\n      dup2\n        /* \"contracts/HFRebtateToken.sol\":8193:8199  trader */\n      dup2\n        /* \"contracts/HFRebtateToken.sol\":8193:8212  trader.stakedAmount */\n      0x02\n      add\n      sload\n        /* \"contracts/HFRebtateToken.sol\":8193:8222  trader.stakedAmount >= amount */\n      lt\n      iszero\n        /* \"contracts/HFRebtateToken.sol\":8185:8253  require(trader.stakedAmount >= amount, \"Insufficient staked tokens\") */\n      tag_199\n      jumpi\n      mload(0x40)\n      0x08c379a000000000000000000000000000000000000000000000000000000000\n      dup2\n      mstore\n      0x04\n      add\n      tag_200\n      swap1\n      tag_201\n      jump\t// in\n    tag_200:\n      mload(0x40)\n      dup1\n      swap2\n      sub\n      swap1\n      revert\n    tag_199:\n        /* \"contracts/HFRebtateToken.sol\":8264:8279  uint256 penalty */\n      0x00\n        /* \"contracts/HFRebtateToken.sol\":8282:8360  calculateDynamicUnstakePenalty(trader.stakeStartTime, block.timestamp, amount) */\n      tag_202\n        /* \"contracts/HFRebtateToken.sol\":8313:8319  trader */\n      dup3\n        /* \"contracts/HFRebtateToken.sol\":8313:8334  trader.stakeStartTime */\n      0x03\n      add\n      sload\n        /* \"contracts/HFRebtateToken.sol\":8336:8351  block.timestamp */\n      timestamp\n        /* \"contracts/HFRebtateToken.sol\":8353:8359  amount */\n      dup6\n        /* \"contracts/HFRebtateToken.sol\":8282:8312  calculateDynamicUnstakePenalty */\n      tag_111\n        /* \"contracts/HFRebtateToken.sol\":8282:8360  calculateDynamicUnstakePenalty(trader.stakeStartTime, block.timestamp, amount) */\n      jump\t// in\n    tag_202:\n        /* \"contracts/HFRebtateToken.sol\":8264:8360  uint256 penalty = calculateDynamicUnstakePenalty(trader.stakeStartTime, block.timestamp, amount) */\n      swap1\n      pop\n        /* \"contracts/HFRebtateToken.sol\":8370:8396  uint256 amountAfterPenalty */\n      0x00\n        /* \"contracts/HFRebtateToken.sol\":8408:8415  penalty */\n      dup2\n        /* \"contracts/HFRebtateToken.sol\":8399:8405  amount */\n      dup5\n        /* \"contracts/HFRebtateToken.sol\":8399:8415  amount - penalty */\n      tag_203\n      swap2\n      swap1\n      tag_204\n      jump\t// in\n    tag_203:\n        /* \"contracts/HFRebtateToken.sol\":8370:8415  uint256 amountAfterPenalty = amount - penalty */\n      swap1\n      pop\n        /* \"contracts/HFRebtateToken.sol\":8448:8454  amount */\n      dup4\n        /* \"contracts/HFRebtateToken.sol\":8425:8431  trader */\n      dup4\n        /* \"contracts/HFRebtateToken.sol\":8425:8444  trader.stakedAmount */\n      0x02\n      add\n      0x00\n        /* \"contracts/HFRebtateToken.sol\":8425:8454  trader.stakedAmount -= amount */\n      dup3\n      dup3\n      sload\n      tag_205\n      swap2\n      swap1\n      tag_204\n      jump\t// in\n    tag_205:\n      swap3\n      pop\n      pop\n      dup2\n      swap1\n      sstore\n      pop\n        /* \"contracts/HFRebtateToken.sol\":8491:8492  0 */\n      0x00\n        /* \"contracts/HFRebtateToken.sol\":8468:8474  trader */\n      dup4\n        /* \"contracts/HFRebtateToken.sol\":8468:8487  trader.stakedAmount */\n      0x02\n      add\n      sload\n        /* \"contracts/HFRebtateToken.sol\":8468:8492  trader.stakedAmount == 0 */\n      sub\n        /* \"contracts/HFRebtateToken.sol\":8464:8544  if (trader.stakedAmount == 0) {... */\n      tag_206\n      jumpi\n        /* \"contracts/HFRebtateToken.sol\":8532:8533  0 */\n      0x00\n        /* \"contracts/HFRebtateToken.sol\":8508:8514  trader */\n      dup4\n        /* \"contracts/HFRebtateToken.sol\":8508:8529  trader.stakeStartTime */\n      0x03\n      add\n        /* \"contracts/HFRebtateToken.sol\":8508:8533  trader.stakeStartTime = 0 */\n      dup2\n      swap1\n      sstore\n      pop\n        /* \"contracts/HFRebtateToken.sol\":8464:8544  if (trader.stakedAmount == 0) {... */\n    tag_206:\n        /* \"contracts/HFRebtateToken.sol\":8561:8570  hfrtToken */\n      0x02\n      0x00\n      swap1\n      sload\n      swap1\n      0x0100\n      exp\n      swap1\n      div\n      0xffffffffffffffffffffffffffffffffffffffff\n      and\n        /* \"contracts/HFRebtateToken.sol\":8561:8579  hfrtToken.transfer */\n      0xffffffffffffffffffffffffffffffffffffffff\n      and\n      0xa9059cbb\n        /* \"contracts/HFRebtateToken.sol\":8580:8590  msg.sender */\n      caller\n        /* \"contracts/HFRebtateToken.sol\":8592:8610  amountAfterPenalty */\n      dup4\n        /* \"contracts/HFRebtateToken.sol\":8561:8611  hfrtToken.transfer(msg.sender, amountAfterPenalty) */\n      mload(0x40)\n      dup4\n      0xffffffff\n      and\n      0xe0\n      shl\n      dup2\n      mstore\n      0x04\n      add\n      tag_207\n      swap3\n      swap2\n      swap1\n      tag_208\n      jump\t// in\n    tag_207:\n      0x20\n      mload(0x40)\n      dup1\n      dup4\n      sub\n      dup2\n      0x00\n      dup8\n      gas\n      call\n      iszero\n      dup1\n      iszero\n      tag_210\n      jumpi\n      returndatacopy(0x00, 0x00, returndatasize)\n      revert(0x00, returndatasize)\n    tag_210:\n      pop\n      pop\n      pop\n      pop\n      mload(0x40)\n      returndatasize\n      not(0x1f)\n      0x1f\n      dup3\n      add\n      and\n      dup3\n      add\n      dup1\n      0x40\n      mstore\n      pop\n      dup2\n      add\n      swap1\n      tag_211\n      swap2\n      swap1\n      tag_212\n      jump\t// in\n    tag_211:\n        /* \"contracts/HFRebtateToken.sol\":8553:8637  require(hfrtToken.transfer(msg.sender, amountAfterPenalty), \"Token transfer failed\") */\n      tag_213\n      jumpi\n      mload(0x40)\n      0x08c379a000000000000000000000000000000000000000000000000000000000\n      dup2\n      mstore\n      0x04\n      add\n      tag_214\n      swap1\n      tag_215\n      jump\t// in\n    tag_214:\n      mload(0x40)\n      dup1\n      swap2\n      sub\n      swap1\n      revert\n    tag_213:\n        /* \"contracts/HFRebtateToken.sol\":8122:8644  {... */\n      pop\n      pop\n      pop\n        /* \"@openzeppelin/contracts/security/ReentrancyGuard.sol\":2303:2323  _nonReentrantAfter() */\n      tag_216\n        /* \"@openzeppelin/contracts/security/ReentrancyGuard.sol\":2303:2321  _nonReentrantAfter */\n      tag_217\n        /* \"@openzeppelin/contracts/security/ReentrancyGuard.sol\":2303:2323  _nonReentrantAfter() */\n      jump\t// in\n    tag_216:\n        /* \"contracts/HFRebtateToken.sol\":8061:8644  function unstakeTokens(uint256 amount) external nonReentrant {... */\n      pop\n      jump\t// out\n        /* \"@openzeppelin/contracts/access/Ownable.sol\":2293:2394  function renounceOwnership() public virtual onlyOwner {... */\n    tag_76:\n        /* \"@openzeppelin/contracts/access/Ownable.sol\":1531:1544  _checkOwner() */\n      tag_219\n        /* \"@openzeppelin/contracts/access/Ownable.sol\":1531:1542  _checkOwner */\n      tag_142\n        /* \"@openzeppelin/contracts/access/Ownable.sol\":1531:1544  _checkOwner() */\n      jump\t// in\n    tag_219:\n        /* \"@openzeppelin/contracts/access/Ownable.sol\":2357:2387  _transferOwnership(address(0)) */\n      tag_221\n        /* \"@openzeppelin/contracts/access/Ownable.sol\":2384:2385  0 */\n      0x00\n        /* \"@openzeppelin/contracts/access/Ownable.sol\":2357:2375  _transferOwnership */\n      tag_222\n        /* \"@openzeppelin/contracts/access/Ownable.sol\":2357:2387  _transferOwnership(address(0)) */\n      jump\t// in\n    tag_221:\n        /* \"@openzeppelin/contracts/access/Ownable.sol\":2293:2394  function renounceOwnership() public virtual onlyOwner {... */\n      jump\t// out\n        /* \"contracts/HFRebtateToken.sol\":12853:13173  function getExecutionPriority(address trader) external view returns (uint8) {... */\n    tag_79:\n        /* \"contracts/HFRebtateToken.sol\":12922:12927  uint8 */\n      0x00\n        /* \"contracts/HFRebtateToken.sol\":12939:12954  uint256 balance */\n      0x00\n        /* \"contracts/HFRebtateToken.sol\":12957:12966  hfrtToken */\n      0x02\n      0x00\n      swap1\n      sload\n      swap1\n      0x0100\n      exp\n      swap1\n      div\n      0xffffffffffffffffffffffffffffffffffffffff\n      and\n        /* \"contracts/HFRebtateToken.sol\":12957:12976  hfrtToken.balanceOf */\n      0xffffffffffffffffffffffffffffffffffffffff\n      and\n      0x70a08231\n        /* \"contracts/HFRebtateToken.sol\":12977:12983  trader */\n      dup5\n        /* \"contracts/HFRebtateToken.sol\":12957:12984  hfrtToken.balanceOf(trader) */\n      mload(0x40)\n      dup3\n      0xffffffff\n      and\n      0xe0\n      shl\n      dup2\n      mstore\n      0x04\n      add\n      tag_224\n      swap2\n      swap1\n      tag_97\n      jump\t// in\n    tag_224:\n      0x20\n      mload(0x40)\n      dup1\n      dup4\n      sub\n      dup2\n      dup7\n      gas\n      staticcall\n      iszero\n      dup1\n      iszero\n      tag_226\n      jumpi\n      returndatacopy(0x00, 0x00, returndatasize)\n      revert(0x00, returndatasize)\n    tag_226:\n      pop\n      pop\n      pop\n      pop\n      mload(0x40)\n      returndatasize\n      not(0x1f)\n      0x1f\n      dup3\n      add\n      and\n      dup3\n      add\n      dup1\n      0x40\n      mstore\n      pop\n      dup2\n      add\n      swap1\n      tag_227\n      swap2\n      swap1\n      tag_228\n      jump\t// in\n    tag_227:\n        /* \"contracts/HFRebtateToken.sol\":12939:12984  uint256 balance = hfrtToken.balanceOf(trader) */\n      swap1\n      pop\n        /* \"contracts/HFRebtateToken.sol\":13009:13025  1_000_000 * 1e18 */\n      0xd3c21bcecceda1000000\n        /* \"contracts/HFRebtateToken.sol\":12998:13005  balance */\n      dup2\n        /* \"contracts/HFRebtateToken.sol\":12998:13025  balance >= 1_000_000 * 1e18 */\n      lt\n        /* \"contracts/HFRebtateToken.sol\":12994:13166  if (balance >= 1_000_000 * 1e18) return 1;... */\n      tag_229\n      jumpi\n        /* \"contracts/HFRebtateToken.sol\":13034:13035  1 */\n      0x01\n        /* \"contracts/HFRebtateToken.sol\":13027:13035  return 1 */\n      swap2\n      pop\n      pop\n      jump(tag_223)\n        /* \"contracts/HFRebtateToken.sol\":12994:13166  if (balance >= 1_000_000 * 1e18) return 1;... */\n    tag_229:\n        /* \"contracts/HFRebtateToken.sol\":13065:13079  500_000 * 1e18 */\n      0x69e10de76676d0800000\n        /* \"contracts/HFRebtateToken.sol\":13054:13061  balance */\n      dup2\n        /* \"contracts/HFRebtateToken.sol\":13054:13079  balance >= 500_000 * 1e18 */\n      lt\n        /* \"contracts/HFRebtateToken.sol\":13050:13166  if (balance >= 500_000 * 1e18) return 2;... */\n      tag_231\n      jumpi\n        /* \"contracts/HFRebtateToken.sol\":13088:13089  2 */\n      0x02\n        /* \"contracts/HFRebtateToken.sol\":13081:13089  return 2 */\n      swap2\n      pop\n      pop\n      jump(tag_223)\n        /* \"contracts/HFRebtateToken.sol\":13050:13166  if (balance >= 500_000 * 1e18) return 2;... */\n    tag_231:\n        /* \"contracts/HFRebtateToken.sol\":13119:13133  100_000 * 1e18 */\n      0x152d02c7e14af6800000\n        /* \"contracts/HFRebtateToken.sol\":13108:13115  balance */\n      dup2\n        /* \"contracts/HFRebtateToken.sol\":13108:13133  balance >= 100_000 * 1e18 */\n      lt\n        /* \"contracts/HFRebtateToken.sol\":13104:13166  if (balance >= 100_000 * 1e18) return 3;... */\n      tag_233\n      jumpi\n        /* \"contracts/HFRebtateToken.sol\":13142:13143  3 */\n      0x03\n        /* \"contracts/HFRebtateToken.sol\":13135:13143  return 3 */\n      swap2\n      pop\n      pop\n      jump(tag_223)\n        /* \"contracts/HFRebtateToken.sol\":13104:13166  if (balance >= 100_000 * 1e18) return 3;... */\n    tag_233:\n        /* \"contracts/HFRebtateToken.sol\":13165:13166  5 */\n      0x05\n        /* \"contracts/HFRebtateToken.sol\":13158:13166  return 5 */\n      swap2\n      pop\n      pop\n        /* \"contracts/HFRebtateToken.sol\":12853:13173  function getExecutionPriority(address trader) external view returns (uint8) {... */\n    tag_223:\n      swap2\n      swap1\n      pop\n      jump\t// out\n        /* \"contracts/HFRebtateToken.sol\":7302:7884  function stakeTokens(uint256 amount) external nonReentrant {... */\n    tag_83:\n        /* \"@openzeppelin/contracts/security/ReentrancyGuard.sol\":2261:2282  _nonReentrantBefore() */\n      tag_236\n        /* \"@openzeppelin/contracts/security/ReentrancyGuard.sol\":2261:2280  _nonReentrantBefore */\n      tag_197\n        /* \"@openzeppelin/contracts/security/ReentrancyGuard.sol\":2261:2282  _nonReentrantBefore() */\n      jump\t// in\n    tag_236:\n        /* \"contracts/HFRebtateToken.sol\":7495:7501  1 days */\n      0x015180\n        /* \"contracts/HFRebtateToken.sol\":7466:7479  lastStakeTime */\n      0x06\n        /* \"contracts/HFRebtateToken.sol\":7466:7491  lastStakeTime[msg.sender] */\n      0x00\n        /* \"contracts/HFRebtateToken.sol\":7480:7490  msg.sender */\n      caller\n        /* \"contracts/HFRebtateToken.sol\":7466:7491  lastStakeTime[msg.sender] */\n      0xffffffffffffffffffffffffffffffffffffffff\n      and\n      0xffffffffffffffffffffffffffffffffffffffff\n      and\n      dup2\n      mstore\n      0x20\n      add\n      swap1\n      dup2\n      mstore\n      0x20\n      add\n      0x00\n      keccak256\n      sload\n        /* \"contracts/HFRebtateToken.sol\":7448:7463  block.timestamp */\n      timestamp\n        /* \"contracts/HFRebtateToken.sol\":7448:7491  block.timestamp - lastStakeTime[msg.sender] */\n      tag_238\n      swap2\n      swap1\n      tag_204\n      jump\t// in\n    tag_238:\n        /* \"contracts/HFRebtateToken.sol\":7448:7501  block.timestamp - lastStakeTime[msg.sender] >= 1 days */\n      lt\n      iszero\n        /* \"contracts/HFRebtateToken.sol\":7440:7525  require(block.timestamp - lastStakeTime[msg.sender] >= 1 days, \"Flash loan detected\") */\n      tag_239\n      jumpi\n      mload(0x40)\n      0x08c379a000000000000000000000000000000000000000000000000000000000\n      dup2\n      mstore\n      0x04\n      add\n      tag_240\n      swap1\n      tag_241\n      jump\t// in\n    tag_240:\n      mload(0x40)\n      dup1\n      swap2\n      sub\n      swap1\n      revert\n    tag_239:\n        /* \"contracts/HFRebtateToken.sol\":7543:7552  hfrtToken */\n      0x02\n      0x00\n      swap1\n      sload\n      swap1\n      0x0100\n      exp\n      swap1\n      div\n      0xffffffffffffffffffffffffffffffffffffffff\n      and\n        /* \"contracts/HFRebtateToken.sol\":7543:7565  hfrtToken.transferFrom */\n      0xffffffffffffffffffffffffffffffffffffffff\n      and\n      0x23b872dd\n        /* \"contracts/HFRebtateToken.sol\":7566:7576  msg.sender */\n      caller\n        /* \"contracts/HFRebtateToken.sol\":7586:7590  this */\n      address\n        /* \"contracts/HFRebtateToken.sol\":7593:7599  amount */\n      dup5\n        /* \"contracts/HFRebtateToken.sol\":7543:7600  hfrtToken.transferFrom(msg.sender, address(this), amount) */\n      mload(0x40)\n      dup5\n      0xffffffff\n      and\n      0xe0\n      shl\n      dup2\n      mstore\n      0x04\n      add\n      tag_242\n      swap4\n      swap3\n      swap2\n      swap1\n      tag_243\n      jump\t// in\n    tag_242:\n      0x20\n      mload(0x40)\n      dup1\n      dup4\n      sub\n      dup2\n      0x00\n      dup8\n      gas\n      call\n      iszero\n      dup1\n      iszero\n      tag_245\n      jumpi\n      returndatacopy(0x00, 0x00, returndatasize)\n      revert(0x00, returndatasize)\n    tag_245:\n      pop\n      pop\n      pop\n      pop\n      mload(0x40)\n      returndatasize\n      not(0x1f)\n      0x1f\n      dup3\n      add\n      and\n      dup3\n      add\n      dup1\n      0x40\n      mstore\n      pop\n      dup2\n      add\n      swap1\n      tag_246\n      swap2\n      swap1\n      tag_212\n      jump\t// in\n    tag_246:\n        /* \"contracts/HFRebtateToken.sol\":7535:7626  require(hfrtToken.transferFrom(msg.sender, address(this), amount), \"Token transfer failed\") */\n      tag_247\n      jumpi\n      mload(0x40)\n      0x08c379a000000000000000000000000000000000000000000000000000000000\n      dup2\n      mstore\n      0x04\n      add\n      tag_248\n      swap1\n      tag_215\n      jump\t// in\n    tag_248:\n      mload(0x40)\n      dup1\n      swap2\n      sub\n      swap1\n      revert\n    tag_247:\n        /* \"contracts/HFRebtateToken.sol\":7637:7658  Trader storage trader */\n      0x00\n        /* \"contracts/HFRebtateToken.sol\":7661:7668  traders */\n      0x04\n        /* \"contracts/HFRebtateToken.sol\":7661:7680  traders[msg.sender] */\n      0x00\n        /* \"contracts/HFRebtateToken.sol\":7669:7679  msg.sender */\n      caller\n        /* \"contracts/HFRebtateToken.sol\":7661:7680  traders[msg.sender] */\n      0xffffffffffffffffffffffffffffffffffffffff\n      and\n      0xffffffffffffffffffffffffffffffffffffffff\n      and\n      dup2\n      mstore\n      0x20\n      add\n      swap1\n      dup2\n      mstore\n      0x20\n      add\n      0x00\n      keccak256\n        /* \"contracts/HFRebtateToken.sol\":7637:7680  Trader storage trader = traders[msg.sender] */\n      swap1\n      pop\n        /* \"contracts/HFRebtateToken.sol\":7713:7719  amount */\n      dup2\n        /* \"contracts/HFRebtateToken.sol\":7690:7696  trader */\n      dup2\n        /* \"contracts/HFRebtateToken.sol\":7690:7709  trader.stakedAmount */\n      0x02\n      add\n      0x00\n        /* \"contracts/HFRebtateToken.sol\":7690:7719  trader.stakedAmount += amount */\n      dup3\n      dup3\n      sload\n      tag_249\n      swap2\n      swap1\n      tag_137\n      jump\t// in\n    tag_249:\n      swap3\n      pop\n      pop\n      dup2\n      swap1\n      sstore\n      pop\n        /* \"contracts/HFRebtateToken.sol\":7758:7759  0 */\n      0x00\n        /* \"contracts/HFRebtateToken.sol\":7733:7739  trader */\n      dup2\n        /* \"contracts/HFRebtateToken.sol\":7733:7754  trader.stakeStartTime */\n      0x03\n      add\n      sload\n        /* \"contracts/HFRebtateToken.sol\":7733:7759  trader.stakeStartTime == 0 */\n      sub\n        /* \"contracts/HFRebtateToken.sol\":7729:7825  if (trader.stakeStartTime == 0) {... */\n      tag_250\n      jumpi\n        /* \"contracts/HFRebtateToken.sol\":7799:7814  block.timestamp */\n      timestamp\n        /* \"contracts/HFRebtateToken.sol\":7775:7781  trader */\n      dup2\n        /* \"contracts/HFRebtateToken.sol\":7775:7796  trader.stakeStartTime */\n      0x03\n      add\n        /* \"contracts/HFRebtateToken.sol\":7775:7814  trader.stakeStartTime = block.timestamp */\n      dup2\n      swap1\n      sstore\n      pop\n        /* \"contracts/HFRebtateToken.sol\":7729:7825  if (trader.stakeStartTime == 0) {... */\n    tag_250:\n        /* \"contracts/HFRebtateToken.sol\":7862:7877  block.timestamp */\n      timestamp\n        /* \"contracts/HFRebtateToken.sol\":7834:7847  lastStakeTime */\n      0x06\n        /* \"contracts/HFRebtateToken.sol\":7834:7859  lastStakeTime[msg.sender] */\n      0x00\n        /* \"contracts/HFRebtateToken.sol\":7848:7858  msg.sender */\n      caller\n        /* \"contracts/HFRebtateToken.sol\":7834:7859  lastStakeTime[msg.sender] */\n      0xffffffffffffffffffffffffffffffffffffffff\n      and\n      0xffffffffffffffffffffffffffffffffffffffff\n      and\n      dup2\n      mstore\n      0x20\n      add\n      swap1\n      dup2\n      mstore\n      0x20\n      add\n      0x00\n      keccak256\n        /* \"contracts/HFRebtateToken.sol\":7834:7877  lastStakeTime[msg.sender] = block.timestamp */\n      dup2\n      swap1\n      sstore\n      pop\n        /* \"contracts/HFRebtateToken.sol\":7361:7884  {... */\n      pop\n        /* \"@openzeppelin/contracts/security/ReentrancyGuard.sol\":2303:2323  _nonReentrantAfter() */\n      tag_251\n        /* \"@openzeppelin/contracts/security/ReentrancyGuard.sol\":2303:2321  _nonReentrantAfter */\n      tag_217\n        /* \"@openzeppelin/contracts/security/ReentrancyGuard.sol\":2303:2323  _nonReentrantAfter() */\n      jump\t// in\n    tag_251:\n        /* \"contracts/HFRebtateToken.sol\":7302:7884  function stakeTokens(uint256 amount) external nonReentrant {... */\n      pop\n      jump\t// out\n        /* \"contracts/HFRebtateToken.sol\":2094:2142  mapping(address => uint256) public lastStakeTime */\n    tag_86:\n      mstore(0x20, 0x06)\n      dup1\n      0x00\n      mstore\n      keccak256(0x00, 0x40)\n      0x00\n      swap2\n      pop\n      swap1\n      pop\n      sload\n      dup2\n      jump\t// out\n        /* \"contracts/HFRebtateToken.sol\":13945:14289  function calculateRebateMultiplier(uint256 tradeVolume) public pure returns (uint8) {... */\n    tag_90:\n        /* \"contracts/HFRebtateToken.sol\":14022:14027  uint8 */\n      0x00\n        /* \"contracts/HFRebtateToken.sol\":14058:14069  100_000_000 */\n      0x05f5e100\n        /* \"contracts/HFRebtateToken.sol\":14043:14054  tradeVolume */\n      dup3\n        /* \"contracts/HFRebtateToken.sol\":14043:14069  tradeVolume >= 100_000_000 */\n      lt\n        /* \"contracts/HFRebtateToken.sol\":14039:14283  if (tradeVolume >= 100_000_000) {... */\n      tag_253\n      jumpi\n        /* \"contracts/HFRebtateToken.sol\":14092:14093  5 */\n      0x05\n        /* \"contracts/HFRebtateToken.sol\":14085:14093  return 5 */\n      swap1\n      pop\n      jump(tag_252)\n        /* \"contracts/HFRebtateToken.sol\":14039:14283  if (tradeVolume >= 100_000_000) {... */\n    tag_253:\n        /* \"contracts/HFRebtateToken.sol\":14129:14139  50_000_000 */\n      0x02faf080\n        /* \"contracts/HFRebtateToken.sol\":14114:14125  tradeVolume */\n      dup3\n        /* \"contracts/HFRebtateToken.sol\":14114:14139  tradeVolume >= 50_000_000 */\n      lt\n        /* \"contracts/HFRebtateToken.sol\":14110:14283  if (tradeVolume >= 50_000_000) {... */\n      tag_255\n      jumpi\n        /* \"contracts/HFRebtateToken.sol\":14162:14163  3 */\n      0x03\n        /* \"contracts/HFRebtateToken.sol\":14155:14163  return 3 */\n      swap1\n      pop\n      jump(tag_252)\n        /* \"contracts/HFRebtateToken.sol\":14110:14283  if (tradeVolume >= 50_000_000) {... */\n    tag_255:\n        /* \"contracts/HFRebtateToken.sol\":14199:14209  10_000_000 */\n      0x989680\n        /* \"contracts/HFRebtateToken.sol\":14184:14195  tradeVolume */\n      dup3\n        /* \"contracts/HFRebtateToken.sol\":14184:14209  tradeVolume >= 10_000_000 */\n      lt\n        /* \"contracts/HFRebtateToken.sol\":14180:14283  if (tradeVolume >= 10_000_000) {... */\n      tag_257\n      jumpi\n        /* \"contracts/HFRebtateToken.sol\":14232:14233  2 */\n      0x02\n        /* \"contracts/HFRebtateToken.sol\":14225:14233  return 2 */\n      swap1\n      pop\n      jump(tag_252)\n        /* \"contracts/HFRebtateToken.sol\":14180:14283  if (tradeVolume >= 10_000_000) {... */\n    tag_257:\n        /* \"contracts/HFRebtateToken.sol\":14271:14272  1 */\n      0x01\n        /* \"contracts/HFRebtateToken.sol\":14264:14272  return 1 */\n      swap1\n      pop\n        /* \"contracts/HFRebtateToken.sol\":13945:14289  function calculateRebateMultiplier(uint256 tradeVolume) public pure returns (uint8) {... */\n    tag_252:\n      swap2\n      swap1\n      pop\n      jump\t// out\n        /* \"contracts/HFRebtateToken.sol\":8807:9440  function autoCompound() external nonReentrant {... */\n    tag_93:\n        /* \"@openzeppelin/contracts/security/ReentrancyGuard.sol\":2261:2282  _nonReentrantBefore() */\n      tag_260\n        /* \"@openzeppelin/contracts/security/ReentrancyGuard.sol\":2261:2280  _nonReentrantBefore */\n      tag_197\n        /* \"@openzeppelin/contracts/security/ReentrancyGuard.sol\":2261:2282  _nonReentrantBefore() */\n      jump\t// in\n    tag_260:\n        /* \"contracts/HFRebtateToken.sol\":8863:8884  Trader storage trader */\n      0x00\n        /* \"contracts/HFRebtateToken.sol\":8887:8894  traders */\n      0x04\n        /* \"contracts/HFRebtateToken.sol\":8887:8906  traders[msg.sender] */\n      0x00\n        /* \"contracts/HFRebtateToken.sol\":8895:8905  msg.sender */\n      caller\n        /* \"contracts/HFRebtateToken.sol\":8887:8906  traders[msg.sender] */\n      0xffffffffffffffffffffffffffffffffffffffff\n      and\n      0xffffffffffffffffffffffffffffffffffffffff\n      and\n      dup2\n      mstore\n      0x20\n      add\n      swap1\n      dup2\n      mstore\n      0x20\n      add\n      0x00\n      keccak256\n        /* \"contracts/HFRebtateToken.sol\":8863:8906  Trader storage trader = traders[msg.sender] */\n      swap1\n      pop\n        /* \"contracts/HFRebtateToken.sol\":8916:8934  uint256 baseRebate */\n      0x00\n        /* \"contracts/HFRebtateToken.sol\":8992:8996  1000 */\n      0x03e8\n        /* \"contracts/HFRebtateToken.sol\":8961:8977  governanceConfig */\n      0x03\n        /* \"contracts/HFRebtateToken.sol\":8961:8988  governanceConfig.rebateRate */\n      0x00\n      add\n      0x14\n      swap1\n      sload\n      swap1\n      0x0100\n      exp\n      swap1\n      div\n      0xff\n      and\n        /* \"contracts/HFRebtateToken.sol\":8938:8988  trader.rollingVolume * governanceConfig.rebateRate */\n      0xff\n      and\n        /* \"contracts/HFRebtateToken.sol\":8938:8944  trader */\n      dup4\n        /* \"contracts/HFRebtateToken.sol\":8938:8958  trader.rollingVolume */\n      0x00\n      add\n      sload\n        /* \"contracts/HFRebtateToken.sol\":8938:8988  trader.rollingVolume * governanceConfig.rebateRate */\n      tag_262\n      swap2\n      swap1\n      tag_263\n      jump\t// in\n    tag_262:\n        /* \"contracts/HFRebtateToken.sol\":8937:8996  (trader.rollingVolume * governanceConfig.rebateRate) / 1000 */\n      tag_264\n      swap2\n      swap1\n      tag_265\n      jump\t// in\n    tag_264:\n        /* \"contracts/HFRebtateToken.sol\":8916:8996  uint256 baseRebate = (trader.rollingVolume * governanceConfig.rebateRate) / 1000 */\n      swap1\n      pop\n        /* \"contracts/HFRebtateToken.sol\":9006:9022  uint8 multiplier */\n      0x00\n        /* \"contracts/HFRebtateToken.sol\":9025:9072  calculateRebateMultiplier(trader.rollingVolume) */\n      tag_266\n        /* \"contracts/HFRebtateToken.sol\":9051:9057  trader */\n      dup4\n        /* \"contracts/HFRebtateToken.sol\":9051:9071  trader.rollingVolume */\n      0x00\n      add\n      sload\n        /* \"contracts/HFRebtateToken.sol\":9025:9050  calculateRebateMultiplier */\n      tag_90\n        /* \"contracts/HFRebtateToken.sol\":9025:9072  calculateRebateMultiplier(trader.rollingVolume) */\n      jump\t// in\n    tag_266:\n        /* \"contracts/HFRebtateToken.sol\":9006:9072  uint8 multiplier = calculateRebateMultiplier(trader.rollingVolume) */\n      swap1\n      pop\n        /* \"contracts/HFRebtateToken.sol\":9082:9101  uint256 totalRebate */\n      0x00\n        /* \"contracts/HFRebtateToken.sol\":9117:9127  multiplier */\n      dup2\n        /* \"contracts/HFRebtateToken.sol\":9104:9127  baseRebate * multiplier */\n      0xff\n      and\n        /* \"contracts/HFRebtateToken.sol\":9104:9114  baseRebate */\n      dup4\n        /* \"contracts/HFRebtateToken.sol\":9104:9127  baseRebate * multiplier */\n      tag_267\n      swap2\n      swap1\n      tag_263\n      jump\t// in\n    tag_267:\n        /* \"contracts/HFRebtateToken.sol\":9082:9127  uint256 totalRebate = baseRebate * multiplier */\n      swap1\n      pop\n        /* \"contracts/HFRebtateToken.sol\":9160:9161  0 */\n      0x00\n        /* \"contracts/HFRebtateToken.sol\":9137:9143  trader */\n      dup5\n        /* \"contracts/HFRebtateToken.sol\":9137:9157  trader.rollingVolume */\n      0x00\n      add\n        /* \"contracts/HFRebtateToken.sol\":9137:9161  trader.rollingVolume = 0 */\n      dup2\n      swap1\n      sstore\n      pop\n        /* \"contracts/HFRebtateToken.sol\":9242:9251  hfrtToken */\n      0x02\n      0x00\n      swap1\n      sload\n      swap1\n      0x0100\n      exp\n      swap1\n      div\n      0xffffffffffffffffffffffffffffffffffffffff\n      and\n        /* \"contracts/HFRebtateToken.sol\":9242:9256  hfrtToken.mint */\n      0xffffffffffffffffffffffffffffffffffffffff\n      and\n      0x40c10f19\n        /* \"contracts/HFRebtateToken.sol\":9265:9269  this */\n      address\n        /* \"contracts/HFRebtateToken.sol\":9272:9283  totalRebate */\n      dup4\n        /* \"contracts/HFRebtateToken.sol\":9242:9284  hfrtToken.mint(address(this), totalRebate) */\n      mload(0x40)\n      dup4\n      0xffffffff\n      and\n      0xe0\n      shl\n      dup2\n      mstore\n      0x04\n      add\n      tag_268\n      swap3\n      swap2\n      swap1\n      tag_208\n      jump\t// in\n    tag_268:\n      0x00\n      mload(0x40)\n      dup1\n      dup4\n      sub\n      dup2\n      0x00\n      dup8\n      dup1\n      extcodesize\n      iszero\n      dup1\n      iszero\n      tag_269\n      jumpi\n      revert(0x00, 0x00)\n    tag_269:\n      pop\n      gas\n      call\n      iszero\n      dup1\n      iszero\n      tag_271\n      jumpi\n      returndatacopy(0x00, 0x00, returndatasize)\n      revert(0x00, returndatasize)\n    tag_271:\n      pop\n      pop\n      pop\n      pop\n        /* \"contracts/HFRebtateToken.sol\":9317:9328  totalRebate */\n      dup1\n        /* \"contracts/HFRebtateToken.sol\":9294:9300  trader */\n      dup5\n        /* \"contracts/HFRebtateToken.sol\":9294:9313  trader.stakedAmount */\n      0x02\n      add\n      0x00\n        /* \"contracts/HFRebtateToken.sol\":9294:9328  trader.stakedAmount += totalRebate */\n      dup3\n      dup3\n      sload\n      tag_272\n      swap2\n      swap1\n      tag_137\n      jump\t// in\n    tag_272:\n      swap3\n      pop\n      pop\n      dup2\n      swap1\n      sstore\n      pop\n        /* \"contracts/HFRebtateToken.sol\":9367:9368  0 */\n      0x00\n        /* \"contracts/HFRebtateToken.sol\":9342:9348  trader */\n      dup5\n        /* \"contracts/HFRebtateToken.sol\":9342:9363  trader.stakeStartTime */\n      0x03\n      add\n      sload\n        /* \"contracts/HFRebtateToken.sol\":9342:9368  trader.stakeStartTime == 0 */\n      sub\n        /* \"contracts/HFRebtateToken.sol\":9338:9434  if (trader.stakeStartTime == 0) {... */\n      tag_273\n      jumpi\n        /* \"contracts/HFRebtateToken.sol\":9408:9423  block.timestamp */\n      timestamp\n        /* \"contracts/HFRebtateToken.sol\":9384:9390  trader */\n      dup5\n        /* \"contracts/HFRebtateToken.sol\":9384:9405  trader.stakeStartTime */\n      0x03\n      add\n        /* \"contracts/HFRebtateToken.sol\":9384:9423  trader.stakeStartTime = block.timestamp */\n      dup2\n      swap1\n      sstore\n      pop\n        /* \"contracts/HFRebtateToken.sol\":9338:9434  if (trader.stakeStartTime == 0) {... */\n    tag_273:\n        /* \"contracts/HFRebtateToken.sol\":8853:9440  {... */\n      pop\n      pop\n      pop\n      pop\n        /* \"@openzeppelin/contracts/security/ReentrancyGuard.sol\":2303:2323  _nonReentrantAfter() */\n      tag_274\n        /* \"@openzeppelin/contracts/security/ReentrancyGuard.sol\":2303:2321  _nonReentrantAfter */\n      tag_217\n        /* \"@openzeppelin/contracts/security/ReentrancyGuard.sol\":2303:2323  _nonReentrantAfter() */\n      jump\t// in\n    tag_274:\n        /* \"contracts/HFRebtateToken.sol\":8807:9440  function autoCompound() external nonReentrant {... */\n      jump\t// out\n        /* \"@openzeppelin/contracts/access/Ownable.sol\":1638:1723  function owner() public view virtual returns (address) {... */\n    tag_95:\n        /* \"@openzeppelin/contracts/access/Ownable.sol\":1684:1691  address */\n      0x00\n        /* \"@openzeppelin/contracts/access/Ownable.sol\":1710:1716  _owner */\n      0x00\n      0x00\n      swap1\n      sload\n      swap1\n      0x0100\n      exp\n      swap1\n      div\n      0xffffffffffffffffffffffffffffffffffffffff\n      and\n        /* \"@openzeppelin/contracts/access/Ownable.sol\":1703:1716  return _owner */\n      swap1\n      pop\n        /* \"@openzeppelin/contracts/access/Ownable.sol\":1638:1723  function owner() public view virtual returns (address) {... */\n      swap1\n      jump\t// out\n        /* \"contracts/HFRebtateToken.sol\":1894:1935  mapping(address => Trader) public traders */\n    tag_100:\n      mstore(0x20, 0x04)\n      dup1\n      0x00\n      mstore\n      keccak256(0x00, 0x40)\n      0x00\n      swap2\n      pop\n      swap1\n      pop\n      dup1\n      0x00\n      add\n      sload\n      swap1\n      dup1\n      0x01\n      add\n      sload\n      swap1\n      dup1\n      0x02\n      add\n      sload\n      swap1\n      dup1\n      0x03\n      add\n      sload\n      swap1\n      pop\n      dup5\n      jump\t// out\n        /* \"contracts/HFRebtateToken.sol\":2522:2573  mapping(uint256 => DAOProposal) public daoProposals */\n    tag_105:\n      mstore(0x20, 0x07)\n      dup1\n      0x00\n      mstore\n      keccak256(0x00, 0x40)\n      0x00\n      swap2\n      pop\n      swap1\n      pop\n      dup1\n      0x00\n      add\n      sload\n      swap1\n      dup1\n      0x01\n      add\n      0x00\n      swap1\n      sload\n      swap1\n      0x0100\n      exp\n      swap1\n      div\n      0xffffffffffffffffffffffffffffffffffffffff\n      and\n      swap1\n      dup1\n      0x01\n      add\n      0x14\n      swap1\n      sload\n      swap1\n      0x0100\n      exp\n      swap1\n      div\n      0xff\n      and\n      swap1\n      dup1\n      0x02\n      add\n      sload\n      swap1\n      dup1\n      0x03\n      add\n      sload\n      swap1\n      dup1\n      0x04\n      add\n      sload\n      swap1\n      dup1\n      0x05\n      add\n      sload\n      swap1\n      dup1\n      0x06\n      add\n      0x00\n      swap1\n      sload\n      swap1\n      0x0100\n      exp\n      swap1\n      div\n      0xff\n      and\n      swap1\n      pop\n      dup9\n      jump\t// out\n        /* \"contracts/HFRebtateToken.sol\":14669:15185  function calculateDynamicUnstakePenalty(... */\n    tag_111:\n        /* \"contracts/HFRebtateToken.sol\":14821:14828  uint256 */\n      0x00\n        /* \"contracts/HFRebtateToken.sol\":14840:14856  uint256 duration */\n      0x00\n        /* \"contracts/HFRebtateToken.sol\":14873:14887  stakeStartTime */\n      dup5\n        /* \"contracts/HFRebtateToken.sol\":14859:14870  currentTime */\n      dup5\n        /* \"contracts/HFRebtateToken.sol\":14859:14887  currentTime - stakeStartTime */\n      tag_277\n      swap2\n      swap1\n      tag_204\n      jump\t// in\n    tag_277:\n        /* \"contracts/HFRebtateToken.sol\":14840:14887  uint256 duration = currentTime - stakeStartTime */\n      swap1\n      pop\n        /* \"contracts/HFRebtateToken.sol\":14897:14920  uint8 penaltyPercentage */\n      0x00\n        /* \"contracts/HFRebtateToken.sol\":14945:14951  7 days */\n      0x093a80\n        /* \"contracts/HFRebtateToken.sol\":14934:14942  duration */\n      dup3\n        /* \"contracts/HFRebtateToken.sol\":14934:14951  duration < 7 days */\n      lt\n        /* \"contracts/HFRebtateToken.sol\":14930:15128  if (duration < 7 days) {... */\n      iszero\n      tag_278\n      jumpi\n        /* \"contracts/HFRebtateToken.sol\":14987:14989  10 */\n      0x0a\n        /* \"contracts/HFRebtateToken.sol\":14967:14989  penaltyPercentage = 10 */\n      swap1\n      pop\n        /* \"contracts/HFRebtateToken.sol\":14930:15128  if (duration < 7 days) {... */\n      jump(tag_279)\n    tag_278:\n        /* \"contracts/HFRebtateToken.sol\":15021:15028  14 days */\n      0x127500\n        /* \"contracts/HFRebtateToken.sol\":15010:15018  duration */\n      dup3\n        /* \"contracts/HFRebtateToken.sol\":15010:15028  duration < 14 days */\n      lt\n        /* \"contracts/HFRebtateToken.sol\":15006:15128  if (duration < 14 days) {... */\n      iszero\n      tag_280\n      jumpi\n        /* \"contracts/HFRebtateToken.sol\":15064:15065  5 */\n      0x05\n        /* \"contracts/HFRebtateToken.sol\":15044:15065  penaltyPercentage = 5 */\n      swap1\n      pop\n        /* \"contracts/HFRebtateToken.sol\":15006:15128  if (duration < 14 days) {... */\n      jump(tag_281)\n    tag_280:\n        /* \"contracts/HFRebtateToken.sol\":15116:15117  2 */\n      0x02\n        /* \"contracts/HFRebtateToken.sol\":15096:15117  penaltyPercentage = 2 */\n      swap1\n      pop\n        /* \"contracts/HFRebtateToken.sol\":15006:15128  if (duration < 14 days) {... */\n    tag_281:\n        /* \"contracts/HFRebtateToken.sol\":14930:15128  if (duration < 7 days) {... */\n    tag_279:\n        /* \"contracts/HFRebtateToken.sol\":15175:15178  100 */\n      0x64\n        /* \"contracts/HFRebtateToken.sol\":15154:15171  penaltyPercentage */\n      dup2\n        /* \"contracts/HFRebtateToken.sol\":15145:15171  amount * penaltyPercentage */\n      0xff\n      and\n        /* \"contracts/HFRebtateToken.sol\":15145:15151  amount */\n      dup6\n        /* \"contracts/HFRebtateToken.sol\":15145:15171  amount * penaltyPercentage */\n      tag_282\n      swap2\n      swap1\n      tag_263\n      jump\t// in\n    tag_282:\n        /* \"contracts/HFRebtateToken.sol\":15144:15178  (amount * penaltyPercentage) / 100 */\n      tag_283\n      swap2\n      swap1\n      tag_265\n      jump\t// in\n    tag_283:\n        /* \"contracts/HFRebtateToken.sol\":15137:15178  return (amount * penaltyPercentage) / 100 */\n      swap3\n      pop\n      pop\n      pop\n        /* \"contracts/HFRebtateToken.sol\":14669:15185  function calculateDynamicUnstakePenalty(... */\n      swap4\n      swap3\n      pop\n      pop\n      pop\n      jump\t// out\n        /* \"contracts/HFRebtateToken.sol\":1490:1530  GovernanceConfig public governanceConfig */\n    tag_114:\n      0x03\n      dup1\n      0x00\n      add\n      0x00\n      swap1\n      sload\n      swap1\n      0x0100\n      exp\n      swap1\n      div\n      0xffffffffffffffffffffffffffffffffffffffff\n      and\n      swap1\n      dup1\n      0x00\n      add\n      0x14\n      swap1\n      sload\n      swap1\n      0x0100\n      exp\n      swap1\n      div\n      0xff\n      and\n      swap1\n      dup1\n      0x00\n      add\n      0x15\n      swap1\n      sload\n      swap1\n      0x0100\n      exp\n      swap1\n      div\n      0xff\n      and\n      swap1\n      pop\n      dup4\n      jump\t// out\n        /* \"contracts/HFRebtateToken.sol\":13361:13720  function buyBackAndBurn() external onlyOwner nonReentrant {... */\n    tag_118:\n        /* \"@openzeppelin/contracts/access/Ownable.sol\":1531:1544  _checkOwner() */\n      tag_285\n        /* \"@openzeppelin/contracts/access/Ownable.sol\":1531:1542  _checkOwner */\n      tag_142\n        /* \"@openzeppelin/contracts/access/Ownable.sol\":1531:1544  _checkOwner() */\n      jump\t// in\n    tag_285:\n        /* \"@openzeppelin/contracts/security/ReentrancyGuard.sol\":2261:2282  _nonReentrantBefore() */\n      tag_287\n        /* \"@openzeppelin/contracts/security/ReentrancyGuard.sol\":2261:2280  _nonReentrantBefore */\n      tag_197\n        /* \"@openzeppelin/contracts/security/ReentrancyGuard.sol\":2261:2282  _nonReentrantBefore() */\n      jump\t// in\n    tag_287:\n        /* \"contracts/HFRebtateToken.sol\":13429:13444  uint256 balance */\n      0x00\n        /* \"contracts/HFRebtateToken.sol\":13447:13456  hfrtToken */\n      0x02\n      0x00\n      swap1\n      sload\n      swap1\n      0x0100\n      exp\n      swap1\n      div\n      0xffffffffffffffffffffffffffffffffffffffff\n      and\n        /* \"contracts/HFRebtateToken.sol\":13447:13466  hfrtToken.balanceOf */\n      0xffffffffffffffffffffffffffffffffffffffff\n      and\n      0x70a08231\n        /* \"contracts/HFRebtateToken.sol\":13475:13479  this */\n      address\n        /* \"contracts/HFRebtateToken.sol\":13447:13481  hfrtToken.balanceOf(address(this)) */\n      mload(0x40)\n      dup3\n      0xffffffff\n      and\n      0xe0\n      shl\n      dup2\n      mstore\n      0x04\n      add\n      tag_289\n      swap2\n      swap1\n      tag_97\n      jump\t// in\n    tag_289:\n      0x20\n      mload(0x40)\n      dup1\n      dup4\n      sub\n      dup2\n      dup7\n      gas\n      staticcall\n      iszero\n      dup1\n      iszero\n      tag_291\n      jumpi\n      returndatacopy(0x00, 0x00, returndatasize)\n      revert(0x00, returndatasize)\n    tag_291:\n      pop\n      pop\n      pop\n      pop\n      mload(0x40)\n      returndatasize\n      not(0x1f)\n      0x1f\n      dup3\n      add\n      and\n      dup3\n      add\n      dup1\n      0x40\n      mstore\n      pop\n      dup2\n      add\n      swap1\n      tag_292\n      swap2\n      swap1\n      tag_228\n      jump\t// in\n    tag_292:\n        /* \"contracts/HFRebtateToken.sol\":13429:13481  uint256 balance = hfrtToken.balanceOf(address(this)) */\n      swap1\n      pop\n        /* \"contracts/HFRebtateToken.sol\":13509:13510  0 */\n      0x00\n        /* \"contracts/HFRebtateToken.sol\":13499:13506  balance */\n      dup2\n        /* \"contracts/HFRebtateToken.sol\":13499:13510  balance > 0 */\n      gt\n        /* \"contracts/HFRebtateToken.sol\":13491:13534  require(balance > 0, \"No tokens available\") */\n      tag_293\n      jumpi\n      mload(0x40)\n      0x08c379a000000000000000000000000000000000000000000000000000000000\n      dup2\n      mstore\n      0x04\n      add\n      tag_294\n      swap1\n      tag_295\n      jump\t// in\n    tag_294:\n      mload(0x40)\n      dup1\n      swap2\n      sub\n      swap1\n      revert\n    tag_293:\n        /* \"contracts/HFRebtateToken.sol\":13544:13562  uint256 burnAmount */\n      0x00\n        /* \"contracts/HFRebtateToken.sol\":13575:13577  10 */\n      0x0a\n        /* \"contracts/HFRebtateToken.sol\":13565:13572  balance */\n      dup3\n        /* \"contracts/HFRebtateToken.sol\":13565:13577  balance / 10 */\n      tag_296\n      swap2\n      swap1\n      tag_265\n      jump\t// in\n    tag_296:\n        /* \"contracts/HFRebtateToken.sol\":13544:13577  uint256 burnAmount = balance / 10 */\n      swap1\n      pop\n        /* \"contracts/HFRebtateToken.sol\":13607:13616  hfrtToken */\n      0x02\n      0x00\n      swap1\n      sload\n      swap1\n      0x0100\n      exp\n      swap1\n      div\n      0xffffffffffffffffffffffffffffffffffffffff\n      and\n        /* \"contracts/HFRebtateToken.sol\":13607:13625  hfrtToken.transfer */\n      0xffffffffffffffffffffffffffffffffffffffff\n      and\n      0xa9059cbb\n        /* \"contracts/HFRebtateToken.sol\":13634:13635  0 */\n      0x00\n        /* \"contracts/HFRebtateToken.sol\":13638:13648  burnAmount */\n      dup4\n        /* \"contracts/HFRebtateToken.sol\":13607:13649  hfrtToken.transfer(address(0), burnAmount) */\n      mload(0x40)\n      dup4\n      0xffffffff\n      and\n      0xe0\n      shl\n      dup2\n      mstore\n      0x04\n      add\n      tag_297\n      swap3\n      swap2\n      swap1\n      tag_208\n      jump\t// in\n    tag_297:\n      0x20\n      mload(0x40)\n      dup1\n      dup4\n      sub\n      dup2\n      0x00\n      dup8\n      gas\n      call\n      iszero\n      dup1\n      iszero\n      tag_299\n      jumpi\n      returndatacopy(0x00, 0x00, returndatasize)\n      revert(0x00, returndatasize)\n    tag_299:\n      pop\n      pop\n      pop\n      pop\n      mload(0x40)\n      returndatasize\n      not(0x1f)\n      0x1f\n      dup3\n      add\n      and\n      dup3\n      add\n      dup1\n      0x40\n      mstore\n      pop\n      dup2\n      add\n      swap1\n      tag_300\n      swap2\n      swap1\n      tag_212\n      jump\t// in\n    tag_300:\n        /* \"contracts/HFRebtateToken.sol\":13599:13674  require(hfrtToken.transfer(address(0), burnAmount), \"Burn transfer failed\") */\n      tag_301\n      jumpi\n      mload(0x40)\n      0x08c379a000000000000000000000000000000000000000000000000000000000\n      dup2\n      mstore\n      0x04\n      add\n      tag_302\n      swap1\n      tag_303\n      jump\t// in\n    tag_302:\n      mload(0x40)\n      dup1\n      swap2\n      sub\n      swap1\n      revert\n    tag_301:\n        /* \"contracts/HFRebtateToken.sol\":13689:13713  TokensBurned(burnAmount) */\n      0x6ef4855b666dcc7884561072e4358b28dfe01feb1b7f4dcebc00e62d50394ac7\n        /* \"contracts/HFRebtateToken.sol\":13702:13712  burnAmount */\n      dup2\n        /* \"contracts/HFRebtateToken.sol\":13689:13713  TokensBurned(burnAmount) */\n      mload(0x40)\n      tag_304\n      swap2\n      swap1\n      tag_43\n      jump\t// in\n    tag_304:\n      mload(0x40)\n      dup1\n      swap2\n      sub\n      swap1\n      log1\n        /* \"contracts/HFRebtateToken.sol\":13419:13720  {... */\n      pop\n      pop\n        /* \"@openzeppelin/contracts/security/ReentrancyGuard.sol\":2303:2323  _nonReentrantAfter() */\n      tag_305\n        /* \"@openzeppelin/contracts/security/ReentrancyGuard.sol\":2303:2321  _nonReentrantAfter */\n      tag_217\n        /* \"@openzeppelin/contracts/security/ReentrancyGuard.sol\":2303:2323  _nonReentrantAfter() */\n      jump\t// in\n    tag_305:\n        /* \"contracts/HFRebtateToken.sol\":13361:13720  function buyBackAndBurn() external onlyOwner nonReentrant {... */\n      jump\t// out\n        /* \"contracts/HFRebtateToken.sol\":5697:6218  function claimRebate() external nonReentrant {... */\n    tag_120:\n        /* \"@openzeppelin/contracts/security/ReentrancyGuard.sol\":2261:2282  _nonReentrantBefore() */\n      tag_307\n        /* \"@openzeppelin/contracts/security/ReentrancyGuard.sol\":2261:2280  _nonReentrantBefore */\n      tag_197\n        /* \"@openzeppelin/contracts/security/ReentrancyGuard.sol\":2261:2282  _nonReentrantBefore() */\n      jump\t// in\n    tag_307:\n        /* \"contracts/HFRebtateToken.sol\":5752:5773  Trader storage trader */\n      0x00\n        /* \"contracts/HFRebtateToken.sol\":5776:5783  traders */\n      0x04\n        /* \"contracts/HFRebtateToken.sol\":5776:5795  traders[msg.sender] */\n      0x00\n        /* \"contracts/HFRebtateToken.sol\":5784:5794  msg.sender */\n      caller\n        /* \"contracts/HFRebtateToken.sol\":5776:5795  traders[msg.sender] */\n      0xffffffffffffffffffffffffffffffffffffffff\n      and\n      0xffffffffffffffffffffffffffffffffffffffff\n      and\n      dup2\n      mstore\n      0x20\n      add\n      swap1\n      dup2\n      mstore\n      0x20\n      add\n      0x00\n      keccak256\n        /* \"contracts/HFRebtateToken.sol\":5752:5795  Trader storage trader = traders[msg.sender] */\n      swap1\n      pop\n        /* \"contracts/HFRebtateToken.sol\":5805:5823  uint256 baseRebate */\n      0x00\n        /* \"contracts/HFRebtateToken.sol\":5881:5885  1000 */\n      0x03e8\n        /* \"contracts/HFRebtateToken.sol\":5850:5866  governanceConfig */\n      0x03\n        /* \"contracts/HFRebtateToken.sol\":5850:5877  governanceConfig.rebateRate */\n      0x00\n      add\n      0x14\n      swap1\n      sload\n      swap1\n      0x0100\n      exp\n      swap1\n      div\n      0xff\n      and\n        /* \"contracts/HFRebtateToken.sol\":5827:5877  trader.rollingVolume * governanceConfig.rebateRate */\n      0xff\n      and\n        /* \"contracts/HFRebtateToken.sol\":5827:5833  trader */\n      dup4\n        /* \"contracts/HFRebtateToken.sol\":5827:5847  trader.rollingVolume */\n      0x00\n      add\n      sload\n        /* \"contracts/HFRebtateToken.sol\":5827:5877  trader.rollingVolume * governanceConfig.rebateRate */\n      tag_309\n      swap2\n      swap1\n      tag_263\n      jump\t// in\n    tag_309:\n        /* \"contracts/HFRebtateToken.sol\":5826:5885  (trader.rollingVolume * governanceConfig.rebateRate) / 1000 */\n      tag_310\n      swap2\n      swap1\n      tag_265\n      jump\t// in\n    tag_310:\n        /* \"contracts/HFRebtateToken.sol\":5805:5885  uint256 baseRebate = (trader.rollingVolume * governanceConfig.rebateRate) / 1000 */\n      swap1\n      pop\n        /* \"contracts/HFRebtateToken.sol\":5895:5911  uint8 multiplier */\n      0x00\n        /* \"contracts/HFRebtateToken.sol\":5914:5961  calculateRebateMultiplier(trader.rollingVolume) */\n      tag_311\n        /* \"contracts/HFRebtateToken.sol\":5940:5946  trader */\n      dup4\n        /* \"contracts/HFRebtateToken.sol\":5940:5960  trader.rollingVolume */\n      0x00\n      add\n      sload\n        /* \"contracts/HFRebtateToken.sol\":5914:5939  calculateRebateMultiplier */\n      tag_90\n        /* \"contracts/HFRebtateToken.sol\":5914:5961  calculateRebateMultiplier(trader.rollingVolume) */\n      jump\t// in\n    tag_311:\n        /* \"contracts/HFRebtateToken.sol\":5895:5961  uint8 multiplier = calculateRebateMultiplier(trader.rollingVolume) */\n      swap1\n      pop\n        /* \"contracts/HFRebtateToken.sol\":5971:5990  uint256 totalRebate */\n      0x00\n        /* \"contracts/HFRebtateToken.sol\":6006:6016  multiplier */\n      dup2\n        /* \"contracts/HFRebtateToken.sol\":5993:6016  baseRebate * multiplier */\n      0xff\n      and\n        /* \"contracts/HFRebtateToken.sol\":5993:6003  baseRebate */\n      dup4\n        /* \"contracts/HFRebtateToken.sol\":5993:6016  baseRebate * multiplier */\n      tag_312\n      swap2\n      swap1\n      tag_263\n      jump\t// in\n    tag_312:\n        /* \"contracts/HFRebtateToken.sol\":5971:6016  uint256 totalRebate = baseRebate * multiplier */\n      swap1\n      pop\n        /* \"contracts/HFRebtateToken.sol\":6049:6050  0 */\n      0x00\n        /* \"contracts/HFRebtateToken.sol\":6026:6032  trader */\n      dup5\n        /* \"contracts/HFRebtateToken.sol\":6026:6046  trader.rollingVolume */\n      0x00\n      add\n        /* \"contracts/HFRebtateToken.sol\":6026:6050  trader.rollingVolume = 0 */\n      dup2\n      swap1\n      sstore\n      pop\n        /* \"contracts/HFRebtateToken.sol\":6119:6128  hfrtToken */\n      0x02\n      0x00\n      swap1\n      sload\n      swap1\n      0x0100\n      exp\n      swap1\n      div\n      0xffffffffffffffffffffffffffffffffffffffff\n      and\n        /* \"contracts/HFRebtateToken.sol\":6119:6133  hfrtToken.mint */\n      0xffffffffffffffffffffffffffffffffffffffff\n      and\n      0x40c10f19\n        /* \"contracts/HFRebtateToken.sol\":6134:6144  msg.sender */\n      caller\n        /* \"contracts/HFRebtateToken.sol\":6146:6157  totalRebate */\n      dup4\n        /* \"contracts/HFRebtateToken.sol\":6119:6158  hfrtToken.mint(msg.sender, totalRebate) */\n      mload(0x40)\n      dup4\n      0xffffffff\n      and\n      0xe0\n      shl\n      dup2\n      mstore\n      0x04\n      add\n      tag_313\n      swap3\n      swap2\n      swap1\n      tag_208\n      jump\t// in\n    tag_313:\n      0x00\n      mload(0x40)\n      dup1\n      dup4\n      sub\n      dup2\n      0x00\n      dup8\n      dup1\n      extcodesize\n      iszero\n      dup1\n      iszero\n      tag_314\n      jumpi\n      revert(0x00, 0x00)\n    tag_314:\n      pop\n      gas\n      call\n      iszero\n      dup1\n      iszero\n      tag_316\n      jumpi\n      returndatacopy(0x00, 0x00, returndatasize)\n      revert(0x00, returndatasize)\n    tag_316:\n      pop\n      pop\n      pop\n      pop\n        /* \"contracts/HFRebtateToken.sol\":6187:6197  msg.sender */\n      caller\n        /* \"contracts/HFRebtateToken.sol\":6173:6211  RebateClaimed(msg.sender, totalRebate) */\n      0xffffffffffffffffffffffffffffffffffffffff\n      and\n      0x8ec2a9ed236322c625516e43eab59fcb8145e38ee8d489a28d0aacaeecc298d6\n        /* \"contracts/HFRebtateToken.sol\":6199:6210  totalRebate */\n      dup3\n        /* \"contracts/HFRebtateToken.sol\":6173:6211  RebateClaimed(msg.sender, totalRebate) */\n      mload(0x40)\n      tag_317\n      swap2\n      swap1\n      tag_43\n      jump\t// in\n    tag_317:\n      mload(0x40)\n      dup1\n      swap2\n      sub\n      swap1\n      log2\n        /* \"contracts/HFRebtateToken.sol\":5742:6218  {... */\n      pop\n      pop\n      pop\n      pop\n        /* \"@openzeppelin/contracts/security/ReentrancyGuard.sol\":2303:2323  _nonReentrantAfter() */\n      tag_318\n        /* \"@openzeppelin/contracts/security/ReentrancyGuard.sol\":2303:2321  _nonReentrantAfter */\n      tag_217\n        /* \"@openzeppelin/contracts/security/ReentrancyGuard.sol\":2303:2323  _nonReentrantAfter() */\n      jump\t// in\n    tag_318:\n        /* \"contracts/HFRebtateToken.sol\":5697:6218  function claimRebate() external nonReentrant {... */\n      jump\t// out\n        /* \"contracts/HFRebtateToken.sol\":6380:7034  function batchClaimRebate(address[] calldata traderAddresses) external nonReentrant {... */\n    tag_124:\n        /* \"@openzeppelin/contracts/security/ReentrancyGuard.sol\":2261:2282  _nonReentrantBefore() */\n      tag_320\n        /* \"@openzeppelin/contracts/security/ReentrancyGuard.sol\":2261:2280  _nonReentrantBefore */\n      tag_197\n        /* \"@openzeppelin/contracts/security/ReentrancyGuard.sol\":2261:2282  _nonReentrantBefore() */\n      jump\t// in\n    tag_320:\n        /* \"contracts/HFRebtateToken.sol\":6479:6488  uint256 i */\n      0x00\n        /* \"contracts/HFRebtateToken.sol\":6491:6492  0 */\n      0x00\n        /* \"contracts/HFRebtateToken.sol\":6479:6492  uint256 i = 0 */\n      swap1\n      pop\n        /* \"contracts/HFRebtateToken.sol\":6474:7028  for (uint256 i = 0; i < traderAddresses.length; i++) {... */\n    tag_322:\n        /* \"contracts/HFRebtateToken.sol\":6498:6513  traderAddresses */\n      dup3\n      dup3\n        /* \"contracts/HFRebtateToken.sol\":6498:6520  traderAddresses.length */\n      swap1\n      pop\n        /* \"contracts/HFRebtateToken.sol\":6494:6495  i */\n      dup2\n        /* \"contracts/HFRebtateToken.sol\":6494:6520  i < traderAddresses.length */\n      lt\n        /* \"contracts/HFRebtateToken.sol\":6474:7028  for (uint256 i = 0; i < traderAddresses.length; i++) {... */\n      iszero\n      tag_323\n      jumpi\n        /* \"contracts/HFRebtateToken.sol\":6541:6559  address traderAddr */\n      0x00\n        /* \"contracts/HFRebtateToken.sol\":6562:6577  traderAddresses */\n      dup4\n      dup4\n        /* \"contracts/HFRebtateToken.sol\":6578:6579  i */\n      dup4\n        /* \"contracts/HFRebtateToken.sol\":6562:6580  traderAddresses[i] */\n      dup2\n      dup2\n      lt\n      tag_325\n      jumpi\n      tag_326\n      tag_180\n      jump\t// in\n    tag_326:\n    tag_325:\n      swap1\n      pop\n      0x20\n      mul\n      add\n      0x20\n      dup2\n      add\n      swap1\n      tag_327\n      swap2\n      swap1\n      tag_40\n      jump\t// in\n    tag_327:\n        /* \"contracts/HFRebtateToken.sol\":6541:6580  address traderAddr = traderAddresses[i] */\n      swap1\n      pop\n        /* \"contracts/HFRebtateToken.sol\":6594:6615  Trader storage trader */\n      0x00\n        /* \"contracts/HFRebtateToken.sol\":6618:6625  traders */\n      0x04\n        /* \"contracts/HFRebtateToken.sol\":6618:6637  traders[traderAddr] */\n      0x00\n        /* \"contracts/HFRebtateToken.sol\":6626:6636  traderAddr */\n      dup4\n        /* \"contracts/HFRebtateToken.sol\":6618:6637  traders[traderAddr] */\n      0xffffffffffffffffffffffffffffffffffffffff\n      and\n      0xffffffffffffffffffffffffffffffffffffffff\n      and\n      dup2\n      mstore\n      0x20\n      add\n      swap1\n      dup2\n      mstore\n      0x20\n      add\n      0x00\n      keccak256\n        /* \"contracts/HFRebtateToken.sol\":6594:6637  Trader storage trader = traders[traderAddr] */\n      swap1\n      pop\n        /* \"contracts/HFRebtateToken.sol\":6651:6669  uint256 baseRebate */\n      0x00\n        /* \"contracts/HFRebtateToken.sol\":6727:6731  1000 */\n      0x03e8\n        /* \"contracts/HFRebtateToken.sol\":6696:6712  governanceConfig */\n      0x03\n        /* \"contracts/HFRebtateToken.sol\":6696:6723  governanceConfig.rebateRate */\n      0x00\n      add\n      0x14\n      swap1\n      sload\n      swap1\n      0x0100\n      exp\n      swap1\n      div\n      0xff\n      and\n        /* \"contracts/HFRebtateToken.sol\":6673:6723  trader.rollingVolume * governanceConfig.rebateRate */\n      0xff\n      and\n        /* \"contracts/HFRebtateToken.sol\":6673:6679  trader */\n      dup4\n        /* \"contracts/HFRebtateToken.sol\":6673:6693  trader.rollingVolume */\n      0x00\n      add\n      sload\n        /* \"contracts/HFRebtateToken.sol\":6673:6723  trader.rollingVolume * governanceConfig.rebateRate */\n      tag_328\n      swap2\n      swap1\n      tag_263\n      jump\t// in\n    tag_328:\n        /* \"contracts/HFRebtateToken.sol\":6672:6731  (trader.rollingVolume * governanceConfig.rebateRate) / 1000 */\n      tag_329\n      swap2\n      swap1\n      tag_265\n      jump\t// in\n    tag_329:\n        /* \"contracts/HFRebtateToken.sol\":6651:6731  uint256 baseRebate = (trader.rollingVolume * governanceConfig.rebateRate) / 1000 */\n      swap1\n      pop\n        /* \"contracts/HFRebtateToken.sol\":6745:6761  uint8 multiplier */\n      0x00\n        /* \"contracts/HFRebtateToken.sol\":6764:6811  calculateRebateMultiplier(trader.rollingVolume) */\n      tag_330\n        /* \"contracts/HFRebtateToken.sol\":6790:6796  trader */\n      dup4\n        /* \"contracts/HFRebtateToken.sol\":6790:6810  trader.rollingVolume */\n      0x00\n      add\n      sload\n        /* \"contracts/HFRebtateToken.sol\":6764:6789  calculateRebateMultiplier */\n      tag_90\n        /* \"contracts/HFRebtateToken.sol\":6764:6811  calculateRebateMultiplier(trader.rollingVolume) */\n      jump\t// in\n    tag_330:\n        /* \"contracts/HFRebtateToken.sol\":6745:6811  uint8 multiplier = calculateRebateMultiplier(trader.rollingVolume) */\n      swap1\n      pop\n        /* \"contracts/HFRebtateToken.sol\":6825:6844  uint256 totalRebate */\n      0x00\n        /* \"contracts/HFRebtateToken.sol\":6860:6870  multiplier */\n      dup2\n        /* \"contracts/HFRebtateToken.sol\":6847:6870  baseRebate * multiplier */\n      0xff\n      and\n        /* \"contracts/HFRebtateToken.sol\":6847:6857  baseRebate */\n      dup4\n        /* \"contracts/HFRebtateToken.sol\":6847:6870  baseRebate * multiplier */\n      tag_331\n      swap2\n      swap1\n      tag_263\n      jump\t// in\n    tag_331:\n        /* \"contracts/HFRebtateToken.sol\":6825:6870  uint256 totalRebate = baseRebate * multiplier */\n      swap1\n      pop\n        /* \"contracts/HFRebtateToken.sol\":6907:6908  0 */\n      0x00\n        /* \"contracts/HFRebtateToken.sol\":6884:6890  trader */\n      dup5\n        /* \"contracts/HFRebtateToken.sol\":6884:6904  trader.rollingVolume */\n      0x00\n      add\n        /* \"contracts/HFRebtateToken.sol\":6884:6908  trader.rollingVolume = 0 */\n      dup2\n      swap1\n      sstore\n      pop\n        /* \"contracts/HFRebtateToken.sol\":6922:6931  hfrtToken */\n      0x02\n      0x00\n      swap1\n      sload\n      swap1\n      0x0100\n      exp\n      swap1\n      div\n      0xffffffffffffffffffffffffffffffffffffffff\n      and\n        /* \"contracts/HFRebtateToken.sol\":6922:6936  hfrtToken.mint */\n      0xffffffffffffffffffffffffffffffffffffffff\n      and\n      0x40c10f19\n        /* \"contracts/HFRebtateToken.sol\":6937:6947  traderAddr */\n      dup7\n        /* \"contracts/HFRebtateToken.sol\":6949:6960  totalRebate */\n      dup4\n        /* \"contracts/HFRebtateToken.sol\":6922:6961  hfrtToken.mint(traderAddr, totalRebate) */\n      mload(0x40)\n      dup4\n      0xffffffff\n      and\n      0xe0\n      shl\n      dup2\n      mstore\n      0x04\n      add\n      tag_332\n      swap3\n      swap2\n      swap1\n      tag_208\n      jump\t// in\n    tag_332:\n      0x00\n      mload(0x40)\n      dup1\n      dup4\n      sub\n      dup2\n      0x00\n      dup8\n      dup1\n      extcodesize\n      iszero\n      dup1\n      iszero\n      tag_333\n      jumpi\n      revert(0x00, 0x00)\n    tag_333:\n      pop\n      gas\n      call\n      iszero\n      dup1\n      iszero\n      tag_335\n      jumpi\n      returndatacopy(0x00, 0x00, returndatasize)\n      revert(0x00, returndatasize)\n    tag_335:\n      pop\n      pop\n      pop\n      pop\n        /* \"contracts/HFRebtateToken.sol\":6993:7003  traderAddr */\n      dup5\n        /* \"contracts/HFRebtateToken.sol\":6980:7017  RebateIssued(traderAddr, totalRebate) */\n      0xffffffffffffffffffffffffffffffffffffffff\n      and\n      0xfaf36c8625a33cce6b8f49b647deed99dbb0b8cc5a4e92c37a49c18ef4448389\n        /* \"contracts/HFRebtateToken.sol\":7005:7016  totalRebate */\n      dup3\n        /* \"contracts/HFRebtateToken.sol\":6980:7017  RebateIssued(traderAddr, totalRebate) */\n      mload(0x40)\n      tag_336\n      swap2\n      swap1\n      tag_43\n      jump\t// in\n    tag_336:\n      mload(0x40)\n      dup1\n      swap2\n      sub\n      swap1\n      log2\n        /* \"contracts/HFRebtateToken.sol\":6527:7028  {... */\n      pop\n      pop\n      pop\n      pop\n      pop\n        /* \"contracts/HFRebtateToken.sol\":6522:6525  i++ */\n      dup1\n      dup1\n      0x01\n      add\n      swap2\n      pop\n      pop\n        /* \"contracts/HFRebtateToken.sol\":6474:7028  for (uint256 i = 0; i < traderAddresses.length; i++) {... */\n      jump(tag_322)\n    tag_323:\n      pop\n        /* \"@openzeppelin/contracts/security/ReentrancyGuard.sol\":2303:2323  _nonReentrantAfter() */\n      tag_337\n        /* \"@openzeppelin/contracts/security/ReentrancyGuard.sol\":2303:2321  _nonReentrantAfter */\n      tag_217\n        /* \"@openzeppelin/contracts/security/ReentrancyGuard.sol\":2303:2323  _nonReentrantAfter() */\n      jump\t// in\n    tag_337:\n        /* \"contracts/HFRebtateToken.sol\":6380:7034  function batchClaimRebate(address[] calldata traderAddresses) external nonReentrant {... */\n      pop\n      pop\n      jump\t// out\n        /* \"@openzeppelin/contracts/access/Ownable.sol\":2543:2758  function transferOwnership(address newOwner) public virtual onlyOwner {... */\n    tag_127:\n        /* \"@openzeppelin/contracts/access/Ownable.sol\":1531:1544  _checkOwner() */\n      tag_339\n        /* \"@openzeppelin/contracts/access/Ownable.sol\":1531:1542  _checkOwner */\n      tag_142\n        /* \"@openzeppelin/contracts/access/Ownable.sol\":1531:1544  _checkOwner() */\n      jump\t// in\n    tag_339:\n        /* \"@openzeppelin/contracts/access/Ownable.sol\":2647:2648  0 */\n      0x00\n        /* \"@openzeppelin/contracts/access/Ownable.sol\":2627:2649  newOwner == address(0) */\n      0xffffffffffffffffffffffffffffffffffffffff\n      and\n        /* \"@openzeppelin/contracts/access/Ownable.sol\":2627:2635  newOwner */\n      dup2\n        /* \"@openzeppelin/contracts/access/Ownable.sol\":2627:2649  newOwner == address(0) */\n      0xffffffffffffffffffffffffffffffffffffffff\n      and\n      sub\n        /* \"@openzeppelin/contracts/access/Ownable.sol\":2623:2714  if (newOwner == address(0)) {... */\n      tag_341\n      jumpi\n        /* \"@openzeppelin/contracts/access/Ownable.sol\":2700:2701  0 */\n      0x00\n        /* \"@openzeppelin/contracts/access/Ownable.sol\":2672:2703  OwnableInvalidOwner(address(0)) */\n      mload(0x40)\n      0x1e4fbdf700000000000000000000000000000000000000000000000000000000\n      dup2\n      mstore\n      0x04\n      add\n      tag_342\n      swap2\n      swap1\n      tag_97\n      jump\t// in\n    tag_342:\n      mload(0x40)\n      dup1\n      swap2\n      sub\n      swap1\n      revert\n        /* \"@openzeppelin/contracts/access/Ownable.sol\":2623:2714  if (newOwner == address(0)) {... */\n    tag_341:\n        /* \"@openzeppelin/contracts/access/Ownable.sol\":2723:2751  _transferOwnership(newOwner) */\n      tag_343\n        /* \"@openzeppelin/contracts/access/Ownable.sol\":2742:2750  newOwner */\n      dup2\n        /* \"@openzeppelin/contracts/access/Ownable.sol\":2723:2741  _transferOwnership */\n      tag_222\n        /* \"@openzeppelin/contracts/access/Ownable.sol\":2723:2751  _transferOwnership(newOwner) */\n      jump\t// in\n    tag_343:\n        /* \"@openzeppelin/contracts/access/Ownable.sol\":2543:2758  function transferOwnership(address newOwner) public virtual onlyOwner {... */\n      pop\n      jump\t// out\n        /* \"contracts/HFRebtateToken.sol\":4561:5502  function recordTrade(uint256 tradeAmount) external {... */\n    tag_130:\n        /* \"contracts/HFRebtateToken.sol\":4735:4736  5 */\n      0x05\n        /* \"contracts/HFRebtateToken.sol\":4706:4719  lastTradeTime */\n      dup1\n        /* \"contracts/HFRebtateToken.sol\":4706:4731  lastTradeTime[msg.sender] */\n      0x00\n        /* \"contracts/HFRebtateToken.sol\":4720:4730  msg.sender */\n      caller\n        /* \"contracts/HFRebtateToken.sol\":4706:4731  lastTradeTime[msg.sender] */\n      0xffffffffffffffffffffffffffffffffffffffff\n      and\n      0xffffffffffffffffffffffffffffffffffffffff\n      and\n      dup2\n      mstore\n      0x20\n      add\n      swap1\n      dup2\n      mstore\n      0x20\n      add\n      0x00\n      keccak256\n      sload\n        /* \"contracts/HFRebtateToken.sol\":4688:4703  block.timestamp */\n      timestamp\n        /* \"contracts/HFRebtateToken.sol\":4688:4731  block.timestamp - lastTradeTime[msg.sender] */\n      tag_345\n      swap2\n      swap1\n      tag_204\n      jump\t// in\n    tag_345:\n        /* \"contracts/HFRebtateToken.sol\":4688:4736  block.timestamp - lastTradeTime[msg.sender] >= 5 */\n      lt\n      iszero\n        /* \"contracts/HFRebtateToken.sol\":4680:4764  require(block.timestamp - lastTradeTime[msg.sender] >= 5, \"Trades are too frequent\") */\n      tag_346\n      jumpi\n      mload(0x40)\n      0x08c379a000000000000000000000000000000000000000000000000000000000\n      dup2\n      mstore\n      0x04\n      add\n      tag_347\n      swap1\n      tag_348\n      jump\t// in\n    tag_347:\n      mload(0x40)\n      dup1\n      swap2\n      sub\n      swap1\n      revert\n    tag_346:\n        /* \"contracts/HFRebtateToken.sol\":4875:4884  1_000_000 */\n      0x0f4240\n        /* \"contracts/HFRebtateToken.sol\":4861:4872  tradeAmount */\n      dup2\n        /* \"contracts/HFRebtateToken.sol\":4861:4884  tradeAmount > 1_000_000 */\n      gt\n        /* \"contracts/HFRebtateToken.sol\":4861:4936  tradeAmount > 1_000_000 && block.timestamp - lastTradeTime[msg.sender] < 10 */\n      dup1\n      iszero\n      tag_349\n      jumpi\n      pop\n        /* \"contracts/HFRebtateToken.sol\":4934:4936  10 */\n      0x0a\n        /* \"contracts/HFRebtateToken.sol\":4906:4919  lastTradeTime */\n      0x05\n        /* \"contracts/HFRebtateToken.sol\":4906:4931  lastTradeTime[msg.sender] */\n      0x00\n        /* \"contracts/HFRebtateToken.sol\":4920:4930  msg.sender */\n      caller\n        /* \"contracts/HFRebtateToken.sol\":4906:4931  lastTradeTime[msg.sender] */\n      0xffffffffffffffffffffffffffffffffffffffff\n      and\n      0xffffffffffffffffffffffffffffffffffffffff\n      and\n      dup2\n      mstore\n      0x20\n      add\n      swap1\n      dup2\n      mstore\n      0x20\n      add\n      0x00\n      keccak256\n      sload\n        /* \"contracts/HFRebtateToken.sol\":4888:4903  block.timestamp */\n      timestamp\n        /* \"contracts/HFRebtateToken.sol\":4888:4931  block.timestamp - lastTradeTime[msg.sender] */\n      tag_350\n      swap2\n      swap1\n      tag_204\n      jump\t// in\n    tag_350:\n        /* \"contracts/HFRebtateToken.sol\":4888:4936  block.timestamp - lastTradeTime[msg.sender] < 10 */\n      lt\n        /* \"contracts/HFRebtateToken.sol\":4861:4936  tradeAmount > 1_000_000 && block.timestamp - lastTradeTime[msg.sender] < 10 */\n    tag_349:\n        /* \"contracts/HFRebtateToken.sol\":4857:5004  if (tradeAmount > 1_000_000 && block.timestamp - lastTradeTime[msg.sender] < 10) {... */\n      iszero\n      tag_351\n      jumpi\n        /* \"contracts/HFRebtateToken.sol\":4952:4993  revert(\"Potential wash trading detected\") */\n      mload(0x40)\n      0x08c379a000000000000000000000000000000000000000000000000000000000\n      dup2\n      mstore\n      0x04\n      add\n      tag_352\n      swap1\n      tag_353\n      jump\t// in\n    tag_352:\n      mload(0x40)\n      dup1\n      swap2\n      sub\n      swap1\n      revert\n        /* \"contracts/HFRebtateToken.sol\":4857:5004  if (tradeAmount > 1_000_000 && block.timestamp - lastTradeTime[msg.sender] < 10) {... */\n    tag_351:\n        /* \"contracts/HFRebtateToken.sol\":5041:5056  block.timestamp */\n      timestamp\n        /* \"contracts/HFRebtateToken.sol\":5013:5026  lastTradeTime */\n      0x05\n        /* \"contracts/HFRebtateToken.sol\":5013:5038  lastTradeTime[msg.sender] */\n      0x00\n        /* \"contracts/HFRebtateToken.sol\":5027:5037  msg.sender */\n      caller\n        /* \"contracts/HFRebtateToken.sol\":5013:5038  lastTradeTime[msg.sender] */\n      0xffffffffffffffffffffffffffffffffffffffff\n      and\n      0xffffffffffffffffffffffffffffffffffffffff\n      and\n      dup2\n      mstore\n      0x20\n      add\n      swap1\n      dup2\n      mstore\n      0x20\n      add\n      0x00\n      keccak256\n        /* \"contracts/HFRebtateToken.sol\":5013:5056  lastTradeTime[msg.sender] = block.timestamp */\n      dup2\n      swap1\n      sstore\n      pop\n        /* \"contracts/HFRebtateToken.sol\":5067:5088  Trader storage trader */\n      0x00\n        /* \"contracts/HFRebtateToken.sol\":5091:5098  traders */\n      0x04\n        /* \"contracts/HFRebtateToken.sol\":5091:5110  traders[msg.sender] */\n      0x00\n        /* \"contracts/HFRebtateToken.sol\":5099:5109  msg.sender */\n      caller\n        /* \"contracts/HFRebtateToken.sol\":5091:5110  traders[msg.sender] */\n      0xffffffffffffffffffffffffffffffffffffffff\n      and\n      0xffffffffffffffffffffffffffffffffffffffff\n      and\n      dup2\n      mstore\n      0x20\n      add\n      swap1\n      dup2\n      mstore\n      0x20\n      add\n      0x00\n      keccak256\n        /* \"contracts/HFRebtateToken.sol\":5067:5110  Trader storage trader = traders[msg.sender] */\n      swap1\n      pop\n        /* \"contracts/HFRebtateToken.sol\":5235:5243  24 hours */\n      0x015180\n        /* \"contracts/HFRebtateToken.sol\":5209:5215  trader */\n      dup2\n        /* \"contracts/HFRebtateToken.sol\":5209:5231  trader.lastTradeUpdate */\n      0x01\n      add\n      sload\n        /* \"contracts/HFRebtateToken.sol\":5191:5206  block.timestamp */\n      timestamp\n        /* \"contracts/HFRebtateToken.sol\":5191:5231  block.timestamp - trader.lastTradeUpdate */\n      tag_354\n      swap2\n      swap1\n      tag_204\n      jump\t// in\n    tag_354:\n        /* \"contracts/HFRebtateToken.sol\":5191:5243  block.timestamp - trader.lastTradeUpdate >= 24 hours */\n      lt\n        /* \"contracts/HFRebtateToken.sol\":5187:5370  if (block.timestamp - trader.lastTradeUpdate >= 24 hours) {... */\n      tag_355\n      jumpi\n        /* \"contracts/HFRebtateToken.sol\":5282:5293  tradeAmount */\n      dup2\n        /* \"contracts/HFRebtateToken.sol\":5259:5265  trader */\n      dup2\n        /* \"contracts/HFRebtateToken.sol\":5259:5279  trader.rollingVolume */\n      0x00\n      add\n        /* \"contracts/HFRebtateToken.sol\":5259:5293  trader.rollingVolume = tradeAmount */\n      dup2\n      swap1\n      sstore\n      pop\n        /* \"contracts/HFRebtateToken.sol\":5187:5370  if (block.timestamp - trader.lastTradeUpdate >= 24 hours) {... */\n      jump(tag_356)\n    tag_355:\n        /* \"contracts/HFRebtateToken.sol\":5348:5359  tradeAmount */\n      dup2\n        /* \"contracts/HFRebtateToken.sol\":5324:5330  trader */\n      dup2\n        /* \"contracts/HFRebtateToken.sol\":5324:5344  trader.rollingVolume */\n      0x00\n      add\n      0x00\n        /* \"contracts/HFRebtateToken.sol\":5324:5359  trader.rollingVolume += tradeAmount */\n      dup3\n      dup3\n      sload\n      tag_357\n      swap2\n      swap1\n      tag_137\n      jump\t// in\n    tag_357:\n      swap3\n      pop\n      pop\n      dup2\n      swap1\n      sstore\n      pop\n        /* \"contracts/HFRebtateToken.sol\":5187:5370  if (block.timestamp - trader.lastTradeUpdate >= 24 hours) {... */\n    tag_356:\n        /* \"contracts/HFRebtateToken.sol\":5404:5419  block.timestamp */\n      timestamp\n        /* \"contracts/HFRebtateToken.sol\":5379:5385  trader */\n      dup2\n        /* \"contracts/HFRebtateToken.sol\":5379:5401  trader.lastTradeUpdate */\n      0x01\n      add\n        /* \"contracts/HFRebtateToken.sol\":5379:5419  trader.lastTradeUpdate = block.timestamp */\n      dup2\n      swap1\n      sstore\n      pop\n        /* \"contracts/HFRebtateToken.sol\":5449:5459  msg.sender */\n      caller\n        /* \"contracts/HFRebtateToken.sol\":5435:5495  TradeRecorded(msg.sender, tradeAmount, trader.rollingVolume) */\n      0xffffffffffffffffffffffffffffffffffffffff\n      and\n      0xe1c33b09de310b5512c81ba8e74dc8c0cff829f9de557c89f8ef10cbf8ca4d6e\n        /* \"contracts/HFRebtateToken.sol\":5461:5472  tradeAmount */\n      dup4\n        /* \"contracts/HFRebtateToken.sol\":5474:5480  trader */\n      dup4\n        /* \"contracts/HFRebtateToken.sol\":5474:5494  trader.rollingVolume */\n      0x00\n      add\n      sload\n        /* \"contracts/HFRebtateToken.sol\":5435:5495  TradeRecorded(msg.sender, tradeAmount, trader.rollingVolume) */\n      mload(0x40)\n      tag_358\n      swap3\n      swap2\n      swap1\n      tag_359\n      jump\t// in\n    tag_358:\n      mload(0x40)\n      dup1\n      swap2\n      sub\n      swap1\n      log2\n        /* \"contracts/HFRebtateToken.sol\":4612:5502  {... */\n      pop\n        /* \"contracts/HFRebtateToken.sol\":4561:5502  function recordTrade(uint256 tradeAmount) external {... */\n      pop\n      jump\t// out\n        /* \"@openzeppelin/contracts/access/Ownable.sol\":1796:1958  function _checkOwner() internal view virtual {... */\n    tag_142:\n        /* \"@openzeppelin/contracts/access/Ownable.sol\":1866:1878  _msgSender() */\n      tag_361\n        /* \"@openzeppelin/contracts/access/Ownable.sol\":1866:1876  _msgSender */\n      tag_362\n        /* \"@openzeppelin/contracts/access/Ownable.sol\":1866:1878  _msgSender() */\n      jump\t// in\n    tag_361:\n        /* \"@openzeppelin/contracts/access/Ownable.sol\":1855:1878  owner() != _msgSender() */\n      0xffffffffffffffffffffffffffffffffffffffff\n      and\n        /* \"@openzeppelin/contracts/access/Ownable.sol\":1855:1862  owner() */\n      tag_363\n        /* \"@openzeppelin/contracts/access/Ownable.sol\":1855:1860  owner */\n      tag_95\n        /* \"@openzeppelin/contracts/access/Ownable.sol\":1855:1862  owner() */\n      jump\t// in\n    tag_363:\n        /* \"@openzeppelin/contracts/access/Ownable.sol\":1855:1878  owner() != _msgSender() */\n      0xffffffffffffffffffffffffffffffffffffffff\n      and\n      eq\n        /* \"@openzeppelin/contracts/access/Ownable.sol\":1851:1952  if (owner() != _msgSender()) {... */\n      tag_364\n      jumpi\n        /* \"@openzeppelin/contracts/access/Ownable.sol\":1928:1940  _msgSender() */\n      tag_365\n        /* \"@openzeppelin/contracts/access/Ownable.sol\":1928:1938  _msgSender */\n      tag_362\n        /* \"@openzeppelin/contracts/access/Ownable.sol\":1928:1940  _msgSender() */\n      jump\t// in\n    tag_365:\n        /* \"@openzeppelin/contracts/access/Ownable.sol\":1901:1941  OwnableUnauthorizedAccount(_msgSender()) */\n      mload(0x40)\n      0x118cdaa700000000000000000000000000000000000000000000000000000000\n      dup2\n      mstore\n      0x04\n      add\n      tag_366\n      swap2\n      swap1\n      tag_97\n      jump\t// in\n    tag_366:\n      mload(0x40)\n      dup1\n      swap2\n      sub\n      swap1\n      revert\n        /* \"@openzeppelin/contracts/access/Ownable.sol\":1851:1952  if (owner() != _msgSender()) {... */\n    tag_364:\n        /* \"@openzeppelin/contracts/access/Ownable.sol\":1796:1958  function _checkOwner() internal view virtual {... */\n      jump\t// out\n        /* \"@openzeppelin/contracts/security/ReentrancyGuard.sol\":2336:2623  function _nonReentrantBefore() private {... */\n    tag_197:\n        /* \"@openzeppelin/contracts/security/ReentrancyGuard.sol\":1759:1760  2 */\n      0x02\n        /* \"@openzeppelin/contracts/security/ReentrancyGuard.sol\":2468:2475  _status */\n      sload(0x01)\n        /* \"@openzeppelin/contracts/security/ReentrancyGuard.sol\":2468:2487  _status != _ENTERED */\n      sub\n        /* \"@openzeppelin/contracts/security/ReentrancyGuard.sol\":2460:2523  require(_status != _ENTERED, \"ReentrancyGuard: reentrant call\") */\n      tag_368\n      jumpi\n      mload(0x40)\n      0x08c379a000000000000000000000000000000000000000000000000000000000\n      dup2\n      mstore\n      0x04\n      add\n      tag_369\n      swap1\n      tag_370\n      jump\t// in\n    tag_369:\n      mload(0x40)\n      dup1\n      swap2\n      sub\n      swap1\n      revert\n    tag_368:\n        /* \"@openzeppelin/contracts/security/ReentrancyGuard.sol\":1759:1760  2 */\n      0x02\n        /* \"@openzeppelin/contracts/security/ReentrancyGuard.sol\":2598:2605  _status */\n      0x01\n        /* \"@openzeppelin/contracts/security/ReentrancyGuard.sol\":2598:2616  _status = _ENTERED */\n      dup2\n      swap1\n      sstore\n      pop\n        /* \"@openzeppelin/contracts/security/ReentrancyGuard.sol\":2336:2623  function _nonReentrantBefore() private {... */\n      jump\t// out\n        /* \"@openzeppelin/contracts/security/ReentrancyGuard.sol\":2629:2838  function _nonReentrantAfter() private {... */\n    tag_217:\n        /* \"@openzeppelin/contracts/security/ReentrancyGuard.sol\":1716:1717  1 */\n      0x01\n        /* \"@openzeppelin/contracts/security/ReentrancyGuard.sol\":2809:2816  _status */\n      dup1\n        /* \"@openzeppelin/contracts/security/ReentrancyGuard.sol\":2809:2831  _status = _NOT_ENTERED */\n      dup2\n      swap1\n      sstore\n      pop\n        /* \"@openzeppelin/contracts/security/ReentrancyGuard.sol\":2629:2838  function _nonReentrantAfter() private {... */\n      jump\t// out\n        /* \"@openzeppelin/contracts/access/Ownable.sol\":2912:3099  function _transferOwnership(address newOwner) internal virtual {... */\n    tag_222:\n        /* \"@openzeppelin/contracts/access/Ownable.sol\":2985:3001  address oldOwner */\n      0x00\n        /* \"@openzeppelin/contracts/access/Ownable.sol\":3004:3010  _owner */\n      0x00\n      0x00\n      swap1\n      sload\n      swap1\n      0x0100\n      exp\n      swap1\n      div\n      0xffffffffffffffffffffffffffffffffffffffff\n      and\n        /* \"@openzeppelin/contracts/access/Ownable.sol\":2985:3010  address oldOwner = _owner */\n      swap1\n      pop\n        /* \"@openzeppelin/contracts/access/Ownable.sol\":3029:3037  newOwner */\n      dup2\n        /* \"@openzeppelin/contracts/access/Ownable.sol\":3020:3026  _owner */\n      0x00\n      0x00\n        /* \"@openzeppelin/contracts/access/Ownable.sol\":3020:3037  _owner = newOwner */\n      0x0100\n      exp\n      dup2\n      sload\n      dup2\n      0xffffffffffffffffffffffffffffffffffffffff\n      mul\n      not\n      and\n      swap1\n      dup4\n      0xffffffffffffffffffffffffffffffffffffffff\n      and\n      mul\n      or\n      swap1\n      sstore\n      pop\n        /* \"@openzeppelin/contracts/access/Ownable.sol\":3083:3091  newOwner */\n      dup2\n        /* \"@openzeppelin/contracts/access/Ownable.sol\":3052:3092  OwnershipTransferred(oldOwner, newOwner) */\n      0xffffffffffffffffffffffffffffffffffffffff\n      and\n        /* \"@openzeppelin/contracts/access/Ownable.sol\":3073:3081  oldOwner */\n      dup2\n        /* \"@openzeppelin/contracts/access/Ownable.sol\":3052:3092  OwnershipTransferred(oldOwner, newOwner) */\n      0xffffffffffffffffffffffffffffffffffffffff\n      and\n      0x8be0079c531659141344cd1fd0a4f28419497f9722a3daafe3b4186f6b6457e0\n      mload(0x40)\n      mload(0x40)\n      dup1\n      swap2\n      sub\n      swap1\n      log3\n        /* \"@openzeppelin/contracts/access/Ownable.sol\":2975:3099  {... */\n      pop\n        /* \"@openzeppelin/contracts/access/Ownable.sol\":2912:3099  function _transferOwnership(address newOwner) internal virtual {... */\n      pop\n      jump\t// out\n        /* \"@openzeppelin/contracts/utils/Context.sol\":656:752  function _msgSender() internal view virtual returns (address) {... */\n    tag_362:\n        /* \"@openzeppelin/contracts/utils/Context.sol\":709:716  address */\n      0x00\n        /* \"@openzeppelin/contracts/utils/Context.sol\":735:745  msg.sender */\n      caller\n        /* \"@openzeppelin/contracts/utils/Context.sol\":728:745  return msg.sender */\n      swap1\n      pop\n        /* \"@openzeppelin/contracts/utils/Context.sol\":656:752  function _msgSender() internal view virtual returns (address) {... */\n      swap1\n      jump\t// out\n        /* \"#utility.yul\":88:205   */\n    tag_375:\n        /* \"#utility.yul\":197:198   */\n      0x00\n        /* \"#utility.yul\":194:195   */\n      0x00\n        /* \"#utility.yul\":187:199   */\n      revert\n        /* \"#utility.yul\":211:328   */\n    tag_376:\n        /* \"#utility.yul\":320:321   */\n      0x00\n        /* \"#utility.yul\":317:318   */\n      0x00\n        /* \"#utility.yul\":310:322   */\n      revert\n        /* \"#utility.yul\":334:411   */\n    tag_377:\n        /* \"#utility.yul\":371:378   */\n      0x00\n        /* \"#utility.yul\":400:405   */\n      dup2\n        /* \"#utility.yul\":389:405   */\n      swap1\n      pop\n        /* \"#utility.yul\":334:411   */\n      swap2\n      swap1\n      pop\n      jump\t// out\n        /* \"#utility.yul\":417:539   */\n    tag_378:\n        /* \"#utility.yul\":490:514   */\n      tag_448\n        /* \"#utility.yul\":508:513   */\n      dup2\n        /* \"#utility.yul\":490:514   */\n      tag_377\n      jump\t// in\n    tag_448:\n        /* \"#utility.yul\":483:488   */\n      dup2\n        /* \"#utility.yul\":480:515   */\n      eq\n        /* \"#utility.yul\":470:533   */\n      tag_449\n      jumpi\n        /* \"#utility.yul\":529:530   */\n      0x00\n        /* \"#utility.yul\":526:527   */\n      0x00\n        /* \"#utility.yul\":519:531   */\n      revert\n        /* \"#utility.yul\":470:533   */\n    tag_449:\n        /* \"#utility.yul\":417:539   */\n      pop\n      jump\t// out\n        /* \"#utility.yul\":545:684   */\n    tag_379:\n        /* \"#utility.yul\":591:596   */\n      0x00\n        /* \"#utility.yul\":629:635   */\n      dup2\n        /* \"#utility.yul\":616:636   */\n      calldataload\n        /* \"#utility.yul\":607:636   */\n      swap1\n      pop\n        /* \"#utility.yul\":645:678   */\n      tag_451\n        /* \"#utility.yul\":672:677   */\n      dup2\n        /* \"#utility.yul\":645:678   */\n      tag_378\n      jump\t// in\n    tag_451:\n        /* \"#utility.yul\":545:684   */\n      swap3\n      swap2\n      pop\n      pop\n      jump\t// out\n        /* \"#utility.yul\":690:780   */\n    tag_380:\n        /* \"#utility.yul\":724:731   */\n      0x00\n        /* \"#utility.yul\":767:772   */\n      dup2\n        /* \"#utility.yul\":760:773   */\n      iszero\n        /* \"#utility.yul\":753:774   */\n      iszero\n        /* \"#utility.yul\":742:774   */\n      swap1\n      pop\n        /* \"#utility.yul\":690:780   */\n      swap2\n      swap1\n      pop\n      jump\t// out\n        /* \"#utility.yul\":786:902   */\n    tag_381:\n        /* \"#utility.yul\":856:877   */\n      tag_454\n        /* \"#utility.yul\":871:876   */\n      dup2\n        /* \"#utility.yul\":856:877   */\n      tag_380\n      jump\t// in\n    tag_454:\n        /* \"#utility.yul\":849:854   */\n      dup2\n        /* \"#utility.yul\":846:878   */\n      eq\n        /* \"#utility.yul\":836:896   */\n      tag_455\n      jumpi\n        /* \"#utility.yul\":892:893   */\n      0x00\n        /* \"#utility.yul\":889:890   */\n      0x00\n        /* \"#utility.yul\":882:894   */\n      revert\n        /* \"#utility.yul\":836:896   */\n    tag_455:\n        /* \"#utility.yul\":786:902   */\n      pop\n      jump\t// out\n        /* \"#utility.yul\":908:1041   */\n    tag_382:\n        /* \"#utility.yul\":951:956   */\n      0x00\n        /* \"#utility.yul\":989:995   */\n      dup2\n        /* \"#utility.yul\":976:996   */\n      calldataload\n        /* \"#utility.yul\":967:996   */\n      swap1\n      pop\n        /* \"#utility.yul\":1005:1035   */\n      tag_457\n        /* \"#utility.yul\":1029:1034   */\n      dup2\n        /* \"#utility.yul\":1005:1035   */\n      tag_381\n      jump\t// in\n    tag_457:\n        /* \"#utility.yul\":908:1041   */\n      swap3\n      swap2\n      pop\n      pop\n      jump\t// out\n        /* \"#utility.yul\":1047:1515   */\n    tag_36:\n        /* \"#utility.yul\":1112:1118   */\n      0x00\n        /* \"#utility.yul\":1120:1126   */\n      0x00\n        /* \"#utility.yul\":1169:1171   */\n      0x40\n        /* \"#utility.yul\":1157:1166   */\n      dup4\n        /* \"#utility.yul\":1148:1155   */\n      dup6\n        /* \"#utility.yul\":1144:1167   */\n      sub\n        /* \"#utility.yul\":1140:1172   */\n      slt\n        /* \"#utility.yul\":1137:1256   */\n      iszero\n      tag_459\n      jumpi\n        /* \"#utility.yul\":1175:1254   */\n      tag_460\n      tag_375\n      jump\t// in\n    tag_460:\n        /* \"#utility.yul\":1137:1256   */\n    tag_459:\n        /* \"#utility.yul\":1295:1296   */\n      0x00\n        /* \"#utility.yul\":1320:1373   */\n      tag_461\n        /* \"#utility.yul\":1365:1372   */\n      dup6\n        /* \"#utility.yul\":1356:1362   */\n      dup3\n        /* \"#utility.yul\":1345:1354   */\n      dup7\n        /* \"#utility.yul\":1341:1363   */\n      add\n        /* \"#utility.yul\":1320:1373   */\n      tag_379\n      jump\t// in\n    tag_461:\n        /* \"#utility.yul\":1310:1373   */\n      swap3\n      pop\n        /* \"#utility.yul\":1266:1383   */\n      pop\n        /* \"#utility.yul\":1422:1424   */\n      0x20\n        /* \"#utility.yul\":1448:1498   */\n      tag_462\n        /* \"#utility.yul\":1490:1497   */\n      dup6\n        /* \"#utility.yul\":1481:1487   */\n      dup3\n        /* \"#utility.yul\":1470:1479   */\n      dup7\n        /* \"#utility.yul\":1466:1488   */\n      add\n        /* \"#utility.yul\":1448:1498   */\n      tag_382\n      jump\t// in\n    tag_462:\n        /* \"#utility.yul\":1438:1498   */\n      swap2\n      pop\n        /* \"#utility.yul\":1393:1508   */\n      pop\n        /* \"#utility.yul\":1047:1515   */\n      swap3\n      pop\n      swap3\n      swap1\n      pop\n      jump\t// out\n        /* \"#utility.yul\":1521:1647   */\n    tag_383:\n        /* \"#utility.yul\":1558:1565   */\n      0x00\n        /* \"#utility.yul\":1598:1640   */\n      0xffffffffffffffffffffffffffffffffffffffff\n        /* \"#utility.yul\":1591:1596   */\n      dup3\n        /* \"#utility.yul\":1587:1641   */\n      and\n        /* \"#utility.yul\":1576:1641   */\n      swap1\n      pop\n        /* \"#utility.yul\":1521:1647   */\n      swap2\n      swap1\n      pop\n      jump\t// out\n        /* \"#utility.yul\":1653:1749   */\n    tag_384:\n        /* \"#utility.yul\":1690:1697   */\n      0x00\n        /* \"#utility.yul\":1719:1743   */\n      tag_465\n        /* \"#utility.yul\":1737:1742   */\n      dup3\n        /* \"#utility.yul\":1719:1743   */\n      tag_383\n      jump\t// in\n    tag_465:\n        /* \"#utility.yul\":1708:1743   */\n      swap1\n      pop\n        /* \"#utility.yul\":1653:1749   */\n      swap2\n      swap1\n      pop\n      jump\t// out\n        /* \"#utility.yul\":1755:1877   */\n    tag_385:\n        /* \"#utility.yul\":1828:1852   */\n      tag_467\n        /* \"#utility.yul\":1846:1851   */\n      dup2\n        /* \"#utility.yul\":1828:1852   */\n      tag_384\n      jump\t// in\n    tag_467:\n        /* \"#utility.yul\":1821:1826   */\n      dup2\n        /* \"#utility.yul\":1818:1853   */\n      eq\n        /* \"#utility.yul\":1808:1871   */\n      tag_468\n      jumpi\n        /* \"#utility.yul\":1867:1868   */\n      0x00\n        /* \"#utility.yul\":1864:1865   */\n      0x00\n        /* \"#utility.yul\":1857:1869   */\n      revert\n        /* \"#utility.yul\":1808:1871   */\n    tag_468:\n        /* \"#utility.yul\":1755:1877   */\n      pop\n      jump\t// out\n        /* \"#utility.yul\":1883:2022   */\n    tag_386:\n        /* \"#utility.yul\":1929:1934   */\n      0x00\n        /* \"#utility.yul\":1967:1973   */\n      dup2\n        /* \"#utility.yul\":1954:1974   */\n      calldataload\n        /* \"#utility.yul\":1945:1974   */\n      swap1\n      pop\n        /* \"#utility.yul\":1983:2016   */\n      tag_470\n        /* \"#utility.yul\":2010:2015   */\n      dup2\n        /* \"#utility.yul\":1983:2016   */\n      tag_385\n      jump\t// in\n    tag_470:\n        /* \"#utility.yul\":1883:2022   */\n      swap3\n      swap2\n      pop\n      pop\n      jump\t// out\n        /* \"#utility.yul\":2028:2357   */\n    tag_40:\n        /* \"#utility.yul\":2087:2093   */\n      0x00\n        /* \"#utility.yul\":2136:2138   */\n      0x20\n        /* \"#utility.yul\":2124:2133   */\n      dup3\n        /* \"#utility.yul\":2115:2122   */\n      dup5\n        /* \"#utility.yul\":2111:2134   */\n      sub\n        /* \"#utility.yul\":2107:2139   */\n      slt\n        /* \"#utility.yul\":2104:2223   */\n      iszero\n      tag_472\n      jumpi\n        /* \"#utility.yul\":2142:2221   */\n      tag_473\n      tag_375\n      jump\t// in\n    tag_473:\n        /* \"#utility.yul\":2104:2223   */\n    tag_472:\n        /* \"#utility.yul\":2262:2263   */\n      0x00\n        /* \"#utility.yul\":2287:2340   */\n      tag_474\n        /* \"#utility.yul\":2332:2339   */\n      dup5\n        /* \"#utility.yul\":2323:2329   */\n      dup3\n        /* \"#utility.yul\":2312:2321   */\n      dup6\n        /* \"#utility.yul\":2308:2330   */\n      add\n        /* \"#utility.yul\":2287:2340   */\n      tag_386\n      jump\t// in\n    tag_474:\n        /* \"#utility.yul\":2277:2340   */\n      swap2\n      pop\n        /* \"#utility.yul\":2233:2350   */\n      pop\n        /* \"#utility.yul\":2028:2357   */\n      swap3\n      swap2\n      pop\n      pop\n      jump\t// out\n        /* \"#utility.yul\":2363:2481   */\n    tag_387:\n        /* \"#utility.yul\":2450:2474   */\n      tag_476\n        /* \"#utility.yul\":2468:2473   */\n      dup2\n        /* \"#utility.yul\":2450:2474   */\n      tag_377\n      jump\t// in\n    tag_476:\n        /* \"#utility.yul\":2445:2448   */\n      dup3\n        /* \"#utility.yul\":2438:2475   */\n      mstore\n        /* \"#utility.yul\":2363:2481   */\n      pop\n      pop\n      jump\t// out\n        /* \"#utility.yul\":2487:2709   */\n    tag_43:\n        /* \"#utility.yul\":2580:2584   */\n      0x00\n        /* \"#utility.yul\":2618:2620   */\n      0x20\n        /* \"#utility.yul\":2607:2616   */\n      dup3\n        /* \"#utility.yul\":2603:2621   */\n      add\n        /* \"#utility.yul\":2595:2621   */\n      swap1\n      pop\n        /* \"#utility.yul\":2631:2702   */\n      tag_478\n        /* \"#utility.yul\":2699:2700   */\n      0x00\n        /* \"#utility.yul\":2688:2697   */\n      dup4\n        /* \"#utility.yul\":2684:2701   */\n      add\n        /* \"#utility.yul\":2675:2681   */\n      dup5\n        /* \"#utility.yul\":2631:2702   */\n      tag_387\n      jump\t// in\n    tag_478:\n        /* \"#utility.yul\":2487:2709   */\n      swap3\n      swap2\n      pop\n      pop\n      jump\t// out\n        /* \"#utility.yul\":2715:2801   */\n    tag_388:\n        /* \"#utility.yul\":2750:2757   */\n      0x00\n        /* \"#utility.yul\":2790:2794   */\n      0xff\n        /* \"#utility.yul\":2783:2788   */\n      dup3\n        /* \"#utility.yul\":2779:2795   */\n      and\n        /* \"#utility.yul\":2768:2795   */\n      swap1\n      pop\n        /* \"#utility.yul\":2715:2801   */\n      swap2\n      swap1\n      pop\n      jump\t// out\n        /* \"#utility.yul\":2807:2925   */\n    tag_389:\n        /* \"#utility.yul\":2878:2900   */\n      tag_481\n        /* \"#utility.yul\":2894:2899   */\n      dup2\n        /* \"#utility.yul\":2878:2900   */\n      tag_388\n      jump\t// in\n    tag_481:\n        /* \"#utility.yul\":2871:2876   */\n      dup2\n        /* \"#utility.yul\":2868:2901   */\n      eq\n        /* \"#utility.yul\":2858:2919   */\n      tag_482\n      jumpi\n        /* \"#utility.yul\":2915:2916   */\n      0x00\n        /* \"#utility.yul\":2912:2913   */\n      0x00\n        /* \"#utility.yul\":2905:2917   */\n      revert\n        /* \"#utility.yul\":2858:2919   */\n    tag_482:\n        /* \"#utility.yul\":2807:2925   */\n      pop\n      jump\t// out\n        /* \"#utility.yul\":2931:3066   */\n    tag_390:\n        /* \"#utility.yul\":2975:2980   */\n      0x00\n        /* \"#utility.yul\":3013:3019   */\n      dup2\n        /* \"#utility.yul\":3000:3020   */\n      calldataload\n        /* \"#utility.yul\":2991:3020   */\n      swap1\n      pop\n        /* \"#utility.yul\":3029:3060   */\n      tag_484\n        /* \"#utility.yul\":3054:3059   */\n      dup2\n        /* \"#utility.yul\":3029:3060   */\n      tag_389\n      jump\t// in\n    tag_484:\n        /* \"#utility.yul\":2931:3066   */\n      swap3\n      swap2\n      pop\n      pop\n      jump\t// out\n        /* \"#utility.yul\":3072:3397   */\n    tag_46:\n        /* \"#utility.yul\":3129:3135   */\n      0x00\n        /* \"#utility.yul\":3178:3180   */\n      0x20\n        /* \"#utility.yul\":3166:3175   */\n      dup3\n        /* \"#utility.yul\":3157:3164   */\n      dup5\n        /* \"#utility.yul\":3153:3176   */\n      sub\n        /* \"#utility.yul\":3149:3181   */\n      slt\n        /* \"#utility.yul\":3146:3265   */\n      iszero\n      tag_486\n      jumpi\n        /* \"#utility.yul\":3184:3263   */\n      tag_487\n      tag_375\n      jump\t// in\n    tag_487:\n        /* \"#utility.yul\":3146:3265   */\n    tag_486:\n        /* \"#utility.yul\":3304:3305   */\n      0x00\n        /* \"#utility.yul\":3329:3380   */\n      tag_488\n        /* \"#utility.yul\":3372:3379   */\n      dup5\n        /* \"#utility.yul\":3363:3369   */\n      dup3\n        /* \"#utility.yul\":3352:3361   */\n      dup6\n        /* \"#utility.yul\":3348:3370   */\n      add\n        /* \"#utility.yul\":3329:3380   */\n      tag_390\n      jump\t// in\n    tag_488:\n        /* \"#utility.yul\":3319:3380   */\n      swap2\n      pop\n        /* \"#utility.yul\":3275:3390   */\n      pop\n        /* \"#utility.yul\":3072:3397   */\n      swap3\n      swap2\n      pop\n      pop\n      jump\t// out\n        /* \"#utility.yul\":3403:4164   */\n    tag_50:\n        /* \"#utility.yul\":3487:3493   */\n      0x00\n        /* \"#utility.yul\":3495:3501   */\n      0x00\n        /* \"#utility.yul\":3503:3509   */\n      0x00\n        /* \"#utility.yul\":3511:3517   */\n      0x00\n        /* \"#utility.yul\":3560:3563   */\n      0x80\n        /* \"#utility.yul\":3548:3557   */\n      dup6\n        /* \"#utility.yul\":3539:3546   */\n      dup8\n        /* \"#utility.yul\":3535:3558   */\n      sub\n        /* \"#utility.yul\":3531:3564   */\n      slt\n        /* \"#utility.yul\":3528:3648   */\n      iszero\n      tag_490\n      jumpi\n        /* \"#utility.yul\":3567:3646   */\n      tag_491\n      tag_375\n      jump\t// in\n    tag_491:\n        /* \"#utility.yul\":3528:3648   */\n    tag_490:\n        /* \"#utility.yul\":3687:3688   */\n      0x00\n        /* \"#utility.yul\":3712:3765   */\n      tag_492\n        /* \"#utility.yul\":3757:3764   */\n      dup8\n        /* \"#utility.yul\":3748:3754   */\n      dup3\n        /* \"#utility.yul\":3737:3746   */\n      dup9\n        /* \"#utility.yul\":3733:3755   */\n      add\n        /* \"#utility.yul\":3712:3765   */\n      tag_379\n      jump\t// in\n    tag_492:\n        /* \"#utility.yul\":3702:3765   */\n      swap5\n      pop\n        /* \"#utility.yul\":3658:3775   */\n      pop\n        /* \"#utility.yul\":3814:3816   */\n      0x20\n        /* \"#utility.yul\":3840:3891   */\n      tag_493\n        /* \"#utility.yul\":3883:3890   */\n      dup8\n        /* \"#utility.yul\":3874:3880   */\n      dup3\n        /* \"#utility.yul\":3863:3872   */\n      dup9\n        /* \"#utility.yul\":3859:3881   */\n      add\n        /* \"#utility.yul\":3840:3891   */\n      tag_390\n      jump\t// in\n    tag_493:\n        /* \"#utility.yul\":3830:3891   */\n      swap4\n      pop\n        /* \"#utility.yul\":3785:3901   */\n      pop\n        /* \"#utility.yul\":3940:3942   */\n      0x40\n        /* \"#utility.yul\":3966:4019   */\n      tag_494\n        /* \"#utility.yul\":4011:4018   */\n      dup8\n        /* \"#utility.yul\":4002:4008   */\n      dup3\n        /* \"#utility.yul\":3991:4000   */\n      dup9\n        /* \"#utility.yul\":3987:4009   */\n      add\n        /* \"#utility.yul\":3966:4019   */\n      tag_379\n      jump\t// in\n    tag_494:\n        /* \"#utility.yul\":3956:4019   */\n      swap3\n      pop\n        /* \"#utility.yul\":3911:4029   */\n      pop\n        /* \"#utility.yul\":4068:4070   */\n      0x60\n        /* \"#utility.yul\":4094:4147   */\n      tag_495\n        /* \"#utility.yul\":4139:4146   */\n      dup8\n        /* \"#utility.yul\":4130:4136   */\n      dup3\n        /* \"#utility.yul\":4119:4128   */\n      dup9\n        /* \"#utility.yul\":4115:4137   */\n      add\n        /* \"#utility.yul\":4094:4147   */\n      tag_379\n      jump\t// in\n    tag_495:\n        /* \"#utility.yul\":4084:4147   */\n      swap2\n      pop\n        /* \"#utility.yul\":4039:4157   */\n      pop\n        /* \"#utility.yul\":3403:4164   */\n      swap3\n      swap6\n      swap2\n      swap5\n      pop\n      swap3\n      pop\n      jump\t// out\n        /* \"#utility.yul\":4170:4282   */\n    tag_391:\n        /* \"#utility.yul\":4253:4275   */\n      tag_497\n        /* \"#utility.yul\":4269:4274   */\n      dup2\n        /* \"#utility.yul\":4253:4275   */\n      tag_388\n      jump\t// in\n    tag_497:\n        /* \"#utility.yul\":4248:4251   */\n      dup3\n        /* \"#utility.yul\":4241:4276   */\n      mstore\n        /* \"#utility.yul\":4170:4282   */\n      pop\n      pop\n      jump\t// out\n        /* \"#utility.yul\":4288:4502   */\n    tag_55:\n        /* \"#utility.yul\":4377:4381   */\n      0x00\n        /* \"#utility.yul\":4415:4417   */\n      0x20\n        /* \"#utility.yul\":4404:4413   */\n      dup3\n        /* \"#utility.yul\":4400:4418   */\n      add\n        /* \"#utility.yul\":4392:4418   */\n      swap1\n      pop\n        /* \"#utility.yul\":4428:4495   */\n      tag_499\n        /* \"#utility.yul\":4492:4493   */\n      0x00\n        /* \"#utility.yul\":4481:4490   */\n      dup4\n        /* \"#utility.yul\":4477:4494   */\n      add\n        /* \"#utility.yul\":4468:4474   */\n      dup5\n        /* \"#utility.yul\":4428:4495   */\n      tag_391\n      jump\t// in\n    tag_499:\n        /* \"#utility.yul\":4288:4502   */\n      swap3\n      swap2\n      pop\n      pop\n      jump\t// out\n        /* \"#utility.yul\":4508:4837   */\n    tag_58:\n        /* \"#utility.yul\":4567:4573   */\n      0x00\n        /* \"#utility.yul\":4616:4618   */\n      0x20\n        /* \"#utility.yul\":4604:4613   */\n      dup3\n        /* \"#utility.yul\":4595:4602   */\n      dup5\n        /* \"#utility.yul\":4591:4614   */\n      sub\n        /* \"#utility.yul\":4587:4619   */\n      slt\n        /* \"#utility.yul\":4584:4703   */\n      iszero\n      tag_501\n      jumpi\n        /* \"#utility.yul\":4622:4701   */\n      tag_502\n      tag_375\n      jump\t// in\n    tag_502:\n        /* \"#utility.yul\":4584:4703   */\n    tag_501:\n        /* \"#utility.yul\":4742:4743   */\n      0x00\n        /* \"#utility.yul\":4767:4820   */\n      tag_503\n        /* \"#utility.yul\":4812:4819   */\n      dup5\n        /* \"#utility.yul\":4803:4809   */\n      dup3\n        /* \"#utility.yul\":4792:4801   */\n      dup6\n        /* \"#utility.yul\":4788:4810   */\n      add\n        /* \"#utility.yul\":4767:4820   */\n      tag_379\n      jump\t// in\n    tag_503:\n        /* \"#utility.yul\":4757:4820   */\n      swap2\n      pop\n        /* \"#utility.yul\":4713:4830   */\n      pop\n        /* \"#utility.yul\":4508:4837   */\n      swap3\n      swap2\n      pop\n      pop\n      jump\t// out\n        /* \"#utility.yul\":4843:4960   */\n    tag_392:\n        /* \"#utility.yul\":4952:4953   */\n      0x00\n        /* \"#utility.yul\":4949:4950   */\n      0x00\n        /* \"#utility.yul\":4942:4954   */\n      revert\n        /* \"#utility.yul\":4966:5083   */\n    tag_393:\n        /* \"#utility.yul\":5075:5076   */\n      0x00\n        /* \"#utility.yul\":5072:5073   */\n      0x00\n        /* \"#utility.yul\":5065:5077   */\n      revert\n        /* \"#utility.yul\":5089:5206   */\n    tag_394:\n        /* \"#utility.yul\":5198:5199   */\n      0x00\n        /* \"#utility.yul\":5195:5196   */\n      0x00\n        /* \"#utility.yul\":5188:5200   */\n      revert\n        /* \"#utility.yul\":5229:5797   */\n    tag_395:\n        /* \"#utility.yul\":5302:5310   */\n      0x00\n        /* \"#utility.yul\":5312:5318   */\n      0x00\n        /* \"#utility.yul\":5362:5365   */\n      dup4\n        /* \"#utility.yul\":5355:5359   */\n      0x1f\n        /* \"#utility.yul\":5347:5353   */\n      dup5\n        /* \"#utility.yul\":5343:5360   */\n      add\n        /* \"#utility.yul\":5339:5366   */\n      slt\n        /* \"#utility.yul\":5329:5451   */\n      tag_508\n      jumpi\n        /* \"#utility.yul\":5370:5449   */\n      tag_509\n      tag_392\n      jump\t// in\n    tag_509:\n        /* \"#utility.yul\":5329:5451   */\n    tag_508:\n        /* \"#utility.yul\":5483:5489   */\n      dup3\n        /* \"#utility.yul\":5470:5490   */\n      calldataload\n        /* \"#utility.yul\":5460:5490   */\n      swap1\n      pop\n        /* \"#utility.yul\":5513:5531   */\n      0xffffffffffffffff\n        /* \"#utility.yul\":5505:5511   */\n      dup2\n        /* \"#utility.yul\":5502:5532   */\n      gt\n        /* \"#utility.yul\":5499:5616   */\n      iszero\n      tag_510\n      jumpi\n        /* \"#utility.yul\":5535:5614   */\n      tag_511\n      tag_393\n      jump\t// in\n    tag_511:\n        /* \"#utility.yul\":5499:5616   */\n    tag_510:\n        /* \"#utility.yul\":5649:5653   */\n      0x20\n        /* \"#utility.yul\":5641:5647   */\n      dup4\n        /* \"#utility.yul\":5637:5654   */\n      add\n        /* \"#utility.yul\":5625:5654   */\n      swap2\n      pop\n        /* \"#utility.yul\":5703:5706   */\n      dup4\n        /* \"#utility.yul\":5695:5699   */\n      0x20\n        /* \"#utility.yul\":5687:5693   */\n      dup3\n        /* \"#utility.yul\":5683:5700   */\n      mul\n        /* \"#utility.yul\":5673:5681   */\n      dup4\n        /* \"#utility.yul\":5669:5701   */\n      add\n        /* \"#utility.yul\":5666:5707   */\n      gt\n        /* \"#utility.yul\":5663:5791   */\n      iszero\n      tag_512\n      jumpi\n        /* \"#utility.yul\":5710:5789   */\n      tag_513\n      tag_394\n      jump\t// in\n    tag_513:\n        /* \"#utility.yul\":5663:5791   */\n    tag_512:\n        /* \"#utility.yul\":5229:5797   */\n      swap3\n      pop\n      swap3\n      swap1\n      pop\n      jump\t// out\n        /* \"#utility.yul\":5817:6382   */\n    tag_396:\n        /* \"#utility.yul\":5887:5895   */\n      0x00\n        /* \"#utility.yul\":5897:5903   */\n      0x00\n        /* \"#utility.yul\":5947:5950   */\n      dup4\n        /* \"#utility.yul\":5940:5944   */\n      0x1f\n        /* \"#utility.yul\":5932:5938   */\n      dup5\n        /* \"#utility.yul\":5928:5945   */\n      add\n        /* \"#utility.yul\":5924:5951   */\n      slt\n        /* \"#utility.yul\":5914:6036   */\n      tag_515\n      jumpi\n        /* \"#utility.yul\":5955:6034   */\n      tag_516\n      tag_392\n      jump\t// in\n    tag_516:\n        /* \"#utility.yul\":5914:6036   */\n    tag_515:\n        /* \"#utility.yul\":6068:6074   */\n      dup3\n        /* \"#utility.yul\":6055:6075   */\n      calldataload\n        /* \"#utility.yul\":6045:6075   */\n      swap1\n      pop\n        /* \"#utility.yul\":6098:6116   */\n      0xffffffffffffffff\n        /* \"#utility.yul\":6090:6096   */\n      dup2\n        /* \"#utility.yul\":6087:6117   */\n      gt\n        /* \"#utility.yul\":6084:6201   */\n      iszero\n      tag_517\n      jumpi\n        /* \"#utility.yul\":6120:6199   */\n      tag_518\n      tag_393\n      jump\t// in\n    tag_518:\n        /* \"#utility.yul\":6084:6201   */\n    tag_517:\n        /* \"#utility.yul\":6234:6238   */\n      0x20\n        /* \"#utility.yul\":6226:6232   */\n      dup4\n        /* \"#utility.yul\":6222:6239   */\n      add\n        /* \"#utility.yul\":6210:6239   */\n      swap2\n      pop\n        /* \"#utility.yul\":6288:6291   */\n      dup4\n        /* \"#utility.yul\":6280:6284   */\n      0x20\n        /* \"#utility.yul\":6272:6278   */\n      dup3\n        /* \"#utility.yul\":6268:6285   */\n      mul\n        /* \"#utility.yul\":6258:6266   */\n      dup4\n        /* \"#utility.yul\":6254:6286   */\n      add\n        /* \"#utility.yul\":6251:6292   */\n      gt\n        /* \"#utility.yul\":6248:6376   */\n      iszero\n      tag_519\n      jumpi\n        /* \"#utility.yul\":6295:6374   */\n      tag_520\n      tag_394\n      jump\t// in\n    tag_520:\n        /* \"#utility.yul\":6248:6376   */\n    tag_519:\n        /* \"#utility.yul\":5817:6382   */\n      swap3\n      pop\n      swap3\n      swap1\n      pop\n      jump\t// out\n        /* \"#utility.yul\":6388:7316   */\n    tag_62:\n        /* \"#utility.yul\":6507:6513   */\n      0x00\n        /* \"#utility.yul\":6515:6521   */\n      0x00\n        /* \"#utility.yul\":6523:6529   */\n      0x00\n        /* \"#utility.yul\":6531:6537   */\n      0x00\n        /* \"#utility.yul\":6580:6582   */\n      0x40\n        /* \"#utility.yul\":6568:6577   */\n      dup6\n        /* \"#utility.yul\":6559:6566   */\n      dup8\n        /* \"#utility.yul\":6555:6578   */\n      sub\n        /* \"#utility.yul\":6551:6583   */\n      slt\n        /* \"#utility.yul\":6548:6667   */\n      iszero\n      tag_522\n      jumpi\n        /* \"#utility.yul\":6586:6665   */\n      tag_523\n      tag_375\n      jump\t// in\n    tag_523:\n        /* \"#utility.yul\":6548:6667   */\n    tag_522:\n        /* \"#utility.yul\":6734:6735   */\n      0x00\n        /* \"#utility.yul\":6723:6732   */\n      dup6\n        /* \"#utility.yul\":6719:6736   */\n      add\n        /* \"#utility.yul\":6706:6737   */\n      calldataload\n        /* \"#utility.yul\":6764:6782   */\n      0xffffffffffffffff\n        /* \"#utility.yul\":6756:6762   */\n      dup2\n        /* \"#utility.yul\":6753:6783   */\n      gt\n        /* \"#utility.yul\":6750:6867   */\n      iszero\n      tag_524\n      jumpi\n        /* \"#utility.yul\":6786:6865   */\n      tag_525\n      tag_376\n      jump\t// in\n    tag_525:\n        /* \"#utility.yul\":6750:6867   */\n    tag_524:\n        /* \"#utility.yul\":6899:6979   */\n      tag_526\n        /* \"#utility.yul\":6971:6978   */\n      dup8\n        /* \"#utility.yul\":6962:6968   */\n      dup3\n        /* \"#utility.yul\":6951:6960   */\n      dup9\n        /* \"#utility.yul\":6947:6969   */\n      add\n        /* \"#utility.yul\":6899:6979   */\n      tag_395\n      jump\t// in\n    tag_526:\n        /* \"#utility.yul\":6881:6979   */\n      swap5\n      pop\n      swap5\n      pop\n        /* \"#utility.yul\":6677:6989   */\n      pop\n        /* \"#utility.yul\":7056:7058   */\n      0x20\n        /* \"#utility.yul\":7045:7054   */\n      dup6\n        /* \"#utility.yul\":7041:7059   */\n      add\n        /* \"#utility.yul\":7028:7060   */\n      calldataload\n        /* \"#utility.yul\":7087:7105   */\n      0xffffffffffffffff\n        /* \"#utility.yul\":7079:7085   */\n      dup2\n        /* \"#utility.yul\":7076:7106   */\n      gt\n        /* \"#utility.yul\":7073:7190   */\n      iszero\n      tag_527\n      jumpi\n        /* \"#utility.yul\":7109:7188   */\n      tag_528\n      tag_376\n      jump\t// in\n    tag_528:\n        /* \"#utility.yul\":7073:7190   */\n    tag_527:\n        /* \"#utility.yul\":7222:7299   */\n      tag_529\n        /* \"#utility.yul\":7291:7298   */\n      dup8\n        /* \"#utility.yul\":7282:7288   */\n      dup3\n        /* \"#utility.yul\":7271:7280   */\n      dup9\n        /* \"#utility.yul\":7267:7289   */\n      add\n        /* \"#utility.yul\":7222:7299   */\n      tag_396\n      jump\t// in\n    tag_529:\n        /* \"#utility.yul\":7204:7299   */\n      swap3\n      pop\n      swap3\n      pop\n        /* \"#utility.yul\":6999:7309   */\n      pop\n        /* \"#utility.yul\":6388:7316   */\n      swap3\n      swap6\n      swap2\n      swap5\n      pop\n      swap3\n      pop\n      jump\t// out\n        /* \"#utility.yul\":7322:7382   */\n    tag_397:\n        /* \"#utility.yul\":7350:7353   */\n      0x00\n        /* \"#utility.yul\":7371:7376   */\n      dup2\n        /* \"#utility.yul\":7364:7376   */\n      swap1\n      pop\n        /* \"#utility.yul\":7322:7382   */\n      swap2\n      swap1\n      pop\n      jump\t// out\n        /* \"#utility.yul\":7388:7530   */\n    tag_398:\n        /* \"#utility.yul\":7438:7447   */\n      0x00\n        /* \"#utility.yul\":7471:7524   */\n      tag_532\n        /* \"#utility.yul\":7489:7523   */\n      tag_533\n        /* \"#utility.yul\":7498:7522   */\n      tag_534\n        /* \"#utility.yul\":7516:7521   */\n      dup5\n        /* \"#utility.yul\":7498:7522   */\n      tag_383\n      jump\t// in\n    tag_534:\n        /* \"#utility.yul\":7489:7523   */\n      tag_397\n      jump\t// in\n    tag_533:\n        /* \"#utility.yul\":7471:7524   */\n      tag_383\n      jump\t// in\n    tag_532:\n        /* \"#utility.yul\":7458:7524   */\n      swap1\n      pop\n        /* \"#utility.yul\":7388:7530   */\n      swap2\n      swap1\n      pop\n      jump\t// out\n        /* \"#utility.yul\":7536:7662   */\n    tag_399:\n        /* \"#utility.yul\":7586:7595   */\n      0x00\n        /* \"#utility.yul\":7619:7656   */\n      tag_536\n        /* \"#utility.yul\":7650:7655   */\n      dup3\n        /* \"#utility.yul\":7619:7656   */\n      tag_398\n      jump\t// in\n    tag_536:\n        /* \"#utility.yul\":7606:7656   */\n      swap1\n      pop\n        /* \"#utility.yul\":7536:7662   */\n      swap2\n      swap1\n      pop\n      jump\t// out\n        /* \"#utility.yul\":7668:7816   */\n    tag_400:\n        /* \"#utility.yul\":7740:7749   */\n      0x00\n        /* \"#utility.yul\":7773:7810   */\n      tag_538\n        /* \"#utility.yul\":7804:7809   */\n      dup3\n        /* \"#utility.yul\":7773:7810   */\n      tag_399\n      jump\t// in\n    tag_538:\n        /* \"#utility.yul\":7760:7810   */\n      swap1\n      pop\n        /* \"#utility.yul\":7668:7816   */\n      swap2\n      swap1\n      pop\n      jump\t// out\n        /* \"#utility.yul\":7822:7997   */\n    tag_401:\n        /* \"#utility.yul\":7931:7990   */\n      tag_540\n        /* \"#utility.yul\":7984:7989   */\n      dup2\n        /* \"#utility.yul\":7931:7990   */\n      tag_400\n      jump\t// in\n    tag_540:\n        /* \"#utility.yul\":7926:7929   */\n      dup3\n        /* \"#utility.yul\":7919:7991   */\n      mstore\n        /* \"#utility.yul\":7822:7997   */\n      pop\n      pop\n      jump\t// out\n        /* \"#utility.yul\":8003:8269   */\n    tag_67:\n        /* \"#utility.yul\":8118:8122   */\n      0x00\n        /* \"#utility.yul\":8156:8158   */\n      0x20\n        /* \"#utility.yul\":8145:8154   */\n      dup3\n        /* \"#utility.yul\":8141:8159   */\n      add\n        /* \"#utility.yul\":8133:8159   */\n      swap1\n      pop\n        /* \"#utility.yul\":8169:8262   */\n      tag_542\n        /* \"#utility.yul\":8259:8260   */\n      0x00\n        /* \"#utility.yul\":8248:8257   */\n      dup4\n        /* \"#utility.yul\":8244:8261   */\n      add\n        /* \"#utility.yul\":8235:8241   */\n      dup5\n        /* \"#utility.yul\":8169:8262   */\n      tag_401\n      jump\t// in\n    tag_542:\n        /* \"#utility.yul\":8003:8269   */\n      swap3\n      swap2\n      pop\n      pop\n      jump\t// out\n        /* \"#utility.yul\":8275:8741   */\n    tag_70:\n        /* \"#utility.yul\":8339:8345   */\n      0x00\n        /* \"#utility.yul\":8347:8353   */\n      0x00\n        /* \"#utility.yul\":8396:8398   */\n      0x40\n        /* \"#utility.yul\":8384:8393   */\n      dup4\n        /* \"#utility.yul\":8375:8382   */\n      dup6\n        /* \"#utility.yul\":8371:8394   */\n      sub\n        /* \"#utility.yul\":8367:8399   */\n      slt\n        /* \"#utility.yul\":8364:8483   */\n      iszero\n      tag_544\n      jumpi\n        /* \"#utility.yul\":8402:8481   */\n      tag_545\n      tag_375\n      jump\t// in\n    tag_545:\n        /* \"#utility.yul\":8364:8483   */\n    tag_544:\n        /* \"#utility.yul\":8522:8523   */\n      0x00\n        /* \"#utility.yul\":8547:8598   */\n      tag_546\n        /* \"#utility.yul\":8590:8597   */\n      dup6\n        /* \"#utility.yul\":8581:8587   */\n      dup3\n        /* \"#utility.yul\":8570:8579   */\n      dup7\n        /* \"#utility.yul\":8566:8588   */\n      add\n        /* \"#utility.yul\":8547:8598   */\n      tag_390\n      jump\t// in\n    tag_546:\n        /* \"#utility.yul\":8537:8598   */\n      swap3\n      pop\n        /* \"#utility.yul\":8493:8608   */\n      pop\n        /* \"#utility.yul\":8647:8649   */\n      0x20\n        /* \"#utility.yul\":8673:8724   */\n      tag_547\n        /* \"#utility.yul\":8716:8723   */\n      dup6\n        /* \"#utility.yul\":8707:8713   */\n      dup3\n        /* \"#utility.yul\":8696:8705   */\n      dup7\n        /* \"#utility.yul\":8692:8714   */\n      add\n        /* \"#utility.yul\":8673:8724   */\n      tag_390\n      jump\t// in\n    tag_547:\n        /* \"#utility.yul\":8663:8724   */\n      swap2\n      pop\n        /* \"#utility.yul\":8618:8734   */\n      pop\n        /* \"#utility.yul\":8275:8741   */\n      swap3\n      pop\n      swap3\n      swap1\n      pop\n      jump\t// out\n        /* \"#utility.yul\":8747:8865   */\n    tag_402:\n        /* \"#utility.yul\":8834:8858   */\n      tag_549\n        /* \"#utility.yul\":8852:8857   */\n      dup2\n        /* \"#utility.yul\":8834:8858   */\n      tag_384\n      jump\t// in\n    tag_549:\n        /* \"#utility.yul\":8829:8832   */\n      dup3\n        /* \"#utility.yul\":8822:8859   */\n      mstore\n        /* \"#utility.yul\":8747:8865   */\n      pop\n      pop\n      jump\t// out\n        /* \"#utility.yul\":8871:9093   */\n    tag_97:\n        /* \"#utility.yul\":8964:8968   */\n      0x00\n        /* \"#utility.yul\":9002:9004   */\n      0x20\n        /* \"#utility.yul\":8991:9000   */\n      dup3\n        /* \"#utility.yul\":8987:9005   */\n      add\n        /* \"#utility.yul\":8979:9005   */\n      swap1\n      pop\n        /* \"#utility.yul\":9015:9086   */\n      tag_551\n        /* \"#utility.yul\":9083:9084   */\n      0x00\n        /* \"#utility.yul\":9072:9081   */\n      dup4\n        /* \"#utility.yul\":9068:9085   */\n      add\n        /* \"#utility.yul\":9059:9065   */\n      dup5\n        /* \"#utility.yul\":9015:9086   */\n      tag_402\n      jump\t// in\n    tag_551:\n        /* \"#utility.yul\":8871:9093   */\n      swap3\n      swap2\n      pop\n      pop\n      jump\t// out\n        /* \"#utility.yul\":9099:9652   */\n    tag_102:\n        /* \"#utility.yul\":9276:9280   */\n      0x00\n        /* \"#utility.yul\":9314:9317   */\n      0x80\n        /* \"#utility.yul\":9303:9312   */\n      dup3\n        /* \"#utility.yul\":9299:9318   */\n      add\n        /* \"#utility.yul\":9291:9318   */\n      swap1\n      pop\n        /* \"#utility.yul\":9328:9399   */\n      tag_553\n        /* \"#utility.yul\":9396:9397   */\n      0x00\n        /* \"#utility.yul\":9385:9394   */\n      dup4\n        /* \"#utility.yul\":9381:9398   */\n      add\n        /* \"#utility.yul\":9372:9378   */\n      dup8\n        /* \"#utility.yul\":9328:9399   */\n      tag_387\n      jump\t// in\n    tag_553:\n        /* \"#utility.yul\":9409:9481   */\n      tag_554\n        /* \"#utility.yul\":9477:9479   */\n      0x20\n        /* \"#utility.yul\":9466:9475   */\n      dup4\n        /* \"#utility.yul\":9462:9480   */\n      add\n        /* \"#utility.yul\":9453:9459   */\n      dup7\n        /* \"#utility.yul\":9409:9481   */\n      tag_387\n      jump\t// in\n    tag_554:\n        /* \"#utility.yul\":9491:9563   */\n      tag_555\n        /* \"#utility.yul\":9559:9561   */\n      0x40\n        /* \"#utility.yul\":9548:9557   */\n      dup4\n        /* \"#utility.yul\":9544:9562   */\n      add\n        /* \"#utility.yul\":9535:9541   */\n      dup6\n        /* \"#utility.yul\":9491:9563   */\n      tag_387\n      jump\t// in\n    tag_555:\n        /* \"#utility.yul\":9573:9645   */\n      tag_556\n        /* \"#utility.yul\":9641:9643   */\n      0x60\n        /* \"#utility.yul\":9630:9639   */\n      dup4\n        /* \"#utility.yul\":9626:9644   */\n      add\n        /* \"#utility.yul\":9617:9623   */\n      dup5\n        /* \"#utility.yul\":9573:9645   */\n      tag_387\n      jump\t// in\n    tag_556:\n        /* \"#utility.yul\":9099:9652   */\n      swap6\n      swap5\n      pop\n      pop\n      pop\n      pop\n      pop\n      jump\t// out\n        /* \"#utility.yul\":9658:9767   */\n    tag_403:\n        /* \"#utility.yul\":9739:9760   */\n      tag_558\n        /* \"#utility.yul\":9754:9759   */\n      dup2\n        /* \"#utility.yul\":9739:9760   */\n      tag_380\n      jump\t// in\n    tag_558:\n        /* \"#utility.yul\":9734:9737   */\n      dup3\n        /* \"#utility.yul\":9727:9761   */\n      mstore\n        /* \"#utility.yul\":9658:9767   */\n      pop\n      pop\n      jump\t// out\n        /* \"#utility.yul\":9773:10750   */\n    tag_107:\n        /* \"#utility.yul\":10052:10056   */\n      0x00\n        /* \"#utility.yul\":10090:10093   */\n      0x0100\n        /* \"#utility.yul\":10079:10088   */\n      dup3\n        /* \"#utility.yul\":10075:10094   */\n      add\n        /* \"#utility.yul\":10067:10094   */\n      swap1\n      pop\n        /* \"#utility.yul\":10104:10175   */\n      tag_560\n        /* \"#utility.yul\":10172:10173   */\n      0x00\n        /* \"#utility.yul\":10161:10170   */\n      dup4\n        /* \"#utility.yul\":10157:10174   */\n      add\n        /* \"#utility.yul\":10148:10154   */\n      dup12\n        /* \"#utility.yul\":10104:10175   */\n      tag_387\n      jump\t// in\n    tag_560:\n        /* \"#utility.yul\":10185:10257   */\n      tag_561\n        /* \"#utility.yul\":10253:10255   */\n      0x20\n        /* \"#utility.yul\":10242:10251   */\n      dup4\n        /* \"#utility.yul\":10238:10256   */\n      add\n        /* \"#utility.yul\":10229:10235   */\n      dup11\n        /* \"#utility.yul\":10185:10257   */\n      tag_402\n      jump\t// in\n    tag_561:\n        /* \"#utility.yul\":10267:10335   */\n      tag_562\n        /* \"#utility.yul\":10331:10333   */\n      0x40\n        /* \"#utility.yul\":10320:10329   */\n      dup4\n        /* \"#utility.yul\":10316:10334   */\n      add\n        /* \"#utility.yul\":10307:10313   */\n      dup10\n        /* \"#utility.yul\":10267:10335   */\n      tag_391\n      jump\t// in\n    tag_562:\n        /* \"#utility.yul\":10345:10417   */\n      tag_563\n        /* \"#utility.yul\":10413:10415   */\n      0x60\n        /* \"#utility.yul\":10402:10411   */\n      dup4\n        /* \"#utility.yul\":10398:10416   */\n      add\n        /* \"#utility.yul\":10389:10395   */\n      dup9\n        /* \"#utility.yul\":10345:10417   */\n      tag_387\n      jump\t// in\n    tag_563:\n        /* \"#utility.yul\":10427:10500   */\n      tag_564\n        /* \"#utility.yul\":10495:10498   */\n      0x80\n        /* \"#utility.yul\":10484:10493   */\n      dup4\n        /* \"#utility.yul\":10480:10499   */\n      add\n        /* \"#utility.yul\":10471:10477   */\n      dup8\n        /* \"#utility.yul\":10427:10500   */\n      tag_387\n      jump\t// in\n    tag_564:\n        /* \"#utility.yul\":10510:10583   */\n      tag_565\n        /* \"#utility.yul\":10578:10581   */\n      0xa0\n        /* \"#utility.yul\":10567:10576   */\n      dup4\n        /* \"#utility.yul\":10563:10582   */\n      add\n        /* \"#utility.yul\":10554:10560   */\n      dup7\n        /* \"#utility.yul\":10510:10583   */\n      tag_387\n      jump\t// in\n    tag_565:\n        /* \"#utility.yul\":10593:10666   */\n      tag_566\n        /* \"#utility.yul\":10661:10664   */\n      0xc0\n        /* \"#utility.yul\":10650:10659   */\n      dup4\n        /* \"#utility.yul\":10646:10665   */\n      add\n        /* \"#utility.yul\":10637:10643   */\n      dup6\n        /* \"#utility.yul\":10593:10666   */\n      tag_387\n      jump\t// in\n    tag_566:\n        /* \"#utility.yul\":10676:10743   */\n      tag_567\n        /* \"#utility.yul\":10738:10741   */\n      0xe0\n        /* \"#utility.yul\":10727:10736   */\n      dup4\n        /* \"#utility.yul\":10723:10742   */\n      add\n        /* \"#utility.yul\":10714:10720   */\n      dup5\n        /* \"#utility.yul\":10676:10743   */\n      tag_403\n      jump\t// in\n    tag_567:\n        /* \"#utility.yul\":9773:10750   */\n      swap10\n      swap9\n      pop\n      pop\n      pop\n      pop\n      pop\n      pop\n      pop\n      pop\n      pop\n      jump\t// out\n        /* \"#utility.yul\":10756:11375   */\n    tag_110:\n        /* \"#utility.yul\":10833:10839   */\n      0x00\n        /* \"#utility.yul\":10841:10847   */\n      0x00\n        /* \"#utility.yul\":10849:10855   */\n      0x00\n        /* \"#utility.yul\":10898:10900   */\n      0x60\n        /* \"#utility.yul\":10886:10895   */\n      dup5\n        /* \"#utility.yul\":10877:10884   */\n      dup7\n        /* \"#utility.yul\":10873:10896   */\n      sub\n        /* \"#utility.yul\":10869:10901   */\n      slt\n        /* \"#utility.yul\":10866:10985   */\n      iszero\n      tag_569\n      jumpi\n        /* \"#utility.yul\":10904:10983   */\n      tag_570\n      tag_375\n      jump\t// in\n    tag_570:\n        /* \"#utility.yul\":10866:10985   */\n    tag_569:\n        /* \"#utility.yul\":11024:11025   */\n      0x00\n        /* \"#utility.yul\":11049:11102   */\n      tag_571\n        /* \"#utility.yul\":11094:11101   */\n      dup7\n        /* \"#utility.yul\":11085:11091   */\n      dup3\n        /* \"#utility.yul\":11074:11083   */\n      dup8\n        /* \"#utility.yul\":11070:11092   */\n      add\n        /* \"#utility.yul\":11049:11102   */\n      tag_379\n      jump\t// in\n    tag_571:\n        /* \"#utility.yul\":11039:11102   */\n      swap4\n      pop\n        /* \"#utility.yul\":10995:11112   */\n      pop\n        /* \"#utility.yul\":11151:11153   */\n      0x20\n        /* \"#utility.yul\":11177:11230   */\n      tag_572\n        /* \"#utility.yul\":11222:11229   */\n      dup7\n        /* \"#utility.yul\":11213:11219   */\n      dup3\n        /* \"#utility.yul\":11202:11211   */\n      dup8\n        /* \"#utility.yul\":11198:11220   */\n      add\n        /* \"#utility.yul\":11177:11230   */\n      tag_379\n      jump\t// in\n    tag_572:\n        /* \"#utility.yul\":11167:11230   */\n      swap3\n      pop\n        /* \"#utility.yul\":11122:11240   */\n      pop\n        /* \"#utility.yul\":11279:11281   */\n      0x40\n        /* \"#utility.yul\":11305:11358   */\n      tag_573\n        /* \"#utility.yul\":11350:11357   */\n      dup7\n        /* \"#utility.yul\":11341:11347   */\n      dup3\n        /* \"#utility.yul\":11330:11339   */\n      dup8\n        /* \"#utility.yul\":11326:11348   */\n      add\n        /* \"#utility.yul\":11305:11358   */\n      tag_379\n      jump\t// in\n    tag_573:\n        /* \"#utility.yul\":11295:11358   */\n      swap2\n      pop\n        /* \"#utility.yul\":11250:11368   */\n      pop\n        /* \"#utility.yul\":10756:11375   */\n      swap3\n      pop\n      swap3\n      pop\n      swap3\n      jump\t// out\n        /* \"#utility.yul\":11381:11807   */\n    tag_116:\n        /* \"#utility.yul\":11522:11526   */\n      0x00\n        /* \"#utility.yul\":11560:11562   */\n      0x60\n        /* \"#utility.yul\":11549:11558   */\n      dup3\n        /* \"#utility.yul\":11545:11563   */\n      add\n        /* \"#utility.yul\":11537:11563   */\n      swap1\n      pop\n        /* \"#utility.yul\":11573:11644   */\n      tag_575\n        /* \"#utility.yul\":11641:11642   */\n      0x00\n        /* \"#utility.yul\":11630:11639   */\n      dup4\n        /* \"#utility.yul\":11626:11643   */\n      add\n        /* \"#utility.yul\":11617:11623   */\n      dup7\n        /* \"#utility.yul\":11573:11644   */\n      tag_402\n      jump\t// in\n    tag_575:\n        /* \"#utility.yul\":11654:11722   */\n      tag_576\n        /* \"#utility.yul\":11718:11720   */\n      0x20\n        /* \"#utility.yul\":11707:11716   */\n      dup4\n        /* \"#utility.yul\":11703:11721   */\n      add\n        /* \"#utility.yul\":11694:11700   */\n      dup6\n        /* \"#utility.yul\":11654:11722   */\n      tag_391\n      jump\t// in\n    tag_576:\n        /* \"#utility.yul\":11732:11800   */\n      tag_577\n        /* \"#utility.yul\":11796:11798   */\n      0x40\n        /* \"#utility.yul\":11785:11794   */\n      dup4\n        /* \"#utility.yul\":11781:11799   */\n      add\n        /* \"#utility.yul\":11772:11778   */\n      dup5\n        /* \"#utility.yul\":11732:11800   */\n      tag_391\n      jump\t// in\n    tag_577:\n        /* \"#utility.yul\":11381:11807   */\n      swap5\n      swap4\n      pop\n      pop\n      pop\n      pop\n      jump\t// out\n        /* \"#utility.yul\":11830:12398   */\n    tag_404:\n        /* \"#utility.yul\":11903:11911   */\n      0x00\n        /* \"#utility.yul\":11913:11919   */\n      0x00\n        /* \"#utility.yul\":11963:11966   */\n      dup4\n        /* \"#utility.yul\":11956:11960   */\n      0x1f\n        /* \"#utility.yul\":11948:11954   */\n      dup5\n        /* \"#utility.yul\":11944:11961   */\n      add\n        /* \"#utility.yul\":11940:11967   */\n      slt\n        /* \"#utility.yul\":11930:12052   */\n      tag_579\n      jumpi\n        /* \"#utility.yul\":11971:12050   */\n      tag_580\n      tag_392\n      jump\t// in\n    tag_580:\n        /* \"#utility.yul\":11930:12052   */\n    tag_579:\n        /* \"#utility.yul\":12084:12090   */\n      dup3\n        /* \"#utility.yul\":12071:12091   */\n      calldataload\n        /* \"#utility.yul\":12061:12091   */\n      swap1\n      pop\n        /* \"#utility.yul\":12114:12132   */\n      0xffffffffffffffff\n        /* \"#utility.yul\":12106:12112   */\n      dup2\n        /* \"#utility.yul\":12103:12133   */\n      gt\n        /* \"#utility.yul\":12100:12217   */\n      iszero\n      tag_581\n      jumpi\n        /* \"#utility.yul\":12136:12215   */\n      tag_582\n      tag_393\n      jump\t// in\n    tag_582:\n        /* \"#utility.yul\":12100:12217   */\n    tag_581:\n        /* \"#utility.yul\":12250:12254   */\n      0x20\n        /* \"#utility.yul\":12242:12248   */\n      dup4\n        /* \"#utility.yul\":12238:12255   */\n      add\n        /* \"#utility.yul\":12226:12255   */\n      swap2\n      pop\n        /* \"#utility.yul\":12304:12307   */\n      dup4\n        /* \"#utility.yul\":12296:12300   */\n      0x20\n        /* \"#utility.yul\":12288:12294   */\n      dup3\n        /* \"#utility.yul\":12284:12301   */\n      mul\n        /* \"#utility.yul\":12274:12282   */\n      dup4\n        /* \"#utility.yul\":12270:12302   */\n      add\n        /* \"#utility.yul\":12267:12308   */\n      gt\n        /* \"#utility.yul\":12264:12392   */\n      iszero\n      tag_583\n      jumpi\n        /* \"#utility.yul\":12311:12390   */\n      tag_584\n      tag_394\n      jump\t// in\n    tag_584:\n        /* \"#utility.yul\":12264:12392   */\n    tag_583:\n        /* \"#utility.yul\":11830:12398   */\n      swap3\n      pop\n      swap3\n      swap1\n      pop\n      jump\t// out\n        /* \"#utility.yul\":12404:12963   */\n    tag_123:\n        /* \"#utility.yul\":12490:12496   */\n      0x00\n        /* \"#utility.yul\":12498:12504   */\n      0x00\n        /* \"#utility.yul\":12547:12549   */\n      0x20\n        /* \"#utility.yul\":12535:12544   */\n      dup4\n        /* \"#utility.yul\":12526:12533   */\n      dup6\n        /* \"#utility.yul\":12522:12545   */\n      sub\n        /* \"#utility.yul\":12518:12550   */\n      slt\n        /* \"#utility.yul\":12515:12634   */\n      iszero\n      tag_586\n      jumpi\n        /* \"#utility.yul\":12553:12632   */\n      tag_587\n      tag_375\n      jump\t// in\n    tag_587:\n        /* \"#utility.yul\":12515:12634   */\n    tag_586:\n        /* \"#utility.yul\":12701:12702   */\n      0x00\n        /* \"#utility.yul\":12690:12699   */\n      dup4\n        /* \"#utility.yul\":12686:12703   */\n      add\n        /* \"#utility.yul\":12673:12704   */\n      calldataload\n        /* \"#utility.yul\":12731:12749   */\n      0xffffffffffffffff\n        /* \"#utility.yul\":12723:12729   */\n      dup2\n        /* \"#utility.yul\":12720:12750   */\n      gt\n        /* \"#utility.yul\":12717:12834   */\n      iszero\n      tag_588\n      jumpi\n        /* \"#utility.yul\":12753:12832   */\n      tag_589\n      tag_376\n      jump\t// in\n    tag_589:\n        /* \"#utility.yul\":12717:12834   */\n    tag_588:\n        /* \"#utility.yul\":12866:12946   */\n      tag_590\n        /* \"#utility.yul\":12938:12945   */\n      dup6\n        /* \"#utility.yul\":12929:12935   */\n      dup3\n        /* \"#utility.yul\":12918:12927   */\n      dup7\n        /* \"#utility.yul\":12914:12936   */\n      add\n        /* \"#utility.yul\":12866:12946   */\n      tag_404\n      jump\t// in\n    tag_590:\n        /* \"#utility.yul\":12848:12946   */\n      swap3\n      pop\n      swap3\n      pop\n        /* \"#utility.yul\":12644:12956   */\n      pop\n        /* \"#utility.yul\":12404:12963   */\n      swap3\n      pop\n      swap3\n      swap1\n      pop\n      jump\t// out\n        /* \"#utility.yul\":12969:13138   */\n    tag_405:\n        /* \"#utility.yul\":13053:13064   */\n      0x00\n        /* \"#utility.yul\":13087:13093   */\n      dup3\n        /* \"#utility.yul\":13082:13085   */\n      dup3\n        /* \"#utility.yul\":13075:13094   */\n      mstore\n        /* \"#utility.yul\":13127:13131   */\n      0x20\n        /* \"#utility.yul\":13122:13125   */\n      dup3\n        /* \"#utility.yul\":13118:13132   */\n      add\n        /* \"#utility.yul\":13103:13132   */\n      swap1\n      pop\n        /* \"#utility.yul\":12969:13138   */\n      swap3\n      swap2\n      pop\n      pop\n      jump\t// out\n        /* \"#utility.yul\":13144:13312   */\n    tag_406:\n        /* \"#utility.yul\":13284:13304   */\n      0x566f74696e6720706572696f64206f7665720000000000000000000000000000\n        /* \"#utility.yul\":13280:13281   */\n      0x00\n        /* \"#utility.yul\":13272:13278   */\n      dup3\n        /* \"#utility.yul\":13268:13282   */\n      add\n        /* \"#utility.yul\":13261:13305   */\n      mstore\n        /* \"#utility.yul\":13144:13312   */\n      pop\n      jump\t// out\n        /* \"#utility.yul\":13318:13684   */\n    tag_407:\n        /* \"#utility.yul\":13460:13463   */\n      0x00\n        /* \"#utility.yul\":13481:13548   */\n      tag_594\n        /* \"#utility.yul\":13545:13547   */\n      0x12\n        /* \"#utility.yul\":13540:13543   */\n      dup4\n        /* \"#utility.yul\":13481:13548   */\n      tag_405\n      jump\t// in\n    tag_594:\n        /* \"#utility.yul\":13474:13548   */\n      swap2\n      pop\n        /* \"#utility.yul\":13557:13650   */\n      tag_595\n        /* \"#utility.yul\":13646:13649   */\n      dup3\n        /* \"#utility.yul\":13557:13650   */\n      tag_406\n      jump\t// in\n    tag_595:\n        /* \"#utility.yul\":13675:13677   */\n      0x20\n        /* \"#utility.yul\":13670:13673   */\n      dup3\n        /* \"#utility.yul\":13666:13678   */\n      add\n        /* \"#utility.yul\":13659:13678   */\n      swap1\n      pop\n        /* \"#utility.yul\":13318:13684   */\n      swap2\n      swap1\n      pop\n      jump\t// out\n        /* \"#utility.yul\":13690:14109   */\n    tag_134:\n        /* \"#utility.yul\":13856:13860   */\n      0x00\n        /* \"#utility.yul\":13894:13896   */\n      0x20\n        /* \"#utility.yul\":13883:13892   */\n      dup3\n        /* \"#utility.yul\":13879:13897   */\n      add\n        /* \"#utility.yul\":13871:13897   */\n      swap1\n      pop\n        /* \"#utility.yul\":13943:13952   */\n      dup2\n        /* \"#utility.yul\":13937:13941   */\n      dup2\n        /* \"#utility.yul\":13933:13953   */\n      sub\n        /* \"#utility.yul\":13929:13930   */\n      0x00\n        /* \"#utility.yul\":13918:13927   */\n      dup4\n        /* \"#utility.yul\":13914:13931   */\n      add\n        /* \"#utility.yul\":13907:13954   */\n      mstore\n        /* \"#utility.yul\":13971:14102   */\n      tag_597\n        /* \"#utility.yul\":14097:14101   */\n      dup2\n        /* \"#utility.yul\":13971:14102   */\n      tag_407\n      jump\t// in\n    tag_597:\n        /* \"#utility.yul\":13963:14102   */\n      swap1\n      pop\n        /* \"#utility.yul\":13690:14109   */\n      swap2\n      swap1\n      pop\n      jump\t// out\n        /* \"#utility.yul\":14115:14295   */\n    tag_408:\n        /* \"#utility.yul\":14163:14240   */\n      0x4e487b7100000000000000000000000000000000000000000000000000000000\n        /* \"#utility.yul\":14160:14161   */\n      0x00\n        /* \"#utility.yul\":14153:14241   */\n      mstore\n        /* \"#utility.yul\":14260:14264   */\n      0x11\n        /* \"#utility.yul\":14257:14258   */\n      0x04\n        /* \"#utility.yul\":14250:14265   */\n      mstore\n        /* \"#utility.yul\":14284:14288   */\n      0x24\n        /* \"#utility.yul\":14281:14282   */\n      0x00\n        /* \"#utility.yul\":14274:14289   */\n      revert\n        /* \"#utility.yul\":14301:14492   */\n    tag_137:\n        /* \"#utility.yul\":14341:14344   */\n      0x00\n        /* \"#utility.yul\":14360:14380   */\n      tag_600\n        /* \"#utility.yul\":14378:14379   */\n      dup3\n        /* \"#utility.yul\":14360:14380   */\n      tag_377\n      jump\t// in\n    tag_600:\n        /* \"#utility.yul\":14355:14380   */\n      swap2\n      pop\n        /* \"#utility.yul\":14394:14414   */\n      tag_601\n        /* \"#utility.yul\":14412:14413   */\n      dup4\n        /* \"#utility.yul\":14394:14414   */\n      tag_377\n      jump\t// in\n    tag_601:\n        /* \"#utility.yul\":14389:14414   */\n      swap3\n      pop\n        /* \"#utility.yul\":14437:14438   */\n      dup3\n        /* \"#utility.yul\":14434:14435   */\n      dup3\n        /* \"#utility.yul\":14430:14439   */\n      add\n        /* \"#utility.yul\":14423:14439   */\n      swap1\n      pop\n        /* \"#utility.yul\":14458:14461   */\n      dup1\n        /* \"#utility.yul\":14455:14456   */\n      dup3\n        /* \"#utility.yul\":14452:14462   */\n      gt\n        /* \"#utility.yul\":14449:14485   */\n      iszero\n      tag_602\n      jumpi\n        /* \"#utility.yul\":14465:14483   */\n      tag_603\n      tag_408\n      jump\t// in\n    tag_603:\n        /* \"#utility.yul\":14449:14485   */\n    tag_602:\n        /* \"#utility.yul\":14301:14492   */\n      swap3\n      swap2\n      pop\n      pop\n      jump\t// out\n        /* \"#utility.yul\":14498:14667   */\n    tag_409:\n        /* \"#utility.yul\":14638:14659   */\n      0x496e76616c696420726562617465207261746500000000000000000000000000\n        /* \"#utility.yul\":14634:14635   */\n      0x00\n        /* \"#utility.yul\":14626:14632   */\n      dup3\n        /* \"#utility.yul\":14622:14636   */\n      add\n        /* \"#utility.yul\":14615:14660   */\n      mstore\n        /* \"#utility.yul\":14498:14667   */\n      pop\n      jump\t// out\n        /* \"#utility.yul\":14673:15039   */\n    tag_410:\n        /* \"#utility.yul\":14815:14818   */\n      0x00\n        /* \"#utility.yul\":14836:14903   */\n      tag_606\n        /* \"#utility.yul\":14900:14902   */\n      0x13\n        /* \"#utility.yul\":14895:14898   */\n      dup4\n        /* \"#utility.yul\":14836:14903   */\n      tag_405\n      jump\t// in\n    tag_606:\n        /* \"#utility.yul\":14829:14903   */\n      swap2\n      pop\n        /* \"#utility.yul\":14912:15005   */\n      tag_607\n        /* \"#utility.yul\":15001:15004   */\n      dup3\n        /* \"#utility.yul\":14912:15005   */\n      tag_409\n      jump\t// in\n    tag_607:\n        /* \"#utility.yul\":15030:15032   */\n      0x20\n        /* \"#utility.yul\":15025:15028   */\n      dup3\n        /* \"#utility.yul\":15021:15033   */\n      add\n        /* \"#utility.yul\":15014:15033   */\n      swap1\n      pop\n        /* \"#utility.yul\":14673:15039   */\n      swap2\n      swap1\n      pop\n      jump\t// out\n        /* \"#utility.yul\":15045:15464   */\n    tag_146:\n        /* \"#utility.yul\":15211:15215   */\n      0x00\n        /* \"#utility.yul\":15249:15251   */\n      0x20\n        /* \"#utility.yul\":15238:15247   */\n      dup3\n        /* \"#utility.yul\":15234:15252   */\n      add\n        /* \"#utility.yul\":15226:15252   */\n      swap1\n      pop\n        /* \"#utility.yul\":15298:15307   */\n      dup2\n        /* \"#utility.yul\":15292:15296   */\n      dup2\n        /* \"#utility.yul\":15288:15308   */\n      sub\n        /* \"#utility.yul\":15284:15285   */\n      0x00\n        /* \"#utility.yul\":15273:15282   */\n      dup4\n        /* \"#utility.yul\":15269:15286   */\n      add\n        /* \"#utility.yul\":15262:15309   */\n      mstore\n        /* \"#utility.yul\":15326:15457   */\n      tag_609\n        /* \"#utility.yul\":15452:15456   */\n      dup2\n        /* \"#utility.yul\":15326:15457   */\n      tag_410\n      jump\t// in\n    tag_609:\n        /* \"#utility.yul\":15318:15457   */\n      swap1\n      pop\n        /* \"#utility.yul\":15045:15464   */\n      swap2\n      swap1\n      pop\n      jump\t// out\n        /* \"#utility.yul\":15470:15643   */\n    tag_411:\n        /* \"#utility.yul\":15610:15635   */\n      0x50726f706f73616c20616c726561647920657869737473000000000000000000\n        /* \"#utility.yul\":15606:15607   */\n      0x00\n        /* \"#utility.yul\":15598:15604   */\n      dup3\n        /* \"#utility.yul\":15594:15608   */\n      add\n        /* \"#utility.yul\":15587:15636   */\n      mstore\n        /* \"#utility.yul\":15470:15643   */\n      pop\n      jump\t// out\n        /* \"#utility.yul\":15649:16015   */\n    tag_412:\n        /* \"#utility.yul\":15791:15794   */\n      0x00\n        /* \"#utility.yul\":15812:15879   */\n      tag_612\n        /* \"#utility.yul\":15876:15878   */\n      0x17\n        /* \"#utility.yul\":15871:15874   */\n      dup4\n        /* \"#utility.yul\":15812:15879   */\n      tag_405\n      jump\t// in\n    tag_612:\n        /* \"#utility.yul\":15805:15879   */\n      swap2\n      pop\n        /* \"#utility.yul\":15888:15981   */\n      tag_613\n        /* \"#utility.yul\":15977:15980   */\n      dup3\n        /* \"#utility.yul\":15888:15981   */\n      tag_411\n      jump\t// in\n    tag_613:\n        /* \"#utility.yul\":16006:16008   */\n      0x20\n        /* \"#utility.yul\":16001:16004   */\n      dup3\n        /* \"#utility.yul\":15997:16009   */\n      add\n        /* \"#utility.yul\":15990:16009   */\n      swap1\n      pop\n        /* \"#utility.yul\":15649:16015   */\n      swap2\n      swap1\n      pop\n      jump\t// out\n        /* \"#utility.yul\":16021:16440   */\n    tag_150:\n        /* \"#utility.yul\":16187:16191   */\n      0x00\n        /* \"#utility.yul\":16225:16227   */\n      0x20\n        /* \"#utility.yul\":16214:16223   */\n      dup3\n        /* \"#utility.yul\":16210:16228   */\n      add\n        /* \"#utility.yul\":16202:16228   */\n      swap1\n      pop\n        /* \"#utility.yul\":16274:16283   */\n      dup2\n        /* \"#utility.yul\":16268:16272   */\n      dup2\n        /* \"#utility.yul\":16264:16284   */\n      sub\n        /* \"#utility.yul\":16260:16261   */\n      0x00\n        /* \"#utility.yul\":16249:16258   */\n      dup4\n        /* \"#utility.yul\":16245:16262   */\n      add\n        /* \"#utility.yul\":16238:16285   */\n      mstore\n        /* \"#utility.yul\":16302:16433   */\n      tag_615\n        /* \"#utility.yul\":16428:16432   */\n      dup2\n        /* \"#utility.yul\":16302:16433   */\n      tag_412\n      jump\t// in\n    tag_615:\n        /* \"#utility.yul\":16294:16433   */\n      swap1\n      pop\n        /* \"#utility.yul\":16021:16440   */\n      swap2\n      swap1\n      pop\n      jump\t// out\n        /* \"#utility.yul\":16446:16999   */\n    tag_158:\n        /* \"#utility.yul\":16623:16627   */\n      0x00\n        /* \"#utility.yul\":16661:16664   */\n      0x80\n        /* \"#utility.yul\":16650:16659   */\n      dup3\n        /* \"#utility.yul\":16646:16665   */\n      add\n        /* \"#utility.yul\":16638:16665   */\n      swap1\n      pop\n        /* \"#utility.yul\":16675:16746   */\n      tag_617\n        /* \"#utility.yul\":16743:16744   */\n      0x00\n        /* \"#utility.yul\":16732:16741   */\n      dup4\n        /* \"#utility.yul\":16728:16745   */\n      add\n        /* \"#utility.yul\":16719:16725   */\n      dup8\n        /* \"#utility.yul\":16675:16746   */\n      tag_387\n      jump\t// in\n    tag_617:\n        /* \"#utility.yul\":16756:16828   */\n      tag_618\n        /* \"#utility.yul\":16824:16826   */\n      0x20\n        /* \"#utility.yul\":16813:16822   */\n      dup4\n        /* \"#utility.yul\":16809:16827   */\n      add\n        /* \"#utility.yul\":16800:16806   */\n      dup7\n        /* \"#utility.yul\":16756:16828   */\n      tag_402\n      jump\t// in\n    tag_618:\n        /* \"#utility.yul\":16838:16910   */\n      tag_619\n        /* \"#utility.yul\":16906:16908   */\n      0x40\n        /* \"#utility.yul\":16895:16904   */\n      dup4\n        /* \"#utility.yul\":16891:16909   */\n      add\n        /* \"#utility.yul\":16882:16888   */\n      dup6\n        /* \"#utility.yul\":16838:16910   */\n      tag_387\n      jump\t// in\n    tag_619:\n        /* \"#utility.yul\":16920:16992   */\n      tag_620\n        /* \"#utility.yul\":16988:16990   */\n      0x60\n        /* \"#utility.yul\":16977:16986   */\n      dup4\n        /* \"#utility.yul\":16973:16991   */\n      add\n        /* \"#utility.yul\":16964:16970   */\n      dup5\n        /* \"#utility.yul\":16920:16992   */\n      tag_387\n      jump\t// in\n    tag_620:\n        /* \"#utility.yul\":16446:16999   */\n      swap6\n      swap5\n      pop\n      pop\n      pop\n      pop\n      pop\n      jump\t// out\n        /* \"#utility.yul\":17005:17171   */\n    tag_413:\n        /* \"#utility.yul\":17145:17163   */\n      0x54696d65206c6f636b2061637469766500000000000000000000000000000000\n        /* \"#utility.yul\":17141:17142   */\n      0x00\n        /* \"#utility.yul\":17133:17139   */\n      dup3\n        /* \"#utility.yul\":17129:17143   */\n      add\n        /* \"#utility.yul\":17122:17164   */\n      mstore\n        /* \"#utility.yul\":17005:17171   */\n      pop\n      jump\t// out\n        /* \"#utility.yul\":17177:17543   */\n    tag_414:\n        /* \"#utility.yul\":17319:17322   */\n      0x00\n        /* \"#utility.yul\":17340:17407   */\n      tag_623\n        /* \"#utility.yul\":17404:17406   */\n      0x10\n        /* \"#utility.yul\":17399:17402   */\n      dup4\n        /* \"#utility.yul\":17340:17407   */\n      tag_405\n      jump\t// in\n    tag_623:\n        /* \"#utility.yul\":17333:17407   */\n      swap2\n      pop\n        /* \"#utility.yul\":17416:17509   */\n      tag_624\n        /* \"#utility.yul\":17505:17508   */\n      dup3\n        /* \"#utility.yul\":17416:17509   */\n      tag_413\n      jump\t// in\n    tag_624:\n        /* \"#utility.yul\":17534:17536   */\n      0x20\n        /* \"#utility.yul\":17529:17532   */\n      dup3\n        /* \"#utility.yul\":17525:17537   */\n      add\n        /* \"#utility.yul\":17518:17537   */\n      swap1\n      pop\n        /* \"#utility.yul\":17177:17543   */\n      swap2\n      swap1\n      pop\n      jump\t// out\n        /* \"#utility.yul\":17549:17968   */\n    tag_162:\n        /* \"#utility.yul\":17715:17719   */\n      0x00\n        /* \"#utility.yul\":17753:17755   */\n      0x20\n        /* \"#utility.yul\":17742:17751   */\n      dup3\n        /* \"#utility.yul\":17738:17756   */\n      add\n        /* \"#utility.yul\":17730:17756   */\n      swap1\n      pop\n        /* \"#utility.yul\":17802:17811   */\n      dup2\n        /* \"#utility.yul\":17796:17800   */\n      dup2\n        /* \"#utility.yul\":17792:17812   */\n      sub\n        /* \"#utility.yul\":17788:17789   */\n      0x00\n        /* \"#utility.yul\":17777:17786   */\n      dup4\n        /* \"#utility.yul\":17773:17790   */\n      add\n        /* \"#utility.yul\":17766:17813   */\n      mstore\n        /* \"#utility.yul\":17830:17961   */\n      tag_626\n        /* \"#utility.yul\":17956:17960   */\n      dup2\n        /* \"#utility.yul\":17830:17961   */\n      tag_414\n      jump\t// in\n    tag_626:\n        /* \"#utility.yul\":17822:17961   */\n      swap1\n      pop\n        /* \"#utility.yul\":17549:17968   */\n      swap2\n      swap1\n      pop\n      jump\t// out\n        /* \"#utility.yul\":17974:18140   */\n    tag_415:\n        /* \"#utility.yul\":18114:18132   */\n      0x416c726561647920657865637574656400000000000000000000000000000000\n        /* \"#utility.yul\":18110:18111   */\n      0x00\n        /* \"#utility.yul\":18102:18108   */\n      dup3\n        /* \"#utility.yul\":18098:18112   */\n      add\n        /* \"#utility.yul\":18091:18133   */\n      mstore\n        /* \"#utility.yul\":17974:18140   */\n      pop\n      jump\t// out\n        /* \"#utility.yul\":18146:18512   */\n    tag_416:\n        /* \"#utility.yul\":18288:18291   */\n      0x00\n        /* \"#utility.yul\":18309:18376   */\n      tag_629\n        /* \"#utility.yul\":18373:18375   */\n      0x10\n        /* \"#utility.yul\":18368:18371   */\n      dup4\n        /* \"#utility.yul\":18309:18376   */\n      tag_405\n      jump\t// in\n    tag_629:\n        /* \"#utility.yul\":18302:18376   */\n      swap2\n      pop\n        /* \"#utility.yul\":18385:18478   */\n      tag_630\n        /* \"#utility.yul\":18474:18477   */\n      dup3\n        /* \"#utility.yul\":18385:18478   */\n      tag_415\n      jump\t// in\n    tag_630:\n        /* \"#utility.yul\":18503:18505   */\n      0x20\n        /* \"#utility.yul\":18498:18501   */\n      dup3\n        /* \"#utility.yul\":18494:18506   */\n      add\n        /* \"#utility.yul\":18487:18506   */\n      swap1\n      pop\n        /* \"#utility.yul\":18146:18512   */\n      swap2\n      swap1\n      pop\n      jump\t// out\n        /* \"#utility.yul\":18518:18937   */\n    tag_165:\n        /* \"#utility.yul\":18684:18688   */\n      0x00\n        /* \"#utility.yul\":18722:18724   */\n      0x20\n        /* \"#utility.yul\":18711:18720   */\n      dup3\n        /* \"#utility.yul\":18707:18725   */\n      add\n        /* \"#utility.yul\":18699:18725   */\n      swap1\n      pop\n        /* \"#utility.yul\":18771:18780   */\n      dup2\n        /* \"#utility.yul\":18765:18769   */\n      dup2\n        /* \"#utility.yul\":18761:18781   */\n      sub\n        /* \"#utility.yul\":18757:18758   */\n      0x00\n        /* \"#utility.yul\":18746:18755   */\n      dup4\n        /* \"#utility.yul\":18742:18759   */\n      add\n        /* \"#utility.yul\":18735:18782   */\n      mstore\n        /* \"#utility.yul\":18799:18930   */\n      tag_632\n        /* \"#utility.yul\":18925:18929   */\n      dup2\n        /* \"#utility.yul\":18799:18930   */\n      tag_416\n      jump\t// in\n    tag_632:\n        /* \"#utility.yul\":18791:18930   */\n      swap1\n      pop\n        /* \"#utility.yul\":18518:18937   */\n      swap2\n      swap1\n      pop\n      jump\t// out\n        /* \"#utility.yul\":18943:19114   */\n    tag_417:\n        /* \"#utility.yul\":19083:19106   */\n      0x44414f2070726f706f73616c2072656a65637465640000000000000000000000\n        /* \"#utility.yul\":19079:19080   */\n      0x00\n        /* \"#utility.yul\":19071:19077   */\n      dup3\n        /* \"#utility.yul\":19067:19081   */\n      add\n        /* \"#utility.yul\":19060:19107   */\n      mstore\n        /* \"#utility.yul\":18943:19114   */\n      pop\n      jump\t// out\n        /* \"#utility.yul\":19120:19486   */\n    tag_418:\n        /* \"#utility.yul\":19262:19265   */\n      0x00\n        /* \"#utility.yul\":19283:19350   */\n      tag_635\n        /* \"#utility.yul\":19347:19349   */\n      0x15\n        /* \"#utility.yul\":19342:19345   */\n      dup4\n        /* \"#utility.yul\":19283:19350   */\n      tag_405\n      jump\t// in\n    tag_635:\n        /* \"#utility.yul\":19276:19350   */\n      swap2\n      pop\n        /* \"#utility.yul\":19359:19452   */\n      tag_636\n        /* \"#utility.yul\":19448:19451   */\n      dup3\n        /* \"#utility.yul\":19359:19452   */\n      tag_417\n      jump\t// in\n    tag_636:\n        /* \"#utility.yul\":19477:19479   */\n      0x20\n        /* \"#utility.yul\":19472:19475   */\n      dup3\n        /* \"#utility.yul\":19468:19480   */\n      add\n        /* \"#utility.yul\":19461:19480   */\n      swap1\n      pop\n        /* \"#utility.yul\":19120:19486   */\n      swap2\n      swap1\n      pop\n      jump\t// out\n        /* \"#utility.yul\":19492:19911   */\n    tag_168:\n        /* \"#utility.yul\":19658:19662   */\n      0x00\n        /* \"#utility.yul\":19696:19698   */\n      0x20\n        /* \"#utility.yul\":19685:19694   */\n      dup3\n        /* \"#utility.yul\":19681:19699   */\n      add\n        /* \"#utility.yul\":19673:19699   */\n      swap1\n      pop\n        /* \"#utility.yul\":19745:19754   */\n      dup2\n        /* \"#utility.yul\":19739:19743   */\n      dup2\n        /* \"#utility.yul\":19735:19755   */\n      sub\n        /* \"#utility.yul\":19731:19732   */\n      0x00\n        /* \"#utility.yul\":19720:19729   */\n      dup4\n        /* \"#utility.yul\":19716:19733   */\n      add\n        /* \"#utility.yul\":19709:19756   */\n      mstore\n        /* \"#utility.yul\":19773:19904   */\n      tag_638\n        /* \"#utility.yul\":19899:19903   */\n      dup2\n        /* \"#utility.yul\":19773:19904   */\n      tag_418\n      jump\t// in\n    tag_638:\n        /* \"#utility.yul\":19765:19904   */\n      swap1\n      pop\n        /* \"#utility.yul\":19492:19911   */\n      swap2\n      swap1\n      pop\n      jump\t// out\n        /* \"#utility.yul\":19917:20241   */\n    tag_170:\n        /* \"#utility.yul\":20034:20038   */\n      0x00\n        /* \"#utility.yul\":20072:20074   */\n      0x40\n        /* \"#utility.yul\":20061:20070   */\n      dup3\n        /* \"#utility.yul\":20057:20075   */\n      add\n        /* \"#utility.yul\":20049:20075   */\n      swap1\n      pop\n        /* \"#utility.yul\":20085:20156   */\n      tag_640\n        /* \"#utility.yul\":20153:20154   */\n      0x00\n        /* \"#utility.yul\":20142:20151   */\n      dup4\n        /* \"#utility.yul\":20138:20155   */\n      add\n        /* \"#utility.yul\":20129:20135   */\n      dup6\n        /* \"#utility.yul\":20085:20156   */\n      tag_387\n      jump\t// in\n    tag_640:\n        /* \"#utility.yul\":20166:20234   */\n      tag_641\n        /* \"#utility.yul\":20230:20232   */\n      0x20\n        /* \"#utility.yul\":20219:20228   */\n      dup4\n        /* \"#utility.yul\":20215:20233   */\n      add\n        /* \"#utility.yul\":20206:20212   */\n      dup5\n        /* \"#utility.yul\":20166:20234   */\n      tag_391\n      jump\t// in\n    tag_641:\n        /* \"#utility.yul\":19917:20241   */\n      swap4\n      swap3\n      pop\n      pop\n      pop\n      jump\t// out\n        /* \"#utility.yul\":20247:20414   */\n    tag_419:\n        /* \"#utility.yul\":20387:20406   */\n      0x4d69736d61746368656420696e70757473000000000000000000000000000000\n        /* \"#utility.yul\":20383:20384   */\n      0x00\n        /* \"#utility.yul\":20375:20381   */\n      dup3\n        /* \"#utility.yul\":20371:20385   */\n      add\n        /* \"#utility.yul\":20364:20407   */\n      mstore\n        /* \"#utility.yul\":20247:20414   */\n      pop\n      jump\t// out\n        /* \"#utility.yul\":20420:20786   */\n    tag_420:\n        /* \"#utility.yul\":20562:20565   */\n      0x00\n        /* \"#utility.yul\":20583:20650   */\n      tag_644\n        /* \"#utility.yul\":20647:20649   */\n      0x11\n        /* \"#utility.yul\":20642:20645   */\n      dup4\n        /* \"#utility.yul\":20583:20650   */\n      tag_405\n      jump\t// in\n    tag_644:\n        /* \"#utility.yul\":20576:20650   */\n      swap2\n      pop\n        /* \"#utility.yul\":20659:20752   */\n      tag_645\n        /* \"#utility.yul\":20748:20751   */\n      dup3\n        /* \"#utility.yul\":20659:20752   */\n      tag_419\n      jump\t// in\n    tag_645:\n        /* \"#utility.yul\":20777:20779   */\n      0x20\n        /* \"#utility.yul\":20772:20775   */\n      dup3\n        /* \"#utility.yul\":20768:20780   */\n      add\n        /* \"#utility.yul\":20761:20780   */\n      swap1\n      pop\n        /* \"#utility.yul\":20420:20786   */\n      swap2\n      swap1\n      pop\n      jump\t// out\n        /* \"#utility.yul\":20792:21211   */\n    tag_174:\n        /* \"#utility.yul\":20958:20962   */\n      0x00\n        /* \"#utility.yul\":20996:20998   */\n      0x20\n        /* \"#utility.yul\":20985:20994   */\n      dup3\n        /* \"#utility.yul\":20981:20999   */\n      add\n        /* \"#utility.yul\":20973:20999   */\n      swap1\n      pop\n        /* \"#utility.yul\":21045:21054   */\n      dup2\n        /* \"#utility.yul\":21039:21043   */\n      dup2\n        /* \"#utility.yul\":21035:21055   */\n      sub\n        /* \"#utility.yul\":21031:21032   */\n      0x00\n        /* \"#utility.yul\":21020:21029   */\n      dup4\n        /* \"#utility.yul\":21016:21033   */\n      add\n        /* \"#utility.yul\":21009:21056   */\n      mstore\n        /* \"#utility.yul\":21073:21204   */\n      tag_647\n        /* \"#utility.yul\":21199:21203   */\n      dup2\n        /* \"#utility.yul\":21073:21204   */\n      tag_420\n      jump\t// in\n    tag_647:\n        /* \"#utility.yul\":21065:21204   */\n      swap1\n      pop\n        /* \"#utility.yul\":20792:21211   */\n      swap2\n      swap1\n      pop\n      jump\t// out\n        /* \"#utility.yul\":21217:21397   */\n    tag_180:\n        /* \"#utility.yul\":21265:21342   */\n      0x4e487b7100000000000000000000000000000000000000000000000000000000\n        /* \"#utility.yul\":21262:21263   */\n      0x00\n        /* \"#utility.yul\":21255:21343   */\n      mstore\n        /* \"#utility.yul\":21362:21366   */\n      0x32\n        /* \"#utility.yul\":21359:21360   */\n      0x04\n        /* \"#utility.yul\":21352:21367   */\n      mstore\n        /* \"#utility.yul\":21386:21390   */\n      0x24\n        /* \"#utility.yul\":21383:21384   */\n      0x00\n        /* \"#utility.yul\":21376:21391   */\n      revert\n        /* \"#utility.yul\":21403:21584   */\n    tag_421:\n        /* \"#utility.yul\":21543:21576   */\n      0x566f74696e6720706572696f64206f76657220666f722070726f706f73616c00\n        /* \"#utility.yul\":21539:21540   */\n      0x00\n        /* \"#utility.yul\":21531:21537   */\n      dup3\n        /* \"#utility.yul\":21527:21541   */\n      add\n        /* \"#utility.yul\":21520:21577   */\n      mstore\n        /* \"#utility.yul\":21403:21584   */\n      pop\n      jump\t// out\n        /* \"#utility.yul\":21590:21956   */\n    tag_422:\n        /* \"#utility.yul\":21732:21735   */\n      0x00\n        /* \"#utility.yul\":21753:21820   */\n      tag_651\n        /* \"#utility.yul\":21817:21819   */\n      0x1f\n        /* \"#utility.yul\":21812:21815   */\n      dup4\n        /* \"#utility.yul\":21753:21820   */\n      tag_405\n      jump\t// in\n    tag_651:\n        /* \"#utility.yul\":21746:21820   */\n      swap2\n      pop\n        /* \"#utility.yul\":21829:21922   */\n      tag_652\n        /* \"#utility.yul\":21918:21921   */\n      dup3\n        /* \"#utility.yul\":21829:21922   */\n      tag_421\n      jump\t// in\n    tag_652:\n        /* \"#utility.yul\":21947:21949   */\n      0x20\n        /* \"#utility.yul\":21942:21945   */\n      dup3\n        /* \"#utility.yul\":21938:21950   */\n      add\n        /* \"#utility.yul\":21931:21950   */\n      swap1\n      pop\n        /* \"#utility.yul\":21590:21956   */\n      swap2\n      swap1\n      pop\n      jump\t// out\n        /* \"#utility.yul\":21962:22381   */\n    tag_183:\n        /* \"#utility.yul\":22128:22132   */\n      0x00\n        /* \"#utility.yul\":22166:22168   */\n      0x20\n        /* \"#utility.yul\":22155:22164   */\n      dup3\n        /* \"#utility.yul\":22151:22169   */\n      add\n        /* \"#utility.yul\":22143:22169   */\n      swap1\n      pop\n        /* \"#utility.yul\":22215:22224   */\n      dup2\n        /* \"#utility.yul\":22209:22213   */\n      dup2\n        /* \"#utility.yul\":22205:22225   */\n      sub\n        /* \"#utility.yul\":22201:22202   */\n      0x00\n        /* \"#utility.yul\":22190:22199   */\n      dup4\n        /* \"#utility.yul\":22186:22203   */\n      add\n        /* \"#utility.yul\":22179:22226   */\n      mstore\n        /* \"#utility.yul\":22243:22374   */\n      tag_654\n        /* \"#utility.yul\":22369:22373   */\n      dup2\n        /* \"#utility.yul\":22243:22374   */\n      tag_422\n      jump\t// in\n    tag_654:\n        /* \"#utility.yul\":22235:22374   */\n      swap1\n      pop\n        /* \"#utility.yul\":21962:22381   */\n      swap2\n      swap1\n      pop\n      jump\t// out\n        /* \"#utility.yul\":22387:22710   */\n    tag_187:\n        /* \"#utility.yul\":22443:22449   */\n      0x00\n        /* \"#utility.yul\":22492:22494   */\n      0x20\n        /* \"#utility.yul\":22480:22489   */\n      dup3\n        /* \"#utility.yul\":22471:22478   */\n      dup5\n        /* \"#utility.yul\":22467:22490   */\n      sub\n        /* \"#utility.yul\":22463:22495   */\n      slt\n        /* \"#utility.yul\":22460:22579   */\n      iszero\n      tag_656\n      jumpi\n        /* \"#utility.yul\":22498:22577   */\n      tag_657\n      tag_375\n      jump\t// in\n    tag_657:\n        /* \"#utility.yul\":22460:22579   */\n    tag_656:\n        /* \"#utility.yul\":22618:22619   */\n      0x00\n        /* \"#utility.yul\":22643:22693   */\n      tag_658\n        /* \"#utility.yul\":22685:22692   */\n      dup5\n        /* \"#utility.yul\":22676:22682   */\n      dup3\n        /* \"#utility.yul\":22665:22674   */\n      dup6\n        /* \"#utility.yul\":22661:22683   */\n      add\n        /* \"#utility.yul\":22643:22693   */\n      tag_382\n      jump\t// in\n    tag_658:\n        /* \"#utility.yul\":22633:22693   */\n      swap2\n      pop\n        /* \"#utility.yul\":22589:22703   */\n      pop\n        /* \"#utility.yul\":22387:22710   */\n      swap3\n      swap2\n      pop\n      pop\n      jump\t// out\n        /* \"#utility.yul\":22716:22892   */\n    tag_423:\n        /* \"#utility.yul\":22856:22884   */\n      0x496e73756666696369656e74207374616b656420746f6b656e73000000000000\n        /* \"#utility.yul\":22852:22853   */\n      0x00\n        /* \"#utility.yul\":22844:22850   */\n      dup3\n        /* \"#utility.yul\":22840:22854   */\n      add\n        /* \"#utility.yul\":22833:22885   */\n      mstore\n        /* \"#utility.yul\":22716:22892   */\n      pop\n      jump\t// out\n        /* \"#utility.yul\":22898:23264   */\n    tag_424:\n        /* \"#utility.yul\":23040:23043   */\n      0x00\n        /* \"#utility.yul\":23061:23128   */\n      tag_661\n        /* \"#utility.yul\":23125:23127   */\n      0x1a\n        /* \"#utility.yul\":23120:23123   */\n      dup4\n        /* \"#utility.yul\":23061:23128   */\n      tag_405\n      jump\t// in\n    tag_661:\n        /* \"#utility.yul\":23054:23128   */\n      swap2\n      pop\n        /* \"#utility.yul\":23137:23230   */\n      tag_662\n        /* \"#utility.yul\":23226:23229   */\n      dup3\n        /* \"#utility.yul\":23137:23230   */\n      tag_423\n      jump\t// in\n    tag_662:\n        /* \"#utility.yul\":23255:23257   */\n      0x20\n        /* \"#utility.yul\":23250:23253   */\n      dup3\n        /* \"#utility.yul\":23246:23258   */\n      add\n        /* \"#utility.yul\":23239:23258   */\n      swap1\n      pop\n        /* \"#utility.yul\":22898:23264   */\n      swap2\n      swap1\n      pop\n      jump\t// out\n        /* \"#utility.yul\":23270:23689   */\n    tag_201:\n        /* \"#utility.yul\":23436:23440   */\n      0x00\n        /* \"#utility.yul\":23474:23476   */\n      0x20\n        /* \"#utility.yul\":23463:23472   */\n      dup3\n        /* \"#utility.yul\":23459:23477   */\n      add\n        /* \"#utility.yul\":23451:23477   */\n      swap1\n      pop\n        /* \"#utility.yul\":23523:23532   */\n      dup2\n        /* \"#utility.yul\":23517:23521   */\n      dup2\n        /* \"#utility.yul\":23513:23533   */\n      sub\n        /* \"#utility.yul\":23509:23510   */\n      0x00\n        /* \"#utility.yul\":23498:23507   */\n      dup4\n        /* \"#utility.yul\":23494:23511   */\n      add\n        /* \"#utility.yul\":23487:23534   */\n      mstore\n        /* \"#utility.yul\":23551:23682   */\n      tag_664\n        /* \"#utility.yul\":23677:23681   */\n      dup2\n        /* \"#utility.yul\":23551:23682   */\n      tag_424\n      jump\t// in\n    tag_664:\n        /* \"#utility.yul\":23543:23682   */\n      swap1\n      pop\n        /* \"#utility.yul\":23270:23689   */\n      swap2\n      swap1\n      pop\n      jump\t// out\n        /* \"#utility.yul\":23695:23889   */\n    tag_204:\n        /* \"#utility.yul\":23735:23739   */\n      0x00\n        /* \"#utility.yul\":23755:23775   */\n      tag_666\n        /* \"#utility.yul\":23773:23774   */\n      dup3\n        /* \"#utility.yul\":23755:23775   */\n      tag_377\n      jump\t// in\n    tag_666:\n        /* \"#utility.yul\":23750:23775   */\n      swap2\n      pop\n        /* \"#utility.yul\":23789:23809   */\n      tag_667\n        /* \"#utility.yul\":23807:23808   */\n      dup4\n        /* \"#utility.yul\":23789:23809   */\n      tag_377\n      jump\t// in\n    tag_667:\n        /* \"#utility.yul\":23784:23809   */\n      swap3\n      pop\n        /* \"#utility.yul\":23833:23834   */\n      dup3\n        /* \"#utility.yul\":23830:23831   */\n      dup3\n        /* \"#utility.yul\":23826:23835   */\n      sub\n        /* \"#utility.yul\":23818:23835   */\n      swap1\n      pop\n        /* \"#utility.yul\":23857:23858   */\n      dup2\n        /* \"#utility.yul\":23851:23855   */\n      dup2\n        /* \"#utility.yul\":23848:23859   */\n      gt\n        /* \"#utility.yul\":23845:23882   */\n      iszero\n      tag_668\n      jumpi\n        /* \"#utility.yul\":23862:23880   */\n      tag_669\n      tag_408\n      jump\t// in\n    tag_669:\n        /* \"#utility.yul\":23845:23882   */\n    tag_668:\n        /* \"#utility.yul\":23695:23889   */\n      swap3\n      swap2\n      pop\n      pop\n      jump\t// out\n        /* \"#utility.yul\":23895:24227   */\n    tag_208:\n        /* \"#utility.yul\":24016:24020   */\n      0x00\n        /* \"#utility.yul\":24054:24056   */\n      0x40\n        /* \"#utility.yul\":24043:24052   */\n      dup3\n        /* \"#utility.yul\":24039:24057   */\n      add\n        /* \"#utility.yul\":24031:24057   */\n      swap1\n      pop\n        /* \"#utility.yul\":24067:24138   */\n      tag_671\n        /* \"#utility.yul\":24135:24136   */\n      0x00\n        /* \"#utility.yul\":24124:24133   */\n      dup4\n        /* \"#utility.yul\":24120:24137   */\n      add\n        /* \"#utility.yul\":24111:24117   */\n      dup6\n        /* \"#utility.yul\":24067:24138   */\n      tag_402\n      jump\t// in\n    tag_671:\n        /* \"#utility.yul\":24148:24220   */\n      tag_672\n        /* \"#utility.yul\":24216:24218   */\n      0x20\n        /* \"#utility.yul\":24205:24214   */\n      dup4\n        /* \"#utility.yul\":24201:24219   */\n      add\n        /* \"#utility.yul\":24192:24198   */\n      dup5\n        /* \"#utility.yul\":24148:24220   */\n      tag_387\n      jump\t// in\n    tag_672:\n        /* \"#utility.yul\":23895:24227   */\n      swap4\n      swap3\n      pop\n      pop\n      pop\n      jump\t// out\n        /* \"#utility.yul\":24233:24370   */\n    tag_425:\n        /* \"#utility.yul\":24287:24292   */\n      0x00\n        /* \"#utility.yul\":24318:24324   */\n      dup2\n        /* \"#utility.yul\":24312:24325   */\n      mload\n        /* \"#utility.yul\":24303:24325   */\n      swap1\n      pop\n        /* \"#utility.yul\":24334:24364   */\n      tag_674\n        /* \"#utility.yul\":24358:24363   */\n      dup2\n        /* \"#utility.yul\":24334:24364   */\n      tag_381\n      jump\t// in\n    tag_674:\n        /* \"#utility.yul\":24233:24370   */\n      swap3\n      swap2\n      pop\n      pop\n      jump\t// out\n        /* \"#utility.yul\":24376:24721   */\n    tag_212:\n        /* \"#utility.yul\":24443:24449   */\n      0x00\n        /* \"#utility.yul\":24492:24494   */\n      0x20\n        /* \"#utility.yul\":24480:24489   */\n      dup3\n        /* \"#utility.yul\":24471:24478   */\n      dup5\n        /* \"#utility.yul\":24467:24490   */\n      sub\n        /* \"#utility.yul\":24463:24495   */\n      slt\n        /* \"#utility.yul\":24460:24579   */\n      iszero\n      tag_676\n      jumpi\n        /* \"#utility.yul\":24498:24577   */\n      tag_677\n      tag_375\n      jump\t// in\n    tag_677:\n        /* \"#utility.yul\":24460:24579   */\n    tag_676:\n        /* \"#utility.yul\":24618:24619   */\n      0x00\n        /* \"#utility.yul\":24643:24704   */\n      tag_678\n        /* \"#utility.yul\":24696:24703   */\n      dup5\n        /* \"#utility.yul\":24687:24693   */\n      dup3\n        /* \"#utility.yul\":24676:24685   */\n      dup6\n        /* \"#utility.yul\":24672:24694   */\n      add\n        /* \"#utility.yul\":24643:24704   */\n      tag_425\n      jump\t// in\n    tag_678:\n        /* \"#utility.yul\":24633:24704   */\n      swap2\n      pop\n        /* \"#utility.yul\":24589:24714   */\n      pop\n        /* \"#utility.yul\":24376:24721   */\n      swap3\n      swap2\n      pop\n      pop\n      jump\t// out\n        /* \"#utility.yul\":24727:24898   */\n    tag_426:\n        /* \"#utility.yul\":24867:24890   */\n      0x546f6b656e207472616e73666572206661696c65640000000000000000000000\n        /* \"#utility.yul\":24863:24864   */\n      0x00\n        /* \"#utility.yul\":24855:24861   */\n      dup3\n        /* \"#utility.yul\":24851:24865   */\n      add\n        /* \"#utility.yul\":24844:24891   */\n      mstore\n        /* \"#utility.yul\":24727:24898   */\n      pop\n      jump\t// out\n        /* \"#utility.yul\":24904:25270   */\n    tag_427:\n        /* \"#utility.yul\":25046:25049   */\n      0x00\n        /* \"#utility.yul\":25067:25134   */\n      tag_681\n        /* \"#utility.yul\":25131:25133   */\n      0x15\n        /* \"#utility.yul\":25126:25129   */\n      dup4\n        /* \"#utility.yul\":25067:25134   */\n      tag_405\n      jump\t// in\n    tag_681:\n        /* \"#utility.yul\":25060:25134   */\n      swap2\n      pop\n        /* \"#utility.yul\":25143:25236   */\n      tag_682\n        /* \"#utility.yul\":25232:25235   */\n      dup3\n        /* \"#utility.yul\":25143:25236   */\n      tag_426\n      jump\t// in\n    tag_682:\n        /* \"#utility.yul\":25261:25263   */\n      0x20\n        /* \"#utility.yul\":25256:25259   */\n      dup3\n        /* \"#utility.yul\":25252:25264   */\n      add\n        /* \"#utility.yul\":25245:25264   */\n      swap1\n      pop\n        /* \"#utility.yul\":24904:25270   */\n      swap2\n      swap1\n      pop\n      jump\t// out\n        /* \"#utility.yul\":25276:25695   */\n    tag_215:\n        /* \"#utility.yul\":25442:25446   */\n      0x00\n        /* \"#utility.yul\":25480:25482   */\n      0x20\n        /* \"#utility.yul\":25469:25478   */\n      dup3\n        /* \"#utility.yul\":25465:25483   */\n      add\n        /* \"#utility.yul\":25457:25483   */\n      swap1\n      pop\n        /* \"#utility.yul\":25529:25538   */\n      dup2\n        /* \"#utility.yul\":25523:25527   */\n      dup2\n        /* \"#utility.yul\":25519:25539   */\n      sub\n        /* \"#utility.yul\":25515:25516   */\n      0x00\n        /* \"#utility.yul\":25504:25513   */\n      dup4\n        /* \"#utility.yul\":25500:25517   */\n      add\n        /* \"#utility.yul\":25493:25540   */\n      mstore\n        /* \"#utility.yul\":25557:25688   */\n      tag_684\n        /* \"#utility.yul\":25683:25687   */\n      dup2\n        /* \"#utility.yul\":25557:25688   */\n      tag_427\n      jump\t// in\n    tag_684:\n        /* \"#utility.yul\":25549:25688   */\n      swap1\n      pop\n        /* \"#utility.yul\":25276:25695   */\n      swap2\n      swap1\n      pop\n      jump\t// out\n        /* \"#utility.yul\":25701:25844   */\n    tag_428:\n        /* \"#utility.yul\":25758:25763   */\n      0x00\n        /* \"#utility.yul\":25789:25795   */\n      dup2\n        /* \"#utility.yul\":25783:25796   */\n      mload\n        /* \"#utility.yul\":25774:25796   */\n      swap1\n      pop\n        /* \"#utility.yul\":25805:25838   */\n      tag_686\n        /* \"#utility.yul\":25832:25837   */\n      dup2\n        /* \"#utility.yul\":25805:25838   */\n      tag_378\n      jump\t// in\n    tag_686:\n        /* \"#utility.yul\":25701:25844   */\n      swap3\n      swap2\n      pop\n      pop\n      jump\t// out\n        /* \"#utility.yul\":25850:26201   */\n    tag_228:\n        /* \"#utility.yul\":25920:25926   */\n      0x00\n        /* \"#utility.yul\":25969:25971   */\n      0x20\n        /* \"#utility.yul\":25957:25966   */\n      dup3\n        /* \"#utility.yul\":25948:25955   */\n      dup5\n        /* \"#utility.yul\":25944:25967   */\n      sub\n        /* \"#utility.yul\":25940:25972   */\n      slt\n        /* \"#utility.yul\":25937:26056   */\n      iszero\n      tag_688\n      jumpi\n        /* \"#utility.yul\":25975:26054   */\n      tag_689\n      tag_375\n      jump\t// in\n    tag_689:\n        /* \"#utility.yul\":25937:26056   */\n    tag_688:\n        /* \"#utility.yul\":26095:26096   */\n      0x00\n        /* \"#utility.yul\":26120:26184   */\n      tag_690\n        /* \"#utility.yul\":26176:26183   */\n      dup5\n        /* \"#utility.yul\":26167:26173   */\n      dup3\n        /* \"#utility.yul\":26156:26165   */\n      dup6\n        /* \"#utility.yul\":26152:26174   */\n      add\n        /* \"#utility.yul\":26120:26184   */\n      tag_428\n      jump\t// in\n    tag_690:\n        /* \"#utility.yul\":26110:26184   */\n      swap2\n      pop\n        /* \"#utility.yul\":26066:26194   */\n      pop\n        /* \"#utility.yul\":25850:26201   */\n      swap3\n      swap2\n      pop\n      pop\n      jump\t// out\n        /* \"#utility.yul\":26207:26376   */\n    tag_429:\n        /* \"#utility.yul\":26347:26368   */\n      0x466c617368206c6f616e20646574656374656400000000000000000000000000\n        /* \"#utility.yul\":26343:26344   */\n      0x00\n        /* \"#utility.yul\":26335:26341   */\n      dup3\n        /* \"#utility.yul\":26331:26345   */\n      add\n        /* \"#utility.yul\":26324:26369   */\n      mstore\n        /* \"#utility.yul\":26207:26376   */\n      pop\n      jump\t// out\n        /* \"#utility.yul\":26382:26748   */\n    tag_430:\n        /* \"#utility.yul\":26524:26527   */\n      0x00\n        /* \"#utility.yul\":26545:26612   */\n      tag_693\n        /* \"#utility.yul\":26609:26611   */\n      0x13\n        /* \"#utility.yul\":26604:26607   */\n      dup4\n        /* \"#utility.yul\":26545:26612   */\n      tag_405\n      jump\t// in\n    tag_693:\n        /* \"#utility.yul\":26538:26612   */\n      swap2\n      pop\n        /* \"#utility.yul\":26621:26714   */\n      tag_694\n        /* \"#utility.yul\":26710:26713   */\n      dup3\n        /* \"#utility.yul\":26621:26714   */\n      tag_429\n      jump\t// in\n    tag_694:\n        /* \"#utility.yul\":26739:26741   */\n      0x20\n        /* \"#utility.yul\":26734:26737   */\n      dup3\n        /* \"#utility.yul\":26730:26742   */\n      add\n        /* \"#utility.yul\":26723:26742   */\n      swap1\n      pop\n        /* \"#utility.yul\":26382:26748   */\n      swap2\n      swap1\n      pop\n      jump\t// out\n        /* \"#utility.yul\":26754:27173   */\n    tag_241:\n        /* \"#utility.yul\":26920:26924   */\n      0x00\n        /* \"#utility.yul\":26958:26960   */\n      0x20\n        /* \"#utility.yul\":26947:26956   */\n      dup3\n        /* \"#utility.yul\":26943:26961   */\n      add\n        /* \"#utility.yul\":26935:26961   */\n      swap1\n      pop\n        /* \"#utility.yul\":27007:27016   */\n      dup2\n        /* \"#utility.yul\":27001:27005   */\n      dup2\n        /* \"#utility.yul\":26997:27017   */\n      sub\n        /* \"#utility.yul\":26993:26994   */\n      0x00\n        /* \"#utility.yul\":26982:26991   */\n      dup4\n        /* \"#utility.yul\":26978:26995   */\n      add\n        /* \"#utility.yul\":26971:27018   */\n      mstore\n        /* \"#utility.yul\":27035:27166   */\n      tag_696\n        /* \"#utility.yul\":27161:27165   */\n      dup2\n        /* \"#utility.yul\":27035:27166   */\n      tag_430\n      jump\t// in\n    tag_696:\n        /* \"#utility.yul\":27027:27166   */\n      swap1\n      pop\n        /* \"#utility.yul\":26754:27173   */\n      swap2\n      swap1\n      pop\n      jump\t// out\n        /* \"#utility.yul\":27179:27621   */\n    tag_243:\n        /* \"#utility.yul\":27328:27332   */\n      0x00\n        /* \"#utility.yul\":27366:27368   */\n      0x60\n        /* \"#utility.yul\":27355:27364   */\n      dup3\n        /* \"#utility.yul\":27351:27369   */\n      add\n        /* \"#utility.yul\":27343:27369   */\n      swap1\n      pop\n        /* \"#utility.yul\":27379:27450   */\n      tag_698\n        /* \"#utility.yul\":27447:27448   */\n      0x00\n        /* \"#utility.yul\":27436:27445   */\n      dup4\n        /* \"#utility.yul\":27432:27449   */\n      add\n        /* \"#utility.yul\":27423:27429   */\n      dup7\n        /* \"#utility.yul\":27379:27450   */\n      tag_402\n      jump\t// in\n    tag_698:\n        /* \"#utility.yul\":27460:27532   */\n      tag_699\n        /* \"#utility.yul\":27528:27530   */\n      0x20\n        /* \"#utility.yul\":27517:27526   */\n      dup4\n        /* \"#utility.yul\":27513:27531   */\n      add\n        /* \"#utility.yul\":27504:27510   */\n      dup6\n        /* \"#utility.yul\":27460:27532   */\n      tag_402\n      jump\t// in\n    tag_699:\n        /* \"#utility.yul\":27542:27614   */\n      tag_700\n        /* \"#utility.yul\":27610:27612   */\n      0x40\n        /* \"#utility.yul\":27599:27608   */\n      dup4\n        /* \"#utility.yul\":27595:27613   */\n      add\n        /* \"#utility.yul\":27586:27592   */\n      dup5\n        /* \"#utility.yul\":27542:27614   */\n      tag_387\n      jump\t// in\n    tag_700:\n        /* \"#utility.yul\":27179:27621   */\n      swap5\n      swap4\n      pop\n      pop\n      pop\n      pop\n      jump\t// out\n        /* \"#utility.yul\":27627:28037   */\n    tag_263:\n        /* \"#utility.yul\":27667:27674   */\n      0x00\n        /* \"#utility.yul\":27690:27710   */\n      tag_702\n        /* \"#utility.yul\":27708:27709   */\n      dup3\n        /* \"#utility.yul\":27690:27710   */\n      tag_377\n      jump\t// in\n    tag_702:\n        /* \"#utility.yul\":27685:27710   */\n      swap2\n      pop\n        /* \"#utility.yul\":27724:27744   */\n      tag_703\n        /* \"#utility.yul\":27742:27743   */\n      dup4\n        /* \"#utility.yul\":27724:27744   */\n      tag_377\n      jump\t// in\n    tag_703:\n        /* \"#utility.yul\":27719:27744   */\n      swap3\n      pop\n        /* \"#utility.yul\":27779:27780   */\n      dup3\n        /* \"#utility.yul\":27776:27777   */\n      dup3\n        /* \"#utility.yul\":27772:27781   */\n      mul\n        /* \"#utility.yul\":27801:27831   */\n      tag_704\n        /* \"#utility.yul\":27819:27830   */\n      dup2\n        /* \"#utility.yul\":27801:27831   */\n      tag_377\n      jump\t// in\n    tag_704:\n        /* \"#utility.yul\":27790:27831   */\n      swap2\n      pop\n        /* \"#utility.yul\":27980:27981   */\n      dup3\n        /* \"#utility.yul\":27971:27978   */\n      dup3\n        /* \"#utility.yul\":27967:27982   */\n      div\n        /* \"#utility.yul\":27964:27965   */\n      dup5\n        /* \"#utility.yul\":27961:27983   */\n      eq\n        /* \"#utility.yul\":27941:27942   */\n      dup4\n        /* \"#utility.yul\":27934:27943   */\n      iszero\n        /* \"#utility.yul\":27914:27997   */\n      or\n        /* \"#utility.yul\":27891:28030   */\n      tag_705\n      jumpi\n        /* \"#utility.yul\":28010:28028   */\n      tag_706\n      tag_408\n      jump\t// in\n    tag_706:\n        /* \"#utility.yul\":27891:28030   */\n    tag_705:\n        /* \"#utility.yul\":27675:28037   */\n      pop\n        /* \"#utility.yul\":27627:28037   */\n      swap3\n      swap2\n      pop\n      pop\n      jump\t// out\n        /* \"#utility.yul\":28043:28223   */\n    tag_431:\n        /* \"#utility.yul\":28091:28168   */\n      0x4e487b7100000000000000000000000000000000000000000000000000000000\n        /* \"#utility.yul\":28088:28089   */\n      0x00\n        /* \"#utility.yul\":28081:28169   */\n      mstore\n        /* \"#utility.yul\":28188:28192   */\n      0x12\n        /* \"#utility.yul\":28185:28186   */\n      0x04\n        /* \"#utility.yul\":28178:28193   */\n      mstore\n        /* \"#utility.yul\":28212:28216   */\n      0x24\n        /* \"#utility.yul\":28209:28210   */\n      0x00\n        /* \"#utility.yul\":28202:28217   */\n      revert\n        /* \"#utility.yul\":28229:28414   */\n    tag_265:\n        /* \"#utility.yul\":28269:28270   */\n      0x00\n        /* \"#utility.yul\":28286:28306   */\n      tag_709\n        /* \"#utility.yul\":28304:28305   */\n      dup3\n        /* \"#utility.yul\":28286:28306   */\n      tag_377\n      jump\t// in\n    tag_709:\n        /* \"#utility.yul\":28281:28306   */\n      swap2\n      pop\n        /* \"#utility.yul\":28320:28340   */\n      tag_710\n        /* \"#utility.yul\":28338:28339   */\n      dup4\n        /* \"#utility.yul\":28320:28340   */\n      tag_377\n      jump\t// in\n    tag_710:\n        /* \"#utility.yul\":28315:28340   */\n      swap3\n      pop\n        /* \"#utility.yul\":28359:28360   */\n      dup3\n        /* \"#utility.yul\":28349:28384   */\n      tag_711\n      jumpi\n        /* \"#utility.yul\":28364:28382   */\n      tag_712\n      tag_431\n      jump\t// in\n    tag_712:\n        /* \"#utility.yul\":28349:28384   */\n    tag_711:\n        /* \"#utility.yul\":28406:28407   */\n      dup3\n        /* \"#utility.yul\":28403:28404   */\n      dup3\n        /* \"#utility.yul\":28399:28408   */\n      div\n        /* \"#utility.yul\":28394:28408   */\n      swap1\n      pop\n        /* \"#utility.yul\":28229:28414   */\n      swap3\n      swap2\n      pop\n      pop\n      jump\t// out\n        /* \"#utility.yul\":28420:28589   */\n    tag_432:\n        /* \"#utility.yul\":28560:28581   */\n      0x4e6f20746f6b656e7320617661696c61626c6500000000000000000000000000\n        /* \"#utility.yul\":28556:28557   */\n      0x00\n        /* \"#utility.yul\":28548:28554   */\n      dup3\n        /* \"#utility.yul\":28544:28558   */\n      add\n        /* \"#utility.yul\":28537:28582   */\n      mstore\n        /* \"#utility.yul\":28420:28589   */\n      pop\n      jump\t// out\n        /* \"#utility.yul\":28595:28961   */\n    tag_433:\n        /* \"#utility.yul\":28737:28740   */\n      0x00\n        /* \"#utility.yul\":28758:28825   */\n      tag_715\n        /* \"#utility.yul\":28822:28824   */\n      0x13\n        /* \"#utility.yul\":28817:28820   */\n      dup4\n        /* \"#utility.yul\":28758:28825   */\n      tag_405\n      jump\t// in\n    tag_715:\n        /* \"#utility.yul\":28751:28825   */\n      swap2\n      pop\n        /* \"#utility.yul\":28834:28927   */\n      tag_716\n        /* \"#utility.yul\":28923:28926   */\n      dup3\n        /* \"#utility.yul\":28834:28927   */\n      tag_432\n      jump\t// in\n    tag_716:\n        /* \"#utility.yul\":28952:28954   */\n      0x20\n        /* \"#utility.yul\":28947:28950   */\n      dup3\n        /* \"#utility.yul\":28943:28955   */\n      add\n        /* \"#utility.yul\":28936:28955   */\n      swap1\n      pop\n        /* \"#utility.yul\":28595:28961   */\n      swap2\n      swap1\n      pop\n      jump\t// out\n        /* \"#utility.yul\":28967:29386   */\n    tag_295:\n        /* \"#utility.yul\":29133:29137   */\n      0x00\n        /* \"#utility.yul\":29171:29173   */\n      0x20\n        /* \"#utility.yul\":29160:29169   */\n      dup3\n        /* \"#utility.yul\":29156:29174   */\n      add\n        /* \"#utility.yul\":29148:29174   */\n      swap1\n      pop\n        /* \"#utility.yul\":29220:29229   */\n      dup2\n        /* \"#utility.yul\":29214:29218   */\n      dup2\n        /* \"#utility.yul\":29210:29230   */\n      sub\n        /* \"#utility.yul\":29206:29207   */\n      0x00\n        /* \"#utility.yul\":29195:29204   */\n      dup4\n        /* \"#utility.yul\":29191:29208   */\n      add\n        /* \"#utility.yul\":29184:29231   */\n      mstore\n        /* \"#utility.yul\":29248:29379   */\n      tag_718\n        /* \"#utility.yul\":29374:29378   */\n      dup2\n        /* \"#utility.yul\":29248:29379   */\n      tag_433\n      jump\t// in\n    tag_718:\n        /* \"#utility.yul\":29240:29379   */\n      swap1\n      pop\n        /* \"#utility.yul\":28967:29386   */\n      swap2\n      swap1\n      pop\n      jump\t// out\n        /* \"#utility.yul\":29392:29562   */\n    tag_434:\n        /* \"#utility.yul\":29532:29554   */\n      0x4275726e207472616e73666572206661696c6564000000000000000000000000\n        /* \"#utility.yul\":29528:29529   */\n      0x00\n        /* \"#utility.yul\":29520:29526   */\n      dup3\n        /* \"#utility.yul\":29516:29530   */\n      add\n        /* \"#utility.yul\":29509:29555   */\n      mstore\n        /* \"#utility.yul\":29392:29562   */\n      pop\n      jump\t// out\n        /* \"#utility.yul\":29568:29934   */\n    tag_435:\n        /* \"#utility.yul\":29710:29713   */\n      0x00\n        /* \"#utility.yul\":29731:29798   */\n      tag_721\n        /* \"#utility.yul\":29795:29797   */\n      0x14\n        /* \"#utility.yul\":29790:29793   */\n      dup4\n        /* \"#utility.yul\":29731:29798   */\n      tag_405\n      jump\t// in\n    tag_721:\n        /* \"#utility.yul\":29724:29798   */\n      swap2\n      pop\n        /* \"#utility.yul\":29807:29900   */\n      tag_722\n        /* \"#utility.yul\":29896:29899   */\n      dup3\n        /* \"#utility.yul\":29807:29900   */\n      tag_434\n      jump\t// in\n    tag_722:\n        /* \"#utility.yul\":29925:29927   */\n      0x20\n        /* \"#utility.yul\":29920:29923   */\n      dup3\n        /* \"#utility.yul\":29916:29928   */\n      add\n        /* \"#utility.yul\":29909:29928   */\n      swap1\n      pop\n        /* \"#utility.yul\":29568:29934   */\n      swap2\n      swap1\n      pop\n      jump\t// out\n        /* \"#utility.yul\":29940:30359   */\n    tag_303:\n        /* \"#utility.yul\":30106:30110   */\n      0x00\n        /* \"#utility.yul\":30144:30146   */\n      0x20\n        /* \"#utility.yul\":30133:30142   */\n      dup3\n        /* \"#utility.yul\":30129:30147   */\n      add\n        /* \"#utility.yul\":30121:30147   */\n      swap1\n      pop\n        /* \"#utility.yul\":30193:30202   */\n      dup2\n        /* \"#utility.yul\":30187:30191   */\n      dup2\n        /* \"#utility.yul\":30183:30203   */\n      sub\n        /* \"#utility.yul\":30179:30180   */\n      0x00\n        /* \"#utility.yul\":30168:30177   */\n      dup4\n        /* \"#utility.yul\":30164:30181   */\n      add\n        /* \"#utility.yul\":30157:30204   */\n      mstore\n        /* \"#utility.yul\":30221:30352   */\n      tag_724\n        /* \"#utility.yul\":30347:30351   */\n      dup2\n        /* \"#utility.yul\":30221:30352   */\n      tag_435\n      jump\t// in\n    tag_724:\n        /* \"#utility.yul\":30213:30352   */\n      swap1\n      pop\n        /* \"#utility.yul\":29940:30359   */\n      swap2\n      swap1\n      pop\n      jump\t// out\n        /* \"#utility.yul\":30365:30538   */\n    tag_436:\n        /* \"#utility.yul\":30505:30530   */\n      0x5472616465732061726520746f6f206672657175656e74000000000000000000\n        /* \"#utility.yul\":30501:30502   */\n      0x00\n        /* \"#utility.yul\":30493:30499   */\n      dup3\n        /* \"#utility.yul\":30489:30503   */\n      add\n        /* \"#utility.yul\":30482:30531   */\n      mstore\n        /* \"#utility.yul\":30365:30538   */\n      pop\n      jump\t// out\n        /* \"#utility.yul\":30544:30910   */\n    tag_437:\n        /* \"#utility.yul\":30686:30689   */\n      0x00\n        /* \"#utility.yul\":30707:30774   */\n      tag_727\n        /* \"#utility.yul\":30771:30773   */\n      0x17\n        /* \"#utility.yul\":30766:30769   */\n      dup4\n        /* \"#utility.yul\":30707:30774   */\n      tag_405\n      jump\t// in\n    tag_727:\n        /* \"#utility.yul\":30700:30774   */\n      swap2\n      pop\n        /* \"#utility.yul\":30783:30876   */\n      tag_728\n        /* \"#utility.yul\":30872:30875   */\n      dup3\n        /* \"#utility.yul\":30783:30876   */\n      tag_436\n      jump\t// in\n    tag_728:\n        /* \"#utility.yul\":30901:30903   */\n      0x20\n        /* \"#utility.yul\":30896:30899   */\n      dup3\n        /* \"#utility.yul\":30892:30904   */\n      add\n        /* \"#utility.yul\":30885:30904   */\n      swap1\n      pop\n        /* \"#utility.yul\":30544:30910   */\n      swap2\n      swap1\n      pop\n      jump\t// out\n        /* \"#utility.yul\":30916:31335   */\n    tag_348:\n        /* \"#utility.yul\":31082:31086   */\n      0x00\n        /* \"#utility.yul\":31120:31122   */\n      0x20\n        /* \"#utility.yul\":31109:31118   */\n      dup3\n        /* \"#utility.yul\":31105:31123   */\n      add\n        /* \"#utility.yul\":31097:31123   */\n      swap1\n      pop\n        /* \"#utility.yul\":31169:31178   */\n      dup2\n        /* \"#utility.yul\":31163:31167   */\n      dup2\n        /* \"#utility.yul\":31159:31179   */\n      sub\n        /* \"#utility.yul\":31155:31156   */\n      0x00\n        /* \"#utility.yul\":31144:31153   */\n      dup4\n        /* \"#utility.yul\":31140:31157   */\n      add\n        /* \"#utility.yul\":31133:31180   */\n      mstore\n        /* \"#utility.yul\":31197:31328   */\n      tag_730\n        /* \"#utility.yul\":31323:31327   */\n      dup2\n        /* \"#utility.yul\":31197:31328   */\n      tag_437\n      jump\t// in\n    tag_730:\n        /* \"#utility.yul\":31189:31328   */\n      swap1\n      pop\n        /* \"#utility.yul\":30916:31335   */\n      swap2\n      swap1\n      pop\n      jump\t// out\n        /* \"#utility.yul\":31341:31522   */\n    tag_438:\n        /* \"#utility.yul\":31481:31514   */\n      0x506f74656e7469616c20776173682074726164696e6720646574656374656400\n        /* \"#utility.yul\":31477:31478   */\n      0x00\n        /* \"#utility.yul\":31469:31475   */\n      dup3\n        /* \"#utility.yul\":31465:31479   */\n      add\n        /* \"#utility.yul\":31458:31515   */\n      mstore\n        /* \"#utility.yul\":31341:31522   */\n      pop\n      jump\t// out\n        /* \"#utility.yul\":31528:31894   */\n    tag_439:\n        /* \"#utility.yul\":31670:31673   */\n      0x00\n        /* \"#utility.yul\":31691:31758   */\n      tag_733\n        /* \"#utility.yul\":31755:31757   */\n      0x1f\n        /* \"#utility.yul\":31750:31753   */\n      dup4\n        /* \"#utility.yul\":31691:31758   */\n      tag_405\n      jump\t// in\n    tag_733:\n        /* \"#utility.yul\":31684:31758   */\n      swap2\n      pop\n        /* \"#utility.yul\":31767:31860   */\n      tag_734\n        /* \"#utility.yul\":31856:31859   */\n      dup3\n        /* \"#utility.yul\":31767:31860   */\n      tag_438\n      jump\t// in\n    tag_734:\n        /* \"#utility.yul\":31885:31887   */\n      0x20\n        /* \"#utility.yul\":31880:31883   */\n      dup3\n        /* \"#utility.yul\":31876:31888   */\n      add\n        /* \"#utility.yul\":31869:31888   */\n      swap1\n      pop\n        /* \"#utility.yul\":31528:31894   */\n      swap2\n      swap1\n      pop\n      jump\t// out\n        /* \"#utility.yul\":31900:32319   */\n    tag_353:\n        /* \"#utility.yul\":32066:32070   */\n      0x00\n        /* \"#utility.yul\":32104:32106   */\n      0x20\n        /* \"#utility.yul\":32093:32102   */\n      dup3\n        /* \"#utility.yul\":32089:32107   */\n      add\n        /* \"#utility.yul\":32081:32107   */\n      swap1\n      pop\n        /* \"#utility.yul\":32153:32162   */\n      dup2\n        /* \"#utility.yul\":32147:32151   */\n      dup2\n        /* \"#utility.yul\":32143:32163   */\n      sub\n        /* \"#utility.yul\":32139:32140   */\n      0x00\n        /* \"#utility.yul\":32128:32137   */\n      dup4\n        /* \"#utility.yul\":32124:32141   */\n      add\n        /* \"#utility.yul\":32117:32164   */\n      mstore\n        /* \"#utility.yul\":32181:32312   */\n      tag_736\n        /* \"#utility.yul\":32307:32311   */\n      dup2\n        /* \"#utility.yul\":32181:32312   */\n      tag_439\n      jump\t// in\n    tag_736:\n        /* \"#utility.yul\":32173:32312   */\n      swap1\n      pop\n        /* \"#utility.yul\":31900:32319   */\n      swap2\n      swap1\n      pop\n      jump\t// out\n        /* \"#utility.yul\":32325:32657   */\n    tag_359:\n        /* \"#utility.yul\":32446:32450   */\n      0x00\n        /* \"#utility.yul\":32484:32486   */\n      0x40\n        /* \"#utility.yul\":32473:32482   */\n      dup3\n        /* \"#utility.yul\":32469:32487   */\n      add\n        /* \"#utility.yul\":32461:32487   */\n      swap1\n      pop\n        /* \"#utility.yul\":32497:32568   */\n      tag_738\n        /* \"#utility.yul\":32565:32566   */\n      0x00\n        /* \"#utility.yul\":32554:32563   */\n      dup4\n        /* \"#utility.yul\":32550:32567   */\n      add\n        /* \"#utility.yul\":32541:32547   */\n      dup6\n        /* \"#utility.yul\":32497:32568   */\n      tag_387\n      jump\t// in\n    tag_738:\n        /* \"#utility.yul\":32578:32650   */\n      tag_739\n        /* \"#utility.yul\":32646:32648   */\n      0x20\n        /* \"#utility.yul\":32635:32644   */\n      dup4\n        /* \"#utility.yul\":32631:32649   */\n      add\n        /* \"#utility.yul\":32622:32628   */\n      dup5\n        /* \"#utility.yul\":32578:32650   */\n      tag_387\n      jump\t// in\n    tag_739:\n        /* \"#utility.yul\":32325:32657   */\n      swap4\n      swap3\n      pop\n      pop\n      pop\n      jump\t// out\n        /* \"#utility.yul\":32663:32844   */\n    tag_440:\n        /* \"#utility.yul\":32803:32836   */\n      0x5265656e7472616e637947756172643a207265656e7472616e742063616c6c00\n        /* \"#utility.yul\":32799:32800   */\n      0x00\n        /* \"#utility.yul\":32791:32797   */\n      dup3\n        /* \"#utility.yul\":32787:32801   */\n      add\n        /* \"#utility.yul\":32780:32837   */\n      mstore\n        /* \"#utility.yul\":32663:32844   */\n      pop\n      jump\t// out\n        /* \"#utility.yul\":32850:33216   */\n    tag_441:\n        /* \"#utility.yul\":32992:32995   */\n      0x00\n        /* \"#utility.yul\":33013:33080   */\n      tag_742\n        /* \"#utility.yul\":33077:33079   */\n      0x1f\n        /* \"#utility.yul\":33072:33075   */\n      dup4\n        /* \"#utility.yul\":33013:33080   */\n      tag_405\n      jump\t// in\n    tag_742:\n        /* \"#utility.yul\":33006:33080   */\n      swap2\n      pop\n        /* \"#utility.yul\":33089:33182   */\n      tag_743\n        /* \"#utility.yul\":33178:33181   */\n      dup3\n        /* \"#utility.yul\":33089:33182   */\n      tag_440\n      jump\t// in\n    tag_743:\n        /* \"#utility.yul\":33207:33209   */\n      0x20\n        /* \"#utility.yul\":33202:33205   */\n      dup3\n        /* \"#utility.yul\":33198:33210   */\n      add\n        /* \"#utility.yul\":33191:33210   */\n      swap1\n      pop\n        /* \"#utility.yul\":32850:33216   */\n      swap2\n      swap1\n      pop\n      jump\t// out\n        /* \"#utility.yul\":33222:33641   */\n    tag_370:\n        /* \"#utility.yul\":33388:33392   */\n      0x00\n        /* \"#utility.yul\":33426:33428   */\n      0x20\n        /* \"#utility.yul\":33415:33424   */\n      dup3\n        /* \"#utility.yul\":33411:33429   */\n      add\n        /* \"#utility.yul\":33403:33429   */\n      swap1\n      pop\n        /* \"#utility.yul\":33475:33484   */\n      dup2\n        /* \"#utility.yul\":33469:33473   */\n      dup2\n        /* \"#utility.yul\":33465:33485   */\n      sub\n        /* \"#utility.yul\":33461:33462   */\n      0x00\n        /* \"#utility.yul\":33450:33459   */\n      dup4\n        /* \"#utility.yul\":33446:33463   */\n      add\n        /* \"#utility.yul\":33439:33486   */\n      mstore\n        /* \"#utility.yul\":33503:33634   */\n      tag_745\n        /* \"#utility.yul\":33629:33633   */\n      dup2\n        /* \"#utility.yul\":33503:33634   */\n      tag_441\n      jump\t// in\n    tag_745:\n        /* \"#utility.yul\":33495:33634   */\n      swap1\n      pop\n        /* \"#utility.yul\":33222:33641   */\n      swap2\n      swap1\n      pop\n      jump\t// out\n\n    auxdata: 0xa26469706673582212201c692970bcfde657ec77f5a9583e5da386d6ac7350cd000162e482da8e84a59a64736f6c634300081c0033\n}\n",
				"bytecode": {
					"linkReferences": {},
					"object": "608060405234801561000f575f5ffd5b5060405161311438038061311483398181016040528101906100319190610270565b335f73ffffffffffffffffffffffffffffffffffffffff168173ffffffffffffffffffffffffffffffffffffffff16036100a2575f6040517f1e4fbdf700000000000000000000000000000000000000000000000000000000815260040161009991906102bd565b60405180910390fd5b6100b18161011b60201b60201c565b50600180819055508160025f6101000a81548173ffffffffffffffffffffffffffffffffffffffff021916908373ffffffffffffffffffffffffffffffffffffffff16021790555080600260146101000a81548160ff021916908360ff16021790555050506102d6565b5f5f5f9054906101000a900473ffffffffffffffffffffffffffffffffffffffff169050815f5f6101000a81548173ffffffffffffffffffffffffffffffffffffffff021916908373ffffffffffffffffffffffffffffffffffffffff1602179055508173ffffffffffffffffffffffffffffffffffffffff168173ffffffffffffffffffffffffffffffffffffffff167f8be0079c531659141344cd1fd0a4f28419497f9722a3daafe3b4186f6b6457e060405160405180910390a35050565b5f5ffd5b5f73ffffffffffffffffffffffffffffffffffffffff82169050919050565b5f610209826101e0565b9050919050565b610219816101ff565b8114610223575f5ffd5b50565b5f8151905061023481610210565b92915050565b5f60ff82169050919050565b61024f8161023a565b8114610259575f5ffd5b50565b5f8151905061026a81610246565b92915050565b5f5f60408385031215610286576102856101dc565b5b5f61029385828601610226565b92505060206102a48582860161025c565b9150509250929050565b6102b7816101ff565b82525050565b5f6020820190506102d05f8301846102ae565b92915050565b612e31806102e35f395ff3fe608060405234801561000f575f5ffd5b506004361061018c575f3560e01c80637bb1ca19116100dc578063a789b01f11610095578063cda3948f1161006f578063cda3948f14610462578063ebf959e41461046c578063f2fde38b14610488578063feb8b43b146104a45761018c565b8063a789b01f14610408578063a9ed3d2914610438578063c970e99f146104585761018c565b80637bb1ca19146103165780638201b3f314610346578063821c0576146103765780638da5cb5b1461038057806392a88fa21461039e578063a43fde3a146103d15761018c565b8063552e2edf11610149578063608e4dd011610123578063608e4dd0146102a4578063715018a6146102c057806372bf1747146102ca5780637547c7a3146102fa5761018c565b8063552e2edf1461024e5780635cc78faf1461026a5780635f292cd7146102885761018c565b806301b3e6251461019057806303186eef146101ac5780630f573a73146101dc5780631896b1af146101f85780633ffcf5ab1461021457806346c3469e14610232575b5f5ffd5b6101aa60048036038101906101a59190611e73565b6104c0565b005b6101c660048036038101906101c19190611f0b565b610562565b6040516101d39190611f45565b60405180910390f35b6101f660048036038101906101f19190611f94565b610577565b005b610212600480360381019061020d9190611fbf565b6105f9565b005b61021c6107f2565b6040516102299190612032565b60405180910390f35b61024c6004803603810190610247919061204b565b610805565b005b6102686004803603810190610263919061212c565b610991565b005b610272610adb565b60405161027f9190612205565b60405180910390f35b6102a2600480360381019061029d919061221e565b610b00565b005b6102be60048036038101906102b9919061204b565b610bcc565b005b6102c8610d94565b005b6102e460048036038101906102df9190611f0b565b610da7565b6040516102f19190612032565b60405180910390f35b610314600480360381019061030f919061204b565b610ea0565b005b610330600480360381019061032b9190611f0b565b6110d0565b60405161033d9190611f45565b60405180910390f35b610360600480360381019061035b919061204b565b6110e5565b60405161036d9190612032565b60405180910390f35b61037e61112b565b005b610388611295565b604051610395919061226b565b60405180910390f35b6103b860048036038101906103b39190611f0b565b6112bc565b6040516103c89493929190612284565b60405180910390f35b6103eb60048036038101906103e6919061204b565b6112e8565b6040516103ff9897969594939291906122d6565b60405180910390f35b610422600480360381019061041d9190612352565b611364565b60405161042f9190611f45565b60405180910390f35b6104406113c9565b60405161044f939291906123a2565b60405180910390f35b610460611417565b005b61046a611633565b005b6104866004803603810190610481919061242c565b6117bc565b005b6104a2600480360381019061049d9190611f0b565b611991565b005b6104be60048036038101906104b9919061204b565b611a15565b005b5f60075f8481526020019081526020015f209050806004015442111561051b576040517f08c379a0000000000000000000000000000000000000000000000000000000008152600401610512906124d1565b60405180910390fd5b8115610541576001816002015f828254610535919061251c565b9250508190555061055d565b6001816003015f828254610555919061251c565b925050819055505b505050565b6005602052805f5260405f205f915090505481565b61057f611c5c565b60035f0160159054906101000a900460ff1660ff168160ff1611156105d9576040517f08c379a00000000000000000000000000000000000000000000000000000000081526004016105d090612599565b60405180910390fd5b8060035f0160146101000a81548160ff021916908360ff16021790555050565b5f60075f8681526020019081526020015f205f01541461064e576040517f08c379a000000000000000000000000000000000000000000000000000000000815260040161064590612601565b60405180910390fd5b6040518061010001604052808581526020013373ffffffffffffffffffffffffffffffffffffffff1681526020018460ff1681526020015f81526020015f8152602001834261069d919061251c565b81526020018284426106af919061251c565b6106b9919061251c565b81526020015f151581525060075f8681526020019081526020015f205f820151815f01556020820151816001015f6101000a81548173ffffffffffffffffffffffffffffffffffffffff021916908373ffffffffffffffffffffffffffffffffffffffff16021790555060408201518160010160146101000a81548160ff021916908360ff160217905550606082015181600201556080820151816003015560a0820151816004015560c0820151816005015560e0820151816006015f6101000a81548160ff0219169083151502179055509050507f87e85754eef35e696416d1787d3adb2684f8755d9052aab6b6a4acff231f1105843384426107bd919061251c565b8486426107ca919061251c565b6107d4919061251c565b6040516107e4949392919061261f565b60405180910390a150505050565b600260149054906101000a900460ff1681565b5f60075f8381526020019081526020015f2090508060050154421015610860576040517f08c379a0000000000000000000000000000000000000000000000000000000008152600401610857906126ac565b60405180910390fd5b806006015f9054906101000a900460ff16156108b1576040517f08c379a00000000000000000000000000000000000000000000000000000000081526004016108a890612714565b60405180910390fd5b80600301548160020154116108fb576040517f08c379a00000000000000000000000000000000000000000000000000000000081526004016108f29061277c565b60405180910390fd5b8060010160149054906101000a900460ff16600260146101000a81548160ff021916908360ff1602179055506001816006015f6101000a81548160ff0219169083151502179055507f6e223d5f7773cbdb9521ce8494c05f833e1518ee33349cc811bf339633bc0dab828260010160149054906101000a900460ff1660405161098592919061279a565b60405180910390a15050565b8181905084849050146109d9576040517f08c379a00000000000000000000000000000000000000000000000000000000081526004016109d09061280b565b60405180910390fd5b5f5f90505b84849050811015610ad4575f60075f878785818110610a00576109ff612829565b5b9050602002013581526020019081526020015f2090508060040154421115610a5d576040517f08c379a0000000000000000000000000000000000000000000000000000000008152600401610a54906128a0565b60405180910390fd5b838383818110610a7057610a6f612829565b5b9050602002016020810190610a8591906128be565b15610aaa576001816002015f828254610a9e919061251c565b92505081905550610ac6565b6001816003015f828254610abe919061251c565b925050819055505b5080806001019150506109de565b5050505050565b60025f9054906101000a900473ffffffffffffffffffffffffffffffffffffffff1681565b610b08611c5c565b60405180606001604052803373ffffffffffffffffffffffffffffffffffffffff1681526020018360ff1681526020018260ff1681525060035f820151815f015f6101000a81548173ffffffffffffffffffffffffffffffffffffffff021916908373ffffffffffffffffffffffffffffffffffffffff1602179055506020820151815f0160146101000a81548160ff021916908360ff1602179055506040820151815f0160156101000a81548160ff021916908360ff1602179055509050505050565b610bd4611ce3565b5f60045f3373ffffffffffffffffffffffffffffffffffffffff1673ffffffffffffffffffffffffffffffffffffffff1681526020019081526020015f2090508181600201541015610c5b576040517f08c379a0000000000000000000000000000000000000000000000000000000008152600401610c5290612933565b60405180910390fd5b5f610c6b82600301544285611364565b90505f8184610c7a9190612951565b905083836002015f828254610c8f9190612951565b925050819055505f836002015403610cab575f83600301819055505b60025f9054906101000a900473ffffffffffffffffffffffffffffffffffffffff1673ffffffffffffffffffffffffffffffffffffffff1663a9059cbb33836040518363ffffffff1660e01b8152600401610d07929190612984565b6020604051808303815f875af1158015610d23573d5f5f3e3d5ffd5b505050506040513d601f19601f82011682018060405250810190610d4791906129bf565b610d86576040517f08c379a0000000000000000000000000000000000000000000000000000000008152600401610d7d90612a34565b60405180910390fd5b505050610d91611d32565b50565b610d9c611c5c565b610da55f611d3b565b565b5f5f60025f9054906101000a900473ffffffffffffffffffffffffffffffffffffffff1673ffffffffffffffffffffffffffffffffffffffff166370a08231846040518263ffffffff1660e01b8152600401610e03919061226b565b602060405180830381865afa158015610e1e573d5f5f3e3d5ffd5b505050506040513d601f19601f82011682018060405250810190610e429190612a66565b905069d3c21bcecceda10000008110610e5f576001915050610e9b565b6969e10de76676d08000008110610e7a576002915050610e9b565b69152d02c7e14af68000008110610e95576003915050610e9b565b60059150505b919050565b610ea8611ce3565b6201518060065f3373ffffffffffffffffffffffffffffffffffffffff1673ffffffffffffffffffffffffffffffffffffffff1681526020019081526020015f205442610ef59190612951565b1015610f36576040517f08c379a0000000000000000000000000000000000000000000000000000000008152600401610f2d90612adb565b60405180910390fd5b60025f9054906101000a900473ffffffffffffffffffffffffffffffffffffffff1673ffffffffffffffffffffffffffffffffffffffff166323b872dd3330846040518463ffffffff1660e01b8152600401610f9493929190612af9565b6020604051808303815f875af1158015610fb0573d5f5f3e3d5ffd5b505050506040513d601f19601f82011682018060405250810190610fd491906129bf565b611013576040517f08c379a000000000000000000000000000000000000000000000000000000000815260040161100a90612a34565b60405180910390fd5b5f60045f3373ffffffffffffffffffffffffffffffffffffffff1673ffffffffffffffffffffffffffffffffffffffff1681526020019081526020015f20905081816002015f828254611066919061251c565b925050819055505f816003015403611082574281600301819055505b4260065f3373ffffffffffffffffffffffffffffffffffffffff1673ffffffffffffffffffffffffffffffffffffffff1681526020019081526020015f2081905550506110cd611d32565b50565b6006602052805f5260405f205f915090505481565b5f6305f5e10082106110fa5760059050611126565b6302faf080821061110e5760039050611126565b6298968082106111215760029050611126565b600190505b919050565b611133611ce3565b5f60045f3373ffffffffffffffffffffffffffffffffffffffff1673ffffffffffffffffffffffffffffffffffffffff1681526020019081526020015f2090505f6103e860035f0160149054906101000a900460ff1660ff16835f015461119a9190612b2e565b6111a49190612b9c565b90505f6111b3835f01546110e5565b90505f8160ff16836111c59190612b2e565b90505f845f018190555060025f9054906101000a900473ffffffffffffffffffffffffffffffffffffffff1673ffffffffffffffffffffffffffffffffffffffff166340c10f1930836040518363ffffffff1660e01b815260040161122b929190612984565b5f604051808303815f87803b158015611242575f5ffd5b505af1158015611254573d5f5f3e3d5ffd5b5050505080846002015f82825461126b919061251c565b925050819055505f846003015403611287574284600301819055505b50505050611293611d32565b565b5f5f5f9054906101000a900473ffffffffffffffffffffffffffffffffffffffff16905090565b6004602052805f5260405f205f91509050805f0154908060010154908060020154908060030154905084565b6007602052805f5260405f205f91509050805f015490806001015f9054906101000a900473ffffffffffffffffffffffffffffffffffffffff16908060010160149054906101000a900460ff1690806002015490806003015490806004015490806005015490806006015f9054906101000a900460ff16905088565b5f5f84846113729190612951565b90505f62093a8082101561138957600a90506113a3565b6212750082101561139d57600590506113a2565b600290505b5b60648160ff16856113b49190612b2e565b6113be9190612b9c565b925050509392505050565b6003805f015f9054906101000a900473ffffffffffffffffffffffffffffffffffffffff1690805f0160149054906101000a900460ff1690805f0160159054906101000a900460ff16905083565b61141f611c5c565b611427611ce3565b5f60025f9054906101000a900473ffffffffffffffffffffffffffffffffffffffff1673ffffffffffffffffffffffffffffffffffffffff166370a08231306040518263ffffffff1660e01b8152600401611482919061226b565b602060405180830381865afa15801561149d573d5f5f3e3d5ffd5b505050506040513d601f19601f820116820180604052508101906114c19190612a66565b90505f8111611505576040517f08c379a00000000000000000000000000000000000000000000000000000000081526004016114fc90612c16565b60405180910390fd5b5f600a826115139190612b9c565b905060025f9054906101000a900473ffffffffffffffffffffffffffffffffffffffff1673ffffffffffffffffffffffffffffffffffffffff1663a9059cbb5f836040518363ffffffff1660e01b8152600401611571929190612984565b6020604051808303815f875af115801561158d573d5f5f3e3d5ffd5b505050506040513d601f19601f820116820180604052508101906115b191906129bf565b6115f0576040517f08c379a00000000000000000000000000000000000000000000000000000000081526004016115e790612c7e565b60405180910390fd5b7f6ef4855b666dcc7884561072e4358b28dfe01feb1b7f4dcebc00e62d50394ac78160405161161f9190611f45565b60405180910390a15050611631611d32565b565b61163b611ce3565b5f60045f3373ffffffffffffffffffffffffffffffffffffffff1673ffffffffffffffffffffffffffffffffffffffff1681526020019081526020015f2090505f6103e860035f0160149054906101000a900460ff1660ff16835f01546116a29190612b2e565b6116ac9190612b9c565b90505f6116bb835f01546110e5565b90505f8160ff16836116cd9190612b2e565b90505f845f018190555060025f9054906101000a900473ffffffffffffffffffffffffffffffffffffffff1673ffffffffffffffffffffffffffffffffffffffff166340c10f1933836040518363ffffffff1660e01b8152600401611733929190612984565b5f604051808303815f87803b15801561174a575f5ffd5b505af115801561175c573d5f5f3e3d5ffd5b505050503373ffffffffffffffffffffffffffffffffffffffff167f8ec2a9ed236322c625516e43eab59fcb8145e38ee8d489a28d0aacaeecc298d6826040516117a69190611f45565b60405180910390a2505050506117ba611d32565b565b6117c4611ce3565b5f5f90505b82829050811015611984575f8383838181106117e8576117e7612829565b5b90506020020160208101906117fd9190611f0b565b90505f60045f8373ffffffffffffffffffffffffffffffffffffffff1673ffffffffffffffffffffffffffffffffffffffff1681526020019081526020015f2090505f6103e860035f0160149054906101000a900460ff1660ff16835f01546118669190612b2e565b6118709190612b9c565b90505f61187f835f01546110e5565b90505f8160ff16836118919190612b2e565b90505f845f018190555060025f9054906101000a900473ffffffffffffffffffffffffffffffffffffffff1673ffffffffffffffffffffffffffffffffffffffff166340c10f1986836040518363ffffffff1660e01b81526004016118f7929190612984565b5f604051808303815f87803b15801561190e575f5ffd5b505af1158015611920573d5f5f3e3d5ffd5b505050508473ffffffffffffffffffffffffffffffffffffffff167ffaf36c8625a33cce6b8f49b647deed99dbb0b8cc5a4e92c37a49c18ef44483898260405161196a9190611f45565b60405180910390a2505050505080806001019150506117c9565b5061198d611d32565b5050565b611999611c5c565b5f73ffffffffffffffffffffffffffffffffffffffff168173ffffffffffffffffffffffffffffffffffffffff1603611a09575f6040517f1e4fbdf7000000000000000000000000000000000000000000000000000000008152600401611a00919061226b565b60405180910390fd5b611a1281611d3b565b50565b6005805f3373ffffffffffffffffffffffffffffffffffffffff1673ffffffffffffffffffffffffffffffffffffffff1681526020019081526020015f205442611a5f9190612951565b1015611aa0576040517f08c379a0000000000000000000000000000000000000000000000000000000008152600401611a9790612ce6565b60405180910390fd5b620f424081118015611afa5750600a60055f3373ffffffffffffffffffffffffffffffffffffffff1673ffffffffffffffffffffffffffffffffffffffff1681526020019081526020015f205442611af89190612951565b105b15611b3a576040517f08c379a0000000000000000000000000000000000000000000000000000000008152600401611b3190612d4e565b60405180910390fd5b4260055f3373ffffffffffffffffffffffffffffffffffffffff1673ffffffffffffffffffffffffffffffffffffffff1681526020019081526020015f20819055505f60045f3373ffffffffffffffffffffffffffffffffffffffff1673ffffffffffffffffffffffffffffffffffffffff1681526020019081526020015f20905062015180816001015442611bd09190612951565b10611be25781815f0181905550611bfc565b81815f015f828254611bf4919061251c565b925050819055505b4281600101819055503373ffffffffffffffffffffffffffffffffffffffff167fe1c33b09de310b5512c81ba8e74dc8c0cff829f9de557c89f8ef10cbf8ca4d6e83835f0154604051611c50929190612d6c565b60405180910390a25050565b611c64611dfc565b73ffffffffffffffffffffffffffffffffffffffff16611c82611295565b73ffffffffffffffffffffffffffffffffffffffff1614611ce157611ca5611dfc565b6040517f118cdaa7000000000000000000000000000000000000000000000000000000008152600401611cd8919061226b565b60405180910390fd5b565b600260015403611d28576040517f08c379a0000000000000000000000000000000000000000000000000000000008152600401611d1f90612ddd565b60405180910390fd5b6002600181905550565b60018081905550565b5f5f5f9054906101000a900473ffffffffffffffffffffffffffffffffffffffff169050815f5f6101000a81548173ffffffffffffffffffffffffffffffffffffffff021916908373ffffffffffffffffffffffffffffffffffffffff1602179055508173ffffffffffffffffffffffffffffffffffffffff168173ffffffffffffffffffffffffffffffffffffffff167f8be0079c531659141344cd1fd0a4f28419497f9722a3daafe3b4186f6b6457e060405160405180910390a35050565b5f33905090565b5f5ffd5b5f5ffd5b5f819050919050565b611e1d81611e0b565b8114611e27575f5ffd5b50565b5f81359050611e3881611e14565b92915050565b5f8115159050919050565b611e5281611e3e565b8114611e5c575f5ffd5b50565b5f81359050611e6d81611e49565b92915050565b5f5f60408385031215611e8957611e88611e03565b5b5f611e9685828601611e2a565b9250506020611ea785828601611e5f565b9150509250929050565b5f73ffffffffffffffffffffffffffffffffffffffff82169050919050565b5f611eda82611eb1565b9050919050565b611eea81611ed0565b8114611ef4575f5ffd5b50565b5f81359050611f0581611ee1565b92915050565b5f60208284031215611f2057611f1f611e03565b5b5f611f2d84828501611ef7565b91505092915050565b611f3f81611e0b565b82525050565b5f602082019050611f585f830184611f36565b92915050565b5f60ff82169050919050565b611f7381611f5e565b8114611f7d575f5ffd5b50565b5f81359050611f8e81611f6a565b92915050565b5f60208284031215611fa957611fa8611e03565b5b5f611fb684828501611f80565b91505092915050565b5f5f5f5f60808587031215611fd757611fd6611e03565b5b5f611fe487828801611e2a565b9450506020611ff587828801611f80565b935050604061200687828801611e2a565b925050606061201787828801611e2a565b91505092959194509250565b61202c81611f5e565b82525050565b5f6020820190506120455f830184612023565b92915050565b5f602082840312156120605761205f611e03565b5b5f61206d84828501611e2a565b91505092915050565b5f5ffd5b5f5ffd5b5f5ffd5b5f5f83601f84011261209757612096612076565b5b8235905067ffffffffffffffff8111156120b4576120b361207a565b5b6020830191508360208202830111156120d0576120cf61207e565b5b9250929050565b5f5f83601f8401126120ec576120eb612076565b5b8235905067ffffffffffffffff8111156121095761210861207a565b5b6020830191508360208202830111156121255761212461207e565b5b9250929050565b5f5f5f5f6040858703121561214457612143611e03565b5b5f85013567ffffffffffffffff81111561216157612160611e07565b5b61216d87828801612082565b9450945050602085013567ffffffffffffffff8111156121905761218f611e07565b5b61219c878288016120d7565b925092505092959194509250565b5f819050919050565b5f6121cd6121c86121c384611eb1565b6121aa565b611eb1565b9050919050565b5f6121de826121b3565b9050919050565b5f6121ef826121d4565b9050919050565b6121ff816121e5565b82525050565b5f6020820190506122185f8301846121f6565b92915050565b5f5f6040838503121561223457612233611e03565b5b5f61224185828601611f80565b925050602061225285828601611f80565b9150509250929050565b61226581611ed0565b82525050565b5f60208201905061227e5f83018461225c565b92915050565b5f6080820190506122975f830187611f36565b6122a46020830186611f36565b6122b16040830185611f36565b6122be6060830184611f36565b95945050505050565b6122d081611e3e565b82525050565b5f610100820190506122ea5f83018b611f36565b6122f7602083018a61225c565b6123046040830189612023565b6123116060830188611f36565b61231e6080830187611f36565b61232b60a0830186611f36565b61233860c0830185611f36565b61234560e08301846122c7565b9998505050505050505050565b5f5f5f6060848603121561236957612368611e03565b5b5f61237686828701611e2a565b935050602061238786828701611e2a565b925050604061239886828701611e2a565b9150509250925092565b5f6060820190506123b55f83018661225c565b6123c26020830185612023565b6123cf6040830184612023565b949350505050565b5f5f83601f8401126123ec576123eb612076565b5b8235905067ffffffffffffffff8111156124095761240861207a565b5b6020830191508360208202830111156124255761242461207e565b5b9250929050565b5f5f6020838503121561244257612441611e03565b5b5f83013567ffffffffffffffff81111561245f5761245e611e07565b5b61246b858286016123d7565b92509250509250929050565b5f82825260208201905092915050565b7f566f74696e6720706572696f64206f76657200000000000000000000000000005f82015250565b5f6124bb601283612477565b91506124c682612487565b602082019050919050565b5f6020820190508181035f8301526124e8816124af565b9050919050565b7f4e487b71000000000000000000000000000000000000000000000000000000005f52601160045260245ffd5b5f61252682611e0b565b915061253183611e0b565b9250828201905080821115612549576125486124ef565b5b92915050565b7f496e76616c6964207265626174652072617465000000000000000000000000005f82015250565b5f612583601383612477565b915061258e8261254f565b602082019050919050565b5f6020820190508181035f8301526125b081612577565b9050919050565b7f50726f706f73616c20616c7265616479206578697374730000000000000000005f82015250565b5f6125eb601783612477565b91506125f6826125b7565b602082019050919050565b5f6020820190508181035f830152612618816125df565b9050919050565b5f6080820190506126325f830187611f36565b61263f602083018661225c565b61264c6040830185611f36565b6126596060830184611f36565b95945050505050565b7f54696d65206c6f636b20616374697665000000000000000000000000000000005f82015250565b5f612696601083612477565b91506126a182612662565b602082019050919050565b5f6020820190508181035f8301526126c38161268a565b9050919050565b7f416c7265616479206578656375746564000000000000000000000000000000005f82015250565b5f6126fe601083612477565b9150612709826126ca565b602082019050919050565b5f6020820190508181035f83015261272b816126f2565b9050919050565b7f44414f2070726f706f73616c2072656a656374656400000000000000000000005f82015250565b5f612766601583612477565b915061277182612732565b602082019050919050565b5f6020820190508181035f8301526127938161275a565b9050919050565b5f6040820190506127ad5f830185611f36565b6127ba6020830184612023565b9392505050565b7f4d69736d61746368656420696e707574730000000000000000000000000000005f82015250565b5f6127f5601183612477565b9150612800826127c1565b602082019050919050565b5f6020820190508181035f830152612822816127e9565b9050919050565b7f4e487b71000000000000000000000000000000000000000000000000000000005f52603260045260245ffd5b7f566f74696e6720706572696f64206f76657220666f722070726f706f73616c005f82015250565b5f61288a601f83612477565b915061289582612856565b602082019050919050565b5f6020820190508181035f8301526128b78161287e565b9050919050565b5f602082840312156128d3576128d2611e03565b5b5f6128e084828501611e5f565b91505092915050565b7f496e73756666696369656e74207374616b656420746f6b656e730000000000005f82015250565b5f61291d601a83612477565b9150612928826128e9565b602082019050919050565b5f6020820190508181035f83015261294a81612911565b9050919050565b5f61295b82611e0b565b915061296683611e0b565b925082820390508181111561297e5761297d6124ef565b5b92915050565b5f6040820190506129975f83018561225c565b6129a46020830184611f36565b9392505050565b5f815190506129b981611e49565b92915050565b5f602082840312156129d4576129d3611e03565b5b5f6129e1848285016129ab565b91505092915050565b7f546f6b656e207472616e73666572206661696c656400000000000000000000005f82015250565b5f612a1e601583612477565b9150612a29826129ea565b602082019050919050565b5f6020820190508181035f830152612a4b81612a12565b9050919050565b5f81519050612a6081611e14565b92915050565b5f60208284031215612a7b57612a7a611e03565b5b5f612a8884828501612a52565b91505092915050565b7f466c617368206c6f616e206465746563746564000000000000000000000000005f82015250565b5f612ac5601383612477565b9150612ad082612a91565b602082019050919050565b5f6020820190508181035f830152612af281612ab9565b9050919050565b5f606082019050612b0c5f83018661225c565b612b19602083018561225c565b612b266040830184611f36565b949350505050565b5f612b3882611e0b565b9150612b4383611e0b565b9250828202612b5181611e0b565b91508282048414831517612b6857612b676124ef565b5b5092915050565b7f4e487b71000000000000000000000000000000000000000000000000000000005f52601260045260245ffd5b5f612ba682611e0b565b9150612bb183611e0b565b925082612bc157612bc0612b6f565b5b828204905092915050565b7f4e6f20746f6b656e7320617661696c61626c65000000000000000000000000005f82015250565b5f612c00601383612477565b9150612c0b82612bcc565b602082019050919050565b5f6020820190508181035f830152612c2d81612bf4565b9050919050565b7f4275726e207472616e73666572206661696c65640000000000000000000000005f82015250565b5f612c68601483612477565b9150612c7382612c34565b602082019050919050565b5f6020820190508181035f830152612c9581612c5c565b9050919050565b7f5472616465732061726520746f6f206672657175656e740000000000000000005f82015250565b5f612cd0601783612477565b9150612cdb82612c9c565b602082019050919050565b5f6020820190508181035f830152612cfd81612cc4565b9050919050565b7f506f74656e7469616c20776173682074726164696e67206465746563746564005f82015250565b5f612d38601f83612477565b9150612d4382612d04565b602082019050919050565b5f6020820190508181035f830152612d6581612d2c565b9050919050565b5f604082019050612d7f5f830185611f36565b612d8c6020830184611f36565b9392505050565b7f5265656e7472616e637947756172643a207265656e7472616e742063616c6c005f82015250565b5f612dc7601f83612477565b9150612dd282612d93565b602082019050919050565b5f6020820190508181035f830152612df481612dbb565b905091905056fea26469706673582212201c692970bcfde657ec77f5a9583e5da386d6ac7350cd000162e482da8e84a59a64736f6c634300081c0033",
					"opcodes": "PUSH1 0x80 PUSH1 0x40 MSTORE CALLVALUE DUP1 ISZERO PUSH2 0xF JUMPI PUSH0 PUSH0 REVERT JUMPDEST POP PUSH1 0x40 MLOAD PUSH2 0x3114 CODESIZE SUB DUP1 PUSH2 0x3114 DUP4 CODECOPY DUP2 DUP2 ADD PUSH1 0x40 MSTORE DUP2 ADD SWAP1 PUSH2 0x31 SWAP2 SWAP1 PUSH2 0x270 JUMP JUMPDEST CALLER PUSH0 PUSH20 0xFFFFFFFFFFFFFFFFFFFFFFFFFFFFFFFFFFFFFFFF AND DUP2 PUSH20 0xFFFFFFFFFFFFFFFFFFFFFFFFFFFFFFFFFFFFFFFF AND SUB PUSH2 0xA2 JUMPI PUSH0 PUSH1 0x40 MLOAD PUSH32 0x1E4FBDF700000000000000000000000000000000000000000000000000000000 DUP2 MSTORE PUSH1 0x4 ADD PUSH2 0x99 SWAP2 SWAP1 PUSH2 0x2BD JUMP JUMPDEST PUSH1 0x40 MLOAD DUP1 SWAP2 SUB SWAP1 REVERT JUMPDEST PUSH2 0xB1 DUP2 PUSH2 0x11B PUSH1 0x20 SHL PUSH1 0x20 SHR JUMP JUMPDEST POP PUSH1 0x1 DUP1 DUP2 SWAP1 SSTORE POP DUP2 PUSH1 0x2 PUSH0 PUSH2 0x100 EXP DUP2 SLOAD DUP2 PUSH20 0xFFFFFFFFFFFFFFFFFFFFFFFFFFFFFFFFFFFFFFFF MUL NOT AND SWAP1 DUP4 PUSH20 0xFFFFFFFFFFFFFFFFFFFFFFFFFFFFFFFFFFFFFFFF AND MUL OR SWAP1 SSTORE POP DUP1 PUSH1 0x2 PUSH1 0x14 PUSH2 0x100 EXP DUP2 SLOAD DUP2 PUSH1 0xFF MUL NOT AND SWAP1 DUP4 PUSH1 0xFF AND MUL OR SWAP1 SSTORE POP POP POP PUSH2 0x2D6 JUMP JUMPDEST PUSH0 PUSH0 PUSH0 SWAP1 SLOAD SWAP1 PUSH2 0x100 EXP SWAP1 DIV PUSH20 0xFFFFFFFFFFFFFFFFFFFFFFFFFFFFFFFFFFFFFFFF AND SWAP1 POP DUP2 PUSH0 PUSH0 PUSH2 0x100 EXP DUP2 SLOAD DUP2 PUSH20 0xFFFFFFFFFFFFFFFFFFFFFFFFFFFFFFFFFFFFFFFF MUL NOT AND SWAP1 DUP4 PUSH20 0xFFFFFFFFFFFFFFFFFFFFFFFFFFFFFFFFFFFFFFFF AND MUL OR SWAP1 SSTORE POP DUP2 PUSH20 0xFFFFFFFFFFFFFFFFFFFFFFFFFFFFFFFFFFFFFFFF AND DUP2 PUSH20 0xFFFFFFFFFFFFFFFFFFFFFFFFFFFFFFFFFFFFFFFF AND PUSH32 0x8BE0079C531659141344CD1FD0A4F28419497F9722A3DAAFE3B4186F6B6457E0 PUSH1 0x40 MLOAD PUSH1 0x40 MLOAD DUP1 SWAP2 SUB SWAP1 LOG3 POP POP JUMP JUMPDEST PUSH0 PUSH0 REVERT JUMPDEST PUSH0 PUSH20 0xFFFFFFFFFFFFFFFFFFFFFFFFFFFFFFFFFFFFFFFF DUP3 AND SWAP1 POP SWAP2 SWAP1 POP JUMP JUMPDEST PUSH0 PUSH2 0x209 DUP3 PUSH2 0x1E0 JUMP JUMPDEST SWAP1 POP SWAP2 SWAP1 POP JUMP JUMPDEST PUSH2 0x219 DUP2 PUSH2 0x1FF JUMP JUMPDEST DUP2 EQ PUSH2 0x223 JUMPI PUSH0 PUSH0 REVERT JUMPDEST POP JUMP JUMPDEST PUSH0 DUP2 MLOAD SWAP1 POP PUSH2 0x234 DUP2 PUSH2 0x210 JUMP JUMPDEST SWAP3 SWAP2 POP POP JUMP JUMPDEST PUSH0 PUSH1 0xFF DUP3 AND SWAP1 POP SWAP2 SWAP1 POP JUMP JUMPDEST PUSH2 0x24F DUP2 PUSH2 0x23A JUMP JUMPDEST DUP2 EQ PUSH2 0x259 JUMPI PUSH0 PUSH0 REVERT JUMPDEST POP JUMP JUMPDEST PUSH0 DUP2 MLOAD SWAP1 POP PUSH2 0x26A DUP2 PUSH2 0x246 JUMP JUMPDEST SWAP3 SWAP2 POP POP JUMP JUMPDEST PUSH0 PUSH0 PUSH1 0x40 DUP4 DUP6 SUB SLT ISZERO PUSH2 0x286 JUMPI PUSH2 0x285 PUSH2 0x1DC JUMP JUMPDEST JUMPDEST PUSH0 PUSH2 0x293 DUP6 DUP3 DUP7 ADD PUSH2 0x226 JUMP JUMPDEST SWAP3 POP POP PUSH1 0x20 PUSH2 0x2A4 DUP6 DUP3 DUP7 ADD PUSH2 0x25C JUMP JUMPDEST SWAP2 POP POP SWAP3 POP SWAP3 SWAP1 POP JUMP JUMPDEST PUSH2 0x2B7 DUP2 PUSH2 0x1FF JUMP JUMPDEST DUP3 MSTORE POP POP JUMP JUMPDEST PUSH0 PUSH1 0x20 DUP3 ADD SWAP1 POP PUSH2 0x2D0 PUSH0 DUP4 ADD DUP5 PUSH2 0x2AE JUMP JUMPDEST SWAP3 SWAP2 POP POP JUMP JUMPDEST PUSH2 0x2E31 DUP1 PUSH2 0x2E3 PUSH0 CODECOPY PUSH0 RETURN INVALID PUSH1 0x80 PUSH1 0x40 MSTORE CALLVALUE DUP1 ISZERO PUSH2 0xF JUMPI PUSH0 PUSH0 REVERT JUMPDEST POP PUSH1 0x4 CALLDATASIZE LT PUSH2 0x18C JUMPI PUSH0 CALLDATALOAD PUSH1 0xE0 SHR DUP1 PUSH4 0x7BB1CA19 GT PUSH2 0xDC JUMPI DUP1 PUSH4 0xA789B01F GT PUSH2 0x95 JUMPI DUP1 PUSH4 0xCDA3948F GT PUSH2 0x6F JUMPI DUP1 PUSH4 0xCDA3948F EQ PUSH2 0x462 JUMPI DUP1 PUSH4 0xEBF959E4 EQ PUSH2 0x46C JUMPI DUP1 PUSH4 0xF2FDE38B EQ PUSH2 0x488 JUMPI DUP1 PUSH4 0xFEB8B43B EQ PUSH2 0x4A4 JUMPI PUSH2 0x18C JUMP JUMPDEST DUP1 PUSH4 0xA789B01F EQ PUSH2 0x408 JUMPI DUP1 PUSH4 0xA9ED3D29 EQ PUSH2 0x438 JUMPI DUP1 PUSH4 0xC970E99F EQ PUSH2 0x458 JUMPI PUSH2 0x18C JUMP JUMPDEST DUP1 PUSH4 0x7BB1CA19 EQ PUSH2 0x316 JUMPI DUP1 PUSH4 0x8201B3F3 EQ PUSH2 0x346 JUMPI DUP1 PUSH4 0x821C0576 EQ PUSH2 0x376 JUMPI DUP1 PUSH4 0x8DA5CB5B EQ PUSH2 0x380 JUMPI DUP1 PUSH4 0x92A88FA2 EQ PUSH2 0x39E JUMPI DUP1 PUSH4 0xA43FDE3A EQ PUSH2 0x3D1 JUMPI PUSH2 0x18C JUMP JUMPDEST DUP1 PUSH4 0x552E2EDF GT PUSH2 0x149 JUMPI DUP1 PUSH4 0x608E4DD0 GT PUSH2 0x123 JUMPI DUP1 PUSH4 0x608E4DD0 EQ PUSH2 0x2A4 JUMPI DUP1 PUSH4 0x715018A6 EQ PUSH2 0x2C0 JUMPI DUP1 PUSH4 0x72BF1747 EQ PUSH2 0x2CA JUMPI DUP1 PUSH4 0x7547C7A3 EQ PUSH2 0x2FA JUMPI PUSH2 0x18C JUMP JUMPDEST DUP1 PUSH4 0x552E2EDF EQ PUSH2 0x24E JUMPI DUP1 PUSH4 0x5CC78FAF EQ PUSH2 0x26A JUMPI DUP1 PUSH4 0x5F292CD7 EQ PUSH2 0x288 JUMPI PUSH2 0x18C JUMP JUMPDEST DUP1 PUSH4 0x1B3E625 EQ PUSH2 0x190 JUMPI DUP1 PUSH4 0x3186EEF EQ PUSH2 0x1AC JUMPI DUP1 PUSH4 0xF573A73 EQ PUSH2 0x1DC JUMPI DUP1 PUSH4 0x1896B1AF EQ PUSH2 0x1F8 JUMPI DUP1 PUSH4 0x3FFCF5AB EQ PUSH2 0x214 JUMPI DUP1 PUSH4 0x46C3469E EQ PUSH2 0x232 JUMPI JUMPDEST PUSH0 PUSH0 REVERT JUMPDEST PUSH2 0x1AA PUSH1 0x4 DUP1 CALLDATASIZE SUB DUP2 ADD SWAP1 PUSH2 0x1A5 SWAP2 SWAP1 PUSH2 0x1E73 JUMP JUMPDEST PUSH2 0x4C0 JUMP JUMPDEST STOP JUMPDEST PUSH2 0x1C6 PUSH1 0x4 DUP1 CALLDATASIZE SUB DUP2 ADD SWAP1 PUSH2 0x1C1 SWAP2 SWAP1 PUSH2 0x1F0B JUMP JUMPDEST PUSH2 0x562 JUMP JUMPDEST PUSH1 0x40 MLOAD PUSH2 0x1D3 SWAP2 SWAP1 PUSH2 0x1F45 JUMP JUMPDEST PUSH1 0x40 MLOAD DUP1 SWAP2 SUB SWAP1 RETURN JUMPDEST PUSH2 0x1F6 PUSH1 0x4 DUP1 CALLDATASIZE SUB DUP2 ADD SWAP1 PUSH2 0x1F1 SWAP2 SWAP1 PUSH2 0x1F94 JUMP JUMPDEST PUSH2 0x577 JUMP JUMPDEST STOP JUMPDEST PUSH2 0x212 PUSH1 0x4 DUP1 CALLDATASIZE SUB DUP2 ADD SWAP1 PUSH2 0x20D SWAP2 SWAP1 PUSH2 0x1FBF JUMP JUMPDEST PUSH2 0x5F9 JUMP JUMPDEST STOP JUMPDEST PUSH2 0x21C PUSH2 0x7F2 JUMP JUMPDEST PUSH1 0x40 MLOAD PUSH2 0x229 SWAP2 SWAP1 PUSH2 0x2032 JUMP JUMPDEST PUSH1 0x40 MLOAD DUP1 SWAP2 SUB SWAP1 RETURN JUMPDEST PUSH2 0x24C PUSH1 0x4 DUP1 CALLDATASIZE SUB DUP2 ADD SWAP1 PUSH2 0x247 SWAP2 SWAP1 PUSH2 0x204B JUMP JUMPDEST PUSH2 0x805 JUMP JUMPDEST STOP JUMPDEST PUSH2 0x268 PUSH1 0x4 DUP1 CALLDATASIZE SUB DUP2 ADD SWAP1 PUSH2 0x263 SWAP2 SWAP1 PUSH2 0x212C JUMP JUMPDEST PUSH2 0x991 JUMP JUMPDEST STOP JUMPDEST PUSH2 0x272 PUSH2 0xADB JUMP JUMPDEST PUSH1 0x40 MLOAD PUSH2 0x27F SWAP2 SWAP1 PUSH2 0x2205 JUMP JUMPDEST PUSH1 0x40 MLOAD DUP1 SWAP2 SUB SWAP1 RETURN JUMPDEST PUSH2 0x2A2 PUSH1 0x4 DUP1 CALLDATASIZE SUB DUP2 ADD SWAP1 PUSH2 0x29D SWAP2 SWAP1 PUSH2 0x221E JUMP JUMPDEST PUSH2 0xB00 JUMP JUMPDEST STOP JUMPDEST PUSH2 0x2BE PUSH1 0x4 DUP1 CALLDATASIZE SUB DUP2 ADD SWAP1 PUSH2 0x2B9 SWAP2 SWAP1 PUSH2 0x204B JUMP JUMPDEST PUSH2 0xBCC JUMP JUMPDEST STOP JUMPDEST PUSH2 0x2C8 PUSH2 0xD94 JUMP JUMPDEST STOP JUMPDEST PUSH2 0x2E4 PUSH1 0x4 DUP1 CALLDATASIZE SUB DUP2 ADD SWAP1 PUSH2 0x2DF SWAP2 SWAP1 PUSH2 0x1F0B JUMP JUMPDEST PUSH2 0xDA7 JUMP JUMPDEST PUSH1 0x40 MLOAD PUSH2 0x2F1 SWAP2 SWAP1 PUSH2 0x2032 JUMP JUMPDEST PUSH1 0x40 MLOAD DUP1 SWAP2 SUB SWAP1 RETURN JUMPDEST PUSH2 0x314 PUSH1 0x4 DUP1 CALLDATASIZE SUB DUP2 ADD SWAP1 PUSH2 0x30F SWAP2 SWAP1 PUSH2 0x204B JUMP JUMPDEST PUSH2 0xEA0 JUMP JUMPDEST STOP JUMPDEST PUSH2 0x330 PUSH1 0x4 DUP1 CALLDATASIZE SUB DUP2 ADD SWAP1 PUSH2 0x32B SWAP2 SWAP1 PUSH2 0x1F0B JUMP JUMPDEST PUSH2 0x10D0 JUMP JUMPDEST PUSH1 0x40 MLOAD PUSH2 0x33D SWAP2 SWAP1 PUSH2 0x1F45 JUMP JUMPDEST PUSH1 0x40 MLOAD DUP1 SWAP2 SUB SWAP1 RETURN JUMPDEST PUSH2 0x360 PUSH1 0x4 DUP1 CALLDATASIZE SUB DUP2 ADD SWAP1 PUSH2 0x35B SWAP2 SWAP1 PUSH2 0x204B JUMP JUMPDEST PUSH2 0x10E5 JUMP JUMPDEST PUSH1 0x40 MLOAD PUSH2 0x36D SWAP2 SWAP1 PUSH2 0x2032 JUMP JUMPDEST PUSH1 0x40 MLOAD DUP1 SWAP2 SUB SWAP1 RETURN JUMPDEST PUSH2 0x37E PUSH2 0x112B JUMP JUMPDEST STOP JUMPDEST PUSH2 0x388 PUSH2 0x1295 JUMP JUMPDEST PUSH1 0x40 MLOAD PUSH2 0x395 SWAP2 SWAP1 PUSH2 0x226B JUMP JUMPDEST PUSH1 0x40 MLOAD DUP1 SWAP2 SUB SWAP1 RETURN JUMPDEST PUSH2 0x3B8 PUSH1 0x4 DUP1 CALLDATASIZE SUB DUP2 ADD SWAP1 PUSH2 0x3B3 SWAP2 SWAP1 PUSH2 0x1F0B JUMP JUMPDEST PUSH2 0x12BC JUMP JUMPDEST PUSH1 0x40 MLOAD PUSH2 0x3C8 SWAP5 SWAP4 SWAP3 SWAP2 SWAP1 PUSH2 0x2284 JUMP JUMPDEST PUSH1 0x40 MLOAD DUP1 SWAP2 SUB SWAP1 RETURN JUMPDEST PUSH2 0x3EB PUSH1 0x4 DUP1 CALLDATASIZE SUB DUP2 ADD SWAP1 PUSH2 0x3E6 SWAP2 SWAP1 PUSH2 0x204B JUMP JUMPDEST PUSH2 0x12E8 JUMP JUMPDEST PUSH1 0x40 MLOAD PUSH2 0x3FF SWAP9 SWAP8 SWAP7 SWAP6 SWAP5 SWAP4 SWAP3 SWAP2 SWAP1 PUSH2 0x22D6 JUMP JUMPDEST PUSH1 0x40 MLOAD DUP1 SWAP2 SUB SWAP1 RETURN JUMPDEST PUSH2 0x422 PUSH1 0x4 DUP1 CALLDATASIZE SUB DUP2 ADD SWAP1 PUSH2 0x41D SWAP2 SWAP1 PUSH2 0x2352 JUMP JUMPDEST PUSH2 0x1364 JUMP JUMPDEST PUSH1 0x40 MLOAD PUSH2 0x42F SWAP2 SWAP1 PUSH2 0x1F45 JUMP JUMPDEST PUSH1 0x40 MLOAD DUP1 SWAP2 SUB SWAP1 RETURN JUMPDEST PUSH2 0x440 PUSH2 0x13C9 JUMP JUMPDEST PUSH1 0x40 MLOAD PUSH2 0x44F SWAP4 SWAP3 SWAP2 SWAP1 PUSH2 0x23A2 JUMP JUMPDEST PUSH1 0x40 MLOAD DUP1 SWAP2 SUB SWAP1 RETURN JUMPDEST PUSH2 0x460 PUSH2 0x1417 JUMP JUMPDEST STOP JUMPDEST PUSH2 0x46A PUSH2 0x1633 JUMP JUMPDEST STOP JUMPDEST PUSH2 0x486 PUSH1 0x4 DUP1 CALLDATASIZE SUB DUP2 ADD SWAP1 PUSH2 0x481 SWAP2 SWAP1 PUSH2 0x242C JUMP JUMPDEST PUSH2 0x17BC JUMP JUMPDEST STOP JUMPDEST PUSH2 0x4A2 PUSH1 0x4 DUP1 CALLDATASIZE SUB DUP2 ADD SWAP1 PUSH2 0x49D SWAP2 SWAP1 PUSH2 0x1F0B JUMP JUMPDEST PUSH2 0x1991 JUMP JUMPDEST STOP JUMPDEST PUSH2 0x4BE PUSH1 0x4 DUP1 CALLDATASIZE SUB DUP2 ADD SWAP1 PUSH2 0x4B9 SWAP2 SWAP1 PUSH2 0x204B JUMP JUMPDEST PUSH2 0x1A15 JUMP JUMPDEST STOP JUMPDEST PUSH0 PUSH1 0x7 PUSH0 DUP5 DUP2 MSTORE PUSH1 0x20 ADD SWAP1 DUP2 MSTORE PUSH1 0x20 ADD PUSH0 KECCAK256 SWAP1 POP DUP1 PUSH1 0x4 ADD SLOAD TIMESTAMP GT ISZERO PUSH2 0x51B JUMPI PUSH1 0x40 MLOAD PUSH32 0x8C379A000000000000000000000000000000000000000000000000000000000 DUP2 MSTORE PUSH1 0x4 ADD PUSH2 0x512 SWAP1 PUSH2 0x24D1 JUMP JUMPDEST PUSH1 0x40 MLOAD DUP1 SWAP2 SUB SWAP1 REVERT JUMPDEST DUP2 ISZERO PUSH2 0x541 JUMPI PUSH1 0x1 DUP2 PUSH1 0x2 ADD PUSH0 DUP3 DUP3 SLOAD PUSH2 0x535 SWAP2 SWAP1 PUSH2 0x251C JUMP JUMPDEST SWAP3 POP POP DUP2 SWAP1 SSTORE POP PUSH2 0x55D JUMP JUMPDEST PUSH1 0x1 DUP2 PUSH1 0x3 ADD PUSH0 DUP3 DUP3 SLOAD PUSH2 0x555 SWAP2 SWAP1 PUSH2 0x251C JUMP JUMPDEST SWAP3 POP POP DUP2 SWAP1 SSTORE POP JUMPDEST POP POP POP JUMP JUMPDEST PUSH1 0x5 PUSH1 0x20 MSTORE DUP1 PUSH0 MSTORE PUSH1 0x40 PUSH0 KECCAK256 PUSH0 SWAP2 POP SWAP1 POP SLOAD DUP2 JUMP JUMPDEST PUSH2 0x57F PUSH2 0x1C5C JUMP JUMPDEST PUSH1 0x3 PUSH0 ADD PUSH1 0x15 SWAP1 SLOAD SWAP1 PUSH2 0x100 EXP SWAP1 DIV PUSH1 0xFF AND PUSH1 0xFF AND DUP2 PUSH1 0xFF AND GT ISZERO PUSH2 0x5D9 JUMPI PUSH1 0x40 MLOAD PUSH32 0x8C379A000000000000000000000000000000000000000000000000000000000 DUP2 MSTORE PUSH1 0x4 ADD PUSH2 0x5D0 SWAP1 PUSH2 0x2599 JUMP JUMPDEST PUSH1 0x40 MLOAD DUP1 SWAP2 SUB SWAP1 REVERT JUMPDEST DUP1 PUSH1 0x3 PUSH0 ADD PUSH1 0x14 PUSH2 0x100 EXP DUP2 SLOAD DUP2 PUSH1 0xFF MUL NOT AND SWAP1 DUP4 PUSH1 0xFF AND MUL OR SWAP1 SSTORE POP POP JUMP JUMPDEST PUSH0 PUSH1 0x7 PUSH0 DUP7 DUP2 MSTORE PUSH1 0x20 ADD SWAP1 DUP2 MSTORE PUSH1 0x20 ADD PUSH0 KECCAK256 PUSH0 ADD SLOAD EQ PUSH2 0x64E JUMPI PUSH1 0x40 MLOAD PUSH32 0x8C379A000000000000000000000000000000000000000000000000000000000 DUP2 MSTORE PUSH1 0x4 ADD PUSH2 0x645 SWAP1 PUSH2 0x2601 JUMP JUMPDEST PUSH1 0x40 MLOAD DUP1 SWAP2 SUB SWAP1 REVERT JUMPDEST PUSH1 0x40 MLOAD DUP1 PUSH2 0x100 ADD PUSH1 0x40 MSTORE DUP1 DUP6 DUP2 MSTORE PUSH1 0x20 ADD CALLER PUSH20 0xFFFFFFFFFFFFFFFFFFFFFFFFFFFFFFFFFFFFFFFF AND DUP2 MSTORE PUSH1 0x20 ADD DUP5 PUSH1 0xFF AND DUP2 MSTORE PUSH1 0x20 ADD PUSH0 DUP2 MSTORE PUSH1 0x20 ADD PUSH0 DUP2 MSTORE PUSH1 0x20 ADD DUP4 TIMESTAMP PUSH2 0x69D SWAP2 SWAP1 PUSH2 0x251C JUMP JUMPDEST DUP2 MSTORE PUSH1 0x20 ADD DUP3 DUP5 TIMESTAMP PUSH2 0x6AF SWAP2 SWAP1 PUSH2 0x251C JUMP JUMPDEST PUSH2 0x6B9 SWAP2 SWAP1 PUSH2 0x251C JUMP JUMPDEST DUP2 MSTORE PUSH1 0x20 ADD PUSH0 ISZERO ISZERO DUP2 MSTORE POP PUSH1 0x7 PUSH0 DUP7 DUP2 MSTORE PUSH1 0x20 ADD SWAP1 DUP2 MSTORE PUSH1 0x20 ADD PUSH0 KECCAK256 PUSH0 DUP3 ADD MLOAD DUP2 PUSH0 ADD SSTORE PUSH1 0x20 DUP3 ADD MLOAD DUP2 PUSH1 0x1 ADD PUSH0 PUSH2 0x100 EXP DUP2 SLOAD DUP2 PUSH20 0xFFFFFFFFFFFFFFFFFFFFFFFFFFFFFFFFFFFFFFFF MUL NOT AND SWAP1 DUP4 PUSH20 0xFFFFFFFFFFFFFFFFFFFFFFFFFFFFFFFFFFFFFFFF AND MUL OR SWAP1 SSTORE POP PUSH1 0x40 DUP3 ADD MLOAD DUP2 PUSH1 0x1 ADD PUSH1 0x14 PUSH2 0x100 EXP DUP2 SLOAD DUP2 PUSH1 0xFF MUL NOT AND SWAP1 DUP4 PUSH1 0xFF AND MUL OR SWAP1 SSTORE POP PUSH1 0x60 DUP3 ADD MLOAD DUP2 PUSH1 0x2 ADD SSTORE PUSH1 0x80 DUP3 ADD MLOAD DUP2 PUSH1 0x3 ADD SSTORE PUSH1 0xA0 DUP3 ADD MLOAD DUP2 PUSH1 0x4 ADD SSTORE PUSH1 0xC0 DUP3 ADD MLOAD DUP2 PUSH1 0x5 ADD SSTORE PUSH1 0xE0 DUP3 ADD MLOAD DUP2 PUSH1 0x6 ADD PUSH0 PUSH2 0x100 EXP DUP2 SLOAD DUP2 PUSH1 0xFF MUL NOT AND SWAP1 DUP4 ISZERO ISZERO MUL OR SWAP1 SSTORE POP SWAP1 POP POP PUSH32 0x87E85754EEF35E696416D1787D3ADB2684F8755D9052AAB6B6A4ACFF231F1105 DUP5 CALLER DUP5 TIMESTAMP PUSH2 0x7BD SWAP2 SWAP1 PUSH2 0x251C JUMP JUMPDEST DUP5 DUP7 TIMESTAMP PUSH2 0x7CA SWAP2 SWAP1 PUSH2 0x251C JUMP JUMPDEST PUSH2 0x7D4 SWAP2 SWAP1 PUSH2 0x251C JUMP JUMPDEST PUSH1 0x40 MLOAD PUSH2 0x7E4 SWAP5 SWAP4 SWAP3 SWAP2 SWAP1 PUSH2 0x261F JUMP JUMPDEST PUSH1 0x40 MLOAD DUP1 SWAP2 SUB SWAP1 LOG1 POP POP POP POP JUMP JUMPDEST PUSH1 0x2 PUSH1 0x14 SWAP1 SLOAD SWAP1 PUSH2 0x100 EXP SWAP1 DIV PUSH1 0xFF AND DUP2 JUMP JUMPDEST PUSH0 PUSH1 0x7 PUSH0 DUP4 DUP2 MSTORE PUSH1 0x20 ADD SWAP1 DUP2 MSTORE PUSH1 0x20 ADD PUSH0 KECCAK256 SWAP1 POP DUP1 PUSH1 0x5 ADD SLOAD TIMESTAMP LT ISZERO PUSH2 0x860 JUMPI PUSH1 0x40 MLOAD PUSH32 0x8C379A000000000000000000000000000000000000000000000000000000000 DUP2 MSTORE PUSH1 0x4 ADD PUSH2 0x857 SWAP1 PUSH2 0x26AC JUMP JUMPDEST PUSH1 0x40 MLOAD DUP1 SWAP2 SUB SWAP1 REVERT JUMPDEST DUP1 PUSH1 0x6 ADD PUSH0 SWAP1 SLOAD SWAP1 PUSH2 0x100 EXP SWAP1 DIV PUSH1 0xFF AND ISZERO PUSH2 0x8B1 JUMPI PUSH1 0x40 MLOAD PUSH32 0x8C379A000000000000000000000000000000000000000000000000000000000 DUP2 MSTORE PUSH1 0x4 ADD PUSH2 0x8A8 SWAP1 PUSH2 0x2714 JUMP JUMPDEST PUSH1 0x40 MLOAD DUP1 SWAP2 SUB SWAP1 REVERT JUMPDEST DUP1 PUSH1 0x3 ADD SLOAD DUP2 PUSH1 0x2 ADD SLOAD GT PUSH2 0x8FB JUMPI PUSH1 0x40 MLOAD PUSH32 0x8C379A000000000000000000000000000000000000000000000000000000000 DUP2 MSTORE PUSH1 0x4 ADD PUSH2 0x8F2 SWAP1 PUSH2 0x277C JUMP JUMPDEST PUSH1 0x40 MLOAD DUP1 SWAP2 SUB SWAP1 REVERT JUMPDEST DUP1 PUSH1 0x1 ADD PUSH1 0x14 SWAP1 SLOAD SWAP1 PUSH2 0x100 EXP SWAP1 DIV PUSH1 0xFF AND PUSH1 0x2 PUSH1 0x14 PUSH2 0x100 EXP DUP2 SLOAD DUP2 PUSH1 0xFF MUL NOT AND SWAP1 DUP4 PUSH1 0xFF AND MUL OR SWAP1 SSTORE POP PUSH1 0x1 DUP2 PUSH1 0x6 ADD PUSH0 PUSH2 0x100 EXP DUP2 SLOAD DUP2 PUSH1 0xFF MUL NOT AND SWAP1 DUP4 ISZERO ISZERO MUL OR SWAP1 SSTORE POP PUSH32 0x6E223D5F7773CBDB9521CE8494C05F833E1518EE33349CC811BF339633BC0DAB DUP3 DUP3 PUSH1 0x1 ADD PUSH1 0x14 SWAP1 SLOAD SWAP1 PUSH2 0x100 EXP SWAP1 DIV PUSH1 0xFF AND PUSH1 0x40 MLOAD PUSH2 0x985 SWAP3 SWAP2 SWAP1 PUSH2 0x279A JUMP JUMPDEST PUSH1 0x40 MLOAD DUP1 SWAP2 SUB SWAP1 LOG1 POP POP JUMP JUMPDEST DUP2 DUP2 SWAP1 POP DUP5 DUP5 SWAP1 POP EQ PUSH2 0x9D9 JUMPI PUSH1 0x40 MLOAD PUSH32 0x8C379A000000000000000000000000000000000000000000000000000000000 DUP2 MSTORE PUSH1 0x4 ADD PUSH2 0x9D0 SWAP1 PUSH2 0x280B JUMP JUMPDEST PUSH1 0x40 MLOAD DUP1 SWAP2 SUB SWAP1 REVERT JUMPDEST PUSH0 PUSH0 SWAP1 POP JUMPDEST DUP5 DUP5 SWAP1 POP DUP2 LT ISZERO PUSH2 0xAD4 JUMPI PUSH0 PUSH1 0x7 PUSH0 DUP8 DUP8 DUP6 DUP2 DUP2 LT PUSH2 0xA00 JUMPI PUSH2 0x9FF PUSH2 0x2829 JUMP JUMPDEST JUMPDEST SWAP1 POP PUSH1 0x20 MUL ADD CALLDATALOAD DUP2 MSTORE PUSH1 0x20 ADD SWAP1 DUP2 MSTORE PUSH1 0x20 ADD PUSH0 KECCAK256 SWAP1 POP DUP1 PUSH1 0x4 ADD SLOAD TIMESTAMP GT ISZERO PUSH2 0xA5D JUMPI PUSH1 0x40 MLOAD PUSH32 0x8C379A000000000000000000000000000000000000000000000000000000000 DUP2 MSTORE PUSH1 0x4 ADD PUSH2 0xA54 SWAP1 PUSH2 0x28A0 JUMP JUMPDEST PUSH1 0x40 MLOAD DUP1 SWAP2 SUB SWAP1 REVERT JUMPDEST DUP4 DUP4 DUP4 DUP2 DUP2 LT PUSH2 0xA70 JUMPI PUSH2 0xA6F PUSH2 0x2829 JUMP JUMPDEST JUMPDEST SWAP1 POP PUSH1 0x20 MUL ADD PUSH1 0x20 DUP2 ADD SWAP1 PUSH2 0xA85 SWAP2 SWAP1 PUSH2 0x28BE JUMP JUMPDEST ISZERO PUSH2 0xAAA JUMPI PUSH1 0x1 DUP2 PUSH1 0x2 ADD PUSH0 DUP3 DUP3 SLOAD PUSH2 0xA9E SWAP2 SWAP1 PUSH2 0x251C JUMP JUMPDEST SWAP3 POP POP DUP2 SWAP1 SSTORE POP PUSH2 0xAC6 JUMP JUMPDEST PUSH1 0x1 DUP2 PUSH1 0x3 ADD PUSH0 DUP3 DUP3 SLOAD PUSH2 0xABE SWAP2 SWAP1 PUSH2 0x251C JUMP JUMPDEST SWAP3 POP POP DUP2 SWAP1 SSTORE POP JUMPDEST POP DUP1 DUP1 PUSH1 0x1 ADD SWAP2 POP POP PUSH2 0x9DE JUMP JUMPDEST POP POP POP POP POP JUMP JUMPDEST PUSH1 0x2 PUSH0 SWAP1 SLOAD SWAP1 PUSH2 0x100 EXP SWAP1 DIV PUSH20 0xFFFFFFFFFFFFFFFFFFFFFFFFFFFFFFFFFFFFFFFF AND DUP2 JUMP JUMPDEST PUSH2 0xB08 PUSH2 0x1C5C JUMP JUMPDEST PUSH1 0x40 MLOAD DUP1 PUSH1 0x60 ADD PUSH1 0x40 MSTORE DUP1 CALLER PUSH20 0xFFFFFFFFFFFFFFFFFFFFFFFFFFFFFFFFFFFFFFFF AND DUP2 MSTORE PUSH1 0x20 ADD DUP4 PUSH1 0xFF AND DUP2 MSTORE PUSH1 0x20 ADD DUP3 PUSH1 0xFF AND DUP2 MSTORE POP PUSH1 0x3 PUSH0 DUP3 ADD MLOAD DUP2 PUSH0 ADD PUSH0 PUSH2 0x100 EXP DUP2 SLOAD DUP2 PUSH20 0xFFFFFFFFFFFFFFFFFFFFFFFFFFFFFFFFFFFFFFFF MUL NOT AND SWAP1 DUP4 PUSH20 0xFFFFFFFFFFFFFFFFFFFFFFFFFFFFFFFFFFFFFFFF AND MUL OR SWAP1 SSTORE POP PUSH1 0x20 DUP3 ADD MLOAD DUP2 PUSH0 ADD PUSH1 0x14 PUSH2 0x100 EXP DUP2 SLOAD DUP2 PUSH1 0xFF MUL NOT AND SWAP1 DUP4 PUSH1 0xFF AND MUL OR SWAP1 SSTORE POP PUSH1 0x40 DUP3 ADD MLOAD DUP2 PUSH0 ADD PUSH1 0x15 PUSH2 0x100 EXP DUP2 SLOAD DUP2 PUSH1 0xFF MUL NOT AND SWAP1 DUP4 PUSH1 0xFF AND MUL OR SWAP1 SSTORE POP SWAP1 POP POP POP POP JUMP JUMPDEST PUSH2 0xBD4 PUSH2 0x1CE3 JUMP JUMPDEST PUSH0 PUSH1 0x4 PUSH0 CALLER PUSH20 0xFFFFFFFFFFFFFFFFFFFFFFFFFFFFFFFFFFFFFFFF AND PUSH20 0xFFFFFFFFFFFFFFFFFFFFFFFFFFFFFFFFFFFFFFFF AND DUP2 MSTORE PUSH1 0x20 ADD SWAP1 DUP2 MSTORE PUSH1 0x20 ADD PUSH0 KECCAK256 SWAP1 POP DUP2 DUP2 PUSH1 0x2 ADD SLOAD LT ISZERO PUSH2 0xC5B JUMPI PUSH1 0x40 MLOAD PUSH32 0x8C379A000000000000000000000000000000000000000000000000000000000 DUP2 MSTORE PUSH1 0x4 ADD PUSH2 0xC52 SWAP1 PUSH2 0x2933 JUMP JUMPDEST PUSH1 0x40 MLOAD DUP1 SWAP2 SUB SWAP1 REVERT JUMPDEST PUSH0 PUSH2 0xC6B DUP3 PUSH1 0x3 ADD SLOAD TIMESTAMP DUP6 PUSH2 0x1364 JUMP JUMPDEST SWAP1 POP PUSH0 DUP2 DUP5 PUSH2 0xC7A SWAP2 SWAP1 PUSH2 0x2951 JUMP JUMPDEST SWAP1 POP DUP4 DUP4 PUSH1 0x2 ADD PUSH0 DUP3 DUP3 SLOAD PUSH2 0xC8F SWAP2 SWAP1 PUSH2 0x2951 JUMP JUMPDEST SWAP3 POP POP DUP2 SWAP1 SSTORE POP PUSH0 DUP4 PUSH1 0x2 ADD SLOAD SUB PUSH2 0xCAB JUMPI PUSH0 DUP4 PUSH1 0x3 ADD DUP2 SWAP1 SSTORE POP JUMPDEST PUSH1 0x2 PUSH0 SWAP1 SLOAD SWAP1 PUSH2 0x100 EXP SWAP1 DIV PUSH20 0xFFFFFFFFFFFFFFFFFFFFFFFFFFFFFFFFFFFFFFFF AND PUSH20 0xFFFFFFFFFFFFFFFFFFFFFFFFFFFFFFFFFFFFFFFF AND PUSH4 0xA9059CBB CALLER DUP4 PUSH1 0x40 MLOAD DUP4 PUSH4 0xFFFFFFFF AND PUSH1 0xE0 SHL DUP2 MSTORE PUSH1 0x4 ADD PUSH2 0xD07 SWAP3 SWAP2 SWAP1 PUSH2 0x2984 JUMP JUMPDEST PUSH1 0x20 PUSH1 0x40 MLOAD DUP1 DUP4 SUB DUP2 PUSH0 DUP8 GAS CALL ISZERO DUP1 ISZERO PUSH2 0xD23 JUMPI RETURNDATASIZE PUSH0 PUSH0 RETURNDATACOPY RETURNDATASIZE PUSH0 REVERT JUMPDEST POP POP POP POP PUSH1 0x40 MLOAD RETURNDATASIZE PUSH1 0x1F NOT PUSH1 0x1F DUP3 ADD AND DUP3 ADD DUP1 PUSH1 0x40 MSTORE POP DUP2 ADD SWAP1 PUSH2 0xD47 SWAP2 SWAP1 PUSH2 0x29BF JUMP JUMPDEST PUSH2 0xD86 JUMPI PUSH1 0x40 MLOAD PUSH32 0x8C379A000000000000000000000000000000000000000000000000000000000 DUP2 MSTORE PUSH1 0x4 ADD PUSH2 0xD7D SWAP1 PUSH2 0x2A34 JUMP JUMPDEST PUSH1 0x40 MLOAD DUP1 SWAP2 SUB SWAP1 REVERT JUMPDEST POP POP POP PUSH2 0xD91 PUSH2 0x1D32 JUMP JUMPDEST POP JUMP JUMPDEST PUSH2 0xD9C PUSH2 0x1C5C JUMP JUMPDEST PUSH2 0xDA5 PUSH0 PUSH2 0x1D3B JUMP JUMPDEST JUMP JUMPDEST PUSH0 PUSH0 PUSH1 0x2 PUSH0 SWAP1 SLOAD SWAP1 PUSH2 0x100 EXP SWAP1 DIV PUSH20 0xFFFFFFFFFFFFFFFFFFFFFFFFFFFFFFFFFFFFFFFF AND PUSH20 0xFFFFFFFFFFFFFFFFFFFFFFFFFFFFFFFFFFFFFFFF AND PUSH4 0x70A08231 DUP5 PUSH1 0x40 MLOAD DUP3 PUSH4 0xFFFFFFFF AND PUSH1 0xE0 SHL DUP2 MSTORE PUSH1 0x4 ADD PUSH2 0xE03 SWAP2 SWAP1 PUSH2 0x226B JUMP JUMPDEST PUSH1 0x20 PUSH1 0x40 MLOAD DUP1 DUP4 SUB DUP2 DUP7 GAS STATICCALL ISZERO DUP1 ISZERO PUSH2 0xE1E JUMPI RETURNDATASIZE PUSH0 PUSH0 RETURNDATACOPY RETURNDATASIZE PUSH0 REVERT JUMPDEST POP POP POP POP PUSH1 0x40 MLOAD RETURNDATASIZE PUSH1 0x1F NOT PUSH1 0x1F DUP3 ADD AND DUP3 ADD DUP1 PUSH1 0x40 MSTORE POP DUP2 ADD SWAP1 PUSH2 0xE42 SWAP2 SWAP1 PUSH2 0x2A66 JUMP JUMPDEST SWAP1 POP PUSH10 0xD3C21BCECCEDA1000000 DUP2 LT PUSH2 0xE5F JUMPI PUSH1 0x1 SWAP2 POP POP PUSH2 0xE9B JUMP JUMPDEST PUSH10 0x69E10DE76676D0800000 DUP2 LT PUSH2 0xE7A JUMPI PUSH1 0x2 SWAP2 POP POP PUSH2 0xE9B JUMP JUMPDEST PUSH10 0x152D02C7E14AF6800000 DUP2 LT PUSH2 0xE95 JUMPI PUSH1 0x3 SWAP2 POP POP PUSH2 0xE9B JUMP JUMPDEST PUSH1 0x5 SWAP2 POP POP JUMPDEST SWAP2 SWAP1 POP JUMP JUMPDEST PUSH2 0xEA8 PUSH2 0x1CE3 JUMP JUMPDEST PUSH3 0x15180 PUSH1 0x6 PUSH0 CALLER PUSH20 0xFFFFFFFFFFFFFFFFFFFFFFFFFFFFFFFFFFFFFFFF AND PUSH20 0xFFFFFFFFFFFFFFFFFFFFFFFFFFFFFFFFFFFFFFFF AND DUP2 MSTORE PUSH1 0x20 ADD SWAP1 DUP2 MSTORE PUSH1 0x20 ADD PUSH0 KECCAK256 SLOAD TIMESTAMP PUSH2 0xEF5 SWAP2 SWAP1 PUSH2 0x2951 JUMP JUMPDEST LT ISZERO PUSH2 0xF36 JUMPI PUSH1 0x40 MLOAD PUSH32 0x8C379A000000000000000000000000000000000000000000000000000000000 DUP2 MSTORE PUSH1 0x4 ADD PUSH2 0xF2D SWAP1 PUSH2 0x2ADB JUMP JUMPDEST PUSH1 0x40 MLOAD DUP1 SWAP2 SUB SWAP1 REVERT JUMPDEST PUSH1 0x2 PUSH0 SWAP1 SLOAD SWAP1 PUSH2 0x100 EXP SWAP1 DIV PUSH20 0xFFFFFFFFFFFFFFFFFFFFFFFFFFFFFFFFFFFFFFFF AND PUSH20 0xFFFFFFFFFFFFFFFFFFFFFFFFFFFFFFFFFFFFFFFF AND PUSH4 0x23B872DD CALLER ADDRESS DUP5 PUSH1 0x40 MLOAD DUP5 PUSH4 0xFFFFFFFF AND PUSH1 0xE0 SHL DUP2 MSTORE PUSH1 0x4 ADD PUSH2 0xF94 SWAP4 SWAP3 SWAP2 SWAP1 PUSH2 0x2AF9 JUMP JUMPDEST PUSH1 0x20 PUSH1 0x40 MLOAD DUP1 DUP4 SUB DUP2 PUSH0 DUP8 GAS CALL ISZERO DUP1 ISZERO PUSH2 0xFB0 JUMPI RETURNDATASIZE PUSH0 PUSH0 RETURNDATACOPY RETURNDATASIZE PUSH0 REVERT JUMPDEST POP POP POP POP PUSH1 0x40 MLOAD RETURNDATASIZE PUSH1 0x1F NOT PUSH1 0x1F DUP3 ADD AND DUP3 ADD DUP1 PUSH1 0x40 MSTORE POP DUP2 ADD SWAP1 PUSH2 0xFD4 SWAP2 SWAP1 PUSH2 0x29BF JUMP JUMPDEST PUSH2 0x1013 JUMPI PUSH1 0x40 MLOAD PUSH32 0x8C379A000000000000000000000000000000000000000000000000000000000 DUP2 MSTORE PUSH1 0x4 ADD PUSH2 0x100A SWAP1 PUSH2 0x2A34 JUMP JUMPDEST PUSH1 0x40 MLOAD DUP1 SWAP2 SUB SWAP1 REVERT JUMPDEST PUSH0 PUSH1 0x4 PUSH0 CALLER PUSH20 0xFFFFFFFFFFFFFFFFFFFFFFFFFFFFFFFFFFFFFFFF AND PUSH20 0xFFFFFFFFFFFFFFFFFFFFFFFFFFFFFFFFFFFFFFFF AND DUP2 MSTORE PUSH1 0x20 ADD SWAP1 DUP2 MSTORE PUSH1 0x20 ADD PUSH0 KECCAK256 SWAP1 POP DUP2 DUP2 PUSH1 0x2 ADD PUSH0 DUP3 DUP3 SLOAD PUSH2 0x1066 SWAP2 SWAP1 PUSH2 0x251C JUMP JUMPDEST SWAP3 POP POP DUP2 SWAP1 SSTORE POP PUSH0 DUP2 PUSH1 0x3 ADD SLOAD SUB PUSH2 0x1082 JUMPI TIMESTAMP DUP2 PUSH1 0x3 ADD DUP2 SWAP1 SSTORE POP JUMPDEST TIMESTAMP PUSH1 0x6 PUSH0 CALLER PUSH20 0xFFFFFFFFFFFFFFFFFFFFFFFFFFFFFFFFFFFFFFFF AND PUSH20 0xFFFFFFFFFFFFFFFFFFFFFFFFFFFFFFFFFFFFFFFF AND DUP2 MSTORE PUSH1 0x20 ADD SWAP1 DUP2 MSTORE PUSH1 0x20 ADD PUSH0 KECCAK256 DUP2 SWAP1 SSTORE POP POP PUSH2 0x10CD PUSH2 0x1D32 JUMP JUMPDEST POP JUMP JUMPDEST PUSH1 0x6 PUSH1 0x20 MSTORE DUP1 PUSH0 MSTORE PUSH1 0x40 PUSH0 KECCAK256 PUSH0 SWAP2 POP SWAP1 POP SLOAD DUP2 JUMP JUMPDEST PUSH0 PUSH4 0x5F5E100 DUP3 LT PUSH2 0x10FA JUMPI PUSH1 0x5 SWAP1 POP PUSH2 0x1126 JUMP JUMPDEST PUSH4 0x2FAF080 DUP3 LT PUSH2 0x110E JUMPI PUSH1 0x3 SWAP1 POP PUSH2 0x1126 JUMP JUMPDEST PUSH3 0x989680 DUP3 LT PUSH2 0x1121 JUMPI PUSH1 0x2 SWAP1 POP PUSH2 0x1126 JUMP JUMPDEST PUSH1 0x1 SWAP1 POP JUMPDEST SWAP2 SWAP1 POP JUMP JUMPDEST PUSH2 0x1133 PUSH2 0x1CE3 JUMP JUMPDEST PUSH0 PUSH1 0x4 PUSH0 CALLER PUSH20 0xFFFFFFFFFFFFFFFFFFFFFFFFFFFFFFFFFFFFFFFF AND PUSH20 0xFFFFFFFFFFFFFFFFFFFFFFFFFFFFFFFFFFFFFFFF AND DUP2 MSTORE PUSH1 0x20 ADD SWAP1 DUP2 MSTORE PUSH1 0x20 ADD PUSH0 KECCAK256 SWAP1 POP PUSH0 PUSH2 0x3E8 PUSH1 0x3 PUSH0 ADD PUSH1 0x14 SWAP1 SLOAD SWAP1 PUSH2 0x100 EXP SWAP1 DIV PUSH1 0xFF AND PUSH1 0xFF AND DUP4 PUSH0 ADD SLOAD PUSH2 0x119A SWAP2 SWAP1 PUSH2 0x2B2E JUMP JUMPDEST PUSH2 0x11A4 SWAP2 SWAP1 PUSH2 0x2B9C JUMP JUMPDEST SWAP1 POP PUSH0 PUSH2 0x11B3 DUP4 PUSH0 ADD SLOAD PUSH2 0x10E5 JUMP JUMPDEST SWAP1 POP PUSH0 DUP2 PUSH1 0xFF AND DUP4 PUSH2 0x11C5 SWAP2 SWAP1 PUSH2 0x2B2E JUMP JUMPDEST SWAP1 POP PUSH0 DUP5 PUSH0 ADD DUP2 SWAP1 SSTORE POP PUSH1 0x2 PUSH0 SWAP1 SLOAD SWAP1 PUSH2 0x100 EXP SWAP1 DIV PUSH20 0xFFFFFFFFFFFFFFFFFFFFFFFFFFFFFFFFFFFFFFFF AND PUSH20 0xFFFFFFFFFFFFFFFFFFFFFFFFFFFFFFFFFFFFFFFF AND PUSH4 0x40C10F19 ADDRESS DUP4 PUSH1 0x40 MLOAD DUP4 PUSH4 0xFFFFFFFF AND PUSH1 0xE0 SHL DUP2 MSTORE PUSH1 0x4 ADD PUSH2 0x122B SWAP3 SWAP2 SWAP1 PUSH2 0x2984 JUMP JUMPDEST PUSH0 PUSH1 0x40 MLOAD DUP1 DUP4 SUB DUP2 PUSH0 DUP8 DUP1 EXTCODESIZE ISZERO DUP1 ISZERO PUSH2 0x1242 JUMPI PUSH0 PUSH0 REVERT JUMPDEST POP GAS CALL ISZERO DUP1 ISZERO PUSH2 0x1254 JUMPI RETURNDATASIZE PUSH0 PUSH0 RETURNDATACOPY RETURNDATASIZE PUSH0 REVERT JUMPDEST POP POP POP POP DUP1 DUP5 PUSH1 0x2 ADD PUSH0 DUP3 DUP3 SLOAD PUSH2 0x126B SWAP2 SWAP1 PUSH2 0x251C JUMP JUMPDEST SWAP3 POP POP DUP2 SWAP1 SSTORE POP PUSH0 DUP5 PUSH1 0x3 ADD SLOAD SUB PUSH2 0x1287 JUMPI TIMESTAMP DUP5 PUSH1 0x3 ADD DUP2 SWAP1 SSTORE POP JUMPDEST POP POP POP POP PUSH2 0x1293 PUSH2 0x1D32 JUMP JUMPDEST JUMP JUMPDEST PUSH0 PUSH0 PUSH0 SWAP1 SLOAD SWAP1 PUSH2 0x100 EXP SWAP1 DIV PUSH20 0xFFFFFFFFFFFFFFFFFFFFFFFFFFFFFFFFFFFFFFFF AND SWAP1 POP SWAP1 JUMP JUMPDEST PUSH1 0x4 PUSH1 0x20 MSTORE DUP1 PUSH0 MSTORE PUSH1 0x40 PUSH0 KECCAK256 PUSH0 SWAP2 POP SWAP1 POP DUP1 PUSH0 ADD SLOAD SWAP1 DUP1 PUSH1 0x1 ADD SLOAD SWAP1 DUP1 PUSH1 0x2 ADD SLOAD SWAP1 DUP1 PUSH1 0x3 ADD SLOAD SWAP1 POP DUP5 JUMP JUMPDEST PUSH1 0x7 PUSH1 0x20 MSTORE DUP1 PUSH0 MSTORE PUSH1 0x40 PUSH0 KECCAK256 PUSH0 SWAP2 POP SWAP1 POP DUP1 PUSH0 ADD SLOAD SWAP1 DUP1 PUSH1 0x1 ADD PUSH0 SWAP1 SLOAD SWAP1 PUSH2 0x100 EXP SWAP1 DIV PUSH20 0xFFFFFFFFFFFFFFFFFFFFFFFFFFFFFFFFFFFFFFFF AND SWAP1 DUP1 PUSH1 0x1 ADD PUSH1 0x14 SWAP1 SLOAD SWAP1 PUSH2 0x100 EXP SWAP1 DIV PUSH1 0xFF AND SWAP1 DUP1 PUSH1 0x2 ADD SLOAD SWAP1 DUP1 PUSH1 0x3 ADD SLOAD SWAP1 DUP1 PUSH1 0x4 ADD SLOAD SWAP1 DUP1 PUSH1 0x5 ADD SLOAD SWAP1 DUP1 PUSH1 0x6 ADD PUSH0 SWAP1 SLOAD SWAP1 PUSH2 0x100 EXP SWAP1 DIV PUSH1 0xFF AND SWAP1 POP DUP9 JUMP JUMPDEST PUSH0 PUSH0 DUP5 DUP5 PUSH2 0x1372 SWAP2 SWAP1 PUSH2 0x2951 JUMP JUMPDEST SWAP1 POP PUSH0 PUSH3 0x93A80 DUP3 LT ISZERO PUSH2 0x1389 JUMPI PUSH1 0xA SWAP1 POP PUSH2 0x13A3 JUMP JUMPDEST PUSH3 0x127500 DUP3 LT ISZERO PUSH2 0x139D JUMPI PUSH1 0x5 SWAP1 POP PUSH2 0x13A2 JUMP JUMPDEST PUSH1 0x2 SWAP1 POP JUMPDEST JUMPDEST PUSH1 0x64 DUP2 PUSH1 0xFF AND DUP6 PUSH2 0x13B4 SWAP2 SWAP1 PUSH2 0x2B2E JUMP JUMPDEST PUSH2 0x13BE SWAP2 SWAP1 PUSH2 0x2B9C JUMP JUMPDEST SWAP3 POP POP POP SWAP4 SWAP3 POP POP POP JUMP JUMPDEST PUSH1 0x3 DUP1 PUSH0 ADD PUSH0 SWAP1 SLOAD SWAP1 PUSH2 0x100 EXP SWAP1 DIV PUSH20 0xFFFFFFFFFFFFFFFFFFFFFFFFFFFFFFFFFFFFFFFF AND SWAP1 DUP1 PUSH0 ADD PUSH1 0x14 SWAP1 SLOAD SWAP1 PUSH2 0x100 EXP SWAP1 DIV PUSH1 0xFF AND SWAP1 DUP1 PUSH0 ADD PUSH1 0x15 SWAP1 SLOAD SWAP1 PUSH2 0x100 EXP SWAP1 DIV PUSH1 0xFF AND SWAP1 POP DUP4 JUMP JUMPDEST PUSH2 0x141F PUSH2 0x1C5C JUMP JUMPDEST PUSH2 0x1427 PUSH2 0x1CE3 JUMP JUMPDEST PUSH0 PUSH1 0x2 PUSH0 SWAP1 SLOAD SWAP1 PUSH2 0x100 EXP SWAP1 DIV PUSH20 0xFFFFFFFFFFFFFFFFFFFFFFFFFFFFFFFFFFFFFFFF AND PUSH20 0xFFFFFFFFFFFFFFFFFFFFFFFFFFFFFFFFFFFFFFFF AND PUSH4 0x70A08231 ADDRESS PUSH1 0x40 MLOAD DUP3 PUSH4 0xFFFFFFFF AND PUSH1 0xE0 SHL DUP2 MSTORE PUSH1 0x4 ADD PUSH2 0x1482 SWAP2 SWAP1 PUSH2 0x226B JUMP JUMPDEST PUSH1 0x20 PUSH1 0x40 MLOAD DUP1 DUP4 SUB DUP2 DUP7 GAS STATICCALL ISZERO DUP1 ISZERO PUSH2 0x149D JUMPI RETURNDATASIZE PUSH0 PUSH0 RETURNDATACOPY RETURNDATASIZE PUSH0 REVERT JUMPDEST POP POP POP POP PUSH1 0x40 MLOAD RETURNDATASIZE PUSH1 0x1F NOT PUSH1 0x1F DUP3 ADD AND DUP3 ADD DUP1 PUSH1 0x40 MSTORE POP DUP2 ADD SWAP1 PUSH2 0x14C1 SWAP2 SWAP1 PUSH2 0x2A66 JUMP JUMPDEST SWAP1 POP PUSH0 DUP2 GT PUSH2 0x1505 JUMPI PUSH1 0x40 MLOAD PUSH32 0x8C379A000000000000000000000000000000000000000000000000000000000 DUP2 MSTORE PUSH1 0x4 ADD PUSH2 0x14FC SWAP1 PUSH2 0x2C16 JUMP JUMPDEST PUSH1 0x40 MLOAD DUP1 SWAP2 SUB SWAP1 REVERT JUMPDEST PUSH0 PUSH1 0xA DUP3 PUSH2 0x1513 SWAP2 SWAP1 PUSH2 0x2B9C JUMP JUMPDEST SWAP1 POP PUSH1 0x2 PUSH0 SWAP1 SLOAD SWAP1 PUSH2 0x100 EXP SWAP1 DIV PUSH20 0xFFFFFFFFFFFFFFFFFFFFFFFFFFFFFFFFFFFFFFFF AND PUSH20 0xFFFFFFFFFFFFFFFFFFFFFFFFFFFFFFFFFFFFFFFF AND PUSH4 0xA9059CBB PUSH0 DUP4 PUSH1 0x40 MLOAD DUP4 PUSH4 0xFFFFFFFF AND PUSH1 0xE0 SHL DUP2 MSTORE PUSH1 0x4 ADD PUSH2 0x1571 SWAP3 SWAP2 SWAP1 PUSH2 0x2984 JUMP JUMPDEST PUSH1 0x20 PUSH1 0x40 MLOAD DUP1 DUP4 SUB DUP2 PUSH0 DUP8 GAS CALL ISZERO DUP1 ISZERO PUSH2 0x158D JUMPI RETURNDATASIZE PUSH0 PUSH0 RETURNDATACOPY RETURNDATASIZE PUSH0 REVERT JUMPDEST POP POP POP POP PUSH1 0x40 MLOAD RETURNDATASIZE PUSH1 0x1F NOT PUSH1 0x1F DUP3 ADD AND DUP3 ADD DUP1 PUSH1 0x40 MSTORE POP DUP2 ADD SWAP1 PUSH2 0x15B1 SWAP2 SWAP1 PUSH2 0x29BF JUMP JUMPDEST PUSH2 0x15F0 JUMPI PUSH1 0x40 MLOAD PUSH32 0x8C379A000000000000000000000000000000000000000000000000000000000 DUP2 MSTORE PUSH1 0x4 ADD PUSH2 0x15E7 SWAP1 PUSH2 0x2C7E JUMP JUMPDEST PUSH1 0x40 MLOAD DUP1 SWAP2 SUB SWAP1 REVERT JUMPDEST PUSH32 0x6EF4855B666DCC7884561072E4358B28DFE01FEB1B7F4DCEBC00E62D50394AC7 DUP2 PUSH1 0x40 MLOAD PUSH2 0x161F SWAP2 SWAP1 PUSH2 0x1F45 JUMP JUMPDEST PUSH1 0x40 MLOAD DUP1 SWAP2 SUB SWAP1 LOG1 POP POP PUSH2 0x1631 PUSH2 0x1D32 JUMP JUMPDEST JUMP JUMPDEST PUSH2 0x163B PUSH2 0x1CE3 JUMP JUMPDEST PUSH0 PUSH1 0x4 PUSH0 CALLER PUSH20 0xFFFFFFFFFFFFFFFFFFFFFFFFFFFFFFFFFFFFFFFF AND PUSH20 0xFFFFFFFFFFFFFFFFFFFFFFFFFFFFFFFFFFFFFFFF AND DUP2 MSTORE PUSH1 0x20 ADD SWAP1 DUP2 MSTORE PUSH1 0x20 ADD PUSH0 KECCAK256 SWAP1 POP PUSH0 PUSH2 0x3E8 PUSH1 0x3 PUSH0 ADD PUSH1 0x14 SWAP1 SLOAD SWAP1 PUSH2 0x100 EXP SWAP1 DIV PUSH1 0xFF AND PUSH1 0xFF AND DUP4 PUSH0 ADD SLOAD PUSH2 0x16A2 SWAP2 SWAP1 PUSH2 0x2B2E JUMP JUMPDEST PUSH2 0x16AC SWAP2 SWAP1 PUSH2 0x2B9C JUMP JUMPDEST SWAP1 POP PUSH0 PUSH2 0x16BB DUP4 PUSH0 ADD SLOAD PUSH2 0x10E5 JUMP JUMPDEST SWAP1 POP PUSH0 DUP2 PUSH1 0xFF AND DUP4 PUSH2 0x16CD SWAP2 SWAP1 PUSH2 0x2B2E JUMP JUMPDEST SWAP1 POP PUSH0 DUP5 PUSH0 ADD DUP2 SWAP1 SSTORE POP PUSH1 0x2 PUSH0 SWAP1 SLOAD SWAP1 PUSH2 0x100 EXP SWAP1 DIV PUSH20 0xFFFFFFFFFFFFFFFFFFFFFFFFFFFFFFFFFFFFFFFF AND PUSH20 0xFFFFFFFFFFFFFFFFFFFFFFFFFFFFFFFFFFFFFFFF AND PUSH4 0x40C10F19 CALLER DUP4 PUSH1 0x40 MLOAD DUP4 PUSH4 0xFFFFFFFF AND PUSH1 0xE0 SHL DUP2 MSTORE PUSH1 0x4 ADD PUSH2 0x1733 SWAP3 SWAP2 SWAP1 PUSH2 0x2984 JUMP JUMPDEST PUSH0 PUSH1 0x40 MLOAD DUP1 DUP4 SUB DUP2 PUSH0 DUP8 DUP1 EXTCODESIZE ISZERO DUP1 ISZERO PUSH2 0x174A JUMPI PUSH0 PUSH0 REVERT JUMPDEST POP GAS CALL ISZERO DUP1 ISZERO PUSH2 0x175C JUMPI RETURNDATASIZE PUSH0 PUSH0 RETURNDATACOPY RETURNDATASIZE PUSH0 REVERT JUMPDEST POP POP POP POP CALLER PUSH20 0xFFFFFFFFFFFFFFFFFFFFFFFFFFFFFFFFFFFFFFFF AND PUSH32 0x8EC2A9ED236322C625516E43EAB59FCB8145E38EE8D489A28D0AACAEECC298D6 DUP3 PUSH1 0x40 MLOAD PUSH2 0x17A6 SWAP2 SWAP1 PUSH2 0x1F45 JUMP JUMPDEST PUSH1 0x40 MLOAD DUP1 SWAP2 SUB SWAP1 LOG2 POP POP POP POP PUSH2 0x17BA PUSH2 0x1D32 JUMP JUMPDEST JUMP JUMPDEST PUSH2 0x17C4 PUSH2 0x1CE3 JUMP JUMPDEST PUSH0 PUSH0 SWAP1 POP JUMPDEST DUP3 DUP3 SWAP1 POP DUP2 LT ISZERO PUSH2 0x1984 JUMPI PUSH0 DUP4 DUP4 DUP4 DUP2 DUP2 LT PUSH2 0x17E8 JUMPI PUSH2 0x17E7 PUSH2 0x2829 JUMP JUMPDEST JUMPDEST SWAP1 POP PUSH1 0x20 MUL ADD PUSH1 0x20 DUP2 ADD SWAP1 PUSH2 0x17FD SWAP2 SWAP1 PUSH2 0x1F0B JUMP JUMPDEST SWAP1 POP PUSH0 PUSH1 0x4 PUSH0 DUP4 PUSH20 0xFFFFFFFFFFFFFFFFFFFFFFFFFFFFFFFFFFFFFFFF AND PUSH20 0xFFFFFFFFFFFFFFFFFFFFFFFFFFFFFFFFFFFFFFFF AND DUP2 MSTORE PUSH1 0x20 ADD SWAP1 DUP2 MSTORE PUSH1 0x20 ADD PUSH0 KECCAK256 SWAP1 POP PUSH0 PUSH2 0x3E8 PUSH1 0x3 PUSH0 ADD PUSH1 0x14 SWAP1 SLOAD SWAP1 PUSH2 0x100 EXP SWAP1 DIV PUSH1 0xFF AND PUSH1 0xFF AND DUP4 PUSH0 ADD SLOAD PUSH2 0x1866 SWAP2 SWAP1 PUSH2 0x2B2E JUMP JUMPDEST PUSH2 0x1870 SWAP2 SWAP1 PUSH2 0x2B9C JUMP JUMPDEST SWAP1 POP PUSH0 PUSH2 0x187F DUP4 PUSH0 ADD SLOAD PUSH2 0x10E5 JUMP JUMPDEST SWAP1 POP PUSH0 DUP2 PUSH1 0xFF AND DUP4 PUSH2 0x1891 SWAP2 SWAP1 PUSH2 0x2B2E JUMP JUMPDEST SWAP1 POP PUSH0 DUP5 PUSH0 ADD DUP2 SWAP1 SSTORE POP PUSH1 0x2 PUSH0 SWAP1 SLOAD SWAP1 PUSH2 0x100 EXP SWAP1 DIV PUSH20 0xFFFFFFFFFFFFFFFFFFFFFFFFFFFFFFFFFFFFFFFF AND PUSH20 0xFFFFFFFFFFFFFFFFFFFFFFFFFFFFFFFFFFFFFFFF AND PUSH4 0x40C10F19 DUP7 DUP4 PUSH1 0x40 MLOAD DUP4 PUSH4 0xFFFFFFFF AND PUSH1 0xE0 SHL DUP2 MSTORE PUSH1 0x4 ADD PUSH2 0x18F7 SWAP3 SWAP2 SWAP1 PUSH2 0x2984 JUMP JUMPDEST PUSH0 PUSH1 0x40 MLOAD DUP1 DUP4 SUB DUP2 PUSH0 DUP8 DUP1 EXTCODESIZE ISZERO DUP1 ISZERO PUSH2 0x190E JUMPI PUSH0 PUSH0 REVERT JUMPDEST POP GAS CALL ISZERO DUP1 ISZERO PUSH2 0x1920 JUMPI RETURNDATASIZE PUSH0 PUSH0 RETURNDATACOPY RETURNDATASIZE PUSH0 REVERT JUMPDEST POP POP POP POP DUP5 PUSH20 0xFFFFFFFFFFFFFFFFFFFFFFFFFFFFFFFFFFFFFFFF AND PUSH32 0xFAF36C8625A33CCE6B8F49B647DEED99DBB0B8CC5A4E92C37A49C18EF4448389 DUP3 PUSH1 0x40 MLOAD PUSH2 0x196A SWAP2 SWAP1 PUSH2 0x1F45 JUMP JUMPDEST PUSH1 0x40 MLOAD DUP1 SWAP2 SUB SWAP1 LOG2 POP POP POP POP POP DUP1 DUP1 PUSH1 0x1 ADD SWAP2 POP POP PUSH2 0x17C9 JUMP JUMPDEST POP PUSH2 0x198D PUSH2 0x1D32 JUMP JUMPDEST POP POP JUMP JUMPDEST PUSH2 0x1999 PUSH2 0x1C5C JUMP JUMPDEST PUSH0 PUSH20 0xFFFFFFFFFFFFFFFFFFFFFFFFFFFFFFFFFFFFFFFF AND DUP2 PUSH20 0xFFFFFFFFFFFFFFFFFFFFFFFFFFFFFFFFFFFFFFFF AND SUB PUSH2 0x1A09 JUMPI PUSH0 PUSH1 0x40 MLOAD PUSH32 0x1E4FBDF700000000000000000000000000000000000000000000000000000000 DUP2 MSTORE PUSH1 0x4 ADD PUSH2 0x1A00 SWAP2 SWAP1 PUSH2 0x226B JUMP JUMPDEST PUSH1 0x40 MLOAD DUP1 SWAP2 SUB SWAP1 REVERT JUMPDEST PUSH2 0x1A12 DUP2 PUSH2 0x1D3B JUMP JUMPDEST POP JUMP JUMPDEST PUSH1 0x5 DUP1 PUSH0 CALLER PUSH20 0xFFFFFFFFFFFFFFFFFFFFFFFFFFFFFFFFFFFFFFFF AND PUSH20 0xFFFFFFFFFFFFFFFFFFFFFFFFFFFFFFFFFFFFFFFF AND DUP2 MSTORE PUSH1 0x20 ADD SWAP1 DUP2 MSTORE PUSH1 0x20 ADD PUSH0 KECCAK256 SLOAD TIMESTAMP PUSH2 0x1A5F SWAP2 SWAP1 PUSH2 0x2951 JUMP JUMPDEST LT ISZERO PUSH2 0x1AA0 JUMPI PUSH1 0x40 MLOAD PUSH32 0x8C379A000000000000000000000000000000000000000000000000000000000 DUP2 MSTORE PUSH1 0x4 ADD PUSH2 0x1A97 SWAP1 PUSH2 0x2CE6 JUMP JUMPDEST PUSH1 0x40 MLOAD DUP1 SWAP2 SUB SWAP1 REVERT JUMPDEST PUSH3 0xF4240 DUP2 GT DUP1 ISZERO PUSH2 0x1AFA JUMPI POP PUSH1 0xA PUSH1 0x5 PUSH0 CALLER PUSH20 0xFFFFFFFFFFFFFFFFFFFFFFFFFFFFFFFFFFFFFFFF AND PUSH20 0xFFFFFFFFFFFFFFFFFFFFFFFFFFFFFFFFFFFFFFFF AND DUP2 MSTORE PUSH1 0x20 ADD SWAP1 DUP2 MSTORE PUSH1 0x20 ADD PUSH0 KECCAK256 SLOAD TIMESTAMP PUSH2 0x1AF8 SWAP2 SWAP1 PUSH2 0x2951 JUMP JUMPDEST LT JUMPDEST ISZERO PUSH2 0x1B3A JUMPI PUSH1 0x40 MLOAD PUSH32 0x8C379A000000000000000000000000000000000000000000000000000000000 DUP2 MSTORE PUSH1 0x4 ADD PUSH2 0x1B31 SWAP1 PUSH2 0x2D4E JUMP JUMPDEST PUSH1 0x40 MLOAD DUP1 SWAP2 SUB SWAP1 REVERT JUMPDEST TIMESTAMP PUSH1 0x5 PUSH0 CALLER PUSH20 0xFFFFFFFFFFFFFFFFFFFFFFFFFFFFFFFFFFFFFFFF AND PUSH20 0xFFFFFFFFFFFFFFFFFFFFFFFFFFFFFFFFFFFFFFFF AND DUP2 MSTORE PUSH1 0x20 ADD SWAP1 DUP2 MSTORE PUSH1 0x20 ADD PUSH0 KECCAK256 DUP2 SWAP1 SSTORE POP PUSH0 PUSH1 0x4 PUSH0 CALLER PUSH20 0xFFFFFFFFFFFFFFFFFFFFFFFFFFFFFFFFFFFFFFFF AND PUSH20 0xFFFFFFFFFFFFFFFFFFFFFFFFFFFFFFFFFFFFFFFF AND DUP2 MSTORE PUSH1 0x20 ADD SWAP1 DUP2 MSTORE PUSH1 0x20 ADD PUSH0 KECCAK256 SWAP1 POP PUSH3 0x15180 DUP2 PUSH1 0x1 ADD SLOAD TIMESTAMP PUSH2 0x1BD0 SWAP2 SWAP1 PUSH2 0x2951 JUMP JUMPDEST LT PUSH2 0x1BE2 JUMPI DUP2 DUP2 PUSH0 ADD DUP2 SWAP1 SSTORE POP PUSH2 0x1BFC JUMP JUMPDEST DUP2 DUP2 PUSH0 ADD PUSH0 DUP3 DUP3 SLOAD PUSH2 0x1BF4 SWAP2 SWAP1 PUSH2 0x251C JUMP JUMPDEST SWAP3 POP POP DUP2 SWAP1 SSTORE POP JUMPDEST TIMESTAMP DUP2 PUSH1 0x1 ADD DUP2 SWAP1 SSTORE POP CALLER PUSH20 0xFFFFFFFFFFFFFFFFFFFFFFFFFFFFFFFFFFFFFFFF AND PUSH32 0xE1C33B09DE310B5512C81BA8E74DC8C0CFF829F9DE557C89F8EF10CBF8CA4D6E DUP4 DUP4 PUSH0 ADD SLOAD PUSH1 0x40 MLOAD PUSH2 0x1C50 SWAP3 SWAP2 SWAP1 PUSH2 0x2D6C JUMP JUMPDEST PUSH1 0x40 MLOAD DUP1 SWAP2 SUB SWAP1 LOG2 POP POP JUMP JUMPDEST PUSH2 0x1C64 PUSH2 0x1DFC JUMP JUMPDEST PUSH20 0xFFFFFFFFFFFFFFFFFFFFFFFFFFFFFFFFFFFFFFFF AND PUSH2 0x1C82 PUSH2 0x1295 JUMP JUMPDEST PUSH20 0xFFFFFFFFFFFFFFFFFFFFFFFFFFFFFFFFFFFFFFFF AND EQ PUSH2 0x1CE1 JUMPI PUSH2 0x1CA5 PUSH2 0x1DFC JUMP JUMPDEST PUSH1 0x40 MLOAD PUSH32 0x118CDAA700000000000000000000000000000000000000000000000000000000 DUP2 MSTORE PUSH1 0x4 ADD PUSH2 0x1CD8 SWAP2 SWAP1 PUSH2 0x226B JUMP JUMPDEST PUSH1 0x40 MLOAD DUP1 SWAP2 SUB SWAP1 REVERT JUMPDEST JUMP JUMPDEST PUSH1 0x2 PUSH1 0x1 SLOAD SUB PUSH2 0x1D28 JUMPI PUSH1 0x40 MLOAD PUSH32 0x8C379A000000000000000000000000000000000000000000000000000000000 DUP2 MSTORE PUSH1 0x4 ADD PUSH2 0x1D1F SWAP1 PUSH2 0x2DDD JUMP JUMPDEST PUSH1 0x40 MLOAD DUP1 SWAP2 SUB SWAP1 REVERT JUMPDEST PUSH1 0x2 PUSH1 0x1 DUP2 SWAP1 SSTORE POP JUMP JUMPDEST PUSH1 0x1 DUP1 DUP2 SWAP1 SSTORE POP JUMP JUMPDEST PUSH0 PUSH0 PUSH0 SWAP1 SLOAD SWAP1 PUSH2 0x100 EXP SWAP1 DIV PUSH20 0xFFFFFFFFFFFFFFFFFFFFFFFFFFFFFFFFFFFFFFFF AND SWAP1 POP DUP2 PUSH0 PUSH0 PUSH2 0x100 EXP DUP2 SLOAD DUP2 PUSH20 0xFFFFFFFFFFFFFFFFFFFFFFFFFFFFFFFFFFFFFFFF MUL NOT AND SWAP1 DUP4 PUSH20 0xFFFFFFFFFFFFFFFFFFFFFFFFFFFFFFFFFFFFFFFF AND MUL OR SWAP1 SSTORE POP DUP2 PUSH20 0xFFFFFFFFFFFFFFFFFFFFFFFFFFFFFFFFFFFFFFFF AND DUP2 PUSH20 0xFFFFFFFFFFFFFFFFFFFFFFFFFFFFFFFFFFFFFFFF AND PUSH32 0x8BE0079C531659141344CD1FD0A4F28419497F9722A3DAAFE3B4186F6B6457E0 PUSH1 0x40 MLOAD PUSH1 0x40 MLOAD DUP1 SWAP2 SUB SWAP1 LOG3 POP POP JUMP JUMPDEST PUSH0 CALLER SWAP1 POP SWAP1 JUMP JUMPDEST PUSH0 PUSH0 REVERT JUMPDEST PUSH0 PUSH0 REVERT JUMPDEST PUSH0 DUP2 SWAP1 POP SWAP2 SWAP1 POP JUMP JUMPDEST PUSH2 0x1E1D DUP2 PUSH2 0x1E0B JUMP JUMPDEST DUP2 EQ PUSH2 0x1E27 JUMPI PUSH0 PUSH0 REVERT JUMPDEST POP JUMP JUMPDEST PUSH0 DUP2 CALLDATALOAD SWAP1 POP PUSH2 0x1E38 DUP2 PUSH2 0x1E14 JUMP JUMPDEST SWAP3 SWAP2 POP POP JUMP JUMPDEST PUSH0 DUP2 ISZERO ISZERO SWAP1 POP SWAP2 SWAP1 POP JUMP JUMPDEST PUSH2 0x1E52 DUP2 PUSH2 0x1E3E JUMP JUMPDEST DUP2 EQ PUSH2 0x1E5C JUMPI PUSH0 PUSH0 REVERT JUMPDEST POP JUMP JUMPDEST PUSH0 DUP2 CALLDATALOAD SWAP1 POP PUSH2 0x1E6D DUP2 PUSH2 0x1E49 JUMP JUMPDEST SWAP3 SWAP2 POP POP JUMP JUMPDEST PUSH0 PUSH0 PUSH1 0x40 DUP4 DUP6 SUB SLT ISZERO PUSH2 0x1E89 JUMPI PUSH2 0x1E88 PUSH2 0x1E03 JUMP JUMPDEST JUMPDEST PUSH0 PUSH2 0x1E96 DUP6 DUP3 DUP7 ADD PUSH2 0x1E2A JUMP JUMPDEST SWAP3 POP POP PUSH1 0x20 PUSH2 0x1EA7 DUP6 DUP3 DUP7 ADD PUSH2 0x1E5F JUMP JUMPDEST SWAP2 POP POP SWAP3 POP SWAP3 SWAP1 POP JUMP JUMPDEST PUSH0 PUSH20 0xFFFFFFFFFFFFFFFFFFFFFFFFFFFFFFFFFFFFFFFF DUP3 AND SWAP1 POP SWAP2 SWAP1 POP JUMP JUMPDEST PUSH0 PUSH2 0x1EDA DUP3 PUSH2 0x1EB1 JUMP JUMPDEST SWAP1 POP SWAP2 SWAP1 POP JUMP JUMPDEST PUSH2 0x1EEA DUP2 PUSH2 0x1ED0 JUMP JUMPDEST DUP2 EQ PUSH2 0x1EF4 JUMPI PUSH0 PUSH0 REVERT JUMPDEST POP JUMP JUMPDEST PUSH0 DUP2 CALLDATALOAD SWAP1 POP PUSH2 0x1F05 DUP2 PUSH2 0x1EE1 JUMP JUMPDEST SWAP3 SWAP2 POP POP JUMP JUMPDEST PUSH0 PUSH1 0x20 DUP3 DUP5 SUB SLT ISZERO PUSH2 0x1F20 JUMPI PUSH2 0x1F1F PUSH2 0x1E03 JUMP JUMPDEST JUMPDEST PUSH0 PUSH2 0x1F2D DUP5 DUP3 DUP6 ADD PUSH2 0x1EF7 JUMP JUMPDEST SWAP2 POP POP SWAP3 SWAP2 POP POP JUMP JUMPDEST PUSH2 0x1F3F DUP2 PUSH2 0x1E0B JUMP JUMPDEST DUP3 MSTORE POP POP JUMP JUMPDEST PUSH0 PUSH1 0x20 DUP3 ADD SWAP1 POP PUSH2 0x1F58 PUSH0 DUP4 ADD DUP5 PUSH2 0x1F36 JUMP JUMPDEST SWAP3 SWAP2 POP POP JUMP JUMPDEST PUSH0 PUSH1 0xFF DUP3 AND SWAP1 POP SWAP2 SWAP1 POP JUMP JUMPDEST PUSH2 0x1F73 DUP2 PUSH2 0x1F5E JUMP JUMPDEST DUP2 EQ PUSH2 0x1F7D JUMPI PUSH0 PUSH0 REVERT JUMPDEST POP JUMP JUMPDEST PUSH0 DUP2 CALLDATALOAD SWAP1 POP PUSH2 0x1F8E DUP2 PUSH2 0x1F6A JUMP JUMPDEST SWAP3 SWAP2 POP POP JUMP JUMPDEST PUSH0 PUSH1 0x20 DUP3 DUP5 SUB SLT ISZERO PUSH2 0x1FA9 JUMPI PUSH2 0x1FA8 PUSH2 0x1E03 JUMP JUMPDEST JUMPDEST PUSH0 PUSH2 0x1FB6 DUP5 DUP3 DUP6 ADD PUSH2 0x1F80 JUMP JUMPDEST SWAP2 POP POP SWAP3 SWAP2 POP POP JUMP JUMPDEST PUSH0 PUSH0 PUSH0 PUSH0 PUSH1 0x80 DUP6 DUP8 SUB SLT ISZERO PUSH2 0x1FD7 JUMPI PUSH2 0x1FD6 PUSH2 0x1E03 JUMP JUMPDEST JUMPDEST PUSH0 PUSH2 0x1FE4 DUP8 DUP3 DUP9 ADD PUSH2 0x1E2A JUMP JUMPDEST SWAP5 POP POP PUSH1 0x20 PUSH2 0x1FF5 DUP8 DUP3 DUP9 ADD PUSH2 0x1F80 JUMP JUMPDEST SWAP4 POP POP PUSH1 0x40 PUSH2 0x2006 DUP8 DUP3 DUP9 ADD PUSH2 0x1E2A JUMP JUMPDEST SWAP3 POP POP PUSH1 0x60 PUSH2 0x2017 DUP8 DUP3 DUP9 ADD PUSH2 0x1E2A JUMP JUMPDEST SWAP2 POP POP SWAP3 SWAP6 SWAP2 SWAP5 POP SWAP3 POP JUMP JUMPDEST PUSH2 0x202C DUP2 PUSH2 0x1F5E JUMP JUMPDEST DUP3 MSTORE POP POP JUMP JUMPDEST PUSH0 PUSH1 0x20 DUP3 ADD SWAP1 POP PUSH2 0x2045 PUSH0 DUP4 ADD DUP5 PUSH2 0x2023 JUMP JUMPDEST SWAP3 SWAP2 POP POP JUMP JUMPDEST PUSH0 PUSH1 0x20 DUP3 DUP5 SUB SLT ISZERO PUSH2 0x2060 JUMPI PUSH2 0x205F PUSH2 0x1E03 JUMP JUMPDEST JUMPDEST PUSH0 PUSH2 0x206D DUP5 DUP3 DUP6 ADD PUSH2 0x1E2A JUMP JUMPDEST SWAP2 POP POP SWAP3 SWAP2 POP POP JUMP JUMPDEST PUSH0 PUSH0 REVERT JUMPDEST PUSH0 PUSH0 REVERT JUMPDEST PUSH0 PUSH0 REVERT JUMPDEST PUSH0 PUSH0 DUP4 PUSH1 0x1F DUP5 ADD SLT PUSH2 0x2097 JUMPI PUSH2 0x2096 PUSH2 0x2076 JUMP JUMPDEST JUMPDEST DUP3 CALLDATALOAD SWAP1 POP PUSH8 0xFFFFFFFFFFFFFFFF DUP2 GT ISZERO PUSH2 0x20B4 JUMPI PUSH2 0x20B3 PUSH2 0x207A JUMP JUMPDEST JUMPDEST PUSH1 0x20 DUP4 ADD SWAP2 POP DUP4 PUSH1 0x20 DUP3 MUL DUP4 ADD GT ISZERO PUSH2 0x20D0 JUMPI PUSH2 0x20CF PUSH2 0x207E JUMP JUMPDEST JUMPDEST SWAP3 POP SWAP3 SWAP1 POP JUMP JUMPDEST PUSH0 PUSH0 DUP4 PUSH1 0x1F DUP5 ADD SLT PUSH2 0x20EC JUMPI PUSH2 0x20EB PUSH2 0x2076 JUMP JUMPDEST JUMPDEST DUP3 CALLDATALOAD SWAP1 POP PUSH8 0xFFFFFFFFFFFFFFFF DUP2 GT ISZERO PUSH2 0x2109 JUMPI PUSH2 0x2108 PUSH2 0x207A JUMP JUMPDEST JUMPDEST PUSH1 0x20 DUP4 ADD SWAP2 POP DUP4 PUSH1 0x20 DUP3 MUL DUP4 ADD GT ISZERO PUSH2 0x2125 JUMPI PUSH2 0x2124 PUSH2 0x207E JUMP JUMPDEST JUMPDEST SWAP3 POP SWAP3 SWAP1 POP JUMP JUMPDEST PUSH0 PUSH0 PUSH0 PUSH0 PUSH1 0x40 DUP6 DUP8 SUB SLT ISZERO PUSH2 0x2144 JUMPI PUSH2 0x2143 PUSH2 0x1E03 JUMP JUMPDEST JUMPDEST PUSH0 DUP6 ADD CALLDATALOAD PUSH8 0xFFFFFFFFFFFFFFFF DUP2 GT ISZERO PUSH2 0x2161 JUMPI PUSH2 0x2160 PUSH2 0x1E07 JUMP JUMPDEST JUMPDEST PUSH2 0x216D DUP8 DUP3 DUP9 ADD PUSH2 0x2082 JUMP JUMPDEST SWAP5 POP SWAP5 POP POP PUSH1 0x20 DUP6 ADD CALLDATALOAD PUSH8 0xFFFFFFFFFFFFFFFF DUP2 GT ISZERO PUSH2 0x2190 JUMPI PUSH2 0x218F PUSH2 0x1E07 JUMP JUMPDEST JUMPDEST PUSH2 0x219C DUP8 DUP3 DUP9 ADD PUSH2 0x20D7 JUMP JUMPDEST SWAP3 POP SWAP3 POP POP SWAP3 SWAP6 SWAP2 SWAP5 POP SWAP3 POP JUMP JUMPDEST PUSH0 DUP2 SWAP1 POP SWAP2 SWAP1 POP JUMP JUMPDEST PUSH0 PUSH2 0x21CD PUSH2 0x21C8 PUSH2 0x21C3 DUP5 PUSH2 0x1EB1 JUMP JUMPDEST PUSH2 0x21AA JUMP JUMPDEST PUSH2 0x1EB1 JUMP JUMPDEST SWAP1 POP SWAP2 SWAP1 POP JUMP JUMPDEST PUSH0 PUSH2 0x21DE DUP3 PUSH2 0x21B3 JUMP JUMPDEST SWAP1 POP SWAP2 SWAP1 POP JUMP JUMPDEST PUSH0 PUSH2 0x21EF DUP3 PUSH2 0x21D4 JUMP JUMPDEST SWAP1 POP SWAP2 SWAP1 POP JUMP JUMPDEST PUSH2 0x21FF DUP2 PUSH2 0x21E5 JUMP JUMPDEST DUP3 MSTORE POP POP JUMP JUMPDEST PUSH0 PUSH1 0x20 DUP3 ADD SWAP1 POP PUSH2 0x2218 PUSH0 DUP4 ADD DUP5 PUSH2 0x21F6 JUMP JUMPDEST SWAP3 SWAP2 POP POP JUMP JUMPDEST PUSH0 PUSH0 PUSH1 0x40 DUP4 DUP6 SUB SLT ISZERO PUSH2 0x2234 JUMPI PUSH2 0x2233 PUSH2 0x1E03 JUMP JUMPDEST JUMPDEST PUSH0 PUSH2 0x2241 DUP6 DUP3 DUP7 ADD PUSH2 0x1F80 JUMP JUMPDEST SWAP3 POP POP PUSH1 0x20 PUSH2 0x2252 DUP6 DUP3 DUP7 ADD PUSH2 0x1F80 JUMP JUMPDEST SWAP2 POP POP SWAP3 POP SWAP3 SWAP1 POP JUMP JUMPDEST PUSH2 0x2265 DUP2 PUSH2 0x1ED0 JUMP JUMPDEST DUP3 MSTORE POP POP JUMP JUMPDEST PUSH0 PUSH1 0x20 DUP3 ADD SWAP1 POP PUSH2 0x227E PUSH0 DUP4 ADD DUP5 PUSH2 0x225C JUMP JUMPDEST SWAP3 SWAP2 POP POP JUMP JUMPDEST PUSH0 PUSH1 0x80 DUP3 ADD SWAP1 POP PUSH2 0x2297 PUSH0 DUP4 ADD DUP8 PUSH2 0x1F36 JUMP JUMPDEST PUSH2 0x22A4 PUSH1 0x20 DUP4 ADD DUP7 PUSH2 0x1F36 JUMP JUMPDEST PUSH2 0x22B1 PUSH1 0x40 DUP4 ADD DUP6 PUSH2 0x1F36 JUMP JUMPDEST PUSH2 0x22BE PUSH1 0x60 DUP4 ADD DUP5 PUSH2 0x1F36 JUMP JUMPDEST SWAP6 SWAP5 POP POP POP POP POP JUMP JUMPDEST PUSH2 0x22D0 DUP2 PUSH2 0x1E3E JUMP JUMPDEST DUP3 MSTORE POP POP JUMP JUMPDEST PUSH0 PUSH2 0x100 DUP3 ADD SWAP1 POP PUSH2 0x22EA PUSH0 DUP4 ADD DUP12 PUSH2 0x1F36 JUMP JUMPDEST PUSH2 0x22F7 PUSH1 0x20 DUP4 ADD DUP11 PUSH2 0x225C JUMP JUMPDEST PUSH2 0x2304 PUSH1 0x40 DUP4 ADD DUP10 PUSH2 0x2023 JUMP JUMPDEST PUSH2 0x2311 PUSH1 0x60 DUP4 ADD DUP9 PUSH2 0x1F36 JUMP JUMPDEST PUSH2 0x231E PUSH1 0x80 DUP4 ADD DUP8 PUSH2 0x1F36 JUMP JUMPDEST PUSH2 0x232B PUSH1 0xA0 DUP4 ADD DUP7 PUSH2 0x1F36 JUMP JUMPDEST PUSH2 0x2338 PUSH1 0xC0 DUP4 ADD DUP6 PUSH2 0x1F36 JUMP JUMPDEST PUSH2 0x2345 PUSH1 0xE0 DUP4 ADD DUP5 PUSH2 0x22C7 JUMP JUMPDEST SWAP10 SWAP9 POP POP POP POP POP POP POP POP POP JUMP JUMPDEST PUSH0 PUSH0 PUSH0 PUSH1 0x60 DUP5 DUP7 SUB SLT ISZERO PUSH2 0x2369 JUMPI PUSH2 0x2368 PUSH2 0x1E03 JUMP JUMPDEST JUMPDEST PUSH0 PUSH2 0x2376 DUP7 DUP3 DUP8 ADD PUSH2 0x1E2A JUMP JUMPDEST SWAP4 POP POP PUSH1 0x20 PUSH2 0x2387 DUP7 DUP3 DUP8 ADD PUSH2 0x1E2A JUMP JUMPDEST SWAP3 POP POP PUSH1 0x40 PUSH2 0x2398 DUP7 DUP3 DUP8 ADD PUSH2 0x1E2A JUMP JUMPDEST SWAP2 POP POP SWAP3 POP SWAP3 POP SWAP3 JUMP JUMPDEST PUSH0 PUSH1 0x60 DUP3 ADD SWAP1 POP PUSH2 0x23B5 PUSH0 DUP4 ADD DUP7 PUSH2 0x225C JUMP JUMPDEST PUSH2 0x23C2 PUSH1 0x20 DUP4 ADD DUP6 PUSH2 0x2023 JUMP JUMPDEST PUSH2 0x23CF PUSH1 0x40 DUP4 ADD DUP5 PUSH2 0x2023 JUMP JUMPDEST SWAP5 SWAP4 POP POP POP POP JUMP JUMPDEST PUSH0 PUSH0 DUP4 PUSH1 0x1F DUP5 ADD SLT PUSH2 0x23EC JUMPI PUSH2 0x23EB PUSH2 0x2076 JUMP JUMPDEST JUMPDEST DUP3 CALLDATALOAD SWAP1 POP PUSH8 0xFFFFFFFFFFFFFFFF DUP2 GT ISZERO PUSH2 0x2409 JUMPI PUSH2 0x2408 PUSH2 0x207A JUMP JUMPDEST JUMPDEST PUSH1 0x20 DUP4 ADD SWAP2 POP DUP4 PUSH1 0x20 DUP3 MUL DUP4 ADD GT ISZERO PUSH2 0x2425 JUMPI PUSH2 0x2424 PUSH2 0x207E JUMP JUMPDEST JUMPDEST SWAP3 POP SWAP3 SWAP1 POP JUMP JUMPDEST PUSH0 PUSH0 PUSH1 0x20 DUP4 DUP6 SUB SLT ISZERO PUSH2 0x2442 JUMPI PUSH2 0x2441 PUSH2 0x1E03 JUMP JUMPDEST JUMPDEST PUSH0 DUP4 ADD CALLDATALOAD PUSH8 0xFFFFFFFFFFFFFFFF DUP2 GT ISZERO PUSH2 0x245F JUMPI PUSH2 0x245E PUSH2 0x1E07 JUMP JUMPDEST JUMPDEST PUSH2 0x246B DUP6 DUP3 DUP7 ADD PUSH2 0x23D7 JUMP JUMPDEST SWAP3 POP SWAP3 POP POP SWAP3 POP SWAP3 SWAP1 POP JUMP JUMPDEST PUSH0 DUP3 DUP3 MSTORE PUSH1 0x20 DUP3 ADD SWAP1 POP SWAP3 SWAP2 POP POP JUMP JUMPDEST PUSH32 0x566F74696E6720706572696F64206F7665720000000000000000000000000000 PUSH0 DUP3 ADD MSTORE POP JUMP JUMPDEST PUSH0 PUSH2 0x24BB PUSH1 0x12 DUP4 PUSH2 0x2477 JUMP JUMPDEST SWAP2 POP PUSH2 0x24C6 DUP3 PUSH2 0x2487 JUMP JUMPDEST PUSH1 0x20 DUP3 ADD SWAP1 POP SWAP2 SWAP1 POP JUMP JUMPDEST PUSH0 PUSH1 0x20 DUP3 ADD SWAP1 POP DUP2 DUP2 SUB PUSH0 DUP4 ADD MSTORE PUSH2 0x24E8 DUP2 PUSH2 0x24AF JUMP JUMPDEST SWAP1 POP SWAP2 SWAP1 POP JUMP JUMPDEST PUSH32 0x4E487B7100000000000000000000000000000000000000000000000000000000 PUSH0 MSTORE PUSH1 0x11 PUSH1 0x4 MSTORE PUSH1 0x24 PUSH0 REVERT JUMPDEST PUSH0 PUSH2 0x2526 DUP3 PUSH2 0x1E0B JUMP JUMPDEST SWAP2 POP PUSH2 0x2531 DUP4 PUSH2 0x1E0B JUMP JUMPDEST SWAP3 POP DUP3 DUP3 ADD SWAP1 POP DUP1 DUP3 GT ISZERO PUSH2 0x2549 JUMPI PUSH2 0x2548 PUSH2 0x24EF JUMP JUMPDEST JUMPDEST SWAP3 SWAP2 POP POP JUMP JUMPDEST PUSH32 0x496E76616C696420726562617465207261746500000000000000000000000000 PUSH0 DUP3 ADD MSTORE POP JUMP JUMPDEST PUSH0 PUSH2 0x2583 PUSH1 0x13 DUP4 PUSH2 0x2477 JUMP JUMPDEST SWAP2 POP PUSH2 0x258E DUP3 PUSH2 0x254F JUMP JUMPDEST PUSH1 0x20 DUP3 ADD SWAP1 POP SWAP2 SWAP1 POP JUMP JUMPDEST PUSH0 PUSH1 0x20 DUP3 ADD SWAP1 POP DUP2 DUP2 SUB PUSH0 DUP4 ADD MSTORE PUSH2 0x25B0 DUP2 PUSH2 0x2577 JUMP JUMPDEST SWAP1 POP SWAP2 SWAP1 POP JUMP JUMPDEST PUSH32 0x50726F706F73616C20616C726561647920657869737473000000000000000000 PUSH0 DUP3 ADD MSTORE POP JUMP JUMPDEST PUSH0 PUSH2 0x25EB PUSH1 0x17 DUP4 PUSH2 0x2477 JUMP JUMPDEST SWAP2 POP PUSH2 0x25F6 DUP3 PUSH2 0x25B7 JUMP JUMPDEST PUSH1 0x20 DUP3 ADD SWAP1 POP SWAP2 SWAP1 POP JUMP JUMPDEST PUSH0 PUSH1 0x20 DUP3 ADD SWAP1 POP DUP2 DUP2 SUB PUSH0 DUP4 ADD MSTORE PUSH2 0x2618 DUP2 PUSH2 0x25DF JUMP JUMPDEST SWAP1 POP SWAP2 SWAP1 POP JUMP JUMPDEST PUSH0 PUSH1 0x80 DUP3 ADD SWAP1 POP PUSH2 0x2632 PUSH0 DUP4 ADD DUP8 PUSH2 0x1F36 JUMP JUMPDEST PUSH2 0x263F PUSH1 0x20 DUP4 ADD DUP7 PUSH2 0x225C JUMP JUMPDEST PUSH2 0x264C PUSH1 0x40 DUP4 ADD DUP6 PUSH2 0x1F36 JUMP JUMPDEST PUSH2 0x2659 PUSH1 0x60 DUP4 ADD DUP5 PUSH2 0x1F36 JUMP JUMPDEST SWAP6 SWAP5 POP POP POP POP POP JUMP JUMPDEST PUSH32 0x54696D65206C6F636B2061637469766500000000000000000000000000000000 PUSH0 DUP3 ADD MSTORE POP JUMP JUMPDEST PUSH0 PUSH2 0x2696 PUSH1 0x10 DUP4 PUSH2 0x2477 JUMP JUMPDEST SWAP2 POP PUSH2 0x26A1 DUP3 PUSH2 0x2662 JUMP JUMPDEST PUSH1 0x20 DUP3 ADD SWAP1 POP SWAP2 SWAP1 POP JUMP JUMPDEST PUSH0 PUSH1 0x20 DUP3 ADD SWAP1 POP DUP2 DUP2 SUB PUSH0 DUP4 ADD MSTORE PUSH2 0x26C3 DUP2 PUSH2 0x268A JUMP JUMPDEST SWAP1 POP SWAP2 SWAP1 POP JUMP JUMPDEST PUSH32 0x416C726561647920657865637574656400000000000000000000000000000000 PUSH0 DUP3 ADD MSTORE POP JUMP JUMPDEST PUSH0 PUSH2 0x26FE PUSH1 0x10 DUP4 PUSH2 0x2477 JUMP JUMPDEST SWAP2 POP PUSH2 0x2709 DUP3 PUSH2 0x26CA JUMP JUMPDEST PUSH1 0x20 DUP3 ADD SWAP1 POP SWAP2 SWAP1 POP JUMP JUMPDEST PUSH0 PUSH1 0x20 DUP3 ADD SWAP1 POP DUP2 DUP2 SUB PUSH0 DUP4 ADD MSTORE PUSH2 0x272B DUP2 PUSH2 0x26F2 JUMP JUMPDEST SWAP1 POP SWAP2 SWAP1 POP JUMP JUMPDEST PUSH32 0x44414F2070726F706F73616C2072656A65637465640000000000000000000000 PUSH0 DUP3 ADD MSTORE POP JUMP JUMPDEST PUSH0 PUSH2 0x2766 PUSH1 0x15 DUP4 PUSH2 0x2477 JUMP JUMPDEST SWAP2 POP PUSH2 0x2771 DUP3 PUSH2 0x2732 JUMP JUMPDEST PUSH1 0x20 DUP3 ADD SWAP1 POP SWAP2 SWAP1 POP JUMP JUMPDEST PUSH0 PUSH1 0x20 DUP3 ADD SWAP1 POP DUP2 DUP2 SUB PUSH0 DUP4 ADD MSTORE PUSH2 0x2793 DUP2 PUSH2 0x275A JUMP JUMPDEST SWAP1 POP SWAP2 SWAP1 POP JUMP JUMPDEST PUSH0 PUSH1 0x40 DUP3 ADD SWAP1 POP PUSH2 0x27AD PUSH0 DUP4 ADD DUP6 PUSH2 0x1F36 JUMP JUMPDEST PUSH2 0x27BA PUSH1 0x20 DUP4 ADD DUP5 PUSH2 0x2023 JUMP JUMPDEST SWAP4 SWAP3 POP POP POP JUMP JUMPDEST PUSH32 0x4D69736D61746368656420696E70757473000000000000000000000000000000 PUSH0 DUP3 ADD MSTORE POP JUMP JUMPDEST PUSH0 PUSH2 0x27F5 PUSH1 0x11 DUP4 PUSH2 0x2477 JUMP JUMPDEST SWAP2 POP PUSH2 0x2800 DUP3 PUSH2 0x27C1 JUMP JUMPDEST PUSH1 0x20 DUP3 ADD SWAP1 POP SWAP2 SWAP1 POP JUMP JUMPDEST PUSH0 PUSH1 0x20 DUP3 ADD SWAP1 POP DUP2 DUP2 SUB PUSH0 DUP4 ADD MSTORE PUSH2 0x2822 DUP2 PUSH2 0x27E9 JUMP JUMPDEST SWAP1 POP SWAP2 SWAP1 POP JUMP JUMPDEST PUSH32 0x4E487B7100000000000000000000000000000000000000000000000000000000 PUSH0 MSTORE PUSH1 0x32 PUSH1 0x4 MSTORE PUSH1 0x24 PUSH0 REVERT JUMPDEST PUSH32 0x566F74696E6720706572696F64206F76657220666F722070726F706F73616C00 PUSH0 DUP3 ADD MSTORE POP JUMP JUMPDEST PUSH0 PUSH2 0x288A PUSH1 0x1F DUP4 PUSH2 0x2477 JUMP JUMPDEST SWAP2 POP PUSH2 0x2895 DUP3 PUSH2 0x2856 JUMP JUMPDEST PUSH1 0x20 DUP3 ADD SWAP1 POP SWAP2 SWAP1 POP JUMP JUMPDEST PUSH0 PUSH1 0x20 DUP3 ADD SWAP1 POP DUP2 DUP2 SUB PUSH0 DUP4 ADD MSTORE PUSH2 0x28B7 DUP2 PUSH2 0x287E JUMP JUMPDEST SWAP1 POP SWAP2 SWAP1 POP JUMP JUMPDEST PUSH0 PUSH1 0x20 DUP3 DUP5 SUB SLT ISZERO PUSH2 0x28D3 JUMPI PUSH2 0x28D2 PUSH2 0x1E03 JUMP JUMPDEST JUMPDEST PUSH0 PUSH2 0x28E0 DUP5 DUP3 DUP6 ADD PUSH2 0x1E5F JUMP JUMPDEST SWAP2 POP POP SWAP3 SWAP2 POP POP JUMP JUMPDEST PUSH32 0x496E73756666696369656E74207374616B656420746F6B656E73000000000000 PUSH0 DUP3 ADD MSTORE POP JUMP JUMPDEST PUSH0 PUSH2 0x291D PUSH1 0x1A DUP4 PUSH2 0x2477 JUMP JUMPDEST SWAP2 POP PUSH2 0x2928 DUP3 PUSH2 0x28E9 JUMP JUMPDEST PUSH1 0x20 DUP3 ADD SWAP1 POP SWAP2 SWAP1 POP JUMP JUMPDEST PUSH0 PUSH1 0x20 DUP3 ADD SWAP1 POP DUP2 DUP2 SUB PUSH0 DUP4 ADD MSTORE PUSH2 0x294A DUP2 PUSH2 0x2911 JUMP JUMPDEST SWAP1 POP SWAP2 SWAP1 POP JUMP JUMPDEST PUSH0 PUSH2 0x295B DUP3 PUSH2 0x1E0B JUMP JUMPDEST SWAP2 POP PUSH2 0x2966 DUP4 PUSH2 0x1E0B JUMP JUMPDEST SWAP3 POP DUP3 DUP3 SUB SWAP1 POP DUP2 DUP2 GT ISZERO PUSH2 0x297E JUMPI PUSH2 0x297D PUSH2 0x24EF JUMP JUMPDEST JUMPDEST SWAP3 SWAP2 POP POP JUMP JUMPDEST PUSH0 PUSH1 0x40 DUP3 ADD SWAP1 POP PUSH2 0x2997 PUSH0 DUP4 ADD DUP6 PUSH2 0x225C JUMP JUMPDEST PUSH2 0x29A4 PUSH1 0x20 DUP4 ADD DUP5 PUSH2 0x1F36 JUMP JUMPDEST SWAP4 SWAP3 POP POP POP JUMP JUMPDEST PUSH0 DUP2 MLOAD SWAP1 POP PUSH2 0x29B9 DUP2 PUSH2 0x1E49 JUMP JUMPDEST SWAP3 SWAP2 POP POP JUMP JUMPDEST PUSH0 PUSH1 0x20 DUP3 DUP5 SUB SLT ISZERO PUSH2 0x29D4 JUMPI PUSH2 0x29D3 PUSH2 0x1E03 JUMP JUMPDEST JUMPDEST PUSH0 PUSH2 0x29E1 DUP5 DUP3 DUP6 ADD PUSH2 0x29AB JUMP JUMPDEST SWAP2 POP POP SWAP3 SWAP2 POP POP JUMP JUMPDEST PUSH32 0x546F6B656E207472616E73666572206661696C65640000000000000000000000 PUSH0 DUP3 ADD MSTORE POP JUMP JUMPDEST PUSH0 PUSH2 0x2A1E PUSH1 0x15 DUP4 PUSH2 0x2477 JUMP JUMPDEST SWAP2 POP PUSH2 0x2A29 DUP3 PUSH2 0x29EA JUMP JUMPDEST PUSH1 0x20 DUP3 ADD SWAP1 POP SWAP2 SWAP1 POP JUMP JUMPDEST PUSH0 PUSH1 0x20 DUP3 ADD SWAP1 POP DUP2 DUP2 SUB PUSH0 DUP4 ADD MSTORE PUSH2 0x2A4B DUP2 PUSH2 0x2A12 JUMP JUMPDEST SWAP1 POP SWAP2 SWAP1 POP JUMP JUMPDEST PUSH0 DUP2 MLOAD SWAP1 POP PUSH2 0x2A60 DUP2 PUSH2 0x1E14 JUMP JUMPDEST SWAP3 SWAP2 POP POP JUMP JUMPDEST PUSH0 PUSH1 0x20 DUP3 DUP5 SUB SLT ISZERO PUSH2 0x2A7B JUMPI PUSH2 0x2A7A PUSH2 0x1E03 JUMP JUMPDEST JUMPDEST PUSH0 PUSH2 0x2A88 DUP5 DUP3 DUP6 ADD PUSH2 0x2A52 JUMP JUMPDEST SWAP2 POP POP SWAP3 SWAP2 POP POP JUMP JUMPDEST PUSH32 0x466C617368206C6F616E20646574656374656400000000000000000000000000 PUSH0 DUP3 ADD MSTORE POP JUMP JUMPDEST PUSH0 PUSH2 0x2AC5 PUSH1 0x13 DUP4 PUSH2 0x2477 JUMP JUMPDEST SWAP2 POP PUSH2 0x2AD0 DUP3 PUSH2 0x2A91 JUMP JUMPDEST PUSH1 0x20 DUP3 ADD SWAP1 POP SWAP2 SWAP1 POP JUMP JUMPDEST PUSH0 PUSH1 0x20 DUP3 ADD SWAP1 POP DUP2 DUP2 SUB PUSH0 DUP4 ADD MSTORE PUSH2 0x2AF2 DUP2 PUSH2 0x2AB9 JUMP JUMPDEST SWAP1 POP SWAP2 SWAP1 POP JUMP JUMPDEST PUSH0 PUSH1 0x60 DUP3 ADD SWAP1 POP PUSH2 0x2B0C PUSH0 DUP4 ADD DUP7 PUSH2 0x225C JUMP JUMPDEST PUSH2 0x2B19 PUSH1 0x20 DUP4 ADD DUP6 PUSH2 0x225C JUMP JUMPDEST PUSH2 0x2B26 PUSH1 0x40 DUP4 ADD DUP5 PUSH2 0x1F36 JUMP JUMPDEST SWAP5 SWAP4 POP POP POP POP JUMP JUMPDEST PUSH0 PUSH2 0x2B38 DUP3 PUSH2 0x1E0B JUMP JUMPDEST SWAP2 POP PUSH2 0x2B43 DUP4 PUSH2 0x1E0B JUMP JUMPDEST SWAP3 POP DUP3 DUP3 MUL PUSH2 0x2B51 DUP2 PUSH2 0x1E0B JUMP JUMPDEST SWAP2 POP DUP3 DUP3 DIV DUP5 EQ DUP4 ISZERO OR PUSH2 0x2B68 JUMPI PUSH2 0x2B67 PUSH2 0x24EF JUMP JUMPDEST JUMPDEST POP SWAP3 SWAP2 POP POP JUMP JUMPDEST PUSH32 0x4E487B7100000000000000000000000000000000000000000000000000000000 PUSH0 MSTORE PUSH1 0x12 PUSH1 0x4 MSTORE PUSH1 0x24 PUSH0 REVERT JUMPDEST PUSH0 PUSH2 0x2BA6 DUP3 PUSH2 0x1E0B JUMP JUMPDEST SWAP2 POP PUSH2 0x2BB1 DUP4 PUSH2 0x1E0B JUMP JUMPDEST SWAP3 POP DUP3 PUSH2 0x2BC1 JUMPI PUSH2 0x2BC0 PUSH2 0x2B6F JUMP JUMPDEST JUMPDEST DUP3 DUP3 DIV SWAP1 POP SWAP3 SWAP2 POP POP JUMP JUMPDEST PUSH32 0x4E6F20746F6B656E7320617661696C61626C6500000000000000000000000000 PUSH0 DUP3 ADD MSTORE POP JUMP JUMPDEST PUSH0 PUSH2 0x2C00 PUSH1 0x13 DUP4 PUSH2 0x2477 JUMP JUMPDEST SWAP2 POP PUSH2 0x2C0B DUP3 PUSH2 0x2BCC JUMP JUMPDEST PUSH1 0x20 DUP3 ADD SWAP1 POP SWAP2 SWAP1 POP JUMP JUMPDEST PUSH0 PUSH1 0x20 DUP3 ADD SWAP1 POP DUP2 DUP2 SUB PUSH0 DUP4 ADD MSTORE PUSH2 0x2C2D DUP2 PUSH2 0x2BF4 JUMP JUMPDEST SWAP1 POP SWAP2 SWAP1 POP JUMP JUMPDEST PUSH32 0x4275726E207472616E73666572206661696C6564000000000000000000000000 PUSH0 DUP3 ADD MSTORE POP JUMP JUMPDEST PUSH0 PUSH2 0x2C68 PUSH1 0x14 DUP4 PUSH2 0x2477 JUMP JUMPDEST SWAP2 POP PUSH2 0x2C73 DUP3 PUSH2 0x2C34 JUMP JUMPDEST PUSH1 0x20 DUP3 ADD SWAP1 POP SWAP2 SWAP1 POP JUMP JUMPDEST PUSH0 PUSH1 0x20 DUP3 ADD SWAP1 POP DUP2 DUP2 SUB PUSH0 DUP4 ADD MSTORE PUSH2 0x2C95 DUP2 PUSH2 0x2C5C JUMP JUMPDEST SWAP1 POP SWAP2 SWAP1 POP JUMP JUMPDEST PUSH32 0x5472616465732061726520746F6F206672657175656E74000000000000000000 PUSH0 DUP3 ADD MSTORE POP JUMP JUMPDEST PUSH0 PUSH2 0x2CD0 PUSH1 0x17 DUP4 PUSH2 0x2477 JUMP JUMPDEST SWAP2 POP PUSH2 0x2CDB DUP3 PUSH2 0x2C9C JUMP JUMPDEST PUSH1 0x20 DUP3 ADD SWAP1 POP SWAP2 SWAP1 POP JUMP JUMPDEST PUSH0 PUSH1 0x20 DUP3 ADD SWAP1 POP DUP2 DUP2 SUB PUSH0 DUP4 ADD MSTORE PUSH2 0x2CFD DUP2 PUSH2 0x2CC4 JUMP JUMPDEST SWAP1 POP SWAP2 SWAP1 POP JUMP JUMPDEST PUSH32 0x506F74656E7469616C20776173682074726164696E6720646574656374656400 PUSH0 DUP3 ADD MSTORE POP JUMP JUMPDEST PUSH0 PUSH2 0x2D38 PUSH1 0x1F DUP4 PUSH2 0x2477 JUMP JUMPDEST SWAP2 POP PUSH2 0x2D43 DUP3 PUSH2 0x2D04 JUMP JUMPDEST PUSH1 0x20 DUP3 ADD SWAP1 POP SWAP2 SWAP1 POP JUMP JUMPDEST PUSH0 PUSH1 0x20 DUP3 ADD SWAP1 POP DUP2 DUP2 SUB PUSH0 DUP4 ADD MSTORE PUSH2 0x2D65 DUP2 PUSH2 0x2D2C JUMP JUMPDEST SWAP1 POP SWAP2 SWAP1 POP JUMP JUMPDEST PUSH0 PUSH1 0x40 DUP3 ADD SWAP1 POP PUSH2 0x2D7F PUSH0 DUP4 ADD DUP6 PUSH2 0x1F36 JUMP JUMPDEST PUSH2 0x2D8C PUSH1 0x20 DUP4 ADD DUP5 PUSH2 0x1F36 JUMP JUMPDEST SWAP4 SWAP3 POP POP POP JUMP JUMPDEST PUSH32 0x5265656E7472616E637947756172643A207265656E7472616E742063616C6C00 PUSH0 DUP3 ADD MSTORE POP JUMP JUMPDEST PUSH0 PUSH2 0x2DC7 PUSH1 0x1F DUP4 PUSH2 0x2477 JUMP JUMPDEST SWAP2 POP PUSH2 0x2DD2 DUP3 PUSH2 0x2D93 JUMP JUMPDEST PUSH1 0x20 DUP3 ADD SWAP1 POP SWAP2 SWAP1 POP JUMP JUMPDEST PUSH0 PUSH1 0x20 DUP3 ADD SWAP1 POP DUP2 DUP2 SUB PUSH0 DUP4 ADD MSTORE PUSH2 0x2DF4 DUP2 PUSH2 0x2DBB JUMP JUMPDEST SWAP1 POP SWAP2 SWAP1 POP JUMP INVALID LOG2 PUSH5 0x6970667358 0x22 SLT KECCAK256 SHR PUSH10 0x2970BCFDE657EC77F5A9 PC RETURNDATACOPY TSTORE LOG3 DUP7 0xD6 0xAC PUSH20 0x50CD000162E482DA8E84A59A64736F6C63430008 SHR STOP CALLER "
				},
				"gasEstimates": {
					"creation": {
						"codeDepositCost": "2365000",
						"executionCost": "infinite",
						"totalCost": "infinite"
					},
					"external": {
						"autoCompound()": "infinite",
						"batchClaimRebate(address[])": "infinite",
						"batchVoteDAOProposal(uint256[],bool[])": "infinite",
						"buyBackAndBurn()": "infinite",
						"calculateDynamicUnstakePenalty(uint256,uint256,uint256)": "infinite",
						"calculateRebateMultiplier(uint256)": "724",
						"claimRebate()": "infinite",
						"createDAOProposal(uint256,uint8,uint256,uint256)": "infinite",
						"daoProposals(uint256)": "infinite",
						"executeDAOProposal(uint256)": "infinite",
						"feeDiscount()": "2629",
						"getExecutionPriority(address)": "infinite",
						"governanceConfig()": "infinite",
						"hfrtToken()": "infinite",
						"initializeGovernance(uint8,uint8)": "infinite",
						"lastStakeTime(address)": "2825",
						"lastTradeTime(address)": "2848",
						"owner()": "2603",
						"recordTrade(uint256)": "infinite",
						"renounceOwnership()": "infinite",
						"stakeTokens(uint256)": "infinite",
						"traders(address)": "infinite",
						"transferOwnership(address)": "infinite",
						"unstakeTokens(uint256)": "infinite",
						"updateRebateRate(uint8)": "infinite",
						"voteDAOProposal(uint256,bool)": "infinite"
					}
				},
				"methodIdentifiers": {
					"autoCompound()": "821c0576",
					"batchClaimRebate(address[])": "ebf959e4",
					"batchVoteDAOProposal(uint256[],bool[])": "552e2edf",
					"buyBackAndBurn()": "c970e99f",
					"calculateDynamicUnstakePenalty(uint256,uint256,uint256)": "a789b01f",
					"calculateRebateMultiplier(uint256)": "8201b3f3",
					"claimRebate()": "cda3948f",
					"createDAOProposal(uint256,uint8,uint256,uint256)": "1896b1af",
					"daoProposals(uint256)": "a43fde3a",
					"executeDAOProposal(uint256)": "46c3469e",
					"feeDiscount()": "3ffcf5ab",
					"getExecutionPriority(address)": "72bf1747",
					"governanceConfig()": "a9ed3d29",
					"hfrtToken()": "5cc78faf",
					"initializeGovernance(uint8,uint8)": "5f292cd7",
					"lastStakeTime(address)": "7bb1ca19",
					"lastTradeTime(address)": "03186eef",
					"owner()": "8da5cb5b",
					"recordTrade(uint256)": "feb8b43b",
					"renounceOwnership()": "715018a6",
					"stakeTokens(uint256)": "7547c7a3",
					"traders(address)": "92a88fa2",
					"transferOwnership(address)": "f2fde38b",
					"unstakeTokens(uint256)": "608e4dd0",
					"updateRebateRate(uint8)": "0f573a73",
					"voteDAOProposal(uint256,bool)": "01b3e625"
				}
			},
			"storageLayout": {
				"storage": [
					{
						"astId": 8,
						"contract": "contracts/HFRebtateToken.sol:HFRebtateToken",
						"label": "_owner",
						"offset": 0,
						"slot": "0",
						"type": "t_address"
					},
					{
						"astId": 158,
						"contract": "contracts/HFRebtateToken.sol:HFRebtateToken",
						"label": "_status",
						"offset": 0,
						"slot": "1",
						"type": "t_uint256"
					},
					{
						"astId": 344,
						"contract": "contracts/HFRebtateToken.sol:HFRebtateToken",
						"label": "hfrtToken",
						"offset": 0,
						"slot": "2",
						"type": "t_contract(IERC20Mintable)336"
					},
					{
						"astId": 346,
						"contract": "contracts/HFRebtateToken.sol:HFRebtateToken",
						"label": "feeDiscount",
						"offset": 20,
						"slot": "2",
						"type": "t_uint8"
					},
					{
						"astId": 356,
						"contract": "contracts/HFRebtateToken.sol:HFRebtateToken",
						"label": "governanceConfig",
						"offset": 0,
						"slot": "3",
						"type": "t_struct(GovernanceConfig)353_storage"
					},
					{
						"astId": 370,
						"contract": "contracts/HFRebtateToken.sol:HFRebtateToken",
						"label": "traders",
						"offset": 0,
						"slot": "4",
						"type": "t_mapping(t_address,t_struct(Trader)365_storage)"
					},
					{
						"astId": 374,
						"contract": "contracts/HFRebtateToken.sol:HFRebtateToken",
						"label": "lastTradeTime",
						"offset": 0,
						"slot": "5",
						"type": "t_mapping(t_address,t_uint256)"
					},
					{
						"astId": 378,
						"contract": "contracts/HFRebtateToken.sol:HFRebtateToken",
						"label": "lastStakeTime",
						"offset": 0,
						"slot": "6",
						"type": "t_mapping(t_address,t_uint256)"
					},
					{
						"astId": 400,
						"contract": "contracts/HFRebtateToken.sol:HFRebtateToken",
						"label": "daoProposals",
						"offset": 0,
						"slot": "7",
						"type": "t_mapping(t_uint256,t_struct(DAOProposal)395_storage)"
					}
				],
				"types": {
					"t_address": {
						"encoding": "inplace",
						"label": "address",
						"numberOfBytes": "20"
					},
					"t_bool": {
						"encoding": "inplace",
						"label": "bool",
						"numberOfBytes": "1"
					},
					"t_contract(IERC20Mintable)336": {
						"encoding": "inplace",
						"label": "contract IERC20Mintable",
						"numberOfBytes": "20"
					},
					"t_mapping(t_address,t_struct(Trader)365_storage)": {
						"encoding": "mapping",
						"key": "t_address",
						"label": "mapping(address => struct HFRebtateToken.Trader)",
						"numberOfBytes": "32",
						"value": "t_struct(Trader)365_storage"
					},
					"t_mapping(t_address,t_uint256)": {
						"encoding": "mapping",
						"key": "t_address",
						"label": "mapping(address => uint256)",
						"numberOfBytes": "32",
						"value": "t_uint256"
					},
					"t_mapping(t_uint256,t_struct(DAOProposal)395_storage)": {
						"encoding": "mapping",
						"key": "t_uint256",
						"label": "mapping(uint256 => struct HFRebtateToken.DAOProposal)",
						"numberOfBytes": "32",
						"value": "t_struct(DAOProposal)395_storage"
					},
					"t_struct(DAOProposal)395_storage": {
						"encoding": "inplace",
						"label": "struct HFRebtateToken.DAOProposal",
						"members": [
							{
								"astId": 380,
								"contract": "contracts/HFRebtateToken.sol:HFRebtateToken",
								"label": "proposalId",
								"offset": 0,
								"slot": "0",
								"type": "t_uint256"
							},
							{
								"astId": 382,
								"contract": "contracts/HFRebtateToken.sol:HFRebtateToken",
								"label": "proposer",
								"offset": 0,
								"slot": "1",
								"type": "t_address"
							},
							{
								"astId": 384,
								"contract": "contracts/HFRebtateToken.sol:HFRebtateToken",
								"label": "newFeeDiscount",
								"offset": 20,
								"slot": "1",
								"type": "t_uint8"
							},
							{
								"astId": 386,
								"contract": "contracts/HFRebtateToken.sol:HFRebtateToken",
								"label": "votesFor",
								"offset": 0,
								"slot": "2",
								"type": "t_uint256"
							},
							{
								"astId": 388,
								"contract": "contracts/HFRebtateToken.sol:HFRebtateToken",
								"label": "votesAgainst",
								"offset": 0,
								"slot": "3",
								"type": "t_uint256"
							},
							{
								"astId": 390,
								"contract": "contracts/HFRebtateToken.sol:HFRebtateToken",
								"label": "votingDeadline",
								"offset": 0,
								"slot": "4",
								"type": "t_uint256"
							},
							{
								"astId": 392,
								"contract": "contracts/HFRebtateToken.sol:HFRebtateToken",
								"label": "executionTime",
								"offset": 0,
								"slot": "5",
								"type": "t_uint256"
							},
							{
								"astId": 394,
								"contract": "contracts/HFRebtateToken.sol:HFRebtateToken",
								"label": "executed",
								"offset": 0,
								"slot": "6",
								"type": "t_bool"
							}
						],
						"numberOfBytes": "224"
					},
					"t_struct(GovernanceConfig)353_storage": {
						"encoding": "inplace",
						"label": "struct HFRebtateToken.GovernanceConfig",
						"members": [
							{
								"astId": 348,
								"contract": "contracts/HFRebtateToken.sol:HFRebtateToken",
								"label": "authority",
								"offset": 0,
								"slot": "0",
								"type": "t_address"
							},
							{
								"astId": 350,
								"contract": "contracts/HFRebtateToken.sol:HFRebtateToken",
								"label": "rebateRate",
								"offset": 20,
								"slot": "0",
								"type": "t_uint8"
							},
							{
								"astId": 352,
								"contract": "contracts/HFRebtateToken.sol:HFRebtateToken",
								"label": "maxFeeDiscount",
								"offset": 21,
								"slot": "0",
								"type": "t_uint8"
							}
						],
						"numberOfBytes": "32"
					},
					"t_struct(Trader)365_storage": {
						"encoding": "inplace",
						"label": "struct HFRebtateToken.Trader",
						"members": [
							{
								"astId": 358,
								"contract": "contracts/HFRebtateToken.sol:HFRebtateToken",
								"label": "rollingVolume",
								"offset": 0,
								"slot": "0",
								"type": "t_uint256"
							},
							{
								"astId": 360,
								"contract": "contracts/HFRebtateToken.sol:HFRebtateToken",
								"label": "lastTradeUpdate",
								"offset": 0,
								"slot": "1",
								"type": "t_uint256"
							},
							{
								"astId": 362,
								"contract": "contracts/HFRebtateToken.sol:HFRebtateToken",
								"label": "stakedAmount",
								"offset": 0,
								"slot": "2",
								"type": "t_uint256"
							},
							{
								"astId": 364,
								"contract": "contracts/HFRebtateToken.sol:HFRebtateToken",
								"label": "stakeStartTime",
								"offset": 0,
								"slot": "3",
								"type": "t_uint256"
							}
						],
						"numberOfBytes": "128"
					},
					"t_uint256": {
						"encoding": "inplace",
						"label": "uint256",
						"numberOfBytes": "32"
					},
					"t_uint8": {
						"encoding": "inplace",
						"label": "uint8",
						"numberOfBytes": "1"
					}
				}
			},
			"userdoc": {
				"kind": "user",
				"methods": {
					"autoCompound()": {
						"notice": "Auto-compounds staking rewards by minting rebate tokens to the contract and adding them to the trader's staked amount."
					},
					"batchClaimRebate(address[])": {
						"notice": "Batch claim rebates for an array of trader addresses."
					},
					"batchVoteDAOProposal(uint256[],bool[])": {
						"notice": "Batch votes on multiple DAO proposals."
					},
					"buyBackAndBurn()": {
						"notice": "Executes a buy-back and burn of 10% of the tokens held by this contract. Only callable by the owner."
					},
					"calculateDynamicUnstakePenalty(uint256,uint256,uint256)": {
						"notice": "Calculates a dynamic unstake penalty based on staking duration. Penalty: 10% if staked less than 7 days, 5% if less than 14 days, 2% otherwise."
					},
					"calculateRebateMultiplier(uint256)": {
						"notice": "Calculates a multiplier for the rebate based on 24‑hour trading volume."
					},
					"claimRebate()": {
						"notice": "Claims an HFRT rebate based on the recorded 24‑hour trading volume. The rebate is computed using the governance rebate rate and a volume multiplier."
					},
					"constructor": {
						"notice": "Constructor sets the token address and initial fee discount. The Ownable constructor is called with msg.sender as the initial owner."
					},
					"createDAOProposal(uint256,uint8,uint256,uint256)": {
						"notice": "Creates a new DAO proposal to update the fee discount."
					},
					"executeDAOProposal(uint256)": {
						"notice": "Executes a DAO proposal if it has passed and the time lock has expired."
					},
					"getExecutionPriority(address)": {
						"notice": "Returns an execution priority based on the trader's HFRT token balance. Lower numbers indicate higher priority."
					},
					"initializeGovernance(uint8,uint8)": {
						"notice": "Initializes the governance configuration."
					},
					"recordTrade(uint256)": {
						"notice": "Records a trade by updating the trader’s 24‑hour rolling volume. Applies a trade cooldown (minimum 5 seconds) and checks for potential wash trading."
					},
					"stakeTokens(uint256)": {
						"notice": "Stakes HFRT tokens by transferring them from the trader to this contract. Uses a flash loan prevention mechanism (stake lockup of 1 day)."
					},
					"unstakeTokens(uint256)": {
						"notice": "Unstakes HFRT tokens and applies a dynamic unstake penalty based on staking duration."
					},
					"updateRebateRate(uint8)": {
						"notice": "Updates the rebate rate. Only callable by the owner (governance authority)."
					},
					"voteDAOProposal(uint256,bool)": {
						"notice": "Votes on an existing DAO proposal."
					}
				},
				"version": 1
			}
		}
	}
}